{
  "_format": "hh-sol-artifact-1",
  "contractName": "Platform",
  "sourceName": "contracts/Platform.sol",
  "abi": [
    {
      "inputs": [
        {
          "internalType": "uint256",
          "name": "_rewardsForProposal",
          "type": "uint256"
        },
        {
          "internalType": "uint256",
          "name": "_pricePerToken",
          "type": "uint256"
        },
        {
          "internalType": "bytes32",
          "name": "_encryptionKey",
          "type": "bytes32"
        }
      ],
      "stateMutability": "nonpayable",
      "type": "constructor"
    },
    {
      "inputs": [],
      "name": "AccountIsEncryptor",
      "type": "error"
    },
    {
      "inputs": [],
      "name": "AccountIsReporter",
      "type": "error"
    },
    {
      "inputs": [],
      "name": "AccountNotEncryptor",
      "type": "error"
    },
    {
      "inputs": [],
      "name": "AccountNotReporter",
      "type": "error"
    },
    {
      "inputs": [],
      "name": "AlreadyVoted",
      "type": "error"
    },
    {
      "inputs": [],
      "name": "AmountCannotBeZero",
      "type": "error"
    },
    {
      "inputs": [],
      "name": "AmountMustMatchValueExactly",
      "type": "error"
    },
    {
      "inputs": [],
      "name": "ArtistAlreadyRegistered",
      "type": "error"
    },
    {
      "inputs": [],
      "name": "ArtistDoesNotOwnSong",
      "type": "error"
    },
    {
      "inputs": [],
      "name": "ArtistNameRequired",
      "type": "error"
    },
    {
      "inputs": [],
      "name": "CannotBuyNonExclusiveSongs",
      "type": "error"
    },
    {
      "inputs": [],
      "name": "InsufficientTokenBalance",
      "type": "error"
    },
    {
      "inputs": [],
      "name": "InvalidSignature",
      "type": "error"
    },
    {
      "inputs": [],
      "name": "NoClaimableRewards",
      "type": "error"
    },
    {
      "inputs": [],
      "name": "NoUpdatesGiven",
      "type": "error"
    },
    {
      "inputs": [],
      "name": "NotARegisteredArtist",
      "type": "error"
    },
    {
      "inputs": [],
      "name": "PriceCannotBeZero",
      "type": "error"
    },
    {
      "inputs": [],
      "name": "RewardsCannotBeZero",
      "type": "error"
    },
    {
      "inputs": [],
      "name": "RewardsPerProposalZero",
      "type": "error"
    },
    {
      "inputs": [],
      "name": "SongDoesNotExist",
      "type": "error"
    },
    {
      "inputs": [],
      "name": "SongUriRequired",
      "type": "error"
    },
    {
      "inputs": [],
      "name": "SubscriptionAlreadyCreated",
      "type": "error"
    },
    {
      "inputs": [],
      "name": "SubscriptionNotCreated",
      "type": "error"
    },
    {
      "inputs": [],
      "name": "TimestampMustBeInFuture",
      "type": "error"
    },
    {
      "inputs": [
        {
          "internalType": "address",
          "name": "artist",
          "type": "address"
        },
        {
          "internalType": "uint256",
          "name": "playedMinutes",
          "type": "uint256"
        }
      ],
      "name": "UpdateInvalid",
      "type": "error"
    },
    {
      "inputs": [],
      "name": "ValueCannotBeZero",
      "type": "error"
    },
    {
      "inputs": [],
      "name": "ValueMustMatchOneOfThePlans",
      "type": "error"
    },
    {
      "inputs": [],
      "name": "VotingActive",
      "type": "error"
    },
    {
      "inputs": [],
      "name": "VotingHasNotEnded",
      "type": "error"
    },
    {
      "inputs": [],
      "name": "VotingIsAlreadyOpen",
      "type": "error"
    },
    {
      "inputs": [],
      "name": "VotingNotActive",
      "type": "error"
    },
    {
      "anonymous": false,
      "inputs": [
        {
          "indexed": true,
          "internalType": "address",
          "name": "account",
          "type": "address"
        }
      ],
      "name": "EncryptorAdded",
      "type": "event"
    },
    {
      "anonymous": false,
      "inputs": [
        {
          "indexed": true,
          "internalType": "address",
          "name": "account",
          "type": "address"
        }
      ],
      "name": "EncryptorRemoved",
      "type": "event"
    },
    {
      "anonymous": false,
      "inputs": [
        {
          "indexed": true,
          "internalType": "address",
          "name": "previousOwner",
          "type": "address"
        },
        {
          "indexed": true,
          "internalType": "address",
          "name": "newOwner",
          "type": "address"
        }
      ],
      "name": "OwnershipTransferred",
      "type": "event"
    },
    {
      "anonymous": false,
      "inputs": [],
      "name": "PlayedMinutesUpdated",
      "type": "event"
    },
    {
      "anonymous": false,
      "inputs": [
        {
          "indexed": false,
          "internalType": "uint256",
          "name": "price",
          "type": "uint256"
        }
      ],
      "name": "PricePerTokenUpdated",
      "type": "event"
    },
    {
      "anonymous": false,
      "inputs": [
        {
          "indexed": true,
          "internalType": "address",
          "name": "account",
          "type": "address"
        }
      ],
      "name": "ReporterAdded",
      "type": "event"
    },
    {
      "anonymous": false,
      "inputs": [
        {
          "indexed": true,
          "internalType": "address",
          "name": "account",
          "type": "address"
        }
      ],
      "name": "ReporterRemoved",
      "type": "event"
    },
    {
      "anonymous": false,
      "inputs": [
        {
          "indexed": true,
          "internalType": "address",
          "name": "account",
          "type": "address"
        },
        {
          "indexed": true,
          "internalType": "enum ResourceRegistration.ResourceType",
          "name": "resourceType",
          "type": "uint8"
        },
        {
          "indexed": true,
          "internalType": "uint256",
          "name": "id",
          "type": "uint256"
        },
        {
          "indexed": false,
          "internalType": "string",
          "name": "data",
          "type": "string"
        }
      ],
      "name": "ResourceRegistered",
      "type": "event"
    },
    {
      "anonymous": false,
      "inputs": [
        {
          "indexed": true,
          "internalType": "uint256",
          "name": "reward",
          "type": "uint256"
        }
      ],
      "name": "RewardForPlayedMinutesChanged",
      "type": "event"
    },
    {
      "anonymous": false,
      "inputs": [
        {
          "indexed": true,
          "internalType": "address",
          "name": "artist",
          "type": "address"
        },
        {
          "indexed": true,
          "internalType": "uint256",
          "name": "rewards",
          "type": "uint256"
        }
      ],
      "name": "RewardsClaimed",
      "type": "event"
    },
    {
      "anonymous": false,
      "inputs": [
        {
          "indexed": false,
          "internalType": "uint256",
          "name": "rewards",
          "type": "uint256"
        }
      ],
      "name": "RewardsPerProposalUpdated",
      "type": "event"
    },
    {
      "anonymous": false,
      "inputs": [
        {
          "indexed": true,
          "internalType": "address",
          "name": "account",
          "type": "address"
        },
        {
          "indexed": true,
          "internalType": "uint256",
          "name": "songId",
          "type": "uint256"
        }
      ],
      "name": "SongPurchased",
      "type": "event"
    },
    {
      "anonymous": false,
      "inputs": [
        {
          "indexed": true,
          "internalType": "uint256",
          "name": "price",
          "type": "uint256"
        },
        {
          "indexed": true,
          "internalType": "uint256",
          "name": "timestampIncrease",
          "type": "uint256"
        }
      ],
      "name": "SubscriptionPlanAdded",
      "type": "event"
    },
    {
      "anonymous": false,
      "inputs": [
        {
          "indexed": false,
          "internalType": "uint256",
          "name": "winningSongId",
          "type": "uint256"
        }
      ],
      "name": "VotingClosed",
      "type": "event"
    },
    {
      "anonymous": false,
      "inputs": [],
      "name": "VotingOpen",
      "type": "event"
    },
    {
      "inputs": [
        {
          "internalType": "address",
          "name": "account",
          "type": "address"
        }
      ],
      "name": "addEncryptor",
      "outputs": [],
      "stateMutability": "nonpayable",
      "type": "function"
    },
    {
      "inputs": [
        {
          "internalType": "address",
          "name": "account",
          "type": "address"
        }
      ],
      "name": "addReporter",
      "outputs": [],
      "stateMutability": "nonpayable",
      "type": "function"
    },
    {
      "inputs": [
        {
          "internalType": "uint256",
          "name": "",
          "type": "uint256"
        }
      ],
      "name": "artistAccounts",
      "outputs": [
        {
          "internalType": "address",
          "name": "",
          "type": "address"
        }
      ],
      "stateMutability": "view",
      "type": "function"
    },
    {
      "inputs": [
        {
          "internalType": "address",
          "name": "artist",
          "type": "address"
        }
      ],
      "name": "artistClaimedMinutes",
      "outputs": [
        {
          "internalType": "uint256",
          "name": "claimedMinutes",
          "type": "uint256"
        }
      ],
      "stateMutability": "view",
      "type": "function"
    },
    {
      "inputs": [],
      "name": "artistCount",
      "outputs": [
        {
          "internalType": "uint256",
          "name": "",
          "type": "uint256"
        }
      ],
      "stateMutability": "view",
      "type": "function"
    },
    {
      "inputs": [
        {
          "internalType": "address",
          "name": "account",
          "type": "address"
        }
      ],
      "name": "artistIds",
      "outputs": [
        {
          "internalType": "uint256",
          "name": "id",
          "type": "uint256"
        }
      ],
      "stateMutability": "view",
      "type": "function"
    },
    {
      "inputs": [
        {
          "internalType": "uint256",
          "name": "id",
          "type": "uint256"
        }
      ],
      "name": "artistNames",
      "outputs": [
        {
          "internalType": "string",
          "name": "name",
          "type": "string"
        }
      ],
      "stateMutability": "view",
      "type": "function"
    },
    {
      "inputs": [
        {
          "internalType": "address",
          "name": "artist",
          "type": "address"
        }
      ],
      "name": "artistPlayedMinutes",
      "outputs": [
        {
          "internalType": "uint256",
          "name": "playedMinutes",
          "type": "uint256"
        }
      ],
      "stateMutability": "view",
      "type": "function"
    },
    {
      "inputs": [
        {
          "internalType": "address",
          "name": "artist",
          "type": "address"
        }
      ],
      "name": "artistUnclaimedAmount",
      "outputs": [
        {
          "internalType": "uint256",
          "name": "",
          "type": "uint256"
        }
      ],
      "stateMutability": "view",
      "type": "function"
    },
    {
      "inputs": [
        {
          "internalType": "address",
          "name": "artist",
          "type": "address"
        },
        {
          "internalType": "uint256",
          "name": "songId",
          "type": "uint256"
        }
      ],
      "name": "buySong",
      "outputs": [],
      "stateMutability": "payable",
      "type": "function"
    },
    {
      "inputs": [
        {
          "internalType": "uint256",
          "name": "_wholeTokens",
          "type": "uint256"
        }
      ],
      "name": "buyTokens",
      "outputs": [],
      "stateMutability": "payable",
      "type": "function"
    },
    {
      "inputs": [],
      "name": "claimRewards",
      "outputs": [],
      "stateMutability": "nonpayable",
      "type": "function"
    },
    {
      "inputs": [],
      "name": "closeVotingPeriod",
      "outputs": [],
      "stateMutability": "nonpayable",
      "type": "function"
    },
    {
      "inputs": [],
      "name": "createSubscription",
      "outputs": [],
      "stateMutability": "payable",
      "type": "function"
    },
    {
      "inputs": [
        {
          "internalType": "uint256",
          "name": "id",
          "type": "uint256"
        }
      ],
      "name": "exclusiveSongPrices",
      "outputs": [
        {
          "internalType": "uint256",
          "name": "price",
          "type": "uint256"
        }
      ],
      "stateMutability": "view",
      "type": "function"
    },
    {
      "inputs": [],
      "name": "fundSubscription",
      "outputs": [],
      "stateMutability": "payable",
      "type": "function"
    },
    {
      "inputs": [
        {
          "internalType": "address",
          "name": "account",
          "type": "address"
        }
      ],
      "name": "getArtistId",
      "outputs": [
        {
          "internalType": "uint256",
          "name": "",
          "type": "uint256"
        }
      ],
      "stateMutability": "view",
      "type": "function"
    },
    {
      "inputs": [
        {
          "internalType": "address",
          "name": "account",
          "type": "address"
        }
      ],
      "name": "getArtistName",
      "outputs": [
        {
          "internalType": "string",
          "name": "",
          "type": "string"
        }
      ],
      "stateMutability": "view",
      "type": "function"
    },
    {
      "inputs": [
        {
          "internalType": "address",
          "name": "artist",
          "type": "address"
        },
        {
          "internalType": "uint256",
          "name": "songIndex",
          "type": "uint256"
        }
      ],
      "name": "getArtistSongId",
      "outputs": [
        {
          "internalType": "uint256",
          "name": "",
          "type": "uint256"
        }
      ],
      "stateMutability": "view",
      "type": "function"
    },
    {
      "inputs": [
        {
          "internalType": "address",
          "name": "artist",
          "type": "address"
        }
      ],
      "name": "getArtistSongsCount",
      "outputs": [
        {
          "internalType": "uint256",
          "name": "",
          "type": "uint256"
        }
      ],
      "stateMutability": "view",
      "type": "function"
    },
    {
      "inputs": [
        {
          "internalType": "address",
          "name": "account",
          "type": "address"
        },
        {
          "internalType": "bytes",
          "name": "signature",
          "type": "bytes"
        }
      ],
      "name": "getEncryptionKey",
      "outputs": [
        {
          "internalType": "bytes32",
          "name": "",
          "type": "bytes32"
        }
      ],
      "stateMutability": "view",
      "type": "function"
    },
    {
      "inputs": [
        {
          "internalType": "uint256",
          "name": "songId",
          "type": "uint256"
        }
      ],
      "name": "getSongUri",
      "outputs": [
        {
          "internalType": "string",
          "name": "",
          "type": "string"
        }
      ],
      "stateMutability": "view",
      "type": "function"
    },
    {
      "inputs": [
        {
          "internalType": "address",
          "name": "account",
          "type": "address"
        },
        {
          "internalType": "bytes",
          "name": "signature",
          "type": "bytes"
        }
      ],
      "name": "hasVotedCurrentPeriod",
      "outputs": [
        {
          "internalType": "bool",
          "name": "",
          "type": "bool"
        }
      ],
      "stateMutability": "view",
      "type": "function"
    },
    {
      "inputs": [
        {
          "internalType": "address",
          "name": "account",
          "type": "address"
        }
      ],
      "name": "isActiveSubscriber",
      "outputs": [
        {
          "internalType": "bool",
          "name": "",
          "type": "bool"
        }
      ],
      "stateMutability": "view",
      "type": "function"
    },
    {
      "inputs": [
        {
          "internalType": "address",
          "name": "artist",
          "type": "address"
        },
        {
          "internalType": "uint256",
          "name": "songId",
          "type": "uint256"
        }
      ],
      "name": "isArtistSong",
      "outputs": [
        {
          "internalType": "bool",
          "name": "",
          "type": "bool"
        }
      ],
      "stateMutability": "view",
      "type": "function"
    },
    {
      "inputs": [
        {
          "internalType": "address",
          "name": "account",
          "type": "address"
        },
        {
          "internalType": "uint256",
          "name": "songId",
          "type": "uint256"
        }
      ],
      "name": "isSongPurchased",
      "outputs": [
        {
          "internalType": "bool",
          "name": "",
          "type": "bool"
        }
      ],
      "stateMutability": "view",
      "type": "function"
    },
    {
      "inputs": [],
      "name": "isVotingPeriodActive",
      "outputs": [
        {
          "internalType": "bool",
          "name": "",
          "type": "bool"
        }
      ],
      "stateMutability": "view",
      "type": "function"
    },
    {
      "inputs": [],
      "name": "lastWinningSongId",
      "outputs": [
        {
          "internalType": "uint256",
          "name": "",
          "type": "uint256"
        }
      ],
      "stateMutability": "view",
      "type": "function"
    },
    {
      "inputs": [
        {
          "internalType": "uint256",
          "name": "endTimestamp",
          "type": "uint256"
        }
      ],
      "name": "openVotingPeriod",
      "outputs": [],
      "stateMutability": "nonpayable",
      "type": "function"
    },
    {
      "inputs": [],
      "name": "owner",
      "outputs": [
        {
          "internalType": "address",
          "name": "",
          "type": "address"
        }
      ],
      "stateMutability": "view",
      "type": "function"
    },
    {
      "inputs": [],
      "name": "pricePerToken",
      "outputs": [
        {
          "internalType": "uint256",
          "name": "",
          "type": "uint256"
        }
      ],
      "stateMutability": "view",
      "type": "function"
    },
    {
      "inputs": [
        {
          "internalType": "string",
          "name": "name",
          "type": "string"
        }
      ],
      "name": "registerArtist",
      "outputs": [],
      "stateMutability": "nonpayable",
      "type": "function"
    },
    {
      "inputs": [
        {
          "internalType": "string",
          "name": "uri",
          "type": "string"
        },
        {
          "internalType": "uint256",
          "name": "exclusivePrice",
          "type": "uint256"
        }
      ],
      "name": "registerSong",
      "outputs": [],
      "stateMutability": "nonpayable",
      "type": "function"
    },
    {
      "inputs": [
        {
          "internalType": "address",
          "name": "account",
          "type": "address"
        }
      ],
      "name": "removeEncryptor",
      "outputs": [],
      "stateMutability": "nonpayable",
      "type": "function"
    },
    {
      "inputs": [
        {
          "internalType": "address",
          "name": "account",
          "type": "address"
        }
      ],
      "name": "removeReporter",
      "outputs": [],
      "stateMutability": "nonpayable",
      "type": "function"
    },
    {
      "inputs": [],
      "name": "renounceOwnership",
      "outputs": [],
      "stateMutability": "nonpayable",
      "type": "function"
    },
    {
      "inputs": [],
      "name": "rewardForPlayedMinute",
      "outputs": [
        {
          "internalType": "uint256",
          "name": "",
          "type": "uint256"
        }
      ],
      "stateMutability": "view",
      "type": "function"
    },
    {
      "inputs": [],
      "name": "rewardsPerProposal",
      "outputs": [
        {
          "internalType": "uint256",
          "name": "",
          "type": "uint256"
        }
      ],
      "stateMutability": "view",
      "type": "function"
    },
    {
      "inputs": [],
      "name": "rewardsToken",
      "outputs": [
        {
          "internalType": "contract JustToken",
          "name": "",
          "type": "address"
        }
      ],
      "stateMutability": "view",
      "type": "function"
    },
    {
      "inputs": [
        {
          "internalType": "uint256",
          "name": "_wholeTokens",
          "type": "uint256"
        },
        {
          "internalType": "address",
          "name": "_receiver",
          "type": "address"
        }
      ],
      "name": "sellTokens",
      "outputs": [],
      "stateMutability": "nonpayable",
      "type": "function"
    },
    {
      "inputs": [
        {
          "internalType": "uint256",
          "name": "_price",
          "type": "uint256"
        }
      ],
      "name": "setPricePerToken",
      "outputs": [],
      "stateMutability": "nonpayable",
      "type": "function"
    },
    {
      "inputs": [
        {
          "internalType": "uint256",
          "name": "reward",
          "type": "uint256"
        }
      ],
      "name": "setRewardForPlayedMinute",
      "outputs": [],
      "stateMutability": "nonpayable",
      "type": "function"
    },
    {
      "inputs": [
        {
          "internalType": "uint256",
          "name": "_rewards",
          "type": "uint256"
        }
      ],
      "name": "setRewardsPerProposal",
      "outputs": [],
      "stateMutability": "nonpayable",
      "type": "function"
    },
    {
      "inputs": [
        {
          "internalType": "uint256",
          "name": "price",
          "type": "uint256"
        },
        {
          "internalType": "uint256",
          "name": "timestampIncrease",
          "type": "uint256"
        }
      ],
      "name": "setSubscriptionPlan",
      "outputs": [],
      "stateMutability": "nonpayable",
      "type": "function"
    },
    {
      "inputs": [
        {
          "internalType": "uint256",
          "name": "price",
          "type": "uint256"
        }
      ],
      "name": "subscriptionPlanIntervals",
      "outputs": [
        {
          "internalType": "uint256",
          "name": "interval",
          "type": "uint256"
        }
      ],
      "stateMutability": "view",
      "type": "function"
    },
    {
      "inputs": [
        {
          "internalType": "address",
          "name": "account",
          "type": "address"
        }
      ],
      "name": "subscriptions",
      "outputs": [
        {
          "internalType": "uint256",
          "name": "expirationTimestamp",
          "type": "uint256"
        }
      ],
      "stateMutability": "view",
      "type": "function"
    },
    {
      "inputs": [
        {
          "internalType": "address",
          "name": "newOwner",
          "type": "address"
        }
      ],
      "name": "transferOwnership",
      "outputs": [],
      "stateMutability": "nonpayable",
      "type": "function"
    },
    {
      "inputs": [
        {
          "components": [
            {
              "internalType": "address",
              "name": "artist",
              "type": "address"
            },
            {
              "internalType": "uint256",
              "name": "playedMinutes",
              "type": "uint256"
            }
          ],
          "internalType": "struct UpdatePlayedMinutes.ArtistUpdate[]",
          "name": "updates",
          "type": "tuple[]"
        }
      ],
      "name": "updatePlayedMinutes",
      "outputs": [],
      "stateMutability": "nonpayable",
      "type": "function"
    },
    {
      "inputs": [
        {
          "internalType": "uint256",
          "name": "_songId",
          "type": "uint256"
        }
      ],
      "name": "vote",
      "outputs": [],
      "stateMutability": "nonpayable",
      "type": "function"
    },
    {
      "inputs": [],
      "name": "votingPeriodEnds",
      "outputs": [
        {
          "internalType": "uint256",
          "name": "",
          "type": "uint256"
        }
      ],
      "stateMutability": "view",
      "type": "function"
    }
  ],
  "bytecode": "0x60806040523480156200001157600080fd5b50604051620073653803806200736583398181016040528101906200003791906200030d565b80838360016000819055506200006262000056620001b660201b60201c565b620001be60201b60201c565b6435e55f19096003819055506003547fde2a550feb6ab90bd4c3e2d079c1e9f15fa6c1616cd90660836219be038742e960405160405180910390a260008211620000e3576040517f08c379a0000000000000000000000000000000000000000000000000000000008152600401620000da90620003ca565b60405180910390fd5b6000811162000129576040517f08c379a000000000000000000000000000000000000000000000000000000000815260040162000120906200043c565b60405180910390fd5b604051620001379062000284565b604051809103906000f08015801562000154573d6000803e3d6000fd5b50600260006101000a81548173ffffffffffffffffffffffffffffffffffffffff021916908373ffffffffffffffffffffffffffffffffffffffff1602179055508160058190555080601581905550505080600481905550505050506200045e565b600033905090565b6000600160009054906101000a900473ffffffffffffffffffffffffffffffffffffffff16905081600160006101000a81548173ffffffffffffffffffffffffffffffffffffffff021916908373ffffffffffffffffffffffffffffffffffffffff1602179055508173ffffffffffffffffffffffffffffffffffffffff168173ffffffffffffffffffffffffffffffffffffffff167f8be0079c531659141344cd1fd0a4f28419497f9722a3daafe3b4186f6b6457e060405160405180910390a35050565b611ce9806200567c83390190565b600080fd5b6000819050919050565b620002ac8162000297565b8114620002b857600080fd5b50565b600081519050620002cc81620002a1565b92915050565b6000819050919050565b620002e781620002d2565b8114620002f357600080fd5b50565b6000815190506200030781620002dc565b92915050565b60008060006060848603121562000329576200032862000292565b5b60006200033986828701620002bb565b93505060206200034c86828701620002bb565b92505060406200035f86828701620002f6565b9150509250925092565b600082825260208201905092915050565b7f5265776172647320666f722070726f706f73616c206973207a65726f00000000600082015250565b6000620003b2601c8362000369565b9150620003bf826200037a565b602082019050919050565b60006020820190508181036000830152620003e581620003a3565b9050919050565b7f5072696365206973207a65726f00000000000000000000000000000000000000600082015250565b600062000424600d8362000369565b91506200043182620003ec565b602082019050919050565b60006020820190508181036000830152620004578162000415565b9050919050565b61520e806200046e6000396000f3fe6080604052600436106102c95760003560e01c80637e871c8211610175578063d0c3264a116100dc578063e066765e11610095578063f046395a1161006f578063f046395a14610b14578063f08bf9ad14610b51578063f2b3924814610b7c578063f2fde38b14610ba7576102c9565b8063e066765e14610a85578063e3c266dd14610ac2578063f0400d3c14610aeb576102c9565b8063d0c3264a14610977578063d1af0c7d146109a2578063d850b1d2146109cd578063d8da18e4146109f6578063dd8755f214610a33578063dedbe30614610a5c576102c9565b8063a21a23e41161012e578063a21a23e414610862578063a8e19f561461086c578063b36349dc146108a9578063be530482146108e6578063c472794014610911578063c70632661461093a576102c9565b80637e871c82146107405780638da5cb5b146107695780638e048e75146107945780639355d419146107d15780639fcc5ce4146107fa578063a0a96d5a14610825576102c9565b80634655c9a9116102345780635fcbb047116101ed5780636f78fe62116101c75780636f78fe62146106aa578063715018a6146106d35780637ab9e7fb146106ea5780637b1b1de614610715576102c9565b80635fcbb047146106075780636269bd0114610644578063670f715114610681576102c9565b80634655c9a9146105065780634c49d7d5146105435780634de98e0914610580578063575f08ff1461059757806357ace39b146105d45780635de5c212146105de576102c9565b806323c3dd371161028657806323c3dd371461040757806326be9397146104305780632bf2762f1461046d5780633610724e14610496578063372500ab146104b257806344ee0119146104c9576102c9565b80630121b93f146102ce578063030ae9ab146102f75780630a0ef4511461033457806315576db1146103715780631ac5f331146103ae5780631b39152d146103ca575b600080fd5b3480156102da57600080fd5b506102f560048036038101906102f09190613c8b565b610bd0565b005b34801561030357600080fd5b5061031e60048036038101906103199190613d16565b610c89565b60405161032b9190613d52565b60405180910390f35b34801561034057600080fd5b5061035b60048036038101906103569190613c8b565b610d1a565b6040516103689190613d52565b60405180910390f35b34801561037d57600080fd5b5061039860048036038101906103939190613dd2565b610d32565b6040516103a59190613e4d565b60405180910390f35b6103c860048036038101906103c39190613e68565b610e38565b005b3480156103d657600080fd5b506103f160048036038101906103ec9190613d16565b61107d565b6040516103fe9190613d52565b60405180910390f35b34801561041357600080fd5b5061042e60048036038101906104299190613c8b565b611095565b005b34801561043c57600080fd5b5061045760048036038101906104529190613e68565b6110e7565b6040516104649190613e4d565b60405180910390f35b34801561047957600080fd5b50610494600480360381019061048f9190613c8b565b6110fb565b005b6104b060048036038101906104ab9190613c8b565b61114d565b005b3480156104be57600080fd5b506104c76113ed565b005b3480156104d557600080fd5b506104f060048036038101906104eb9190613dd2565b6115b2565b6040516104fd9190613ec1565b60405180910390f35b34801561051257600080fd5b5061052d60048036038101906105289190613c8b565b6115d4565b60405161053a9190613f6c565b60405180910390f35b34801561054f57600080fd5b5061056a60048036038101906105659190613c8b565b611679565b6040516105779190613d52565b60405180910390f35b34801561058c57600080fd5b50610595611691565b005b3480156105a357600080fd5b506105be60048036038101906105b99190613e68565b6116f6565b6040516105cb9190613e4d565b60405180910390f35b6105dc61175e565b005b3480156105ea57600080fd5b5061060560048036038101906106009190613d16565b61183f565b005b34801561061357600080fd5b5061062e60048036038101906106299190613d16565b6118ee565b60405161063b9190613d52565b60405180910390f35b34801561065057600080fd5b5061066b60048036038101906106669190613e68565b611906565b6040516106789190613d52565b60405180910390f35b34801561068d57600080fd5b506106a860048036038101906106a39190613f8e565b61196c565b005b3480156106b657600080fd5b506106d160048036038101906106cc9190613c8b565b611b53565b005b3480156106df57600080fd5b506106e8611baa565b005b3480156106f657600080fd5b506106ff611bbe565b60405161070c9190613d52565b60405180910390f35b34801561072157600080fd5b5061072a611bc4565b6040516107379190613d52565b60405180910390f35b34801561074c57600080fd5b5061076760048036038101906107629190613d16565b611bca565b005b34801561077557600080fd5b5061077e611c79565b60405161078b9190613fdd565b60405180910390f35b3480156107a057600080fd5b506107bb60048036038101906107b69190613d16565b611ca3565b6040516107c89190613e4d565b60405180910390f35b3480156107dd57600080fd5b506107f860048036038101906107f3919061404e565b611cef565b005b34801561080657600080fd5b5061080f611d53565b60405161081c9190613e4d565b60405180910390f35b34801561083157600080fd5b5061084c60048036038101906108479190613c8b565b611d62565b6040516108599190613f6c565b60405180910390f35b61086a611e02565b005b34801561087857600080fd5b50610893600480360381019061088e9190613c8b565b611e83565b6040516108a09190613fdd565b60405180910390f35b3480156108b557600080fd5b506108d060048036038101906108cb9190613d16565b611ec2565b6040516108dd9190613f6c565b60405180910390f35b3480156108f257600080fd5b506108fb611fa6565b6040516109089190613d52565b60405180910390f35b34801561091d57600080fd5b506109386004803603810190610933919061409b565b611fac565b005b34801561094657600080fd5b50610961600480360381019061095c9190613d16565b612018565b60405161096e9190613d52565b60405180910390f35b34801561098357600080fd5b5061098c612061565b6040516109999190613d52565b60405180910390f35b3480156109ae57600080fd5b506109b7612067565b6040516109c4919061413a565b60405180910390f35b3480156109d957600080fd5b506109f460048036038101906109ef9190613d16565b61208d565b005b348015610a0257600080fd5b50610a1d6004803603810190610a189190613d16565b61213c565b604051610a2a9190613d52565b60405180910390f35b348015610a3f57600080fd5b50610a5a6004803603810190610a559190613d16565b612154565b005b348015610a6857600080fd5b50610a836004803603810190610a7e9190614155565b612203565b005b348015610a9157600080fd5b50610aac6004803603810190610aa79190613d16565b612269565b604051610ab99190613d52565b60405180910390f35b348015610ace57600080fd5b50610ae96004803603810190610ae4919061420b565b6122b2565b005b348015610af757600080fd5b50610b126004803603810190610b0d9190613c8b565b612391565b005b348015610b2057600080fd5b50610b3b6004803603810190610b369190613d16565b6123df565b604051610b489190613d52565b60405180910390f35b348015610b5d57600080fd5b50610b666123f7565b604051610b739190613d52565b60405180910390f35b348015610b8857600080fd5b50610b916123fd565b604051610b9e9190613d52565b60405180910390f35b348015610bb357600080fd5b50610bce6004803603810190610bc99190613d16565b612403565b005b610bd981612486565b610be16124e2565b610be9612522565b6000601760008381526020019081526020016000205403610c0e57610c0d8161259e565b5b601760008281526020019081526020016000206000815480929190610c3290614287565b9190505550601654601860003373ffffffffffffffffffffffffffffffffffffffff1673ffffffffffffffffffffffffffffffffffffffff16815260200190815260200160002081905550610c863361261b565b50565b6000610d13600c60008473ffffffffffffffffffffffffffffffffffffffff1673ffffffffffffffffffffffffffffffffffffffff16815260200190815260200160002054600d60008573ffffffffffffffffffffffffffffffffffffffff1673ffffffffffffffffffffffffffffffffffffffff1681526020019081526020016000205461270c565b9050919050565b60146020528060005260406000206000915090505481565b6000610d3c61272f565b610d495760009050610e31565b600084604051602001610d5c9190613fdd565b604051602081830303815290604052805190602001209050610d808582868661273c565b610d8e576000915050610e31565b60005b601c54811015610e2a578573ffffffffffffffffffffffffffffffffffffffff16601b8281548110610dc657610dc56142cf565b5b9060005260206000200160009054906101000a900473ffffffffffffffffffffffffffffffffffffffff1673ffffffffffffffffffffffffffffffffffffffff1603610e1757600192505050610e31565b8080610e2290614287565b915050610d91565b5060009150505b9392505050565b610e4181612486565b610e4a8161287e565b610e5482826128ce565b6000600f60008381526020019081526020016000205490506000600260009054906101000a900473ffffffffffffffffffffffffffffffffffffffff1673ffffffffffffffffffffffffffffffffffffffff1663313ce5676040518163ffffffff1660e01b8152600401602060405180830381865afa158015610edb573d6000803e3d6000fd5b505050506040513d601f19601f82011682018060405250810190610eff9190614337565b60ff169050600081600a610f139190614497565b905060008184610f2391906144e2565b9050600260009054906101000a900473ffffffffffffffffffffffffffffffffffffffff1673ffffffffffffffffffffffffffffffffffffffff166323b872dd3388846040518463ffffffff1660e01b8152600401610f8493929190614524565b6020604051808303816000875af1158015610fa3573d6000803e3d6000fd5b505050506040513d601f19601f82011682018060405250810190610fc79190614587565b506001600e60003373ffffffffffffffffffffffffffffffffffffffff1673ffffffffffffffffffffffffffffffffffffffff168152602001908152602001600020600087815260200190815260200160002060006101000a81548160ff021916908315150217905550843373ffffffffffffffffffffffffffffffffffffffff167fe20750a4417f37bd85a195d63720cb1c314963d8888dc41e6323fed4805542ac60405160405180910390a3505050505050565b600c6020528060005260406000206000915090505481565b61109d612912565b6110a681612990565b806005819055507f72ea2c9c38b647a7ef112a9939feedf39954cffb5d3639491a358ac0adf950a6816040516110dc9190613d52565b60405180910390a150565b60006110f383836129cd565b905092915050565b611103612912565b61110c81612aaa565b806015819055507f3200057f39b60b2ce0d5c0768cd90469dc468a882eec07ce1802fef660ebee59816040516111429190613d52565b60405180910390a150565b61115681612ae7565b61115f81612b24565b6000600260009054906101000a900473ffffffffffffffffffffffffffffffffffffffff1673ffffffffffffffffffffffffffffffffffffffff166370a08231306040518263ffffffff1660e01b81526004016111bc9190613fdd565b602060405180830381865afa1580156111d9573d6000803e3d6000fd5b505050506040513d601f19601f820116820180604052508101906111fd91906145c9565b90506000600260009054906101000a900473ffffffffffffffffffffffffffffffffffffffff1673ffffffffffffffffffffffffffffffffffffffff1663313ce5676040518163ffffffff1660e01b8152600401602060405180830381865afa15801561126e573d6000803e3d6000fd5b505050506040513d601f19601f820116820180604052508101906112929190614337565b600a61129e91906145f6565b836112a991906144e2565b905080821061135857600260009054906101000a900473ffffffffffffffffffffffffffffffffffffffff1673ffffffffffffffffffffffffffffffffffffffff1663a9059cbb33836040518363ffffffff1660e01b815260040161130f929190614641565b6020604051808303816000875af115801561132e573d6000803e3d6000fd5b505050506040513d601f19601f820116820180604052508101906113529190614587565b506113e8565b600260009054906101000a900473ffffffffffffffffffffffffffffffffffffffff1673ffffffffffffffffffffffffffffffffffffffff166340c10f1933836040518363ffffffff1660e01b81526004016113b5929190614641565b600060405180830381600087803b1580156113cf57600080fd5b505af11580156113e3573d6000803e3d6000fd5b505050505b505050565b6113f5612b73565b6113fd612bc2565b611405612c3d565b6000600c60003373ffffffffffffffffffffffffffffffffffffffff1673ffffffffffffffffffffffffffffffffffffffff1681526020019081526020016000205490506000600d60003373ffffffffffffffffffffffffffffffffffffffff1673ffffffffffffffffffffffffffffffffffffffff1681526020019081526020016000205490506000611499838361270c565b905081836114a7919061466a565b600d60003373ffffffffffffffffffffffffffffffffffffffff1673ffffffffffffffffffffffffffffffffffffffff1681526020019081526020016000208190555060003373ffffffffffffffffffffffffffffffffffffffff1682604051611510906146cf565b60006040518083038185875af1925050503d806000811461154d576040519150601f19603f3d011682016040523d82523d6000602084013e611552565b606091505b505090508061156057600080fd5b813373ffffffffffffffffffffffffffffffffffffffff167ffc30cddea38e2bf4d6ea7d3f9ed3b6ad7f176419f4963bd81318067a4aee73fe60405160405180910390a3505050506115b0612d14565b565b60006115bd84612d1e565b6115c8848484612da4565b60045490509392505050565b60606009600083815260200190815260200160002080546115f490614713565b80601f016020809104026020016040519081016040528092919081815260200182805461162090614713565b801561166d5780601f106116425761010080835404028352916020019161166d565b820191906000526020600020905b81548152906001019060200180831161165057829003601f168201915b50505050509050919050565b600f6020528060005260406000206000915090505481565b611699612e17565b60006016819055506116a9612e63565b60006116b3612f66565b905080601d819055507f8e9b46a70b3967bc9ea56ca61732c363a191fac88ae3ba011f4e030711c90117816040516116eb9190613d52565b60405180910390a150565b6000600e60008473ffffffffffffffffffffffffffffffffffffffff1673ffffffffffffffffffffffffffffffffffffffff168152602001908152602001600020600083815260200190815260200160002060009054906101000a900460ff16905092915050565b611766612fda565b60006014600034815260200190815260200160002054905061178781613055565b600080601360003373ffffffffffffffffffffffffffffffffffffffff1673ffffffffffffffffffffffffffffffffffffffff168152602001908152602001600020549050428110156117e75782426117e0919061466a565b91506117f6565b82816117f3919061466a565b91505b81601360003373ffffffffffffffffffffffffffffffffffffffff1673ffffffffffffffffffffffffffffffffffffffff16815260200190815260200160002081905550505050565b611847612912565b61185081613092565b6000601060008373ffffffffffffffffffffffffffffffffffffffff1673ffffffffffffffffffffffffffffffffffffffff16815260200190815260200160002060006101000a81548160ff0219169083151502179055508073ffffffffffffffffffffffffffffffffffffffff167ff125aa5e6cb22c17ea0de4e1f86d2ff289ddd6a37e791b9ad29d0091cba06ac860405160405180910390a250565b60066020528060005260406000206000915090505481565b6000600a60008473ffffffffffffffffffffffffffffffffffffffff1673ffffffffffffffffffffffffffffffffffffffff1681526020019081526020016000208281548110611959576119586142cf565b5b9060005260206000200154905092915050565b61197582612ae7565b6000600260009054906101000a900473ffffffffffffffffffffffffffffffffffffffff1673ffffffffffffffffffffffffffffffffffffffff1663313ce5676040518163ffffffff1660e01b8152600401602060405180830381865afa1580156119e4573d6000803e3d6000fd5b505050506040513d601f19601f82011682018060405250810190611a089190614337565b600a611a1491906145f6565b83611a1f91906144e2565b9050600260009054906101000a900473ffffffffffffffffffffffffffffffffffffffff1673ffffffffffffffffffffffffffffffffffffffff166323b872dd3330846040518463ffffffff1660e01b8152600401611a8093929190614524565b6020604051808303816000875af1158015611a9f573d6000803e3d6000fd5b505050506040513d601f19601f82011682018060405250810190611ac39190614587565b50600060155484611ad491906144e2565b905060008373ffffffffffffffffffffffffffffffffffffffff1682604051611afc906146cf565b60006040518083038185875af1925050503d8060008114611b39576040519150601f19603f3d011682016040523d82523d6000602084013e611b3e565b606091505b5050905080611b4c57600080fd5b5050505050565b611b5b612912565b611b63613118565b611b6c81613159565b80601681905550611b7b613195565b7f8089789a86616a2428e26766961eaaa205ab084aac14a9cb98704e59af2b89e660405160405180910390a150565b611bb2612912565b611bbc6000613205565b565b60055481565b60155481565b611bd2612912565b611bdb81612d1e565b6000601160008373ffffffffffffffffffffffffffffffffffffffff1673ffffffffffffffffffffffffffffffffffffffff16815260200190815260200160002060006101000a81548160ff0219169083151502179055508073ffffffffffffffffffffffffffffffffffffffff167f831fe45b7aa67ec3bed8b685a1393377d63415609ea28cd6c46c957cd206ace460405160405180910390a250565b6000600160009054906101000a900473ffffffffffffffffffffffffffffffffffffffff16905090565b600042601360008473ffffffffffffffffffffffffffffffffffffffff1673ffffffffffffffffffffffffffffffffffffffff1681526020019081526020016000205410159050919050565b611cf982826132cb565b611d0161330c565b611d4f3383838080601f016020809104026020016040519081016040528093929190818152602001838380828437600081840152601f19601f82011690508083019250505050505050613388565b5050565b6000611d5d61272f565b905090565b60126020528060005260406000206000915090508054611d8190614713565b80601f0160208091040260200160405190810160405280929190818152602001828054611dad90614713565b8015611dfa5780601f10611dcf57610100808354040283529160200191611dfa565b820191906000526020600020905b815481529060010190602001808311611ddd57829003601f168201915b505050505081565b611e0a61350f565b600060146000348152602001908152602001600020549050611e2b81613055565b60008142611e39919061466a565b905080601360003373ffffffffffffffffffffffffffffffffffffffff1673ffffffffffffffffffffffffffffffffffffffff168152602001908152602001600020819055505050565b60078181548110611e9357600080fd5b906000526020600020016000915054906101000a900473ffffffffffffffffffffffffffffffffffffffff1681565b606060126000600660008573ffffffffffffffffffffffffffffffffffffffff1673ffffffffffffffffffffffffffffffffffffffff1681526020019081526020016000205481526020019081526020016000208054611f2190614713565b80601f0160208091040260200160405190810160405280929190818152602001828054611f4d90614713565b8015611f9a5780601f10611f6f57610100808354040283529160200191611f9a565b820191906000526020600020905b815481529060010190602001808311611f7d57829003601f168201915b50505050509050919050565b60085481565b611fb4612912565b60008211611fc157600080fd5b60008111611fce57600080fd5b80601460008481526020019081526020016000208190555080827f54cba80c24bb8b943b0467102348972ab8b8d832c8fe766604a41205029bdeb560405160405180910390a35050565b6000600b60008373ffffffffffffffffffffffffffffffffffffffff1673ffffffffffffffffffffffffffffffffffffffff168152602001908152602001600020549050919050565b601d5481565b600260009054906101000a900473ffffffffffffffffffffffffffffffffffffffff1681565b612095612912565b61209e8161358b565b6001601160008373ffffffffffffffffffffffffffffffffffffffff1673ffffffffffffffffffffffffffffffffffffffff16815260200190815260200160002060006101000a81548160ff0219169083151502179055508073ffffffffffffffffffffffffffffffffffffffff167ff6c9f98033b9dff108e3563ef16e2eeed997d551b8b5dd48be580ca3f92316a560405160405180910390a250565b600d6020528060005260406000206000915090505481565b61215c612912565b61216581613612565b6001601060008373ffffffffffffffffffffffffffffffffffffffff1673ffffffffffffffffffffffffffffffffffffffff16815260200190815260200160002060006101000a81548160ff0219169083151502179055508073ffffffffffffffffffffffffffffffffffffffff167f52824c4a4d431c73d6d24a91f775d722860111c6d30da30b0b21e062fb4c736560405160405180910390a250565b61220d8383613699565b612215612bc2565b6122643384848080601f016020809104026020016040519081016040528093929190818152602001838380828437600081840152601f19601f82011690508083019250505050505050836136da565b505050565b6000600660008373ffffffffffffffffffffffffffffffffffffffff1673ffffffffffffffffffffffffffffffffffffffff168152602001908152602001600020549050919050565b6122bb33613092565b6122c58282613875565b60005b828290508110156123605760008383838181106122e8576122e76142cf565b5b9050604002018036038101906122fe9190614814565b90508060200151600c6000836000015173ffffffffffffffffffffffffffffffffffffffff1673ffffffffffffffffffffffffffffffffffffffff1681526020019081526020016000208190555050808061235890614287565b9150506122c8565b507fb1f4c00fef5089fc65c077ba0529ff566678425b72c5ef25184eb9158cf006eb60405160405180910390a15050565b612399612912565b600081116123a657600080fd5b806003819055506003547fde2a550feb6ab90bd4c3e2d079c1e9f15fa6c1616cd90660836219be038742e960405160405180910390a250565b60136020528060005260406000206000915090505481565b60035481565b60165481565b61240b612912565b600073ffffffffffffffffffffffffffffffffffffffff168173ffffffffffffffffffffffffffffffffffffffff160361247a576040517f08c379a0000000000000000000000000000000000000000000000000000000008152600401612471906148b3565b60405180910390fd5b61248381613205565b50565b60006009600083815260200190815260200160002080546124a690614713565b9050036124df576040517f439dd45c00000000000000000000000000000000000000000000000000000000815260040160405180910390fd5b50565b6124ea61272f565b612520576040517f9b8cc47500000000000000000000000000000000000000000000000000000000815260040160405180910390fd5b565b601654601860003373ffffffffffffffffffffffffffffffffffffffff1673ffffffffffffffffffffffffffffffffffffffff168152602001908152602001600020540361259c576040517f7c9a1cf900000000000000000000000000000000000000000000000000000000815260040160405180910390fd5b565b601a54601980549050036125da576019819080600181540180825580915050600190039060005260206000200160009091909190915055612600565b806019601a54815481106125f1576125f06142cf565b5b90600052602060002001819055505b601a600081548092919061261390614287565b919050555050565b601c54601b805490500361269157601b819080600181540180825580915050600190039060005260206000200160009091909190916101000a81548173ffffffffffffffffffffffffffffffffffffffff021916908373ffffffffffffffffffffffffffffffffffffffff1602179055506126f1565b80601b601c54815481106126a8576126a76142cf565b5b9060005260206000200160006101000a81548173ffffffffffffffffffffffffffffffffffffffff021916908373ffffffffffffffffffffffffffffffffffffffff1602179055505b601c600081548092919061270490614287565b919050555050565b6000818361271a91906148d3565b60035461272791906144e2565b905092915050565b6000426016541015905090565b60008060008061274c8686613a33565b92509250925060006040518060400160405280601c81526020017f19457468657265756d205369676e6564204d6573736167653a0a3332000000008152508860405160200161279c929190614964565b6040516020818303038152906040528051906020012090506000600182848787604051600081526020016040526040516127d9949392919061499b565b6020604051602081039080840390855afa1580156127fb573d6000803e3d6000fd5b505050602060405103519050600073ffffffffffffffffffffffffffffffffffffffff168173ffffffffffffffffffffffffffffffffffffffff161415801561286f57508973ffffffffffffffffffffffffffffffffffffffff168173ffffffffffffffffffffffffffffffffffffffff16145b95505050505050949350505050565b6000600f600083815260200190815260200160002054036128cb576040517f298763a600000000000000000000000000000000000000000000000000000000815260040160405180910390fd5b50565b6128d882826129cd565b61290e576040517f46b47f2500000000000000000000000000000000000000000000000000000000815260040160405180910390fd5b5050565b61291a613aa5565b73ffffffffffffffffffffffffffffffffffffffff16612938611c79565b73ffffffffffffffffffffffffffffffffffffffff161461298e576040517f08c379a000000000000000000000000000000000000000000000000000000000815260040161298590614a2c565b60405180910390fd5b565b600081036129ca576040517f6629597700000000000000000000000000000000000000000000000000000000815260040160405180910390fd5b50565b600080600b60008573ffffffffffffffffffffffffffffffffffffffff1673ffffffffffffffffffffffffffffffffffffffff16815260200190815260200160002054905060005b81811015612a9d5783600a60008773ffffffffffffffffffffffffffffffffffffffff1673ffffffffffffffffffffffffffffffffffffffff1681526020019081526020016000208281548110612a6f57612a6e6142cf565b5b906000526020600020015403612a8a57600192505050612aa4565b8080612a9590614287565b915050612a15565b5060009150505b92915050565b60008103612ae4576040517f2c669f0a00000000000000000000000000000000000000000000000000000000815260040160405180910390fd5b50565b60008103612b21576040517fd11b25af00000000000000000000000000000000000000000000000000000000815260040160405180910390fd5b50565b600060155482612b3491906144e2565b9050348114612b6f576040517f03862d0b00000000000000000000000000000000000000000000000000000000815260040160405180910390fd5b5050565b600260005403612bb8576040517f08c379a0000000000000000000000000000000000000000000000000000000008152600401612baf90614a98565b60405180910390fd5b6002600081905550565b6000600660003373ffffffffffffffffffffffffffffffffffffffff1673ffffffffffffffffffffffffffffffffffffffff1681526020019081526020016000205403612c3b576040517f5ba4c78d00000000000000000000000000000000000000000000000000000000815260040160405180910390fd5b565b6000600c60003373ffffffffffffffffffffffffffffffffffffffff1673ffffffffffffffffffffffffffffffffffffffff1681526020019081526020016000205490506000600d60003373ffffffffffffffffffffffffffffffffffffffff1673ffffffffffffffffffffffffffffffffffffffff16815260200190815260200160002054905060008183612cd391906148d3565b905060008103612d0f576040517ff40c208900000000000000000000000000000000000000000000000000000000815260040160405180910390fd5b505050565b6001600081905550565b601160008273ffffffffffffffffffffffffffffffffffffffff1673ffffffffffffffffffffffffffffffffffffffff16815260200190815260200160002060009054906101000a900460ff16612da1576040517fa7fda99900000000000000000000000000000000000000000000000000000000815260040160405180910390fd5b50565b600083604051602001612db79190613fdd565b604051602081830303815290604052805190602001209050612ddb8482858561273c565b612e11576040517f8baa579f00000000000000000000000000000000000000000000000000000000815260040160405180910390fd5b50505050565b60006016541480612e2a57506016544211155b15612e61576040517ffb196f7500000000000000000000000000000000000000000000000000000000815260040160405180910390fd5b565b60005b601c54811015612f63576000601b8281548110612e8657612e856142cf565b5b9060005260206000200160009054906101000a900473ffffffffffffffffffffffffffffffffffffffff1690506000612ebd613aad565b9050600260009054906101000a900473ffffffffffffffffffffffffffffffffffffffff1673ffffffffffffffffffffffffffffffffffffffff166340c10f1983836040518363ffffffff1660e01b8152600401612f1c929190614641565b600060405180830381600087803b158015612f3657600080fd5b505af1158015612f4a573d6000803e3d6000fd5b5050505050508080612f5b90614287565b915050612e66565b50565b60008060005b601a54811015612fd557600060198281548110612f8c57612f8b6142cf565b5b9060005260206000200154905060006017600083815260200190815260200160002054905083811115612fc0578093508194505b50508080612fcd90614287565b915050612f6c565b505090565b6000601360003373ffffffffffffffffffffffffffffffffffffffff1673ffffffffffffffffffffffffffffffffffffffff1681526020019081526020016000205403613053576040517f0ba7474000000000000000000000000000000000000000000000000000000000815260040160405180910390fd5b565b6000810361308f576040517f64fc58f000000000000000000000000000000000000000000000000000000000815260040160405180910390fd5b50565b601060008273ffffffffffffffffffffffffffffffffffffffff1673ffffffffffffffffffffffffffffffffffffffff16815260200190815260200160002060009054906101000a900460ff16613115576040517fed8b45b100000000000000000000000000000000000000000000000000000000815260040160405180910390fd5b50565b61312061272f565b15613157576040517fa9d47e0400000000000000000000000000000000000000000000000000000000815260040160405180910390fd5b565b428111613192576040517fc733873c00000000000000000000000000000000000000000000000000000000815260040160405180910390fd5b50565b60005b601a548110156131f2576000601982815481106131b8576131b76142cf565b5b90600052602060002001549050600060176000838152602001908152602001600020819055505080806131ea90614287565b915050613198565b506000601c819055506000601a81905550565b6000600160009054906101000a900473ffffffffffffffffffffffffffffffffffffffff16905081600160006101000a81548173ffffffffffffffffffffffffffffffffffffffff021916908373ffffffffffffffffffffffffffffffffffffffff1602179055508173ffffffffffffffffffffffffffffffffffffffff168173ffffffffffffffffffffffffffffffffffffffff167f8be0079c531659141344cd1fd0a4f28419497f9722a3daafe3b4186f6b6457e060405160405180910390a35050565b60008282905003613308576040517fd9a5fbfc00000000000000000000000000000000000000000000000000000000815260040160405180910390fd5b5050565b6000600660003373ffffffffffffffffffffffffffffffffffffffff1673ffffffffffffffffffffffffffffffffffffffff168152602001908152602001600020541115613386576040517f9b70f42400000000000000000000000000000000000000000000000000000000815260040160405180910390fd5b565b6000613392613ac4565b905060006012600083815260200190815260200160002080546133b490614713565b905011156133c7576133c4613ac4565b90505b816012600083815260200190815260200160002090816133e79190614c5a565b5080600660008573ffffffffffffffffffffffffffffffffffffffff1673ffffffffffffffffffffffffffffffffffffffff168152602001908152602001600020819055506008600081548092919061343f90614287565b91905055506007839080600181540180825580915050600190039060005260206000200160009091909190916101000a81548173ffffffffffffffffffffffffffffffffffffffff021916908373ffffffffffffffffffffffffffffffffffffffff16021790555080600160028111156134bc576134bb614d2c565b5b8473ffffffffffffffffffffffffffffffffffffffff167f530708815c9407cb1f2859a353ee291d1acfe7a488d4347780a1d35690b90726856040516135029190613f6c565b60405180910390a4505050565b6000601360003373ffffffffffffffffffffffffffffffffffffffff1673ffffffffffffffffffffffffffffffffffffffff168152602001908152602001600020541115613589576040517fefecdc3c00000000000000000000000000000000000000000000000000000000815260040160405180910390fd5b565b601160008273ffffffffffffffffffffffffffffffffffffffff1673ffffffffffffffffffffffffffffffffffffffff16815260200190815260200160002060009054906101000a900460ff161561360f576040517febca463b00000000000000000000000000000000000000000000000000000000815260040160405180910390fd5b50565b601060008273ffffffffffffffffffffffffffffffffffffffff1673ffffffffffffffffffffffffffffffffffffffff16815260200190815260200160002060009054906101000a900460ff1615613696576040517f18d9ae0900000000000000000000000000000000000000000000000000000000815260040160405180910390fd5b50565b600082829050036136d6576040517fe7f85e7900000000000000000000000000000000000000000000000000000000815260040160405180910390fd5b5050565b60006136e4613ac4565b9050600060096000838152602001908152602001600020805461370690614713565b9050111561371957613716613ac4565b90505b826009600083815260200190815260200160002090816137399190614c5a565b50600a60008573ffffffffffffffffffffffffffffffffffffffff1673ffffffffffffffffffffffffffffffffffffffff168152602001908152602001600020819080600181540180825580915050600190039060005260206000200160009091909190915055600b60008573ffffffffffffffffffffffffffffffffffffffff1673ffffffffffffffffffffffffffffffffffffffff16815260200190815260200160002060008154809291906137f090614287565b919050555081600f6000838152602001908152602001600020819055508060028081111561382157613820614d2c565b5b8573ffffffffffffffffffffffffffffffffffffffff167f530708815c9407cb1f2859a353ee291d1acfe7a488d4347780a1d35690b90726866040516138679190613f6c565b60405180910390a450505050565b600082829050036138b2576040517ff2486cbe00000000000000000000000000000000000000000000000000000000815260040160405180910390fd5b60005b82829050811015613a2e5760008383838181106138d5576138d46142cf565b5b9050604002018036038101906138eb9190614814565b9050600060066000836000015173ffffffffffffffffffffffffffffffffffffffff1673ffffffffffffffffffffffffffffffffffffffff168152602001908152602001600020540361397f57806000015181602001516040517f3b573da2000000000000000000000000000000000000000000000000000000008152600401613976929190614641565b60405180910390fd5b6000600c6000836000015173ffffffffffffffffffffffffffffffffffffffff1673ffffffffffffffffffffffffffffffffffffffff16815260200190815260200160002054905081602001518110613a1957816000015182602001516040517f3b573da2000000000000000000000000000000000000000000000000000000008152600401613a10929190614641565b60405180910390fd5b50508080613a2690614287565b9150506138b5565b505050565b60008060008484600090602092613a4c93929190614d65565b90613a579190614dab565b92508484602090604092613a6d93929190614d65565b90613a789190614dab565b91508484604090604192613a8e93929190614d65565b90613a999190614e36565b60f81c90509250925092565b600033905090565b6000601c54600554613abf9190614ec4565b905090565b6000615aff461480613ad75750615afe46145b15613b1957613b06602042604051602001613af29190614f16565b604051602081830303815290604052613b52565b613b0f90614f61565b60001c9050613b4f565b334340424441604051602001613b3395949392919061504b565b6040516020818303038152906040528051906020012060001c90505b90565b606060008073010000000000000000000000000000000000000173ffffffffffffffffffffffffffffffffffffffff168585604051602001613b959291906150f4565b604051602081830303815290604052604051613bb19190615155565b600060405180830381855afa9150503d8060008114613bec576040519150601f19603f3d011682016040523d82523d6000602084013e613bf1565b606091505b509150915081613c36576040517f08c379a0000000000000000000000000000000000000000000000000000000008152600401613c2d906151b8565b60405180910390fd5b809250505092915050565b6000604051905090565b600080fd5b600080fd5b6000819050919050565b613c6881613c55565b8114613c7357600080fd5b50565b600081359050613c8581613c5f565b92915050565b600060208284031215613ca157613ca0613c4b565b5b6000613caf84828501613c76565b91505092915050565b600073ffffffffffffffffffffffffffffffffffffffff82169050919050565b6000613ce382613cb8565b9050919050565b613cf381613cd8565b8114613cfe57600080fd5b50565b600081359050613d1081613cea565b92915050565b600060208284031215613d2c57613d2b613c4b565b5b6000613d3a84828501613d01565b91505092915050565b613d4c81613c55565b82525050565b6000602082019050613d676000830184613d43565b92915050565b600080fd5b600080fd5b600080fd5b60008083601f840112613d9257613d91613d6d565b5b8235905067ffffffffffffffff811115613daf57613dae613d72565b5b602083019150836001820283011115613dcb57613dca613d77565b5b9250929050565b600080600060408486031215613deb57613dea613c4b565b5b6000613df986828701613d01565b935050602084013567ffffffffffffffff811115613e1a57613e19613c50565b5b613e2686828701613d7c565b92509250509250925092565b60008115159050919050565b613e4781613e32565b82525050565b6000602082019050613e626000830184613e3e565b92915050565b60008060408385031215613e7f57613e7e613c4b565b5b6000613e8d85828601613d01565b9250506020613e9e85828601613c76565b9150509250929050565b6000819050919050565b613ebb81613ea8565b82525050565b6000602082019050613ed66000830184613eb2565b92915050565b600081519050919050565b600082825260208201905092915050565b60005b83811015613f16578082015181840152602081019050613efb565b60008484015250505050565b6000601f19601f8301169050919050565b6000613f3e82613edc565b613f488185613ee7565b9350613f58818560208601613ef8565b613f6181613f22565b840191505092915050565b60006020820190508181036000830152613f868184613f33565b905092915050565b60008060408385031215613fa557613fa4613c4b565b5b6000613fb385828601613c76565b9250506020613fc485828601613d01565b9150509250929050565b613fd781613cd8565b82525050565b6000602082019050613ff26000830184613fce565b92915050565b60008083601f84011261400e5761400d613d6d565b5b8235905067ffffffffffffffff81111561402b5761402a613d72565b5b60208301915083600182028301111561404757614046613d77565b5b9250929050565b6000806020838503121561406557614064613c4b565b5b600083013567ffffffffffffffff81111561408357614082613c50565b5b61408f85828601613ff8565b92509250509250929050565b600080604083850312156140b2576140b1613c4b565b5b60006140c085828601613c76565b92505060206140d185828601613c76565b9150509250929050565b6000819050919050565b60006141006140fb6140f684613cb8565b6140db565b613cb8565b9050919050565b6000614112826140e5565b9050919050565b600061412482614107565b9050919050565b61413481614119565b82525050565b600060208201905061414f600083018461412b565b92915050565b60008060006040848603121561416e5761416d613c4b565b5b600084013567ffffffffffffffff81111561418c5761418b613c50565b5b61419886828701613ff8565b935093505060206141ab86828701613c76565b9150509250925092565b60008083601f8401126141cb576141ca613d6d565b5b8235905067ffffffffffffffff8111156141e8576141e7613d72565b5b60208301915083604082028301111561420457614203613d77565b5b9250929050565b6000806020838503121561422257614221613c4b565b5b600083013567ffffffffffffffff8111156142405761423f613c50565b5b61424c858286016141b5565b92509250509250929050565b7f4e487b7100000000000000000000000000000000000000000000000000000000600052601160045260246000fd5b600061429282613c55565b91507fffffffffffffffffffffffffffffffffffffffffffffffffffffffffffffffff82036142c4576142c3614258565b5b600182019050919050565b7f4e487b7100000000000000000000000000000000000000000000000000000000600052603260045260246000fd5b600060ff82169050919050565b614314816142fe565b811461431f57600080fd5b50565b6000815190506143318161430b565b92915050565b60006020828403121561434d5761434c613c4b565b5b600061435b84828501614322565b91505092915050565b60008160011c9050919050565b6000808291508390505b60018511156143bb5780860481111561439757614396614258565b5b60018516156143a65780820291505b80810290506143b485614364565b945061437b565b94509492505050565b6000826143d45760019050614490565b816143e25760009050614490565b81600181146143f8576002811461440257614431565b6001915050614490565b60ff84111561441457614413614258565b5b8360020a91508482111561442b5761442a614258565b5b50614490565b5060208310610133831016604e8410600b84101617156144665782820a90508381111561446157614460614258565b5b614490565b6144738484846001614371565b9250905081840481111561448a57614489614258565b5b81810290505b9392505050565b60006144a282613c55565b91506144ad83613c55565b92506144da7fffffffffffffffffffffffffffffffffffffffffffffffffffffffffffffffff84846143c4565b905092915050565b60006144ed82613c55565b91506144f883613c55565b925082820261450681613c55565b9150828204841483151761451d5761451c614258565b5b5092915050565b60006060820190506145396000830186613fce565b6145466020830185613fce565b6145536040830184613d43565b949350505050565b61456481613e32565b811461456f57600080fd5b50565b6000815190506145818161455b565b92915050565b60006020828403121561459d5761459c613c4b565b5b60006145ab84828501614572565b91505092915050565b6000815190506145c381613c5f565b92915050565b6000602082840312156145df576145de613c4b565b5b60006145ed848285016145b4565b91505092915050565b600061460182613c55565b915061460c836142fe565b92506146397fffffffffffffffffffffffffffffffffffffffffffffffffffffffffffffffff84846143c4565b905092915050565b60006040820190506146566000830185613fce565b6146636020830184613d43565b9392505050565b600061467582613c55565b915061468083613c55565b925082820190508082111561469857614697614258565b5b92915050565b600081905092915050565b50565b60006146b960008361469e565b91506146c4826146a9565b600082019050919050565b60006146da826146ac565b9150819050919050565b7f4e487b7100000000000000000000000000000000000000000000000000000000600052602260045260246000fd5b6000600282049050600182168061472b57607f821691505b60208210810361473e5761473d6146e4565b5b50919050565b600080fd5b7f4e487b7100000000000000000000000000000000000000000000000000000000600052604160045260246000fd5b61478182613f22565b810181811067ffffffffffffffff821117156147a05761479f614749565b5b80604052505050565b60006147b3613c41565b90506147bf8282614778565b919050565b6000604082840312156147da576147d9614744565b5b6147e460406147a9565b905060006147f484828501613d01565b600083015250602061480884828501613c76565b60208301525092915050565b60006040828403121561482a57614829613c4b565b5b6000614838848285016147c4565b91505092915050565b7f4f776e61626c653a206e6577206f776e657220697320746865207a65726f206160008201527f6464726573730000000000000000000000000000000000000000000000000000602082015250565b600061489d602683613ee7565b91506148a882614841565b604082019050919050565b600060208201905081810360008301526148cc81614890565b9050919050565b60006148de82613c55565b91506148e983613c55565b925082820390508181111561490157614900614258565b5b92915050565b600081905092915050565b600061491d82613edc565b6149278185614907565b9350614937818560208601613ef8565b80840191505092915050565b6000819050919050565b61495e61495982613ea8565b614943565b82525050565b60006149708285614912565b915061497c828461494d565b6020820191508190509392505050565b614995816142fe565b82525050565b60006080820190506149b06000830187613eb2565b6149bd602083018661498c565b6149ca6040830185613eb2565b6149d76060830184613eb2565b95945050505050565b7f4f776e61626c653a2063616c6c6572206973206e6f7420746865206f776e6572600082015250565b6000614a16602083613ee7565b9150614a21826149e0565b602082019050919050565b60006020820190508181036000830152614a4581614a09565b9050919050565b7f5265656e7472616e637947756172643a207265656e7472616e742063616c6c00600082015250565b6000614a82601f83613ee7565b9150614a8d82614a4c565b602082019050919050565b60006020820190508181036000830152614ab181614a75565b9050919050565b60008190508160005260206000209050919050565b60006020601f8301049050919050565b600082821b905092915050565b600060088302614b1a7fffffffffffffffffffffffffffffffffffffffffffffffffffffffffffffffff82614add565b614b248683614add565b95508019841693508086168417925050509392505050565b6000614b57614b52614b4d84613c55565b6140db565b613c55565b9050919050565b6000819050919050565b614b7183614b3c565b614b85614b7d82614b5e565b848454614aea565b825550505050565b600090565b614b9a614b8d565b614ba5818484614b68565b505050565b5b81811015614bc957614bbe600082614b92565b600181019050614bab565b5050565b601f821115614c0e57614bdf81614ab8565b614be884614acd565b81016020851015614bf7578190505b614c0b614c0385614acd565b830182614baa565b50505b505050565b600082821c905092915050565b6000614c3160001984600802614c13565b1980831691505092915050565b6000614c4a8383614c20565b9150826002028217905092915050565b614c6382613edc565b67ffffffffffffffff811115614c7c57614c7b614749565b5b614c868254614713565b614c91828285614bcd565b600060209050601f831160018114614cc45760008415614cb2578287015190505b614cbc8582614c3e565b865550614d24565b601f198416614cd286614ab8565b60005b82811015614cfa57848901518255600182019150602085019450602081019050614cd5565b86831015614d175784890151614d13601f891682614c20565b8355505b6001600288020188555050505b505050505050565b7f4e487b7100000000000000000000000000000000000000000000000000000000600052602160045260246000fd5b600080fd5b600080fd5b60008085851115614d7957614d78614d5b565b5b83861115614d8a57614d89614d60565b5b6001850283019150848603905094509492505050565b600082905092915050565b6000614db78383614da0565b82614dc28135613ea8565b92506020821015614e0257614dfd7fffffffffffffffffffffffffffffffffffffffffffffffffffffffffffffffff83602003600802614add565b831692505b505092915050565b60007fff0000000000000000000000000000000000000000000000000000000000000082169050919050565b6000614e428383614da0565b82614e4d8135614e0a565b92506001821015614e8d57614e887fff0000000000000000000000000000000000000000000000000000000000000083600103600802614add565b831692505b505092915050565b7f4e487b7100000000000000000000000000000000000000000000000000000000600052601260045260246000fd5b6000614ecf82613c55565b9150614eda83613c55565b925082614eea57614ee9614e95565b5b828204905092915050565b6000819050919050565b614f10614f0b82613c55565b614ef5565b82525050565b6000614f228284614eff565b60208201915081905092915050565b600081519050919050565b6000819050602082019050919050565b6000614f588251613ea8565b80915050919050565b6000614f6c82614f31565b82614f7684614f3c565b9050614f8181614f4c565b92506020821015614fc157614fbc7fffffffffffffffffffffffffffffffffffffffffffffffffffffffffffffffff83602003600802614add565b831692505b5050919050565b60008160601b9050919050565b6000614fe082614fc8565b9050919050565b6000614ff282614fd5565b9050919050565b61500a61500582613cd8565b614fe7565b82525050565b600061501b82613cb8565b9050919050565b600061502d82614fd5565b9050919050565b61504561504082615010565b615022565b82525050565b60006150578288614ff9565b601482019150615067828761494d565b6020820191506150778286614eff565b6020820191506150878285614eff565b6020820191506150978284615034565b6014820191508190509695505050505050565b600082825260208201905092915050565b60006150c682614f31565b6150d081856150aa565b93506150e0818560208601613ef8565b6150e981613f22565b840191505092915050565b60006040820190506151096000830185613d43565b818103602083015261511b81846150bb565b90509392505050565b600061512f82614f31565b615139818561469e565b9350615149818560208601613ef8565b80840191505092915050565b60006151618284615124565b915081905092915050565b7f72616e646f6d42797465733a206661696c656400000000000000000000000000600082015250565b60006151a2601383613ee7565b91506151ad8261516c565b602082019050919050565b600060208201905081810360008301526151d181615195565b905091905056fea264697066735822122068eb65a7bb4d40b3163e35e89219f197e191fc42aabf9b03852f000d75caf7c864736f6c6343000813003360806040523480156200001157600080fd5b506040518060400160405280600a81526020017f4a55535420746f6b656e000000000000000000000000000000000000000000008152506040518060400160405280600481526020017f4a5553540000000000000000000000000000000000000000000000000000000081525081600390816200008f919062000412565b508060049081620000a1919062000412565b505050620000c4620000b8620000ca60201b60201c565b620000d260201b60201c565b620004f9565b600033905090565b6000600560009054906101000a900473ffffffffffffffffffffffffffffffffffffffff16905081600560006101000a81548173ffffffffffffffffffffffffffffffffffffffff021916908373ffffffffffffffffffffffffffffffffffffffff1602179055508173ffffffffffffffffffffffffffffffffffffffff168173ffffffffffffffffffffffffffffffffffffffff167f8be0079c531659141344cd1fd0a4f28419497f9722a3daafe3b4186f6b6457e060405160405180910390a35050565b600081519050919050565b7f4e487b7100000000000000000000000000000000000000000000000000000000600052604160045260246000fd5b7f4e487b7100000000000000000000000000000000000000000000000000000000600052602260045260246000fd5b600060028204905060018216806200021a57607f821691505b60208210810362000230576200022f620001d2565b5b50919050565b60008190508160005260206000209050919050565b60006020601f8301049050919050565b600082821b905092915050565b6000600883026200029a7fffffffffffffffffffffffffffffffffffffffffffffffffffffffffffffffff826200025b565b620002a686836200025b565b95508019841693508086168417925050509392505050565b6000819050919050565b6000819050919050565b6000620002f3620002ed620002e784620002be565b620002c8565b620002be565b9050919050565b6000819050919050565b6200030f83620002d2565b620003276200031e82620002fa565b84845462000268565b825550505050565b600090565b6200033e6200032f565b6200034b81848462000304565b505050565b5b8181101562000373576200036760008262000334565b60018101905062000351565b5050565b601f821115620003c2576200038c8162000236565b62000397846200024b565b81016020851015620003a7578190505b620003bf620003b6856200024b565b83018262000350565b50505b505050565b600082821c905092915050565b6000620003e760001984600802620003c7565b1980831691505092915050565b6000620004028383620003d4565b9150826002028217905092915050565b6200041d8262000198565b67ffffffffffffffff811115620004395762000438620001a3565b5b62000445825462000201565b6200045282828562000377565b600060209050601f8311600181146200048a576000841562000475578287015190505b620004818582620003f4565b865550620004f1565b601f1984166200049a8662000236565b60005b82811015620004c4578489015182556001820191506020850194506020810190506200049d565b86831015620004e45784890151620004e0601f891682620003d4565b8355505b6001600288020188555050505b505050505050565b6117e080620005096000396000f3fe608060405234801561001057600080fd5b50600436106100f55760003560e01c806370a0823111610097578063a457c2d711610066578063a457c2d714610276578063a9059cbb146102a6578063dd62ed3e146102d6578063f2fde38b14610306576100f5565b806370a0823114610200578063715018a6146102305780638da5cb5b1461023a57806395d89b4114610258576100f5565b806323b872dd116100d357806323b872dd14610166578063313ce5671461019657806339509351146101b457806340c10f19146101e4576100f5565b806306fdde03146100fa578063095ea7b31461011857806318160ddd14610148575b600080fd5b610102610322565b60405161010f9190610f29565b60405180910390f35b610132600480360381019061012d9190610fe4565b6103b4565b60405161013f919061103f565b60405180910390f35b6101506103d7565b60405161015d9190611069565b60405180910390f35b610180600480360381019061017b9190611084565b6103e1565b60405161018d919061103f565b60405180910390f35b61019e610410565b6040516101ab91906110f3565b60405180910390f35b6101ce60048036038101906101c99190610fe4565b610419565b6040516101db919061103f565b60405180910390f35b6101fe60048036038101906101f99190610fe4565b610450565b005b61021a6004803603810190610215919061110e565b610466565b6040516102279190611069565b60405180910390f35b6102386104ae565b005b6102426104c2565b60405161024f919061114a565b60405180910390f35b6102606104ec565b60405161026d9190610f29565b60405180910390f35b610290600480360381019061028b9190610fe4565b61057e565b60405161029d919061103f565b60405180910390f35b6102c060048036038101906102bb9190610fe4565b6105f5565b6040516102cd919061103f565b60405180910390f35b6102f060048036038101906102eb9190611165565b610618565b6040516102fd9190611069565b60405180910390f35b610320600480360381019061031b919061110e565b61069f565b005b606060038054610331906111d4565b80601f016020809104026020016040519081016040528092919081815260200182805461035d906111d4565b80156103aa5780601f1061037f576101008083540402835291602001916103aa565b820191906000526020600020905b81548152906001019060200180831161038d57829003601f168201915b5050505050905090565b6000806103bf610722565b90506103cc81858561072a565b600191505092915050565b6000600254905090565b6000806103ec610722565b90506103f98582856108f3565b61040485858561097f565b60019150509392505050565b60006012905090565b600080610424610722565b90506104458185856104368589610618565b6104409190611234565b61072a565b600191505092915050565b610458610bf5565b6104628282610c73565b5050565b60008060008373ffffffffffffffffffffffffffffffffffffffff1673ffffffffffffffffffffffffffffffffffffffff168152602001908152602001600020549050919050565b6104b6610bf5565b6104c06000610dc9565b565b6000600560009054906101000a900473ffffffffffffffffffffffffffffffffffffffff16905090565b6060600480546104fb906111d4565b80601f0160208091040260200160405190810160405280929190818152602001828054610527906111d4565b80156105745780601f1061054957610100808354040283529160200191610574565b820191906000526020600020905b81548152906001019060200180831161055757829003601f168201915b5050505050905090565b600080610589610722565b905060006105978286610618565b9050838110156105dc576040517f08c379a00000000000000000000000000000000000000000000000000000000081526004016105d3906112da565b60405180910390fd5b6105e9828686840361072a565b60019250505092915050565b600080610600610722565b905061060d81858561097f565b600191505092915050565b6000600160008473ffffffffffffffffffffffffffffffffffffffff1673ffffffffffffffffffffffffffffffffffffffff16815260200190815260200160002060008373ffffffffffffffffffffffffffffffffffffffff1673ffffffffffffffffffffffffffffffffffffffff16815260200190815260200160002054905092915050565b6106a7610bf5565b600073ffffffffffffffffffffffffffffffffffffffff168173ffffffffffffffffffffffffffffffffffffffff1603610716576040517f08c379a000000000000000000000000000000000000000000000000000000000815260040161070d9061136c565b60405180910390fd5b61071f81610dc9565b50565b600033905090565b600073ffffffffffffffffffffffffffffffffffffffff168373ffffffffffffffffffffffffffffffffffffffff1603610799576040517f08c379a0000000000000000000000000000000000000000000000000000000008152600401610790906113fe565b60405180910390fd5b600073ffffffffffffffffffffffffffffffffffffffff168273ffffffffffffffffffffffffffffffffffffffff1603610808576040517f08c379a00000000000000000000000000000000000000000000000000000000081526004016107ff90611490565b60405180910390fd5b80600160008573ffffffffffffffffffffffffffffffffffffffff1673ffffffffffffffffffffffffffffffffffffffff16815260200190815260200160002060008473ffffffffffffffffffffffffffffffffffffffff1673ffffffffffffffffffffffffffffffffffffffff168152602001908152602001600020819055508173ffffffffffffffffffffffffffffffffffffffff168373ffffffffffffffffffffffffffffffffffffffff167f8c5be1e5ebec7d5bd14f71427d1e84f3dd0314c0f7b2291e5b200ac8c7c3b925836040516108e69190611069565b60405180910390a3505050565b60006108ff8484610618565b90507fffffffffffffffffffffffffffffffffffffffffffffffffffffffffffffffff8114610979578181101561096b576040517f08c379a0000000000000000000000000000000000000000000000000000000008152600401610962906114fc565b60405180910390fd5b610978848484840361072a565b5b50505050565b600073ffffffffffffffffffffffffffffffffffffffff168373ffffffffffffffffffffffffffffffffffffffff16036109ee576040517f08c379a00000000000000000000000000000000000000000000000000000000081526004016109e59061158e565b60405180910390fd5b600073ffffffffffffffffffffffffffffffffffffffff168273ffffffffffffffffffffffffffffffffffffffff1603610a5d576040517f08c379a0000000000000000000000000000000000000000000000000000000008152600401610a5490611620565b60405180910390fd5b610a68838383610e8f565b60008060008573ffffffffffffffffffffffffffffffffffffffff1673ffffffffffffffffffffffffffffffffffffffff16815260200190815260200160002054905081811015610aee576040517f08c379a0000000000000000000000000000000000000000000000000000000008152600401610ae5906116b2565b60405180910390fd5b8181036000808673ffffffffffffffffffffffffffffffffffffffff1673ffffffffffffffffffffffffffffffffffffffff16815260200190815260200160002081905550816000808573ffffffffffffffffffffffffffffffffffffffff1673ffffffffffffffffffffffffffffffffffffffff168152602001908152602001600020600082825401925050819055508273ffffffffffffffffffffffffffffffffffffffff168473ffffffffffffffffffffffffffffffffffffffff167fddf252ad1be2c89b69c2b068fc378daa952ba7f163c4a11628f55a4df523b3ef84604051610bdc9190611069565b60405180910390a3610bef848484610e94565b50505050565b610bfd610722565b73ffffffffffffffffffffffffffffffffffffffff16610c1b6104c2565b73ffffffffffffffffffffffffffffffffffffffff1614610c71576040517f08c379a0000000000000000000000000000000000000000000000000000000008152600401610c689061171e565b60405180910390fd5b565b600073ffffffffffffffffffffffffffffffffffffffff168273ffffffffffffffffffffffffffffffffffffffff1603610ce2576040517f08c379a0000000000000000000000000000000000000000000000000000000008152600401610cd99061178a565b60405180910390fd5b610cee60008383610e8f565b8060026000828254610d009190611234565b92505081905550806000808473ffffffffffffffffffffffffffffffffffffffff1673ffffffffffffffffffffffffffffffffffffffff168152602001908152602001600020600082825401925050819055508173ffffffffffffffffffffffffffffffffffffffff16600073ffffffffffffffffffffffffffffffffffffffff167fddf252ad1be2c89b69c2b068fc378daa952ba7f163c4a11628f55a4df523b3ef83604051610db19190611069565b60405180910390a3610dc560008383610e94565b5050565b6000600560009054906101000a900473ffffffffffffffffffffffffffffffffffffffff16905081600560006101000a81548173ffffffffffffffffffffffffffffffffffffffff021916908373ffffffffffffffffffffffffffffffffffffffff1602179055508173ffffffffffffffffffffffffffffffffffffffff168173ffffffffffffffffffffffffffffffffffffffff167f8be0079c531659141344cd1fd0a4f28419497f9722a3daafe3b4186f6b6457e060405160405180910390a35050565b505050565b505050565b600081519050919050565b600082825260208201905092915050565b60005b83811015610ed3578082015181840152602081019050610eb8565b60008484015250505050565b6000601f19601f8301169050919050565b6000610efb82610e99565b610f058185610ea4565b9350610f15818560208601610eb5565b610f1e81610edf565b840191505092915050565b60006020820190508181036000830152610f438184610ef0565b905092915050565b600080fd5b600073ffffffffffffffffffffffffffffffffffffffff82169050919050565b6000610f7b82610f50565b9050919050565b610f8b81610f70565b8114610f9657600080fd5b50565b600081359050610fa881610f82565b92915050565b6000819050919050565b610fc181610fae565b8114610fcc57600080fd5b50565b600081359050610fde81610fb8565b92915050565b60008060408385031215610ffb57610ffa610f4b565b5b600061100985828601610f99565b925050602061101a85828601610fcf565b9150509250929050565b60008115159050919050565b61103981611024565b82525050565b60006020820190506110546000830184611030565b92915050565b61106381610fae565b82525050565b600060208201905061107e600083018461105a565b92915050565b60008060006060848603121561109d5761109c610f4b565b5b60006110ab86828701610f99565b93505060206110bc86828701610f99565b92505060406110cd86828701610fcf565b9150509250925092565b600060ff82169050919050565b6110ed816110d7565b82525050565b600060208201905061110860008301846110e4565b92915050565b60006020828403121561112457611123610f4b565b5b600061113284828501610f99565b91505092915050565b61114481610f70565b82525050565b600060208201905061115f600083018461113b565b92915050565b6000806040838503121561117c5761117b610f4b565b5b600061118a85828601610f99565b925050602061119b85828601610f99565b9150509250929050565b7f4e487b7100000000000000000000000000000000000000000000000000000000600052602260045260246000fd5b600060028204905060018216806111ec57607f821691505b6020821081036111ff576111fe6111a5565b5b50919050565b7f4e487b7100000000000000000000000000000000000000000000000000000000600052601160045260246000fd5b600061123f82610fae565b915061124a83610fae565b925082820190508082111561126257611261611205565b5b92915050565b7f45524332303a2064656372656173656420616c6c6f77616e63652062656c6f7760008201527f207a65726f000000000000000000000000000000000000000000000000000000602082015250565b60006112c4602583610ea4565b91506112cf82611268565b604082019050919050565b600060208201905081810360008301526112f3816112b7565b9050919050565b7f4f776e61626c653a206e6577206f776e657220697320746865207a65726f206160008201527f6464726573730000000000000000000000000000000000000000000000000000602082015250565b6000611356602683610ea4565b9150611361826112fa565b604082019050919050565b6000602082019050818103600083015261138581611349565b9050919050565b7f45524332303a20617070726f76652066726f6d20746865207a65726f2061646460008201527f7265737300000000000000000000000000000000000000000000000000000000602082015250565b60006113e8602483610ea4565b91506113f38261138c565b604082019050919050565b60006020820190508181036000830152611417816113db565b9050919050565b7f45524332303a20617070726f766520746f20746865207a65726f20616464726560008201527f7373000000000000000000000000000000000000000000000000000000000000602082015250565b600061147a602283610ea4565b91506114858261141e565b604082019050919050565b600060208201905081810360008301526114a98161146d565b9050919050565b7f45524332303a20696e73756666696369656e7420616c6c6f77616e6365000000600082015250565b60006114e6601d83610ea4565b91506114f1826114b0565b602082019050919050565b60006020820190508181036000830152611515816114d9565b9050919050565b7f45524332303a207472616e736665722066726f6d20746865207a65726f20616460008201527f6472657373000000000000000000000000000000000000000000000000000000602082015250565b6000611578602583610ea4565b91506115838261151c565b604082019050919050565b600060208201905081810360008301526115a78161156b565b9050919050565b7f45524332303a207472616e7366657220746f20746865207a65726f206164647260008201527f6573730000000000000000000000000000000000000000000000000000000000602082015250565b600061160a602383610ea4565b9150611615826115ae565b604082019050919050565b60006020820190508181036000830152611639816115fd565b9050919050565b7f45524332303a207472616e7366657220616d6f756e742065786365656473206260008201527f616c616e63650000000000000000000000000000000000000000000000000000602082015250565b600061169c602683610ea4565b91506116a782611640565b604082019050919050565b600060208201905081810360008301526116cb8161168f565b9050919050565b7f4f776e61626c653a2063616c6c6572206973206e6f7420746865206f776e6572600082015250565b6000611708602083610ea4565b9150611713826116d2565b602082019050919050565b60006020820190508181036000830152611737816116fb565b9050919050565b7f45524332303a206d696e7420746f20746865207a65726f206164647265737300600082015250565b6000611774601f83610ea4565b915061177f8261173e565b602082019050919050565b600060208201905081810360008301526117a381611767565b905091905056fea26469706673582212205549c8f446cc8d6a960f8a9ba8643b74b7a57e12330df84eee5cba4aceed8c5864736f6c63430008130033",
  "linkReferences": {},
  "deployedLinkReferences": {}
}