{
  "_format": "hh-sol-artifact-1",
  "contractName": "Platform",
  "sourceName": "contracts/Platform.sol",
  "abi": [
    {
      "inputs": [
        {
          "internalType": "uint256",
          "name": "_rewardsForProposal",
          "type": "uint256"
        },
        {
          "internalType": "uint256",
          "name": "_pricePerToken",
          "type": "uint256"
        },
        {
          "internalType": "bytes32",
          "name": "_encryptionKey",
          "type": "bytes32"
        }
      ],
      "stateMutability": "nonpayable",
      "type": "constructor"
    },
    {
      "inputs": [],
      "name": "AccountIsEncryptor",
      "type": "error"
    },
    {
      "inputs": [],
      "name": "AccountIsReporter",
      "type": "error"
    },
    {
      "inputs": [],
      "name": "AccountNotEncryptor",
      "type": "error"
    },
    {
      "inputs": [],
      "name": "AccountNotReporter",
      "type": "error"
    },
    {
      "inputs": [],
      "name": "AlreadyVoted",
      "type": "error"
    },
    {
      "inputs": [],
      "name": "AmountCannotBeZero",
      "type": "error"
    },
    {
      "inputs": [],
      "name": "AmountMustMatchValueExactly",
      "type": "error"
    },
    {
      "inputs": [],
      "name": "ArtistAlreadyRegistered",
      "type": "error"
    },
    {
      "inputs": [],
      "name": "ArtistDoesNotOwnSong",
      "type": "error"
    },
    {
      "inputs": [],
      "name": "ArtistNameRequired",
      "type": "error"
    },
    {
      "inputs": [],
      "name": "CannotBuyNonExclusiveSongs",
      "type": "error"
    },
    {
      "inputs": [],
      "name": "InsufficientTokenBalance",
      "type": "error"
    },
    {
      "inputs": [],
      "name": "InvalidSignature",
      "type": "error"
    },
    {
      "inputs": [],
      "name": "NoClaimableRewards",
      "type": "error"
    },
    {
      "inputs": [],
      "name": "NoUpdatesGiven",
      "type": "error"
    },
    {
      "inputs": [],
      "name": "NotARegisteredArtist",
      "type": "error"
    },
    {
      "inputs": [],
      "name": "PriceCannotBeZero",
      "type": "error"
    },
    {
      "inputs": [],
      "name": "RewardsCannotBeZero",
      "type": "error"
    },
    {
      "inputs": [],
      "name": "RewardsPerProposalZero",
      "type": "error"
    },
    {
      "inputs": [],
      "name": "SongDoesNotExist",
      "type": "error"
    },
    {
      "inputs": [],
      "name": "SongUriRequired",
      "type": "error"
    },
    {
      "inputs": [],
      "name": "SubscriptionAlreadyCreated",
      "type": "error"
    },
    {
      "inputs": [],
      "name": "SubscriptionNotCreated",
      "type": "error"
    },
    {
      "inputs": [],
      "name": "TimestampMustBeInFuture",
      "type": "error"
    },
    {
      "inputs": [
        {
          "internalType": "address",
          "name": "artist",
          "type": "address"
        },
        {
          "internalType": "uint256",
          "name": "playedMinutes",
          "type": "uint256"
        }
      ],
      "name": "UpdateInvalid",
      "type": "error"
    },
    {
      "inputs": [],
      "name": "ValueCannotBeZero",
      "type": "error"
    },
    {
      "inputs": [],
      "name": "ValueMustMatchOneOfThePlans",
      "type": "error"
    },
    {
      "inputs": [],
      "name": "VotingActive",
      "type": "error"
    },
    {
      "inputs": [],
      "name": "VotingHasNotEnded",
      "type": "error"
    },
    {
      "inputs": [],
      "name": "VotingIsAlreadyOpen",
      "type": "error"
    },
    {
      "inputs": [],
      "name": "VotingNotActive",
      "type": "error"
    },
    {
      "anonymous": false,
      "inputs": [
        {
          "indexed": true,
          "internalType": "address",
          "name": "account",
          "type": "address"
        }
      ],
      "name": "EncryptorAdded",
      "type": "event"
    },
    {
      "anonymous": false,
      "inputs": [
        {
          "indexed": true,
          "internalType": "address",
          "name": "account",
          "type": "address"
        }
      ],
      "name": "EncryptorRemoved",
      "type": "event"
    },
    {
      "anonymous": false,
      "inputs": [
        {
          "indexed": true,
          "internalType": "address",
          "name": "previousOwner",
          "type": "address"
        },
        {
          "indexed": true,
          "internalType": "address",
          "name": "newOwner",
          "type": "address"
        }
      ],
      "name": "OwnershipTransferred",
      "type": "event"
    },
    {
      "anonymous": false,
      "inputs": [],
      "name": "PlayedMinutesUpdated",
      "type": "event"
    },
    {
      "anonymous": false,
      "inputs": [
        {
          "indexed": false,
          "internalType": "uint256",
          "name": "price",
          "type": "uint256"
        }
      ],
      "name": "PricePerTokenUpdated",
      "type": "event"
    },
    {
      "anonymous": false,
      "inputs": [
        {
          "indexed": true,
          "internalType": "address",
          "name": "account",
          "type": "address"
        }
      ],
      "name": "ReporterAdded",
      "type": "event"
    },
    {
      "anonymous": false,
      "inputs": [
        {
          "indexed": true,
          "internalType": "address",
          "name": "account",
          "type": "address"
        }
      ],
      "name": "ReporterRemoved",
      "type": "event"
    },
    {
      "anonymous": false,
      "inputs": [
        {
          "indexed": true,
          "internalType": "address",
          "name": "account",
          "type": "address"
        },
        {
          "indexed": true,
          "internalType": "enum ResourceRegistration.ResourceType",
          "name": "resourceType",
          "type": "uint8"
        },
        {
          "indexed": true,
          "internalType": "uint256",
          "name": "id",
          "type": "uint256"
        },
        {
          "indexed": false,
          "internalType": "string",
          "name": "data",
          "type": "string"
        }
      ],
      "name": "ResourceRegistered",
      "type": "event"
    },
    {
      "anonymous": false,
      "inputs": [
        {
          "indexed": true,
          "internalType": "uint256",
          "name": "reward",
          "type": "uint256"
        }
      ],
      "name": "RewardForPlayedMinutesChanged",
      "type": "event"
    },
    {
      "anonymous": false,
      "inputs": [
        {
          "indexed": true,
          "internalType": "address",
          "name": "artist",
          "type": "address"
        },
        {
          "indexed": true,
          "internalType": "uint256",
          "name": "rewards",
          "type": "uint256"
        }
      ],
      "name": "RewardsClaimed",
      "type": "event"
    },
    {
      "anonymous": false,
      "inputs": [
        {
          "indexed": false,
          "internalType": "uint256",
          "name": "rewards",
          "type": "uint256"
        }
      ],
      "name": "RewardsPerProposalUpdated",
      "type": "event"
    },
    {
      "anonymous": false,
      "inputs": [
        {
          "indexed": true,
          "internalType": "address",
          "name": "account",
          "type": "address"
        },
        {
          "indexed": true,
          "internalType": "uint256",
          "name": "songId",
          "type": "uint256"
        }
      ],
      "name": "SongPurchased",
      "type": "event"
    },
    {
      "anonymous": false,
      "inputs": [
        {
          "indexed": true,
          "internalType": "address",
          "name": "account",
          "type": "address"
        },
        {
          "indexed": true,
          "internalType": "uint256",
          "name": "expirationTimestamp",
          "type": "uint256"
        },
        {
          "indexed": true,
          "internalType": "uint256",
          "name": "timestampIncrease",
          "type": "uint256"
        }
      ],
      "name": "SubscriptionCreated",
      "type": "event"
    },
    {
      "anonymous": false,
      "inputs": [
        {
          "indexed": true,
          "internalType": "address",
          "name": "account",
          "type": "address"
        },
        {
          "indexed": true,
          "internalType": "uint256",
          "name": "expirationTimestamp",
          "type": "uint256"
        },
        {
          "indexed": true,
          "internalType": "uint256",
          "name": "timestampIncrease",
          "type": "uint256"
        }
      ],
      "name": "SubscriptionFunded",
      "type": "event"
    },
    {
      "anonymous": false,
      "inputs": [
        {
          "indexed": true,
          "internalType": "uint256",
          "name": "price",
          "type": "uint256"
        },
        {
          "indexed": true,
          "internalType": "uint256",
          "name": "timestampIncrease",
          "type": "uint256"
        }
      ],
      "name": "SubscriptionPlanAdded",
      "type": "event"
    },
    {
      "anonymous": false,
      "inputs": [
        {
          "indexed": false,
          "internalType": "uint256",
          "name": "winningSongId",
          "type": "uint256"
        }
      ],
      "name": "VotingClosed",
      "type": "event"
    },
    {
      "anonymous": false,
      "inputs": [],
      "name": "VotingOpen",
      "type": "event"
    },
    {
      "inputs": [
        {
          "internalType": "address",
          "name": "account",
          "type": "address"
        }
      ],
      "name": "addEncryptor",
      "outputs": [],
      "stateMutability": "nonpayable",
      "type": "function"
    },
    {
      "inputs": [
        {
          "internalType": "address",
          "name": "account",
          "type": "address"
        }
      ],
      "name": "addReporter",
      "outputs": [],
      "stateMutability": "nonpayable",
      "type": "function"
    },
    {
      "inputs": [
        {
          "internalType": "address",
          "name": "artist",
          "type": "address"
        }
      ],
      "name": "artistClaimedMinutes",
      "outputs": [
        {
          "internalType": "uint256",
          "name": "claimedMinutes",
          "type": "uint256"
        }
      ],
      "stateMutability": "view",
      "type": "function"
    },
    {
      "inputs": [
        {
          "internalType": "address",
          "name": "account",
          "type": "address"
        }
      ],
      "name": "artistIds",
      "outputs": [
        {
          "internalType": "uint256",
          "name": "id",
          "type": "uint256"
        }
      ],
      "stateMutability": "view",
      "type": "function"
    },
    {
      "inputs": [
        {
          "internalType": "uint256",
          "name": "id",
          "type": "uint256"
        }
      ],
      "name": "artistNames",
      "outputs": [
        {
          "internalType": "string",
          "name": "name",
          "type": "string"
        }
      ],
      "stateMutability": "view",
      "type": "function"
    },
    {
      "inputs": [
        {
          "internalType": "address",
          "name": "artist",
          "type": "address"
        }
      ],
      "name": "artistPlayedMinutes",
      "outputs": [
        {
          "internalType": "uint256",
          "name": "playedMinutes",
          "type": "uint256"
        }
      ],
      "stateMutability": "view",
      "type": "function"
    },
    {
      "inputs": [
        {
          "internalType": "address",
          "name": "artist",
          "type": "address"
        }
      ],
      "name": "artistUnclaimedAmount",
      "outputs": [
        {
          "internalType": "uint256",
          "name": "",
          "type": "uint256"
        }
      ],
      "stateMutability": "view",
      "type": "function"
    },
    {
      "inputs": [
        {
          "internalType": "address",
          "name": "artist",
          "type": "address"
        },
        {
          "internalType": "uint256",
          "name": "songId",
          "type": "uint256"
        }
      ],
      "name": "buySong",
      "outputs": [],
      "stateMutability": "payable",
      "type": "function"
    },
    {
      "inputs": [
        {
          "internalType": "uint256",
          "name": "_wholeTokens",
          "type": "uint256"
        }
      ],
      "name": "buyTokens",
      "outputs": [],
      "stateMutability": "payable",
      "type": "function"
    },
    {
      "inputs": [],
      "name": "claimRewards",
      "outputs": [],
      "stateMutability": "nonpayable",
      "type": "function"
    },
    {
      "inputs": [],
      "name": "closeVotingPeriod",
      "outputs": [],
      "stateMutability": "nonpayable",
      "type": "function"
    },
    {
      "inputs": [],
      "name": "createSubscription",
      "outputs": [],
      "stateMutability": "payable",
      "type": "function"
    },
    {
      "inputs": [
        {
          "internalType": "uint256",
          "name": "id",
          "type": "uint256"
        }
      ],
      "name": "exclusiveSongPrices",
      "outputs": [
        {
          "internalType": "uint256",
          "name": "price",
          "type": "uint256"
        }
      ],
      "stateMutability": "view",
      "type": "function"
    },
    {
      "inputs": [],
      "name": "fundSubscription",
      "outputs": [],
      "stateMutability": "payable",
      "type": "function"
    },
    {
      "inputs": [
        {
          "internalType": "address",
          "name": "account",
          "type": "address"
        }
      ],
      "name": "getArtistId",
      "outputs": [
        {
          "internalType": "uint256",
          "name": "",
          "type": "uint256"
        }
      ],
      "stateMutability": "view",
      "type": "function"
    },
    {
      "inputs": [
        {
          "internalType": "address",
          "name": "account",
          "type": "address"
        }
      ],
      "name": "getArtistName",
      "outputs": [
        {
          "internalType": "string",
          "name": "",
          "type": "string"
        }
      ],
      "stateMutability": "view",
      "type": "function"
    },
    {
      "inputs": [
        {
          "internalType": "address",
          "name": "artist",
          "type": "address"
        },
        {
          "internalType": "uint256",
          "name": "songIndex",
          "type": "uint256"
        }
      ],
      "name": "getArtistSongId",
      "outputs": [
        {
          "internalType": "uint256",
          "name": "",
          "type": "uint256"
        }
      ],
      "stateMutability": "view",
      "type": "function"
    },
    {
      "inputs": [
        {
          "internalType": "address",
          "name": "artist",
          "type": "address"
        }
      ],
      "name": "getArtistSongsCount",
      "outputs": [
        {
          "internalType": "uint256",
          "name": "",
          "type": "uint256"
        }
      ],
      "stateMutability": "view",
      "type": "function"
    },
    {
      "inputs": [
        {
          "internalType": "address",
          "name": "account",
          "type": "address"
        },
        {
          "internalType": "bytes",
          "name": "signature",
          "type": "bytes"
        }
      ],
      "name": "getEncryptionKey",
      "outputs": [
        {
          "internalType": "bytes32",
          "name": "",
          "type": "bytes32"
        }
      ],
      "stateMutability": "view",
      "type": "function"
    },
    {
      "inputs": [
        {
          "internalType": "uint256",
          "name": "songId",
          "type": "uint256"
        }
      ],
      "name": "getSongUri",
      "outputs": [
        {
          "internalType": "string",
          "name": "",
          "type": "string"
        }
      ],
      "stateMutability": "view",
      "type": "function"
    },
    {
      "inputs": [
        {
          "internalType": "address",
          "name": "account",
          "type": "address"
        }
      ],
      "name": "isActiveSubscriber",
      "outputs": [
        {
          "internalType": "bool",
          "name": "",
          "type": "bool"
        }
      ],
      "stateMutability": "view",
      "type": "function"
    },
    {
      "inputs": [
        {
          "internalType": "address",
          "name": "artist",
          "type": "address"
        },
        {
          "internalType": "uint256",
          "name": "songId",
          "type": "uint256"
        }
      ],
      "name": "isArtistSong",
      "outputs": [
        {
          "internalType": "bool",
          "name": "",
          "type": "bool"
        }
      ],
      "stateMutability": "view",
      "type": "function"
    },
    {
      "inputs": [
        {
          "internalType": "address",
          "name": "account",
          "type": "address"
        },
        {
          "internalType": "uint256",
          "name": "songId",
          "type": "uint256"
        }
      ],
      "name": "isSongPurchased",
      "outputs": [
        {
          "internalType": "bool",
          "name": "",
          "type": "bool"
        }
      ],
      "stateMutability": "view",
      "type": "function"
    },
    {
      "inputs": [],
      "name": "isVotingPeriodActive",
      "outputs": [
        {
          "internalType": "bool",
          "name": "",
          "type": "bool"
        }
      ],
      "stateMutability": "view",
      "type": "function"
    },
    {
      "inputs": [
        {
          "internalType": "uint256",
          "name": "endTimestamp",
          "type": "uint256"
        }
      ],
      "name": "openVotingPeriod",
      "outputs": [],
      "stateMutability": "nonpayable",
      "type": "function"
    },
    {
      "inputs": [],
      "name": "owner",
      "outputs": [
        {
          "internalType": "address",
          "name": "",
          "type": "address"
        }
      ],
      "stateMutability": "view",
      "type": "function"
    },
    {
      "inputs": [],
      "name": "pricePerToken",
      "outputs": [
        {
          "internalType": "uint256",
          "name": "",
          "type": "uint256"
        }
      ],
      "stateMutability": "view",
      "type": "function"
    },
    {
      "inputs": [
        {
          "internalType": "string",
          "name": "name",
          "type": "string"
        }
      ],
      "name": "registerArtist",
      "outputs": [],
      "stateMutability": "nonpayable",
      "type": "function"
    },
    {
      "inputs": [
        {
          "internalType": "string",
          "name": "uri",
          "type": "string"
        },
        {
          "internalType": "uint256",
          "name": "exclusivePrice",
          "type": "uint256"
        }
      ],
      "name": "registerSong",
      "outputs": [],
      "stateMutability": "nonpayable",
      "type": "function"
    },
    {
      "inputs": [
        {
          "internalType": "address",
          "name": "account",
          "type": "address"
        }
      ],
      "name": "removeEncryptor",
      "outputs": [],
      "stateMutability": "nonpayable",
      "type": "function"
    },
    {
      "inputs": [
        {
          "internalType": "address",
          "name": "account",
          "type": "address"
        }
      ],
      "name": "removeReporter",
      "outputs": [],
      "stateMutability": "nonpayable",
      "type": "function"
    },
    {
      "inputs": [],
      "name": "renounceOwnership",
      "outputs": [],
      "stateMutability": "nonpayable",
      "type": "function"
    },
    {
      "inputs": [],
      "name": "rewardForPlayedMinute",
      "outputs": [
        {
          "internalType": "uint256",
          "name": "",
          "type": "uint256"
        }
      ],
      "stateMutability": "view",
      "type": "function"
    },
    {
      "inputs": [],
      "name": "rewardsPerProposal",
      "outputs": [
        {
          "internalType": "uint256",
          "name": "",
          "type": "uint256"
        }
      ],
      "stateMutability": "view",
      "type": "function"
    },
    {
      "inputs": [],
      "name": "rewardsToken",
      "outputs": [
        {
          "internalType": "contract JustToken",
          "name": "",
          "type": "address"
        }
      ],
      "stateMutability": "view",
      "type": "function"
    },
    {
      "inputs": [
        {
          "internalType": "uint256",
          "name": "_wholeTokens",
          "type": "uint256"
        },
        {
          "internalType": "address",
          "name": "_receiver",
          "type": "address"
        }
      ],
      "name": "sellTokens",
      "outputs": [],
      "stateMutability": "nonpayable",
      "type": "function"
    },
    {
      "inputs": [
        {
          "internalType": "uint256",
          "name": "_price",
          "type": "uint256"
        }
      ],
      "name": "setPricePerToken",
      "outputs": [],
      "stateMutability": "nonpayable",
      "type": "function"
    },
    {
      "inputs": [
        {
          "internalType": "uint256",
          "name": "reward",
          "type": "uint256"
        }
      ],
      "name": "setRewardForPlayedMinute",
      "outputs": [],
      "stateMutability": "nonpayable",
      "type": "function"
    },
    {
      "inputs": [
        {
          "internalType": "uint256",
          "name": "_rewards",
          "type": "uint256"
        }
      ],
      "name": "setRewardsPerProposal",
      "outputs": [],
      "stateMutability": "nonpayable",
      "type": "function"
    },
    {
      "inputs": [
        {
          "internalType": "uint256",
          "name": "price",
          "type": "uint256"
        },
        {
          "internalType": "uint256",
          "name": "timestampIncrease",
          "type": "uint256"
        }
      ],
      "name": "setSubscriptionPlan",
      "outputs": [],
      "stateMutability": "nonpayable",
      "type": "function"
    },
    {
      "inputs": [
        {
          "internalType": "uint256",
          "name": "price",
          "type": "uint256"
        }
      ],
      "name": "subscriptionPlanIntervals",
      "outputs": [
        {
          "internalType": "uint256",
          "name": "interval",
          "type": "uint256"
        }
      ],
      "stateMutability": "view",
      "type": "function"
    },
    {
      "inputs": [
        {
          "internalType": "address",
          "name": "account",
          "type": "address"
        }
      ],
      "name": "subscriptions",
      "outputs": [
        {
          "internalType": "uint256",
          "name": "expirationTimestamp",
          "type": "uint256"
        }
      ],
      "stateMutability": "view",
      "type": "function"
    },
    {
      "inputs": [
        {
          "internalType": "address",
          "name": "newOwner",
          "type": "address"
        }
      ],
      "name": "transferOwnership",
      "outputs": [],
      "stateMutability": "nonpayable",
      "type": "function"
    },
    {
      "inputs": [
        {
          "components": [
            {
              "internalType": "address",
              "name": "artist",
              "type": "address"
            },
            {
              "internalType": "uint256",
              "name": "playedMinutes",
              "type": "uint256"
            }
          ],
          "internalType": "struct UpdatePlayedMinutes.ArtistUpdate[]",
          "name": "updates",
          "type": "tuple[]"
        }
      ],
      "name": "updatePlayedMinutes",
      "outputs": [],
      "stateMutability": "nonpayable",
      "type": "function"
    },
    {
      "inputs": [
        {
          "internalType": "uint256",
          "name": "_songId",
          "type": "uint256"
        }
      ],
      "name": "vote",
      "outputs": [],
      "stateMutability": "nonpayable",
      "type": "function"
    },
    {
      "inputs": [],
      "name": "votingPeriodEnds",
      "outputs": [
        {
          "internalType": "uint256",
          "name": "",
          "type": "uint256"
        }
      ],
      "stateMutability": "view",
      "type": "function"
    }
  ],
  "bytecode": "0x60806040523480156200001157600080fd5b50604051620071003803806200710083398181016040528101906200003791906200030d565b80838360016000819055506200006262000056620001b660201b60201c565b620001be60201b60201c565b6435e55f19096003819055506003547fde2a550feb6ab90bd4c3e2d079c1e9f15fa6c1616cd90660836219be038742e960405160405180910390a260008211620000e3576040517f08c379a0000000000000000000000000000000000000000000000000000000008152600401620000da90620003ca565b60405180910390fd5b6000811162000129576040517f08c379a000000000000000000000000000000000000000000000000000000000815260040162000120906200043c565b60405180910390fd5b604051620001379062000284565b604051809103906000f08015801562000154573d6000803e3d6000fd5b50600260006101000a81548173ffffffffffffffffffffffffffffffffffffffff021916908373ffffffffffffffffffffffffffffffffffffffff1602179055508160058190555080601381905550505080600481905550505050506200045e565b600033905090565b6000600160009054906101000a900473ffffffffffffffffffffffffffffffffffffffff16905081600160006101000a81548173ffffffffffffffffffffffffffffffffffffffff021916908373ffffffffffffffffffffffffffffffffffffffff1602179055508173ffffffffffffffffffffffffffffffffffffffff168173ffffffffffffffffffffffffffffffffffffffff167f8be0079c531659141344cd1fd0a4f28419497f9722a3daafe3b4186f6b6457e060405160405180910390a35050565b611ce9806200541783390190565b600080fd5b6000819050919050565b620002ac8162000297565b8114620002b857600080fd5b50565b600081519050620002cc81620002a1565b92915050565b6000819050919050565b620002e781620002d2565b8114620002f357600080fd5b50565b6000815190506200030781620002dc565b92915050565b60008060006060848603121562000329576200032862000292565b5b60006200033986828701620002bb565b93505060206200034c86828701620002bb565b92505060406200035f86828701620002f6565b9150509250925092565b600082825260208201905092915050565b7f5265776172647320666f722070726f706f73616c206973207a65726f00000000600082015250565b6000620003b2601c8362000369565b9150620003bf826200037a565b602082019050919050565b60006020820190508181036000830152620003e581620003a3565b9050919050565b7f5072696365206973207a65726f00000000000000000000000000000000000000600082015250565b600062000424600d8362000369565b91506200043182620003ec565b602082019050919050565b60006020820190508181036000830152620004578162000415565b9050919050565b614fa9806200046e6000396000f3fe60806040526004361061027d5760003560e01c80637b1b1de61161014f578063d1af0c7d116100c1578063e3c266dd1161007a578063e3c266dd146109a6578063f0400d3c146109cf578063f046395a146109f8578063f08bf9ad14610a35578063f2b3924814610a60578063f2fde38b14610a8b5761027d565b8063d1af0c7d14610886578063d850b1d2146108b1578063d8da18e4146108da578063dd8755f214610917578063dedbe30614610940578063e066765e146109695761027d565b80639fcc5ce4116101135780639fcc5ce414610771578063a0a96d5a1461079c578063a21a23e4146107d9578063b36349dc146107e3578063c472794014610820578063c7063266146108495761027d565b80637b1b1de61461068c5780637e871c82146106b75780638da5cb5b146106e05780638e048e751461070b5780639355d419146107485761027d565b80634655c9a9116101f35780635fcbb047116101ac5780635fcbb0471461057e5780636269bd01146105bb578063670f7151146105f85780636f78fe6214610621578063715018a61461064a5780637ab9e7fb146106615761027d565b80634655c9a91461047d5780634c49d7d5146104ba5780634de98e09146104f7578063575f08ff1461050e57806357ace39b1461054b5780635de5c212146105555761027d565b806323c3dd371161024557806323c3dd371461037e57806326be9397146103a75780632bf2762f146103e45780633610724e1461040d578063372500ab1461042957806344ee0119146104405761027d565b80630121b93f14610282578063030ae9ab146102ab5780630a0ef451146102e85780631ac5f331146103255780631b39152d14610341575b600080fd5b34801561028e57600080fd5b506102a960048036038101906102a49190613a26565b610ab4565b005b3480156102b757600080fd5b506102d260048036038101906102cd9190613ab1565b610b6d565b6040516102df9190613aed565b60405180910390f35b3480156102f457600080fd5b5061030f600480360381019061030a9190613a26565b610bfe565b60405161031c9190613aed565b60405180910390f35b61033f600480360381019061033a9190613b08565b610c16565b005b34801561034d57600080fd5b5061036860048036038101906103639190613ab1565b610e5b565b6040516103759190613aed565b60405180910390f35b34801561038a57600080fd5b506103a560048036038101906103a09190613a26565b610e73565b005b3480156103b357600080fd5b506103ce60048036038101906103c99190613b08565b610ec5565b6040516103db9190613b63565b60405180910390f35b3480156103f057600080fd5b5061040b60048036038101906104069190613a26565b610ed9565b005b61042760048036038101906104229190613a26565b610f2b565b005b34801561043557600080fd5b5061043e6111cb565b005b34801561044c57600080fd5b5061046760048036038101906104629190613be3565b611390565b6040516104749190613c5c565b60405180910390f35b34801561048957600080fd5b506104a4600480360381019061049f9190613a26565b6113b2565b6040516104b19190613d07565b60405180910390f35b3480156104c657600080fd5b506104e160048036038101906104dc9190613a26565b611457565b6040516104ee9190613aed565b60405180910390f35b34801561050357600080fd5b5061050c61146f565b005b34801561051a57600080fd5b5061053560048036038101906105309190613b08565b6114cd565b6040516105429190613b63565b60405180910390f35b610553611535565b005b34801561056157600080fd5b5061057c60048036038101906105779190613ab1565b61165b565b005b34801561058a57600080fd5b506105a560048036038101906105a09190613ab1565b61170a565b6040516105b29190613aed565b60405180910390f35b3480156105c757600080fd5b506105e260048036038101906105dd9190613b08565b611722565b6040516105ef9190613aed565b60405180910390f35b34801561060457600080fd5b5061061f600480360381019061061a9190613d29565b611788565b005b34801561062d57600080fd5b5061064860048036038101906106439190613a26565b61196f565b005b34801561065657600080fd5b5061065f6119c6565b005b34801561066d57600080fd5b506106766119da565b6040516106839190613aed565b60405180910390f35b34801561069857600080fd5b506106a16119e0565b6040516106ae9190613aed565b60405180910390f35b3480156106c357600080fd5b506106de60048036038101906106d99190613ab1565b6119e6565b005b3480156106ec57600080fd5b506106f5611a95565b6040516107029190613d78565b60405180910390f35b34801561071757600080fd5b50610732600480360381019061072d9190613ab1565b611abf565b60405161073f9190613b63565b60405180910390f35b34801561075457600080fd5b5061076f600480360381019061076a9190613de9565b611b0b565b005b34801561077d57600080fd5b50610786611b6f565b6040516107939190613b63565b60405180910390f35b3480156107a857600080fd5b506107c360048036038101906107be9190613a26565b611b7e565b6040516107d09190613d07565b60405180910390f35b6107e1611c1e565b005b3480156107ef57600080fd5b5061080a60048036038101906108059190613ab1565b611ce4565b6040516108179190613d07565b60405180910390f35b34801561082c57600080fd5b5061084760048036038101906108429190613e36565b611dc8565b005b34801561085557600080fd5b50610870600480360381019061086b9190613ab1565b611e34565b60405161087d9190613aed565b60405180910390f35b34801561089257600080fd5b5061089b611e7d565b6040516108a89190613ed5565b60405180910390f35b3480156108bd57600080fd5b506108d860048036038101906108d39190613ab1565b611ea3565b005b3480156108e657600080fd5b5061090160048036038101906108fc9190613ab1565b611f52565b60405161090e9190613aed565b60405180910390f35b34801561092357600080fd5b5061093e60048036038101906109399190613ab1565b611f6a565b005b34801561094c57600080fd5b5061096760048036038101906109629190613ef0565b612019565b005b34801561097557600080fd5b50610990600480360381019061098b9190613ab1565b61207f565b60405161099d9190613aed565b60405180910390f35b3480156109b257600080fd5b506109cd60048036038101906109c89190613fa6565b6120c8565b005b3480156109db57600080fd5b506109f660048036038101906109f19190613a26565b6121a7565b005b348015610a0457600080fd5b50610a1f6004803603810190610a1a9190613ab1565b6121f5565b604051610a2c9190613aed565b60405180910390f35b348015610a4157600080fd5b50610a4a61220d565b604051610a579190613aed565b60405180910390f35b348015610a6c57600080fd5b50610a75612213565b604051610a829190613aed565b60405180910390f35b348015610a9757600080fd5b50610ab26004803603810190610aad9190613ab1565b612219565b005b610abd8161229c565b610ac56122f8565b610acd612338565b6000601560008381526020019081526020016000205403610af257610af1816123b4565b5b601560008281526020019081526020016000206000815480929190610b1690614022565b9190505550601454601660003373ffffffffffffffffffffffffffffffffffffffff1673ffffffffffffffffffffffffffffffffffffffff16815260200190815260200160002081905550610b6a33612431565b50565b6000610bf7600a60008473ffffffffffffffffffffffffffffffffffffffff1673ffffffffffffffffffffffffffffffffffffffff16815260200190815260200160002054600b60008573ffffffffffffffffffffffffffffffffffffffff1673ffffffffffffffffffffffffffffffffffffffff16815260200190815260200160002054612522565b9050919050565b60126020528060005260406000206000915090505481565b610c1f8161229c565b610c2881612545565b610c328282612595565b6000600d60008381526020019081526020016000205490506000600260009054906101000a900473ffffffffffffffffffffffffffffffffffffffff1673ffffffffffffffffffffffffffffffffffffffff1663313ce5676040518163ffffffff1660e01b8152600401602060405180830381865afa158015610cb9573d6000803e3d6000fd5b505050506040513d601f19601f82011682018060405250810190610cdd91906140a3565b60ff169050600081600a610cf19190614203565b905060008184610d01919061424e565b9050600260009054906101000a900473ffffffffffffffffffffffffffffffffffffffff1673ffffffffffffffffffffffffffffffffffffffff166323b872dd3388846040518463ffffffff1660e01b8152600401610d6293929190614290565b6020604051808303816000875af1158015610d81573d6000803e3d6000fd5b505050506040513d601f19601f82011682018060405250810190610da591906142f3565b506001600c60003373ffffffffffffffffffffffffffffffffffffffff1673ffffffffffffffffffffffffffffffffffffffff168152602001908152602001600020600087815260200190815260200160002060006101000a81548160ff021916908315150217905550843373ffffffffffffffffffffffffffffffffffffffff167fe20750a4417f37bd85a195d63720cb1c314963d8888dc41e6323fed4805542ac60405160405180910390a3505050505050565b600a6020528060005260406000206000915090505481565b610e7b6125d9565b610e8481612657565b806005819055507f72ea2c9c38b647a7ef112a9939feedf39954cffb5d3639491a358ac0adf950a681604051610eba9190613aed565b60405180910390a150565b6000610ed18383612694565b905092915050565b610ee16125d9565b610eea81612771565b806013819055507f3200057f39b60b2ce0d5c0768cd90469dc468a882eec07ce1802fef660ebee5981604051610f209190613aed565b60405180910390a150565b610f34816127ae565b610f3d816127eb565b6000600260009054906101000a900473ffffffffffffffffffffffffffffffffffffffff1673ffffffffffffffffffffffffffffffffffffffff166370a08231306040518263ffffffff1660e01b8152600401610f9a9190613d78565b602060405180830381865afa158015610fb7573d6000803e3d6000fd5b505050506040513d601f19601f82011682018060405250810190610fdb9190614335565b90506000600260009054906101000a900473ffffffffffffffffffffffffffffffffffffffff1673ffffffffffffffffffffffffffffffffffffffff1663313ce5676040518163ffffffff1660e01b8152600401602060405180830381865afa15801561104c573d6000803e3d6000fd5b505050506040513d601f19601f8201168201806040525081019061107091906140a3565b600a61107c9190614362565b83611087919061424e565b905080821061113657600260009054906101000a900473ffffffffffffffffffffffffffffffffffffffff1673ffffffffffffffffffffffffffffffffffffffff1663a9059cbb33836040518363ffffffff1660e01b81526004016110ed9291906143ad565b6020604051808303816000875af115801561110c573d6000803e3d6000fd5b505050506040513d601f19601f8201168201806040525081019061113091906142f3565b506111c6565b600260009054906101000a900473ffffffffffffffffffffffffffffffffffffffff1673ffffffffffffffffffffffffffffffffffffffff166340c10f1933836040518363ffffffff1660e01b81526004016111939291906143ad565b600060405180830381600087803b1580156111ad57600080fd5b505af11580156111c1573d6000803e3d6000fd5b505050505b505050565b6111d361283a565b6111db612889565b6111e3612904565b6000600a60003373ffffffffffffffffffffffffffffffffffffffff1673ffffffffffffffffffffffffffffffffffffffff1681526020019081526020016000205490506000600b60003373ffffffffffffffffffffffffffffffffffffffff1673ffffffffffffffffffffffffffffffffffffffff16815260200190815260200160002054905060006112778383612522565b9050818361128591906143d6565b600b60003373ffffffffffffffffffffffffffffffffffffffff1673ffffffffffffffffffffffffffffffffffffffff1681526020019081526020016000208190555060003373ffffffffffffffffffffffffffffffffffffffff16826040516112ee9061443b565b60006040518083038185875af1925050503d806000811461132b576040519150601f19603f3d011682016040523d82523d6000602084013e611330565b606091505b505090508061133e57600080fd5b813373ffffffffffffffffffffffffffffffffffffffff167ffc30cddea38e2bf4d6ea7d3f9ed3b6ad7f176419f4963bd81318067a4aee73fe60405160405180910390a35050505061138e6129db565b565b600061139b846129e5565b6113a6848484612a6b565b60045490509392505050565b60606007600083815260200190815260200160002080546113d29061447f565b80601f01602080910402602001604051908101604052809291908181526020018280546113fe9061447f565b801561144b5780601f106114205761010080835404028352916020019161144b565b820191906000526020600020905b81548152906001019060200180831161142e57829003601f168201915b50505050509050919050565b600d6020528060005260406000206000915090505481565b611477612ade565b6000601481905550611487612b2a565b6000611491612c2d565b90507f8e9b46a70b3967bc9ea56ca61732c363a191fac88ae3ba011f4e030711c90117816040516114c29190613aed565b60405180910390a150565b6000600c60008473ffffffffffffffffffffffffffffffffffffffff1673ffffffffffffffffffffffffffffffffffffffff168152602001908152602001600020600083815260200190815260200160002060009054906101000a900460ff16905092915050565b61153d612ca1565b60006012600034815260200190815260200160002054905061155e81612d1c565b600080601160003373ffffffffffffffffffffffffffffffffffffffff1673ffffffffffffffffffffffffffffffffffffffff168152602001908152602001600020549050428110156115be5782426115b791906143d6565b91506115cd565b82816115ca91906143d6565b91505b81601160003373ffffffffffffffffffffffffffffffffffffffff1673ffffffffffffffffffffffffffffffffffffffff1681526020019081526020016000208190555082823373ffffffffffffffffffffffffffffffffffffffff167fb3abbf202f180f33d8c665604028b8c2bc6db0b430eee642e6a87c332ba9df3a60405160405180910390a4505050565b6116636125d9565b61166c81612d59565b6000600e60008373ffffffffffffffffffffffffffffffffffffffff1673ffffffffffffffffffffffffffffffffffffffff16815260200190815260200160002060006101000a81548160ff0219169083151502179055508073ffffffffffffffffffffffffffffffffffffffff167ff125aa5e6cb22c17ea0de4e1f86d2ff289ddd6a37e791b9ad29d0091cba06ac860405160405180910390a250565b60066020528060005260406000206000915090505481565b6000600860008473ffffffffffffffffffffffffffffffffffffffff1673ffffffffffffffffffffffffffffffffffffffff1681526020019081526020016000208281548110611775576117746144b0565b5b9060005260206000200154905092915050565b611791826127ae565b6000600260009054906101000a900473ffffffffffffffffffffffffffffffffffffffff1673ffffffffffffffffffffffffffffffffffffffff1663313ce5676040518163ffffffff1660e01b8152600401602060405180830381865afa158015611800573d6000803e3d6000fd5b505050506040513d601f19601f8201168201806040525081019061182491906140a3565b600a6118309190614362565b8361183b919061424e565b9050600260009054906101000a900473ffffffffffffffffffffffffffffffffffffffff1673ffffffffffffffffffffffffffffffffffffffff166323b872dd3330846040518463ffffffff1660e01b815260040161189c93929190614290565b6020604051808303816000875af11580156118bb573d6000803e3d6000fd5b505050506040513d601f19601f820116820180604052508101906118df91906142f3565b506000601354846118f0919061424e565b905060008373ffffffffffffffffffffffffffffffffffffffff16826040516119189061443b565b60006040518083038185875af1925050503d8060008114611955576040519150601f19603f3d011682016040523d82523d6000602084013e61195a565b606091505b505090508061196857600080fd5b5050505050565b6119776125d9565b61197f612ddf565b61198881612e20565b80601481905550611997612e5c565b7f8089789a86616a2428e26766961eaaa205ab084aac14a9cb98704e59af2b89e660405160405180910390a150565b6119ce6125d9565b6119d86000612ecc565b565b60055481565b60135481565b6119ee6125d9565b6119f7816129e5565b6000600f60008373ffffffffffffffffffffffffffffffffffffffff1673ffffffffffffffffffffffffffffffffffffffff16815260200190815260200160002060006101000a81548160ff0219169083151502179055508073ffffffffffffffffffffffffffffffffffffffff167f831fe45b7aa67ec3bed8b685a1393377d63415609ea28cd6c46c957cd206ace460405160405180910390a250565b6000600160009054906101000a900473ffffffffffffffffffffffffffffffffffffffff16905090565b600042601160008473ffffffffffffffffffffffffffffffffffffffff1673ffffffffffffffffffffffffffffffffffffffff1681526020019081526020016000205410159050919050565b611b158282612f92565b611b1d612fd3565b611b6b3383838080601f016020809104026020016040519081016040528093929190818152602001838380828437600081840152601f19601f8201169050808301925050505050505061304f565b5050565b6000611b7961315b565b905090565b60106020528060005260406000206000915090508054611b9d9061447f565b80601f0160208091040260200160405190810160405280929190818152602001828054611bc99061447f565b8015611c165780601f10611beb57610100808354040283529160200191611c16565b820191906000526020600020905b815481529060010190602001808311611bf957829003601f168201915b505050505081565b611c26613168565b600060126000348152602001908152602001600020549050611c4781612d1c565b60008142611c5591906143d6565b905080601160003373ffffffffffffffffffffffffffffffffffffffff1673ffffffffffffffffffffffffffffffffffffffff1681526020019081526020016000208190555081813373ffffffffffffffffffffffffffffffffffffffff167feec977e786e7248a658b0474ccf8f57f37ead019014ec4d5ba1542ddabeff1b460405160405180910390a45050565b606060106000600660008573ffffffffffffffffffffffffffffffffffffffff1673ffffffffffffffffffffffffffffffffffffffff1681526020019081526020016000205481526020019081526020016000208054611d439061447f565b80601f0160208091040260200160405190810160405280929190818152602001828054611d6f9061447f565b8015611dbc5780601f10611d9157610100808354040283529160200191611dbc565b820191906000526020600020905b815481529060010190602001808311611d9f57829003601f168201915b50505050509050919050565b611dd06125d9565b60008211611ddd57600080fd5b60008111611dea57600080fd5b80601260008481526020019081526020016000208190555080827f54cba80c24bb8b943b0467102348972ab8b8d832c8fe766604a41205029bdeb560405160405180910390a35050565b6000600960008373ffffffffffffffffffffffffffffffffffffffff1673ffffffffffffffffffffffffffffffffffffffff168152602001908152602001600020549050919050565b600260009054906101000a900473ffffffffffffffffffffffffffffffffffffffff1681565b611eab6125d9565b611eb4816131e4565b6001600f60008373ffffffffffffffffffffffffffffffffffffffff1673ffffffffffffffffffffffffffffffffffffffff16815260200190815260200160002060006101000a81548160ff0219169083151502179055508073ffffffffffffffffffffffffffffffffffffffff167ff6c9f98033b9dff108e3563ef16e2eeed997d551b8b5dd48be580ca3f92316a560405160405180910390a250565b600b6020528060005260406000206000915090505481565b611f726125d9565b611f7b8161326b565b6001600e60008373ffffffffffffffffffffffffffffffffffffffff1673ffffffffffffffffffffffffffffffffffffffff16815260200190815260200160002060006101000a81548160ff0219169083151502179055508073ffffffffffffffffffffffffffffffffffffffff167f52824c4a4d431c73d6d24a91f775d722860111c6d30da30b0b21e062fb4c736560405160405180910390a250565b61202383836132f2565b61202b612889565b61207a3384848080601f016020809104026020016040519081016040528093929190818152602001838380828437600081840152601f19601f8201169050808301925050505050505083613333565b505050565b6000600660008373ffffffffffffffffffffffffffffffffffffffff1673ffffffffffffffffffffffffffffffffffffffff168152602001908152602001600020549050919050565b6120d133612d59565b6120db82826134ce565b60005b828290508110156121765760008383838181106120fe576120fd6144b0565b5b90506040020180360381019061211491906145af565b90508060200151600a6000836000015173ffffffffffffffffffffffffffffffffffffffff1673ffffffffffffffffffffffffffffffffffffffff1681526020019081526020016000208190555050808061216e90614022565b9150506120de565b507fb1f4c00fef5089fc65c077ba0529ff566678425b72c5ef25184eb9158cf006eb60405160405180910390a15050565b6121af6125d9565b600081116121bc57600080fd5b806003819055506003547fde2a550feb6ab90bd4c3e2d079c1e9f15fa6c1616cd90660836219be038742e960405160405180910390a250565b60116020528060005260406000206000915090505481565b60035481565b60145481565b6122216125d9565b600073ffffffffffffffffffffffffffffffffffffffff168173ffffffffffffffffffffffffffffffffffffffff1603612290576040517f08c379a00000000000000000000000000000000000000000000000000000000081526004016122879061464e565b60405180910390fd5b61229981612ecc565b50565b60006007600083815260200190815260200160002080546122bc9061447f565b9050036122f5576040517f439dd45c00000000000000000000000000000000000000000000000000000000815260040160405180910390fd5b50565b61230061315b565b612336576040517f9b8cc47500000000000000000000000000000000000000000000000000000000815260040160405180910390fd5b565b601454601660003373ffffffffffffffffffffffffffffffffffffffff1673ffffffffffffffffffffffffffffffffffffffff16815260200190815260200160002054036123b2576040517f7c9a1cf900000000000000000000000000000000000000000000000000000000815260040160405180910390fd5b565b601854601780549050036123f0576017819080600181540180825580915050600190039060005260206000200160009091909190915055612416565b80601760185481548110612407576124066144b0565b5b90600052602060002001819055505b6018600081548092919061242990614022565b919050555050565b601a54601980549050036124a7576019819080600181540180825580915050600190039060005260206000200160009091909190916101000a81548173ffffffffffffffffffffffffffffffffffffffff021916908373ffffffffffffffffffffffffffffffffffffffff160217905550612507565b806019601a54815481106124be576124bd6144b0565b5b9060005260206000200160006101000a81548173ffffffffffffffffffffffffffffffffffffffff021916908373ffffffffffffffffffffffffffffffffffffffff1602179055505b601a600081548092919061251a90614022565b919050555050565b60008183612530919061466e565b60035461253d919061424e565b905092915050565b6000600d60008381526020019081526020016000205403612592576040517f298763a600000000000000000000000000000000000000000000000000000000815260040160405180910390fd5b50565b61259f8282612694565b6125d5576040517f46b47f2500000000000000000000000000000000000000000000000000000000815260040160405180910390fd5b5050565b6125e161368c565b73ffffffffffffffffffffffffffffffffffffffff166125ff611a95565b73ffffffffffffffffffffffffffffffffffffffff1614612655576040517f08c379a000000000000000000000000000000000000000000000000000000000815260040161264c906146ee565b60405180910390fd5b565b60008103612691576040517f6629597700000000000000000000000000000000000000000000000000000000815260040160405180910390fd5b50565b600080600960008573ffffffffffffffffffffffffffffffffffffffff1673ffffffffffffffffffffffffffffffffffffffff16815260200190815260200160002054905060005b818110156127645783600860008773ffffffffffffffffffffffffffffffffffffffff1673ffffffffffffffffffffffffffffffffffffffff1681526020019081526020016000208281548110612736576127356144b0565b5b9060005260206000200154036127515760019250505061276b565b808061275c90614022565b9150506126dc565b5060009150505b92915050565b600081036127ab576040517f2c669f0a00000000000000000000000000000000000000000000000000000000815260040160405180910390fd5b50565b600081036127e8576040517fd11b25af00000000000000000000000000000000000000000000000000000000815260040160405180910390fd5b50565b6000601354826127fb919061424e565b9050348114612836576040517f03862d0b00000000000000000000000000000000000000000000000000000000815260040160405180910390fd5b5050565b60026000540361287f576040517f08c379a00000000000000000000000000000000000000000000000000000000081526004016128769061475a565b60405180910390fd5b6002600081905550565b6000600660003373ffffffffffffffffffffffffffffffffffffffff1673ffffffffffffffffffffffffffffffffffffffff1681526020019081526020016000205403612902576040517f5ba4c78d00000000000000000000000000000000000000000000000000000000815260040160405180910390fd5b565b6000600a60003373ffffffffffffffffffffffffffffffffffffffff1673ffffffffffffffffffffffffffffffffffffffff1681526020019081526020016000205490506000600b60003373ffffffffffffffffffffffffffffffffffffffff1673ffffffffffffffffffffffffffffffffffffffff1681526020019081526020016000205490506000818361299a919061466e565b9050600081036129d6576040517ff40c208900000000000000000000000000000000000000000000000000000000815260040160405180910390fd5b505050565b6001600081905550565b600f60008273ffffffffffffffffffffffffffffffffffffffff1673ffffffffffffffffffffffffffffffffffffffff16815260200190815260200160002060009054906101000a900460ff16612a68576040517fa7fda99900000000000000000000000000000000000000000000000000000000815260040160405180910390fd5b50565b600083604051602001612a7e9190613d78565b604051602081830303815290604052805190602001209050612aa284828585613694565b612ad8576040517f8baa579f00000000000000000000000000000000000000000000000000000000815260040160405180910390fd5b50505050565b60006014541480612af157506014544211155b15612b28576040517ffb196f7500000000000000000000000000000000000000000000000000000000815260040160405180910390fd5b565b60005b601a54811015612c2a57600060198281548110612b4d57612b4c6144b0565b5b9060005260206000200160009054906101000a900473ffffffffffffffffffffffffffffffffffffffff1690506000612b846137d6565b9050600260009054906101000a900473ffffffffffffffffffffffffffffffffffffffff1673ffffffffffffffffffffffffffffffffffffffff166340c10f1983836040518363ffffffff1660e01b8152600401612be39291906143ad565b600060405180830381600087803b158015612bfd57600080fd5b505af1158015612c11573d6000803e3d6000fd5b5050505050508080612c2290614022565b915050612b2d565b50565b60008060005b601854811015612c9c57600060178281548110612c5357612c526144b0565b5b9060005260206000200154905060006015600083815260200190815260200160002054905083811115612c87578093508194505b50508080612c9490614022565b915050612c33565b505090565b6000601160003373ffffffffffffffffffffffffffffffffffffffff1673ffffffffffffffffffffffffffffffffffffffff1681526020019081526020016000205403612d1a576040517f0ba7474000000000000000000000000000000000000000000000000000000000815260040160405180910390fd5b565b60008103612d56576040517f64fc58f000000000000000000000000000000000000000000000000000000000815260040160405180910390fd5b50565b600e60008273ffffffffffffffffffffffffffffffffffffffff1673ffffffffffffffffffffffffffffffffffffffff16815260200190815260200160002060009054906101000a900460ff16612ddc576040517fed8b45b100000000000000000000000000000000000000000000000000000000815260040160405180910390fd5b50565b612de761315b565b15612e1e576040517fa9d47e0400000000000000000000000000000000000000000000000000000000815260040160405180910390fd5b565b428111612e59576040517fc733873c00000000000000000000000000000000000000000000000000000000815260040160405180910390fd5b50565b60005b601854811015612eb957600060178281548110612e7f57612e7e6144b0565b5b9060005260206000200154905060006015600083815260200190815260200160002081905550508080612eb190614022565b915050612e5f565b506000601a819055506000601881905550565b6000600160009054906101000a900473ffffffffffffffffffffffffffffffffffffffff16905081600160006101000a81548173ffffffffffffffffffffffffffffffffffffffff021916908373ffffffffffffffffffffffffffffffffffffffff1602179055508173ffffffffffffffffffffffffffffffffffffffff168173ffffffffffffffffffffffffffffffffffffffff167f8be0079c531659141344cd1fd0a4f28419497f9722a3daafe3b4186f6b6457e060405160405180910390a35050565b60008282905003612fcf576040517fd9a5fbfc00000000000000000000000000000000000000000000000000000000815260040160405180910390fd5b5050565b6000600660003373ffffffffffffffffffffffffffffffffffffffff1673ffffffffffffffffffffffffffffffffffffffff16815260200190815260200160002054111561304d576040517f9b70f42400000000000000000000000000000000000000000000000000000000815260040160405180910390fd5b565b60006130596137ed565b9050600060106000838152602001908152602001600020805461307b9061447f565b9050111561308e5761308b6137ed565b90505b816010600083815260200190815260200160002090816130ae919061491c565b5080600660008573ffffffffffffffffffffffffffffffffffffffff1673ffffffffffffffffffffffffffffffffffffffff168152602001908152602001600020819055508060016002811115613108576131076149ee565b5b8473ffffffffffffffffffffffffffffffffffffffff167f530708815c9407cb1f2859a353ee291d1acfe7a488d4347780a1d35690b907268560405161314e9190613d07565b60405180910390a4505050565b6000426014541015905090565b6000601160003373ffffffffffffffffffffffffffffffffffffffff1673ffffffffffffffffffffffffffffffffffffffff1681526020019081526020016000205411156131e2576040517fefecdc3c00000000000000000000000000000000000000000000000000000000815260040160405180910390fd5b565b600f60008273ffffffffffffffffffffffffffffffffffffffff1673ffffffffffffffffffffffffffffffffffffffff16815260200190815260200160002060009054906101000a900460ff1615613268576040517febca463b00000000000000000000000000000000000000000000000000000000815260040160405180910390fd5b50565b600e60008273ffffffffffffffffffffffffffffffffffffffff1673ffffffffffffffffffffffffffffffffffffffff16815260200190815260200160002060009054906101000a900460ff16156132ef576040517f18d9ae0900000000000000000000000000000000000000000000000000000000815260040160405180910390fd5b50565b6000828290500361332f576040517fe7f85e7900000000000000000000000000000000000000000000000000000000815260040160405180910390fd5b5050565b600061333d6137ed565b9050600060076000838152602001908152602001600020805461335f9061447f565b905011156133725761336f6137ed565b90505b82600760008381526020019081526020016000209081613392919061491c565b50600860008573ffffffffffffffffffffffffffffffffffffffff1673ffffffffffffffffffffffffffffffffffffffff168152602001908152602001600020819080600181540180825580915050600190039060005260206000200160009091909190915055600960008573ffffffffffffffffffffffffffffffffffffffff1673ffffffffffffffffffffffffffffffffffffffff168152602001908152602001600020600081548092919061344990614022565b919050555081600d6000838152602001908152602001600020819055508060028081111561347a576134796149ee565b5b8573ffffffffffffffffffffffffffffffffffffffff167f530708815c9407cb1f2859a353ee291d1acfe7a488d4347780a1d35690b90726866040516134c09190613d07565b60405180910390a450505050565b6000828290500361350b576040517ff2486cbe00000000000000000000000000000000000000000000000000000000815260040160405180910390fd5b60005b8282905081101561368757600083838381811061352e5761352d6144b0565b5b90506040020180360381019061354491906145af565b9050600060066000836000015173ffffffffffffffffffffffffffffffffffffffff1673ffffffffffffffffffffffffffffffffffffffff16815260200190815260200160002054036135d857806000015181602001516040517f3b573da20000000000000000000000000000000000000000000000000000000081526004016135cf9291906143ad565b60405180910390fd5b6000600a6000836000015173ffffffffffffffffffffffffffffffffffffffff1673ffffffffffffffffffffffffffffffffffffffff1681526020019081526020016000205490508160200151811061367257816000015182602001516040517f3b573da20000000000000000000000000000000000000000000000000000000081526004016136699291906143ad565b60405180910390fd5b5050808061367f90614022565b91505061350e565b505050565b600033905090565b6000806000806136a4868661387b565b92509250925060006040518060400160405280601c81526020017f19457468657265756d205369676e6564204d6573736167653a0a333200000000815250886040516020016136f4929190614a7a565b6040516020818303038152906040528051906020012090506000600182848787604051600081526020016040526040516137319493929190614ab1565b6020604051602081039080840390855afa158015613753573d6000803e3d6000fd5b505050602060405103519050600073ffffffffffffffffffffffffffffffffffffffff168173ffffffffffffffffffffffffffffffffffffffff16141580156137c757508973ffffffffffffffffffffffffffffffffffffffff168173ffffffffffffffffffffffffffffffffffffffff16145b95505050505050949350505050565b6000601a546005546137e89190614b25565b905090565b6000615aff4614806138005750615afe46145b156138425761382f60204260405160200161381b9190614b77565b6040516020818303038152906040526138ed565b61383890614bc2565b60001c9050613878565b33434042444160405160200161385c959493929190614cac565b6040516020818303038152906040528051906020012060001c90505b90565b6000806000848460009060209261389493929190614d15565b9061389f9190614d5b565b925084846020906040926138b593929190614d15565b906138c09190614d5b565b915084846040906041926138d693929190614d15565b906138e19190614de6565b60f81c90509250925092565b606060008073010000000000000000000000000000000000000173ffffffffffffffffffffffffffffffffffffffff168585604051602001613930929190614e8f565b60405160208183030381529060405260405161394c9190614ef0565b600060405180830381855afa9150503d8060008114613987576040519150601f19603f3d011682016040523d82523d6000602084013e61398c565b606091505b5091509150816139d1576040517f08c379a00000000000000000000000000000000000000000000000000000000081526004016139c890614f53565b60405180910390fd5b809250505092915050565b6000604051905090565b600080fd5b600080fd5b6000819050919050565b613a03816139f0565b8114613a0e57600080fd5b50565b600081359050613a20816139fa565b92915050565b600060208284031215613a3c57613a3b6139e6565b5b6000613a4a84828501613a11565b91505092915050565b600073ffffffffffffffffffffffffffffffffffffffff82169050919050565b6000613a7e82613a53565b9050919050565b613a8e81613a73565b8114613a9957600080fd5b50565b600081359050613aab81613a85565b92915050565b600060208284031215613ac757613ac66139e6565b5b6000613ad584828501613a9c565b91505092915050565b613ae7816139f0565b82525050565b6000602082019050613b026000830184613ade565b92915050565b60008060408385031215613b1f57613b1e6139e6565b5b6000613b2d85828601613a9c565b9250506020613b3e85828601613a11565b9150509250929050565b60008115159050919050565b613b5d81613b48565b82525050565b6000602082019050613b786000830184613b54565b92915050565b600080fd5b600080fd5b600080fd5b60008083601f840112613ba357613ba2613b7e565b5b8235905067ffffffffffffffff811115613bc057613bbf613b83565b5b602083019150836001820283011115613bdc57613bdb613b88565b5b9250929050565b600080600060408486031215613bfc57613bfb6139e6565b5b6000613c0a86828701613a9c565b935050602084013567ffffffffffffffff811115613c2b57613c2a6139eb565b5b613c3786828701613b8d565b92509250509250925092565b6000819050919050565b613c5681613c43565b82525050565b6000602082019050613c716000830184613c4d565b92915050565b600081519050919050565b600082825260208201905092915050565b60005b83811015613cb1578082015181840152602081019050613c96565b60008484015250505050565b6000601f19601f8301169050919050565b6000613cd982613c77565b613ce38185613c82565b9350613cf3818560208601613c93565b613cfc81613cbd565b840191505092915050565b60006020820190508181036000830152613d218184613cce565b905092915050565b60008060408385031215613d4057613d3f6139e6565b5b6000613d4e85828601613a11565b9250506020613d5f85828601613a9c565b9150509250929050565b613d7281613a73565b82525050565b6000602082019050613d8d6000830184613d69565b92915050565b60008083601f840112613da957613da8613b7e565b5b8235905067ffffffffffffffff811115613dc657613dc5613b83565b5b602083019150836001820283011115613de257613de1613b88565b5b9250929050565b60008060208385031215613e0057613dff6139e6565b5b600083013567ffffffffffffffff811115613e1e57613e1d6139eb565b5b613e2a85828601613d93565b92509250509250929050565b60008060408385031215613e4d57613e4c6139e6565b5b6000613e5b85828601613a11565b9250506020613e6c85828601613a11565b9150509250929050565b6000819050919050565b6000613e9b613e96613e9184613a53565b613e76565b613a53565b9050919050565b6000613ead82613e80565b9050919050565b6000613ebf82613ea2565b9050919050565b613ecf81613eb4565b82525050565b6000602082019050613eea6000830184613ec6565b92915050565b600080600060408486031215613f0957613f086139e6565b5b600084013567ffffffffffffffff811115613f2757613f266139eb565b5b613f3386828701613d93565b93509350506020613f4686828701613a11565b9150509250925092565b60008083601f840112613f6657613f65613b7e565b5b8235905067ffffffffffffffff811115613f8357613f82613b83565b5b602083019150836040820283011115613f9f57613f9e613b88565b5b9250929050565b60008060208385031215613fbd57613fbc6139e6565b5b600083013567ffffffffffffffff811115613fdb57613fda6139eb565b5b613fe785828601613f50565b92509250509250929050565b7f4e487b7100000000000000000000000000000000000000000000000000000000600052601160045260246000fd5b600061402d826139f0565b91507fffffffffffffffffffffffffffffffffffffffffffffffffffffffffffffffff820361405f5761405e613ff3565b5b600182019050919050565b600060ff82169050919050565b6140808161406a565b811461408b57600080fd5b50565b60008151905061409d81614077565b92915050565b6000602082840312156140b9576140b86139e6565b5b60006140c78482850161408e565b91505092915050565b60008160011c9050919050565b6000808291508390505b60018511156141275780860481111561410357614102613ff3565b5b60018516156141125780820291505b8081029050614120856140d0565b94506140e7565b94509492505050565b60008261414057600190506141fc565b8161414e57600090506141fc565b8160018114614164576002811461416e5761419d565b60019150506141fc565b60ff8411156141805761417f613ff3565b5b8360020a91508482111561419757614196613ff3565b5b506141fc565b5060208310610133831016604e8410600b84101617156141d25782820a9050838111156141cd576141cc613ff3565b5b6141fc565b6141df84848460016140dd565b925090508184048111156141f6576141f5613ff3565b5b81810290505b9392505050565b600061420e826139f0565b9150614219836139f0565b92506142467fffffffffffffffffffffffffffffffffffffffffffffffffffffffffffffffff8484614130565b905092915050565b6000614259826139f0565b9150614264836139f0565b9250828202614272816139f0565b9150828204841483151761428957614288613ff3565b5b5092915050565b60006060820190506142a56000830186613d69565b6142b26020830185613d69565b6142bf6040830184613ade565b949350505050565b6142d081613b48565b81146142db57600080fd5b50565b6000815190506142ed816142c7565b92915050565b600060208284031215614309576143086139e6565b5b6000614317848285016142de565b91505092915050565b60008151905061432f816139fa565b92915050565b60006020828403121561434b5761434a6139e6565b5b600061435984828501614320565b91505092915050565b600061436d826139f0565b91506143788361406a565b92506143a57fffffffffffffffffffffffffffffffffffffffffffffffffffffffffffffffff8484614130565b905092915050565b60006040820190506143c26000830185613d69565b6143cf6020830184613ade565b9392505050565b60006143e1826139f0565b91506143ec836139f0565b925082820190508082111561440457614403613ff3565b5b92915050565b600081905092915050565b50565b600061442560008361440a565b915061443082614415565b600082019050919050565b600061444682614418565b9150819050919050565b7f4e487b7100000000000000000000000000000000000000000000000000000000600052602260045260246000fd5b6000600282049050600182168061449757607f821691505b6020821081036144aa576144a9614450565b5b50919050565b7f4e487b7100000000000000000000000000000000000000000000000000000000600052603260045260246000fd5b600080fd5b7f4e487b7100000000000000000000000000000000000000000000000000000000600052604160045260246000fd5b61451c82613cbd565b810181811067ffffffffffffffff8211171561453b5761453a6144e4565b5b80604052505050565b600061454e6139dc565b905061455a8282614513565b919050565b600060408284031215614575576145746144df565b5b61457f6040614544565b9050600061458f84828501613a9c565b60008301525060206145a384828501613a11565b60208301525092915050565b6000604082840312156145c5576145c46139e6565b5b60006145d38482850161455f565b91505092915050565b7f4f776e61626c653a206e6577206f776e657220697320746865207a65726f206160008201527f6464726573730000000000000000000000000000000000000000000000000000602082015250565b6000614638602683613c82565b9150614643826145dc565b604082019050919050565b600060208201905081810360008301526146678161462b565b9050919050565b6000614679826139f0565b9150614684836139f0565b925082820390508181111561469c5761469b613ff3565b5b92915050565b7f4f776e61626c653a2063616c6c6572206973206e6f7420746865206f776e6572600082015250565b60006146d8602083613c82565b91506146e3826146a2565b602082019050919050565b60006020820190508181036000830152614707816146cb565b9050919050565b7f5265656e7472616e637947756172643a207265656e7472616e742063616c6c00600082015250565b6000614744601f83613c82565b915061474f8261470e565b602082019050919050565b6000602082019050818103600083015261477381614737565b9050919050565b60008190508160005260206000209050919050565b60006020601f8301049050919050565b600082821b905092915050565b6000600883026147dc7fffffffffffffffffffffffffffffffffffffffffffffffffffffffffffffffff8261479f565b6147e6868361479f565b95508019841693508086168417925050509392505050565b600061481961481461480f846139f0565b613e76565b6139f0565b9050919050565b6000819050919050565b614833836147fe565b61484761483f82614820565b8484546147ac565b825550505050565b600090565b61485c61484f565b61486781848461482a565b505050565b5b8181101561488b57614880600082614854565b60018101905061486d565b5050565b601f8211156148d0576148a18161477a565b6148aa8461478f565b810160208510156148b9578190505b6148cd6148c58561478f565b83018261486c565b50505b505050565b600082821c905092915050565b60006148f3600019846008026148d5565b1980831691505092915050565b600061490c83836148e2565b9150826002028217905092915050565b61492582613c77565b67ffffffffffffffff81111561493e5761493d6144e4565b5b614948825461447f565b61495382828561488f565b600060209050601f8311600181146149865760008415614974578287015190505b61497e8582614900565b8655506149e6565b601f1984166149948661477a565b60005b828110156149bc57848901518255600182019150602085019450602081019050614997565b868310156149d957848901516149d5601f8916826148e2565b8355505b6001600288020188555050505b505050505050565b7f4e487b7100000000000000000000000000000000000000000000000000000000600052602160045260246000fd5b600081905092915050565b6000614a3382613c77565b614a3d8185614a1d565b9350614a4d818560208601613c93565b80840191505092915050565b6000819050919050565b614a74614a6f82613c43565b614a59565b82525050565b6000614a868285614a28565b9150614a928284614a63565b6020820191508190509392505050565b614aab8161406a565b82525050565b6000608082019050614ac66000830187613c4d565b614ad36020830186614aa2565b614ae06040830185613c4d565b614aed6060830184613c4d565b95945050505050565b7f4e487b7100000000000000000000000000000000000000000000000000000000600052601260045260246000fd5b6000614b30826139f0565b9150614b3b836139f0565b925082614b4b57614b4a614af6565b5b828204905092915050565b6000819050919050565b614b71614b6c826139f0565b614b56565b82525050565b6000614b838284614b60565b60208201915081905092915050565b600081519050919050565b6000819050602082019050919050565b6000614bb98251613c43565b80915050919050565b6000614bcd82614b92565b82614bd784614b9d565b9050614be281614bad565b92506020821015614c2257614c1d7fffffffffffffffffffffffffffffffffffffffffffffffffffffffffffffffff8360200360080261479f565b831692505b5050919050565b60008160601b9050919050565b6000614c4182614c29565b9050919050565b6000614c5382614c36565b9050919050565b614c6b614c6682613a73565b614c48565b82525050565b6000614c7c82613a53565b9050919050565b6000614c8e82614c36565b9050919050565b614ca6614ca182614c71565b614c83565b82525050565b6000614cb88288614c5a565b601482019150614cc88287614a63565b602082019150614cd88286614b60565b602082019150614ce88285614b60565b602082019150614cf88284614c95565b6014820191508190509695505050505050565b600080fd5b600080fd5b60008085851115614d2957614d28614d0b565b5b83861115614d3a57614d39614d10565b5b6001850283019150848603905094509492505050565b600082905092915050565b6000614d678383614d50565b82614d728135613c43565b92506020821015614db257614dad7fffffffffffffffffffffffffffffffffffffffffffffffffffffffffffffffff8360200360080261479f565b831692505b505092915050565b60007fff0000000000000000000000000000000000000000000000000000000000000082169050919050565b6000614df28383614d50565b82614dfd8135614dba565b92506001821015614e3d57614e387fff000000000000000000000000000000000000000000000000000000000000008360010360080261479f565b831692505b505092915050565b600082825260208201905092915050565b6000614e6182614b92565b614e6b8185614e45565b9350614e7b818560208601613c93565b614e8481613cbd565b840191505092915050565b6000604082019050614ea46000830185613ade565b8181036020830152614eb68184614e56565b90509392505050565b6000614eca82614b92565b614ed4818561440a565b9350614ee4818560208601613c93565b80840191505092915050565b6000614efc8284614ebf565b915081905092915050565b7f72616e646f6d42797465733a206661696c656400000000000000000000000000600082015250565b6000614f3d601383613c82565b9150614f4882614f07565b602082019050919050565b60006020820190508181036000830152614f6c81614f30565b905091905056fea2646970667358221220ee24886f7eb02e8666628e3b4bdc9df36cd1e75018da2495787d5a86bcc2c6a164736f6c6343000813003360806040523480156200001157600080fd5b506040518060400160405280600a81526020017f4a55535420746f6b656e000000000000000000000000000000000000000000008152506040518060400160405280600481526020017f4a5553540000000000000000000000000000000000000000000000000000000081525081600390816200008f919062000412565b508060049081620000a1919062000412565b505050620000c4620000b8620000ca60201b60201c565b620000d260201b60201c565b620004f9565b600033905090565b6000600560009054906101000a900473ffffffffffffffffffffffffffffffffffffffff16905081600560006101000a81548173ffffffffffffffffffffffffffffffffffffffff021916908373ffffffffffffffffffffffffffffffffffffffff1602179055508173ffffffffffffffffffffffffffffffffffffffff168173ffffffffffffffffffffffffffffffffffffffff167f8be0079c531659141344cd1fd0a4f28419497f9722a3daafe3b4186f6b6457e060405160405180910390a35050565b600081519050919050565b7f4e487b7100000000000000000000000000000000000000000000000000000000600052604160045260246000fd5b7f4e487b7100000000000000000000000000000000000000000000000000000000600052602260045260246000fd5b600060028204905060018216806200021a57607f821691505b60208210810362000230576200022f620001d2565b5b50919050565b60008190508160005260206000209050919050565b60006020601f8301049050919050565b600082821b905092915050565b6000600883026200029a7fffffffffffffffffffffffffffffffffffffffffffffffffffffffffffffffff826200025b565b620002a686836200025b565b95508019841693508086168417925050509392505050565b6000819050919050565b6000819050919050565b6000620002f3620002ed620002e784620002be565b620002c8565b620002be565b9050919050565b6000819050919050565b6200030f83620002d2565b620003276200031e82620002fa565b84845462000268565b825550505050565b600090565b6200033e6200032f565b6200034b81848462000304565b505050565b5b8181101562000373576200036760008262000334565b60018101905062000351565b5050565b601f821115620003c2576200038c8162000236565b62000397846200024b565b81016020851015620003a7578190505b620003bf620003b6856200024b565b83018262000350565b50505b505050565b600082821c905092915050565b6000620003e760001984600802620003c7565b1980831691505092915050565b6000620004028383620003d4565b9150826002028217905092915050565b6200041d8262000198565b67ffffffffffffffff811115620004395762000438620001a3565b5b62000445825462000201565b6200045282828562000377565b600060209050601f8311600181146200048a576000841562000475578287015190505b620004818582620003f4565b865550620004f1565b601f1984166200049a8662000236565b60005b82811015620004c4578489015182556001820191506020850194506020810190506200049d565b86831015620004e45784890151620004e0601f891682620003d4565b8355505b6001600288020188555050505b505050505050565b6117e080620005096000396000f3fe608060405234801561001057600080fd5b50600436106100f55760003560e01c806370a0823111610097578063a457c2d711610066578063a457c2d714610276578063a9059cbb146102a6578063dd62ed3e146102d6578063f2fde38b14610306576100f5565b806370a0823114610200578063715018a6146102305780638da5cb5b1461023a57806395d89b4114610258576100f5565b806323b872dd116100d357806323b872dd14610166578063313ce5671461019657806339509351146101b457806340c10f19146101e4576100f5565b806306fdde03146100fa578063095ea7b31461011857806318160ddd14610148575b600080fd5b610102610322565b60405161010f9190610f29565b60405180910390f35b610132600480360381019061012d9190610fe4565b6103b4565b60405161013f919061103f565b60405180910390f35b6101506103d7565b60405161015d9190611069565b60405180910390f35b610180600480360381019061017b9190611084565b6103e1565b60405161018d919061103f565b60405180910390f35b61019e610410565b6040516101ab91906110f3565b60405180910390f35b6101ce60048036038101906101c99190610fe4565b610419565b6040516101db919061103f565b60405180910390f35b6101fe60048036038101906101f99190610fe4565b610450565b005b61021a6004803603810190610215919061110e565b610466565b6040516102279190611069565b60405180910390f35b6102386104ae565b005b6102426104c2565b60405161024f919061114a565b60405180910390f35b6102606104ec565b60405161026d9190610f29565b60405180910390f35b610290600480360381019061028b9190610fe4565b61057e565b60405161029d919061103f565b60405180910390f35b6102c060048036038101906102bb9190610fe4565b6105f5565b6040516102cd919061103f565b60405180910390f35b6102f060048036038101906102eb9190611165565b610618565b6040516102fd9190611069565b60405180910390f35b610320600480360381019061031b919061110e565b61069f565b005b606060038054610331906111d4565b80601f016020809104026020016040519081016040528092919081815260200182805461035d906111d4565b80156103aa5780601f1061037f576101008083540402835291602001916103aa565b820191906000526020600020905b81548152906001019060200180831161038d57829003601f168201915b5050505050905090565b6000806103bf610722565b90506103cc81858561072a565b600191505092915050565b6000600254905090565b6000806103ec610722565b90506103f98582856108f3565b61040485858561097f565b60019150509392505050565b60006012905090565b600080610424610722565b90506104458185856104368589610618565b6104409190611234565b61072a565b600191505092915050565b610458610bf5565b6104628282610c73565b5050565b60008060008373ffffffffffffffffffffffffffffffffffffffff1673ffffffffffffffffffffffffffffffffffffffff168152602001908152602001600020549050919050565b6104b6610bf5565b6104c06000610dc9565b565b6000600560009054906101000a900473ffffffffffffffffffffffffffffffffffffffff16905090565b6060600480546104fb906111d4565b80601f0160208091040260200160405190810160405280929190818152602001828054610527906111d4565b80156105745780601f1061054957610100808354040283529160200191610574565b820191906000526020600020905b81548152906001019060200180831161055757829003601f168201915b5050505050905090565b600080610589610722565b905060006105978286610618565b9050838110156105dc576040517f08c379a00000000000000000000000000000000000000000000000000000000081526004016105d3906112da565b60405180910390fd5b6105e9828686840361072a565b60019250505092915050565b600080610600610722565b905061060d81858561097f565b600191505092915050565b6000600160008473ffffffffffffffffffffffffffffffffffffffff1673ffffffffffffffffffffffffffffffffffffffff16815260200190815260200160002060008373ffffffffffffffffffffffffffffffffffffffff1673ffffffffffffffffffffffffffffffffffffffff16815260200190815260200160002054905092915050565b6106a7610bf5565b600073ffffffffffffffffffffffffffffffffffffffff168173ffffffffffffffffffffffffffffffffffffffff1603610716576040517f08c379a000000000000000000000000000000000000000000000000000000000815260040161070d9061136c565b60405180910390fd5b61071f81610dc9565b50565b600033905090565b600073ffffffffffffffffffffffffffffffffffffffff168373ffffffffffffffffffffffffffffffffffffffff1603610799576040517f08c379a0000000000000000000000000000000000000000000000000000000008152600401610790906113fe565b60405180910390fd5b600073ffffffffffffffffffffffffffffffffffffffff168273ffffffffffffffffffffffffffffffffffffffff1603610808576040517f08c379a00000000000000000000000000000000000000000000000000000000081526004016107ff90611490565b60405180910390fd5b80600160008573ffffffffffffffffffffffffffffffffffffffff1673ffffffffffffffffffffffffffffffffffffffff16815260200190815260200160002060008473ffffffffffffffffffffffffffffffffffffffff1673ffffffffffffffffffffffffffffffffffffffff168152602001908152602001600020819055508173ffffffffffffffffffffffffffffffffffffffff168373ffffffffffffffffffffffffffffffffffffffff167f8c5be1e5ebec7d5bd14f71427d1e84f3dd0314c0f7b2291e5b200ac8c7c3b925836040516108e69190611069565b60405180910390a3505050565b60006108ff8484610618565b90507fffffffffffffffffffffffffffffffffffffffffffffffffffffffffffffffff8114610979578181101561096b576040517f08c379a0000000000000000000000000000000000000000000000000000000008152600401610962906114fc565b60405180910390fd5b610978848484840361072a565b5b50505050565b600073ffffffffffffffffffffffffffffffffffffffff168373ffffffffffffffffffffffffffffffffffffffff16036109ee576040517f08c379a00000000000000000000000000000000000000000000000000000000081526004016109e59061158e565b60405180910390fd5b600073ffffffffffffffffffffffffffffffffffffffff168273ffffffffffffffffffffffffffffffffffffffff1603610a5d576040517f08c379a0000000000000000000000000000000000000000000000000000000008152600401610a5490611620565b60405180910390fd5b610a68838383610e8f565b60008060008573ffffffffffffffffffffffffffffffffffffffff1673ffffffffffffffffffffffffffffffffffffffff16815260200190815260200160002054905081811015610aee576040517f08c379a0000000000000000000000000000000000000000000000000000000008152600401610ae5906116b2565b60405180910390fd5b8181036000808673ffffffffffffffffffffffffffffffffffffffff1673ffffffffffffffffffffffffffffffffffffffff16815260200190815260200160002081905550816000808573ffffffffffffffffffffffffffffffffffffffff1673ffffffffffffffffffffffffffffffffffffffff168152602001908152602001600020600082825401925050819055508273ffffffffffffffffffffffffffffffffffffffff168473ffffffffffffffffffffffffffffffffffffffff167fddf252ad1be2c89b69c2b068fc378daa952ba7f163c4a11628f55a4df523b3ef84604051610bdc9190611069565b60405180910390a3610bef848484610e94565b50505050565b610bfd610722565b73ffffffffffffffffffffffffffffffffffffffff16610c1b6104c2565b73ffffffffffffffffffffffffffffffffffffffff1614610c71576040517f08c379a0000000000000000000000000000000000000000000000000000000008152600401610c689061171e565b60405180910390fd5b565b600073ffffffffffffffffffffffffffffffffffffffff168273ffffffffffffffffffffffffffffffffffffffff1603610ce2576040517f08c379a0000000000000000000000000000000000000000000000000000000008152600401610cd99061178a565b60405180910390fd5b610cee60008383610e8f565b8060026000828254610d009190611234565b92505081905550806000808473ffffffffffffffffffffffffffffffffffffffff1673ffffffffffffffffffffffffffffffffffffffff168152602001908152602001600020600082825401925050819055508173ffffffffffffffffffffffffffffffffffffffff16600073ffffffffffffffffffffffffffffffffffffffff167fddf252ad1be2c89b69c2b068fc378daa952ba7f163c4a11628f55a4df523b3ef83604051610db19190611069565b60405180910390a3610dc560008383610e94565b5050565b6000600560009054906101000a900473ffffffffffffffffffffffffffffffffffffffff16905081600560006101000a81548173ffffffffffffffffffffffffffffffffffffffff021916908373ffffffffffffffffffffffffffffffffffffffff1602179055508173ffffffffffffffffffffffffffffffffffffffff168173ffffffffffffffffffffffffffffffffffffffff167f8be0079c531659141344cd1fd0a4f28419497f9722a3daafe3b4186f6b6457e060405160405180910390a35050565b505050565b505050565b600081519050919050565b600082825260208201905092915050565b60005b83811015610ed3578082015181840152602081019050610eb8565b60008484015250505050565b6000601f19601f8301169050919050565b6000610efb82610e99565b610f058185610ea4565b9350610f15818560208601610eb5565b610f1e81610edf565b840191505092915050565b60006020820190508181036000830152610f438184610ef0565b905092915050565b600080fd5b600073ffffffffffffffffffffffffffffffffffffffff82169050919050565b6000610f7b82610f50565b9050919050565b610f8b81610f70565b8114610f9657600080fd5b50565b600081359050610fa881610f82565b92915050565b6000819050919050565b610fc181610fae565b8114610fcc57600080fd5b50565b600081359050610fde81610fb8565b92915050565b60008060408385031215610ffb57610ffa610f4b565b5b600061100985828601610f99565b925050602061101a85828601610fcf565b9150509250929050565b60008115159050919050565b61103981611024565b82525050565b60006020820190506110546000830184611030565b92915050565b61106381610fae565b82525050565b600060208201905061107e600083018461105a565b92915050565b60008060006060848603121561109d5761109c610f4b565b5b60006110ab86828701610f99565b93505060206110bc86828701610f99565b92505060406110cd86828701610fcf565b9150509250925092565b600060ff82169050919050565b6110ed816110d7565b82525050565b600060208201905061110860008301846110e4565b92915050565b60006020828403121561112457611123610f4b565b5b600061113284828501610f99565b91505092915050565b61114481610f70565b82525050565b600060208201905061115f600083018461113b565b92915050565b6000806040838503121561117c5761117b610f4b565b5b600061118a85828601610f99565b925050602061119b85828601610f99565b9150509250929050565b7f4e487b7100000000000000000000000000000000000000000000000000000000600052602260045260246000fd5b600060028204905060018216806111ec57607f821691505b6020821081036111ff576111fe6111a5565b5b50919050565b7f4e487b7100000000000000000000000000000000000000000000000000000000600052601160045260246000fd5b600061123f82610fae565b915061124a83610fae565b925082820190508082111561126257611261611205565b5b92915050565b7f45524332303a2064656372656173656420616c6c6f77616e63652062656c6f7760008201527f207a65726f000000000000000000000000000000000000000000000000000000602082015250565b60006112c4602583610ea4565b91506112cf82611268565b604082019050919050565b600060208201905081810360008301526112f3816112b7565b9050919050565b7f4f776e61626c653a206e6577206f776e657220697320746865207a65726f206160008201527f6464726573730000000000000000000000000000000000000000000000000000602082015250565b6000611356602683610ea4565b9150611361826112fa565b604082019050919050565b6000602082019050818103600083015261138581611349565b9050919050565b7f45524332303a20617070726f76652066726f6d20746865207a65726f2061646460008201527f7265737300000000000000000000000000000000000000000000000000000000602082015250565b60006113e8602483610ea4565b91506113f38261138c565b604082019050919050565b60006020820190508181036000830152611417816113db565b9050919050565b7f45524332303a20617070726f766520746f20746865207a65726f20616464726560008201527f7373000000000000000000000000000000000000000000000000000000000000602082015250565b600061147a602283610ea4565b91506114858261141e565b604082019050919050565b600060208201905081810360008301526114a98161146d565b9050919050565b7f45524332303a20696e73756666696369656e7420616c6c6f77616e6365000000600082015250565b60006114e6601d83610ea4565b91506114f1826114b0565b602082019050919050565b60006020820190508181036000830152611515816114d9565b9050919050565b7f45524332303a207472616e736665722066726f6d20746865207a65726f20616460008201527f6472657373000000000000000000000000000000000000000000000000000000602082015250565b6000611578602583610ea4565b91506115838261151c565b604082019050919050565b600060208201905081810360008301526115a78161156b565b9050919050565b7f45524332303a207472616e7366657220746f20746865207a65726f206164647260008201527f6573730000000000000000000000000000000000000000000000000000000000602082015250565b600061160a602383610ea4565b9150611615826115ae565b604082019050919050565b60006020820190508181036000830152611639816115fd565b9050919050565b7f45524332303a207472616e7366657220616d6f756e742065786365656473206260008201527f616c616e63650000000000000000000000000000000000000000000000000000602082015250565b600061169c602683610ea4565b91506116a782611640565b604082019050919050565b600060208201905081810360008301526116cb8161168f565b9050919050565b7f4f776e61626c653a2063616c6c6572206973206e6f7420746865206f776e6572600082015250565b6000611708602083610ea4565b9150611713826116d2565b602082019050919050565b60006020820190508181036000830152611737816116fb565b9050919050565b7f45524332303a206d696e7420746f20746865207a65726f206164647265737300600082015250565b6000611774601f83610ea4565b915061177f8261173e565b602082019050919050565b600060208201905081810360008301526117a381611767565b905091905056fea26469706673582212205549c8f446cc8d6a960f8a9ba8643b74b7a57e12330df84eee5cba4aceed8c5864736f6c63430008130033",
  "linkReferences": {},
  "deployedLinkReferences": {}
}