{
  "_format": "hh-sol-artifact-1",
  "contractName": "Platform",
  "sourceName": "contracts/Platform.sol",
  "abi": [
    {
      "inputs": [
        {
          "internalType": "uint256",
          "name": "_rewardsForProposal",
          "type": "uint256"
        },
        {
          "internalType": "uint256",
          "name": "_pricePerToken",
          "type": "uint256"
        },
        {
          "internalType": "bytes32",
          "name": "_encryptionKey",
          "type": "bytes32"
        }
      ],
      "stateMutability": "nonpayable",
      "type": "constructor"
    },
    {
      "inputs": [],
      "name": "AccountIsEncryptor",
      "type": "error"
    },
    {
      "inputs": [],
      "name": "AccountIsReporter",
      "type": "error"
    },
    {
      "inputs": [],
      "name": "AccountNotEncryptor",
      "type": "error"
    },
    {
      "inputs": [],
      "name": "AccountNotReporter",
      "type": "error"
    },
    {
      "inputs": [],
      "name": "AmountCannotBeZero",
      "type": "error"
    },
    {
      "inputs": [],
      "name": "AmountMustMatchValueExactly",
      "type": "error"
    },
    {
      "inputs": [],
      "name": "ArtistAlreadyRegistered",
      "type": "error"
    },
    {
      "inputs": [],
      "name": "ArtistDoesNotOwnSong",
      "type": "error"
    },
    {
      "inputs": [],
      "name": "ArtistNameRequired",
      "type": "error"
    },
    {
      "inputs": [],
      "name": "CannotBuyNonExclusiveSongs",
      "type": "error"
    },
    {
      "inputs": [],
      "name": "InsufficientTokenBalance",
      "type": "error"
    },
    {
      "inputs": [],
      "name": "InvalidSignature",
      "type": "error"
    },
    {
      "inputs": [],
      "name": "NoClaimableRewards",
      "type": "error"
    },
    {
      "inputs": [],
      "name": "NoUpdatesGiven",
      "type": "error"
    },
    {
      "inputs": [],
      "name": "NotARegisteredArtist",
      "type": "error"
    },
    {
      "inputs": [],
      "name": "PriceCannotBeZero",
      "type": "error"
    },
    {
      "inputs": [],
      "name": "RewardsCannotBeZero",
      "type": "error"
    },
    {
      "inputs": [],
      "name": "SongDoesNotExist",
      "type": "error"
    },
    {
      "inputs": [],
      "name": "SongUriRequired",
      "type": "error"
    },
    {
      "inputs": [],
      "name": "SubscriptionAlreadyCreated",
      "type": "error"
    },
    {
      "inputs": [],
      "name": "SubscriptionNotCreated",
      "type": "error"
    },
    {
      "inputs": [
        {
          "internalType": "address",
          "name": "artist",
          "type": "address"
        },
        {
          "internalType": "uint256",
          "name": "playedMinutes",
          "type": "uint256"
        }
      ],
      "name": "UpdateInvalid",
      "type": "error"
    },
    {
      "inputs": [],
      "name": "ValueCannotBeZero",
      "type": "error"
    },
    {
      "inputs": [],
      "name": "ValueMustMatchOneOfThePlans",
      "type": "error"
    },
    {
      "anonymous": false,
      "inputs": [
        {
          "indexed": true,
          "internalType": "address",
          "name": "account",
          "type": "address"
        }
      ],
      "name": "EncryptorAdded",
      "type": "event"
    },
    {
      "anonymous": false,
      "inputs": [
        {
          "indexed": true,
          "internalType": "address",
          "name": "account",
          "type": "address"
        }
      ],
      "name": "EncryptorRemoved",
      "type": "event"
    },
    {
      "anonymous": false,
      "inputs": [
        {
          "indexed": true,
          "internalType": "address",
          "name": "previousOwner",
          "type": "address"
        },
        {
          "indexed": true,
          "internalType": "address",
          "name": "newOwner",
          "type": "address"
        }
      ],
      "name": "OwnershipTransferred",
      "type": "event"
    },
    {
      "anonymous": false,
      "inputs": [],
      "name": "PlayedMinutesUpdated",
      "type": "event"
    },
    {
      "anonymous": false,
      "inputs": [
        {
          "indexed": false,
          "internalType": "uint256",
          "name": "price",
          "type": "uint256"
        }
      ],
      "name": "PricePerTokenUpdated",
      "type": "event"
    },
    {
      "anonymous": false,
      "inputs": [
        {
          "indexed": true,
          "internalType": "address",
          "name": "account",
          "type": "address"
        }
      ],
      "name": "ReporterAdded",
      "type": "event"
    },
    {
      "anonymous": false,
      "inputs": [
        {
          "indexed": true,
          "internalType": "address",
          "name": "account",
          "type": "address"
        }
      ],
      "name": "ReporterRemoved",
      "type": "event"
    },
    {
      "anonymous": false,
      "inputs": [
        {
          "indexed": true,
          "internalType": "address",
          "name": "account",
          "type": "address"
        },
        {
          "indexed": true,
          "internalType": "enum ResourceRegistration.ResourceType",
          "name": "resourceType",
          "type": "uint8"
        },
        {
          "indexed": true,
          "internalType": "uint256",
          "name": "id",
          "type": "uint256"
        },
        {
          "indexed": false,
          "internalType": "string",
          "name": "data",
          "type": "string"
        }
      ],
      "name": "ResourceRegistered",
      "type": "event"
    },
    {
      "anonymous": false,
      "inputs": [
        {
          "indexed": true,
          "internalType": "uint256",
          "name": "reward",
          "type": "uint256"
        }
      ],
      "name": "RewardForPlayedMinutesChanged",
      "type": "event"
    },
    {
      "anonymous": false,
      "inputs": [
        {
          "indexed": true,
          "internalType": "address",
          "name": "artist",
          "type": "address"
        },
        {
          "indexed": true,
          "internalType": "uint256",
          "name": "rewards",
          "type": "uint256"
        }
      ],
      "name": "RewardsClaimed",
      "type": "event"
    },
    {
      "anonymous": false,
      "inputs": [
        {
          "indexed": false,
          "internalType": "uint256",
          "name": "rewards",
          "type": "uint256"
        }
      ],
      "name": "RewardsPerProposalUpdated",
      "type": "event"
    },
    {
      "anonymous": false,
      "inputs": [
        {
          "indexed": true,
          "internalType": "address",
          "name": "account",
          "type": "address"
        },
        {
          "indexed": true,
          "internalType": "uint256",
          "name": "songId",
          "type": "uint256"
        }
      ],
      "name": "SongPurchased",
      "type": "event"
    },
    {
      "anonymous": false,
      "inputs": [
        {
          "indexed": true,
          "internalType": "address",
          "name": "account",
          "type": "address"
        },
        {
          "indexed": true,
          "internalType": "uint256",
          "name": "expirationTimestamp",
          "type": "uint256"
        },
        {
          "indexed": true,
          "internalType": "uint256",
          "name": "timestampIncrease",
          "type": "uint256"
        }
      ],
      "name": "SubscriptionCreated",
      "type": "event"
    },
    {
      "anonymous": false,
      "inputs": [
        {
          "indexed": true,
          "internalType": "address",
          "name": "account",
          "type": "address"
        },
        {
          "indexed": true,
          "internalType": "uint256",
          "name": "expirationTimestamp",
          "type": "uint256"
        },
        {
          "indexed": true,
          "internalType": "uint256",
          "name": "timestampIncrease",
          "type": "uint256"
        }
      ],
      "name": "SubscriptionFunded",
      "type": "event"
    },
    {
      "anonymous": false,
      "inputs": [
        {
          "indexed": true,
          "internalType": "uint256",
          "name": "price",
          "type": "uint256"
        },
        {
          "indexed": true,
          "internalType": "uint256",
          "name": "timestampIncrease",
          "type": "uint256"
        }
      ],
      "name": "SubscriptionPlanAdded",
      "type": "event"
    },
    {
      "inputs": [
        {
          "internalType": "address",
          "name": "account",
          "type": "address"
        }
      ],
      "name": "addEncryptor",
      "outputs": [],
      "stateMutability": "nonpayable",
      "type": "function"
    },
    {
      "inputs": [
        {
          "internalType": "address",
          "name": "account",
          "type": "address"
        }
      ],
      "name": "addReporter",
      "outputs": [],
      "stateMutability": "nonpayable",
      "type": "function"
    },
    {
      "inputs": [
        {
          "internalType": "address",
          "name": "artist",
          "type": "address"
        }
      ],
      "name": "artistClaimedMinutes",
      "outputs": [
        {
          "internalType": "uint256",
          "name": "claimedMinutes",
          "type": "uint256"
        }
      ],
      "stateMutability": "view",
      "type": "function"
    },
    {
      "inputs": [
        {
          "internalType": "address",
          "name": "account",
          "type": "address"
        }
      ],
      "name": "artistIds",
      "outputs": [
        {
          "internalType": "uint256",
          "name": "id",
          "type": "uint256"
        }
      ],
      "stateMutability": "view",
      "type": "function"
    },
    {
      "inputs": [
        {
          "internalType": "uint256",
          "name": "id",
          "type": "uint256"
        }
      ],
      "name": "artistNames",
      "outputs": [
        {
          "internalType": "string",
          "name": "name",
          "type": "string"
        }
      ],
      "stateMutability": "view",
      "type": "function"
    },
    {
      "inputs": [
        {
          "internalType": "address",
          "name": "artist",
          "type": "address"
        }
      ],
      "name": "artistPlayedMinutes",
      "outputs": [
        {
          "internalType": "uint256",
          "name": "playedMinutes",
          "type": "uint256"
        }
      ],
      "stateMutability": "view",
      "type": "function"
    },
    {
      "inputs": [
        {
          "internalType": "address",
          "name": "artist",
          "type": "address"
        }
      ],
      "name": "artistUnclaimedAmount",
      "outputs": [
        {
          "internalType": "uint256",
          "name": "",
          "type": "uint256"
        }
      ],
      "stateMutability": "view",
      "type": "function"
    },
    {
      "inputs": [
        {
          "internalType": "address",
          "name": "artist",
          "type": "address"
        },
        {
          "internalType": "uint256",
          "name": "songId",
          "type": "uint256"
        }
      ],
      "name": "buySong",
      "outputs": [],
      "stateMutability": "payable",
      "type": "function"
    },
    {
      "inputs": [
        {
          "internalType": "uint256",
          "name": "_wholeTokens",
          "type": "uint256"
        }
      ],
      "name": "buyTokens",
      "outputs": [],
      "stateMutability": "payable",
      "type": "function"
    },
    {
      "inputs": [],
      "name": "claimRewards",
      "outputs": [],
      "stateMutability": "nonpayable",
      "type": "function"
    },
    {
      "inputs": [],
      "name": "createSubscription",
      "outputs": [],
      "stateMutability": "payable",
      "type": "function"
    },
    {
      "inputs": [
        {
          "internalType": "uint256",
          "name": "id",
          "type": "uint256"
        }
      ],
      "name": "exclusiveSongPrices",
      "outputs": [
        {
          "internalType": "uint256",
          "name": "price",
          "type": "uint256"
        }
      ],
      "stateMutability": "view",
      "type": "function"
    },
    {
      "inputs": [],
      "name": "fundSubscription",
      "outputs": [],
      "stateMutability": "payable",
      "type": "function"
    },
    {
      "inputs": [
        {
          "internalType": "address",
          "name": "account",
          "type": "address"
        }
      ],
      "name": "getArtistId",
      "outputs": [
        {
          "internalType": "uint256",
          "name": "",
          "type": "uint256"
        }
      ],
      "stateMutability": "view",
      "type": "function"
    },
    {
      "inputs": [
        {
          "internalType": "address",
          "name": "account",
          "type": "address"
        }
      ],
      "name": "getArtistName",
      "outputs": [
        {
          "internalType": "string",
          "name": "",
          "type": "string"
        }
      ],
      "stateMutability": "view",
      "type": "function"
    },
    {
      "inputs": [
        {
          "internalType": "address",
          "name": "artist",
          "type": "address"
        },
        {
          "internalType": "uint256",
          "name": "songIndex",
          "type": "uint256"
        }
      ],
      "name": "getArtistSongId",
      "outputs": [
        {
          "internalType": "uint256",
          "name": "",
          "type": "uint256"
        }
      ],
      "stateMutability": "view",
      "type": "function"
    },
    {
      "inputs": [
        {
          "internalType": "address",
          "name": "artist",
          "type": "address"
        }
      ],
      "name": "getArtistSongsCount",
      "outputs": [
        {
          "internalType": "uint256",
          "name": "",
          "type": "uint256"
        }
      ],
      "stateMutability": "view",
      "type": "function"
    },
    {
      "inputs": [
        {
          "internalType": "address",
          "name": "account",
          "type": "address"
        },
        {
          "internalType": "bytes",
          "name": "signature",
          "type": "bytes"
        }
      ],
      "name": "getEncryptionKey",
      "outputs": [
        {
          "internalType": "bytes32",
          "name": "",
          "type": "bytes32"
        }
      ],
      "stateMutability": "view",
      "type": "function"
    },
    {
      "inputs": [
        {
          "internalType": "uint256",
          "name": "songId",
          "type": "uint256"
        }
      ],
      "name": "getSongUri",
      "outputs": [
        {
          "internalType": "string",
          "name": "",
          "type": "string"
        }
      ],
      "stateMutability": "view",
      "type": "function"
    },
    {
      "inputs": [
        {
          "internalType": "address",
          "name": "account",
          "type": "address"
        }
      ],
      "name": "isActiveSubscriber",
      "outputs": [
        {
          "internalType": "bool",
          "name": "",
          "type": "bool"
        }
      ],
      "stateMutability": "view",
      "type": "function"
    },
    {
      "inputs": [
        {
          "internalType": "address",
          "name": "artist",
          "type": "address"
        },
        {
          "internalType": "uint256",
          "name": "songId",
          "type": "uint256"
        }
      ],
      "name": "isArtistSong",
      "outputs": [
        {
          "internalType": "bool",
          "name": "",
          "type": "bool"
        }
      ],
      "stateMutability": "view",
      "type": "function"
    },
    {
      "inputs": [
        {
          "internalType": "address",
          "name": "account",
          "type": "address"
        },
        {
          "internalType": "uint256",
          "name": "songId",
          "type": "uint256"
        }
      ],
      "name": "isSongPurchased",
      "outputs": [
        {
          "internalType": "bool",
          "name": "",
          "type": "bool"
        }
      ],
      "stateMutability": "view",
      "type": "function"
    },
    {
      "inputs": [],
      "name": "owner",
      "outputs": [
        {
          "internalType": "address",
          "name": "",
          "type": "address"
        }
      ],
      "stateMutability": "view",
      "type": "function"
    },
    {
      "inputs": [],
      "name": "pricePerToken",
      "outputs": [
        {
          "internalType": "uint256",
          "name": "",
          "type": "uint256"
        }
      ],
      "stateMutability": "view",
      "type": "function"
    },
    {
      "inputs": [
        {
          "internalType": "string",
          "name": "name",
          "type": "string"
        }
      ],
      "name": "registerArtist",
      "outputs": [],
      "stateMutability": "nonpayable",
      "type": "function"
    },
    {
      "inputs": [
        {
          "internalType": "string",
          "name": "uri",
          "type": "string"
        },
        {
          "internalType": "uint256",
          "name": "exclusivePrice",
          "type": "uint256"
        }
      ],
      "name": "registerSong",
      "outputs": [],
      "stateMutability": "nonpayable",
      "type": "function"
    },
    {
      "inputs": [
        {
          "internalType": "address",
          "name": "account",
          "type": "address"
        }
      ],
      "name": "removeEncryptor",
      "outputs": [],
      "stateMutability": "nonpayable",
      "type": "function"
    },
    {
      "inputs": [
        {
          "internalType": "address",
          "name": "account",
          "type": "address"
        }
      ],
      "name": "removeReporter",
      "outputs": [],
      "stateMutability": "nonpayable",
      "type": "function"
    },
    {
      "inputs": [],
      "name": "renounceOwnership",
      "outputs": [],
      "stateMutability": "nonpayable",
      "type": "function"
    },
    {
      "inputs": [],
      "name": "rewardForPlayedMinute",
      "outputs": [
        {
          "internalType": "uint256",
          "name": "",
          "type": "uint256"
        }
      ],
      "stateMutability": "view",
      "type": "function"
    },
    {
      "inputs": [],
      "name": "rewardsPerProposal",
      "outputs": [
        {
          "internalType": "uint256",
          "name": "",
          "type": "uint256"
        }
      ],
      "stateMutability": "view",
      "type": "function"
    },
    {
      "inputs": [],
      "name": "rewardsToken",
      "outputs": [
        {
          "internalType": "contract JustToken",
          "name": "",
          "type": "address"
        }
      ],
      "stateMutability": "view",
      "type": "function"
    },
    {
      "inputs": [
        {
          "internalType": "uint256",
          "name": "_wholeTokens",
          "type": "uint256"
        },
        {
          "internalType": "address",
          "name": "_receiver",
          "type": "address"
        }
      ],
      "name": "sellTokens",
      "outputs": [],
      "stateMutability": "nonpayable",
      "type": "function"
    },
    {
      "inputs": [
        {
          "internalType": "uint256",
          "name": "_price",
          "type": "uint256"
        }
      ],
      "name": "setPricePerToken",
      "outputs": [],
      "stateMutability": "nonpayable",
      "type": "function"
    },
    {
      "inputs": [
        {
          "internalType": "uint256",
          "name": "reward",
          "type": "uint256"
        }
      ],
      "name": "setRewardForPlayedMinute",
      "outputs": [],
      "stateMutability": "nonpayable",
      "type": "function"
    },
    {
      "inputs": [
        {
          "internalType": "uint256",
          "name": "_rewards",
          "type": "uint256"
        }
      ],
      "name": "setRewardsPerProposal",
      "outputs": [],
      "stateMutability": "nonpayable",
      "type": "function"
    },
    {
      "inputs": [
        {
          "internalType": "uint256",
          "name": "price",
          "type": "uint256"
        },
        {
          "internalType": "uint256",
          "name": "timestampIncrease",
          "type": "uint256"
        }
      ],
      "name": "setSubscriptionPlan",
      "outputs": [],
      "stateMutability": "nonpayable",
      "type": "function"
    },
    {
      "inputs": [
        {
          "internalType": "uint256",
          "name": "price",
          "type": "uint256"
        }
      ],
      "name": "subscriptionPlanIntervals",
      "outputs": [
        {
          "internalType": "uint256",
          "name": "interval",
          "type": "uint256"
        }
      ],
      "stateMutability": "view",
      "type": "function"
    },
    {
      "inputs": [
        {
          "internalType": "address",
          "name": "account",
          "type": "address"
        }
      ],
      "name": "subscriptions",
      "outputs": [
        {
          "internalType": "uint256",
          "name": "expirationTimestamp",
          "type": "uint256"
        }
      ],
      "stateMutability": "view",
      "type": "function"
    },
    {
      "inputs": [
        {
          "internalType": "address",
          "name": "newOwner",
          "type": "address"
        }
      ],
      "name": "transferOwnership",
      "outputs": [],
      "stateMutability": "nonpayable",
      "type": "function"
    },
    {
      "inputs": [
        {
          "components": [
            {
              "internalType": "address",
              "name": "artist",
              "type": "address"
            },
            {
              "internalType": "uint256",
              "name": "playedMinutes",
              "type": "uint256"
            }
          ],
          "internalType": "struct UpdatePlayedMinutes.ArtistUpdate[]",
          "name": "updates",
          "type": "tuple[]"
        }
      ],
      "name": "updatePlayedMinutes",
      "outputs": [],
      "stateMutability": "nonpayable",
      "type": "function"
    }
  ],
  "bytecode": "0x60806040523480156200001157600080fd5b50604051620069223803806200692283398181016040528101906200003791906200030a565b8083836200005a6200004e620001b560201b60201c565b620001bd60201b60201c565b600180819055506435e55f19096003819055506003547fde2a550feb6ab90bd4c3e2d079c1e9f15fa6c1616cd90660836219be038742e960405160405180910390a260008211620000e2576040517f08c379a0000000000000000000000000000000000000000000000000000000008152600401620000d990620003c7565b60405180910390fd5b6000811162000128576040517f08c379a00000000000000000000000000000000000000000000000000000000081526004016200011f9062000439565b60405180910390fd5b604051620001369062000281565b604051809103906000f08015801562000153573d6000803e3d6000fd5b50600260006101000a81548173ffffffffffffffffffffffffffffffffffffffff021916908373ffffffffffffffffffffffffffffffffffffffff1602179055508160128190555080601381905550505080600481905550505050506200045b565b600033905090565b60008060009054906101000a900473ffffffffffffffffffffffffffffffffffffffff169050816000806101000a81548173ffffffffffffffffffffffffffffffffffffffff021916908373ffffffffffffffffffffffffffffffffffffffff1602179055508173ffffffffffffffffffffffffffffffffffffffff168173ffffffffffffffffffffffffffffffffffffffff167f8be0079c531659141344cd1fd0a4f28419497f9722a3daafe3b4186f6b6457e060405160405180910390a35050565b611ce98062004c3983390190565b600080fd5b6000819050919050565b620002a98162000294565b8114620002b557600080fd5b50565b600081519050620002c9816200029e565b92915050565b6000819050919050565b620002e481620002cf565b8114620002f057600080fd5b50565b6000815190506200030481620002d9565b92915050565b6000806000606084860312156200032657620003256200028f565b5b60006200033686828701620002b8565b93505060206200034986828701620002b8565b92505060406200035c86828701620002f3565b9150509250925092565b600082825260208201905092915050565b7f5265776172647320666f722070726f706f73616c206973207a65726f00000000600082015250565b6000620003af601c8362000366565b9150620003bc8262000377565b602082019050919050565b60006020820190508181036000830152620003e281620003a0565b9050919050565b7f5072696365206973207a65726f00000000000000000000000000000000000000600082015250565b600062000421600d8362000366565b91506200042e82620003e9565b602082019050919050565b60006020820190508181036000830152620004548162000412565b9050919050565b6147ce806200046b6000396000f3fe6080604052600436106102465760003560e01c80637b1b1de611610139578063d1af0c7d116100b6578063e066765e1161007a578063e066765e1461089e578063e3c266dd146108db578063f0400d3c14610904578063f046395a1461092d578063f08bf9ad1461096a578063f2fde38b1461099557610246565b8063d1af0c7d146107bb578063d850b1d2146107e6578063d8da18e41461080f578063dd8755f21461084c578063dedbe3061461087557610246565b8063a0a96d5a116100fd578063a0a96d5a146106d1578063a21a23e41461070e578063b36349dc14610718578063c472794014610755578063c70632661461077e57610246565b80637b1b1de6146105ec5780637e871c82146106175780638da5cb5b146106405780638e048e751461066b5780639355d419146106a857610246565b80634655c9a9116101c75780635fcbb0471161018b5780635fcbb047146105075780636269bd0114610544578063670f715114610581578063715018a6146105aa5780637ab9e7fb146105c157610246565b80634655c9a91461041d5780634c49d7d51461045a578063575f08ff1461049757806357ace39b146104d45780635de5c212146104de57610246565b806326be93971161020e57806326be9397146103475780632bf2762f146103845780633610724e146103ad578063372500ab146103c957806344ee0119146103e057610246565b8063030ae9ab1461024b5780630a0ef451146102885780631ac5f331146102c55780631b39152d146102e157806323c3dd371461031e575b600080fd5b34801561025757600080fd5b50610272600480360381019061026d91906132d3565b6109be565b60405161027f9190613319565b60405180910390f35b34801561029457600080fd5b506102af60048036038101906102aa9190613360565b610a4f565b6040516102bc9190613319565b60405180910390f35b6102df60048036038101906102da919061338d565b610a67565b005b3480156102ed57600080fd5b50610308600480360381019061030391906132d3565b610cac565b6040516103159190613319565b60405180910390f35b34801561032a57600080fd5b5061034560048036038101906103409190613360565b610cc4565b005b34801561035357600080fd5b5061036e6004803603810190610369919061338d565b610d16565b60405161037b91906133e8565b60405180910390f35b34801561039057600080fd5b506103ab60048036038101906103a69190613360565b610d2a565b005b6103c760048036038101906103c29190613360565b610d7c565b005b3480156103d557600080fd5b506103de61101c565b005b3480156103ec57600080fd5b5061040760048036038101906104029190613468565b6111e1565b60405161041491906134e1565b60405180910390f35b34801561042957600080fd5b50610444600480360381019061043f9190613360565b611203565b604051610451919061358c565b60405180910390f35b34801561046657600080fd5b50610481600480360381019061047c9190613360565b6112a8565b60405161048e9190613319565b60405180910390f35b3480156104a357600080fd5b506104be60048036038101906104b9919061338d565b6112c0565b6040516104cb91906133e8565b60405180910390f35b6104dc611328565b005b3480156104ea57600080fd5b50610505600480360381019061050091906132d3565b61144e565b005b34801561051357600080fd5b5061052e600480360381019061052991906132d3565b6114fd565b60405161053b9190613319565b60405180910390f35b34801561055057600080fd5b5061056b6004803603810190610566919061338d565b611515565b6040516105789190613319565b60405180910390f35b34801561058d57600080fd5b506105a860048036038101906105a391906135ae565b61157b565b005b3480156105b657600080fd5b506105bf611762565b005b3480156105cd57600080fd5b506105d6611776565b6040516105e39190613319565b60405180910390f35b3480156105f857600080fd5b5061060161177c565b60405161060e9190613319565b60405180910390f35b34801561062357600080fd5b5061063e600480360381019061063991906132d3565b611782565b005b34801561064c57600080fd5b50610655611831565b60405161066291906135fd565b60405180910390f35b34801561067757600080fd5b50610692600480360381019061068d91906132d3565b61185a565b60405161069f91906133e8565b60405180910390f35b3480156106b457600080fd5b506106cf60048036038101906106ca919061366e565b6118a6565b005b3480156106dd57600080fd5b506106f860048036038101906106f39190613360565b61190a565b604051610705919061358c565b60405180910390f35b6107166119aa565b005b34801561072457600080fd5b5061073f600480360381019061073a91906132d3565b611a70565b60405161074c919061358c565b60405180910390f35b34801561076157600080fd5b5061077c600480360381019061077791906136bb565b611b54565b005b34801561078a57600080fd5b506107a560048036038101906107a091906132d3565b611bc0565b6040516107b29190613319565b60405180910390f35b3480156107c757600080fd5b506107d0611c09565b6040516107dd919061375a565b60405180910390f35b3480156107f257600080fd5b5061080d600480360381019061080891906132d3565b611c2f565b005b34801561081b57600080fd5b50610836600480360381019061083191906132d3565b611cde565b6040516108439190613319565b60405180910390f35b34801561085857600080fd5b50610873600480360381019061086e91906132d3565b611cf6565b005b34801561088157600080fd5b5061089c60048036038101906108979190613775565b611da5565b005b3480156108aa57600080fd5b506108c560048036038101906108c091906132d3565b611e0b565b6040516108d29190613319565b60405180910390f35b3480156108e757600080fd5b5061090260048036038101906108fd919061382b565b611e54565b005b34801561091057600080fd5b5061092b60048036038101906109269190613360565b611f33565b005b34801561093957600080fd5b50610954600480360381019061094f91906132d3565b611f81565b6040516109619190613319565b60405180910390f35b34801561097657600080fd5b5061097f611f99565b60405161098c9190613319565b60405180910390f35b3480156109a157600080fd5b506109bc60048036038101906109b791906132d3565b611f9f565b005b6000610a48600960008473ffffffffffffffffffffffffffffffffffffffff1673ffffffffffffffffffffffffffffffffffffffff16815260200190815260200160002054600a60008573ffffffffffffffffffffffffffffffffffffffff1673ffffffffffffffffffffffffffffffffffffffff16815260200190815260200160002054612022565b9050919050565b60116020528060005260406000206000915090505481565b610a7081612045565b610a79816120a1565b610a8382826120f1565b6000600c60008381526020019081526020016000205490506000600260009054906101000a900473ffffffffffffffffffffffffffffffffffffffff1673ffffffffffffffffffffffffffffffffffffffff1663313ce5676040518163ffffffff1660e01b8152600401602060405180830381865afa158015610b0a573d6000803e3d6000fd5b505050506040513d601f19601f82011682018060405250810190610b2e91906138b1565b60ff169050600081600a610b429190613a40565b905060008184610b529190613a8b565b9050600260009054906101000a900473ffffffffffffffffffffffffffffffffffffffff1673ffffffffffffffffffffffffffffffffffffffff166323b872dd3388846040518463ffffffff1660e01b8152600401610bb393929190613acd565b6020604051808303816000875af1158015610bd2573d6000803e3d6000fd5b505050506040513d601f19601f82011682018060405250810190610bf69190613b30565b506001600b60003373ffffffffffffffffffffffffffffffffffffffff1673ffffffffffffffffffffffffffffffffffffffff168152602001908152602001600020600087815260200190815260200160002060006101000a81548160ff021916908315150217905550843373ffffffffffffffffffffffffffffffffffffffff167fe20750a4417f37bd85a195d63720cb1c314963d8888dc41e6323fed4805542ac60405160405180910390a3505050505050565b60096020528060005260406000206000915090505481565b610ccc612135565b610cd5816121b3565b806012819055507f72ea2c9c38b647a7ef112a9939feedf39954cffb5d3639491a358ac0adf950a681604051610d0b9190613319565b60405180910390a150565b6000610d2283836121f0565b905092915050565b610d32612135565b610d3b816122cd565b806013819055507f3200057f39b60b2ce0d5c0768cd90469dc468a882eec07ce1802fef660ebee5981604051610d719190613319565b60405180910390a150565b610d858161230a565b610d8e81612347565b6000600260009054906101000a900473ffffffffffffffffffffffffffffffffffffffff1673ffffffffffffffffffffffffffffffffffffffff166370a08231306040518263ffffffff1660e01b8152600401610deb91906135fd565b602060405180830381865afa158015610e08573d6000803e3d6000fd5b505050506040513d601f19601f82011682018060405250810190610e2c9190613b72565b90506000600260009054906101000a900473ffffffffffffffffffffffffffffffffffffffff1673ffffffffffffffffffffffffffffffffffffffff1663313ce5676040518163ffffffff1660e01b8152600401602060405180830381865afa158015610e9d573d6000803e3d6000fd5b505050506040513d601f19601f82011682018060405250810190610ec191906138b1565b600a610ecd9190613b9f565b83610ed89190613a8b565b9050808210610f8757600260009054906101000a900473ffffffffffffffffffffffffffffffffffffffff1673ffffffffffffffffffffffffffffffffffffffff1663a9059cbb33836040518363ffffffff1660e01b8152600401610f3e929190613bea565b6020604051808303816000875af1158015610f5d573d6000803e3d6000fd5b505050506040513d601f19601f82011682018060405250810190610f819190613b30565b50611017565b600260009054906101000a900473ffffffffffffffffffffffffffffffffffffffff1673ffffffffffffffffffffffffffffffffffffffff166340c10f1933836040518363ffffffff1660e01b8152600401610fe4929190613bea565b600060405180830381600087803b158015610ffe57600080fd5b505af1158015611012573d6000803e3d6000fd5b505050505b505050565b611024612396565b61102c6123e5565b611034612460565b6000600960003373ffffffffffffffffffffffffffffffffffffffff1673ffffffffffffffffffffffffffffffffffffffff1681526020019081526020016000205490506000600a60003373ffffffffffffffffffffffffffffffffffffffff1673ffffffffffffffffffffffffffffffffffffffff16815260200190815260200160002054905060006110c88383612022565b905081836110d69190613c13565b600a60003373ffffffffffffffffffffffffffffffffffffffff1673ffffffffffffffffffffffffffffffffffffffff1681526020019081526020016000208190555060003373ffffffffffffffffffffffffffffffffffffffff168260405161113f90613c78565b60006040518083038185875af1925050503d806000811461117c576040519150601f19603f3d011682016040523d82523d6000602084013e611181565b606091505b505090508061118f57600080fd5b813373ffffffffffffffffffffffffffffffffffffffff167ffc30cddea38e2bf4d6ea7d3f9ed3b6ad7f176419f4963bd81318067a4aee73fe60405160405180910390a3505050506111df612537565b565b60006111ec84612540565b6111f78484846125c6565b60045490509392505050565b606060066000838152602001908152602001600020805461122390613cbc565b80601f016020809104026020016040519081016040528092919081815260200182805461124f90613cbc565b801561129c5780601f106112715761010080835404028352916020019161129c565b820191906000526020600020905b81548152906001019060200180831161127f57829003601f168201915b50505050509050919050565b600c6020528060005260406000206000915090505481565b6000600b60008473ffffffffffffffffffffffffffffffffffffffff1673ffffffffffffffffffffffffffffffffffffffff168152602001908152602001600020600083815260200190815260200160002060009054906101000a900460ff16905092915050565b611330612639565b600060116000348152602001908152602001600020549050611351816126b4565b600080601060003373ffffffffffffffffffffffffffffffffffffffff1673ffffffffffffffffffffffffffffffffffffffff168152602001908152602001600020549050428110156113b15782426113aa9190613c13565b91506113c0565b82816113bd9190613c13565b91505b81601060003373ffffffffffffffffffffffffffffffffffffffff1673ffffffffffffffffffffffffffffffffffffffff1681526020019081526020016000208190555082823373ffffffffffffffffffffffffffffffffffffffff167fb3abbf202f180f33d8c665604028b8c2bc6db0b430eee642e6a87c332ba9df3a60405160405180910390a4505050565b611456612135565b61145f816126f1565b6000600d60008373ffffffffffffffffffffffffffffffffffffffff1673ffffffffffffffffffffffffffffffffffffffff16815260200190815260200160002060006101000a81548160ff0219169083151502179055508073ffffffffffffffffffffffffffffffffffffffff167ff125aa5e6cb22c17ea0de4e1f86d2ff289ddd6a37e791b9ad29d0091cba06ac860405160405180910390a250565b60056020528060005260406000206000915090505481565b6000600760008473ffffffffffffffffffffffffffffffffffffffff1673ffffffffffffffffffffffffffffffffffffffff168152602001908152602001600020828154811061156857611567613ced565b5b9060005260206000200154905092915050565b6115848261230a565b6000600260009054906101000a900473ffffffffffffffffffffffffffffffffffffffff1673ffffffffffffffffffffffffffffffffffffffff1663313ce5676040518163ffffffff1660e01b8152600401602060405180830381865afa1580156115f3573d6000803e3d6000fd5b505050506040513d601f19601f8201168201806040525081019061161791906138b1565b600a6116239190613b9f565b8361162e9190613a8b565b9050600260009054906101000a900473ffffffffffffffffffffffffffffffffffffffff1673ffffffffffffffffffffffffffffffffffffffff166323b872dd3330846040518463ffffffff1660e01b815260040161168f93929190613acd565b6020604051808303816000875af11580156116ae573d6000803e3d6000fd5b505050506040513d601f19601f820116820180604052508101906116d29190613b30565b506000601354846116e39190613a8b565b905060008373ffffffffffffffffffffffffffffffffffffffff168260405161170b90613c78565b60006040518083038185875af1925050503d8060008114611748576040519150601f19603f3d011682016040523d82523d6000602084013e61174d565b606091505b505090508061175b57600080fd5b5050505050565b61176a612135565b6117746000612777565b565b60125481565b60135481565b61178a612135565b61179381612540565b6000600e60008373ffffffffffffffffffffffffffffffffffffffff1673ffffffffffffffffffffffffffffffffffffffff16815260200190815260200160002060006101000a81548160ff0219169083151502179055508073ffffffffffffffffffffffffffffffffffffffff167f831fe45b7aa67ec3bed8b685a1393377d63415609ea28cd6c46c957cd206ace460405160405180910390a250565b60008060009054906101000a900473ffffffffffffffffffffffffffffffffffffffff16905090565b600042601060008473ffffffffffffffffffffffffffffffffffffffff1673ffffffffffffffffffffffffffffffffffffffff1681526020019081526020016000205410159050919050565b6118b0828261283b565b6118b861287c565b6119063383838080601f016020809104026020016040519081016040528093929190818152602001838380828437600081840152601f19601f820116905080830192505050505050506128f8565b5050565b600f602052806000526040600020600091509050805461192990613cbc565b80601f016020809104026020016040519081016040528092919081815260200182805461195590613cbc565b80156119a25780601f10611977576101008083540402835291602001916119a2565b820191906000526020600020905b81548152906001019060200180831161198557829003601f168201915b505050505081565b6119b2612a04565b6000601160003481526020019081526020016000205490506119d3816126b4565b600081426119e19190613c13565b905080601060003373ffffffffffffffffffffffffffffffffffffffff1673ffffffffffffffffffffffffffffffffffffffff1681526020019081526020016000208190555081813373ffffffffffffffffffffffffffffffffffffffff167feec977e786e7248a658b0474ccf8f57f37ead019014ec4d5ba1542ddabeff1b460405160405180910390a45050565b6060600f6000600560008573ffffffffffffffffffffffffffffffffffffffff1673ffffffffffffffffffffffffffffffffffffffff1681526020019081526020016000205481526020019081526020016000208054611acf90613cbc565b80601f0160208091040260200160405190810160405280929190818152602001828054611afb90613cbc565b8015611b485780601f10611b1d57610100808354040283529160200191611b48565b820191906000526020600020905b815481529060010190602001808311611b2b57829003601f168201915b50505050509050919050565b611b5c612135565b60008211611b6957600080fd5b60008111611b7657600080fd5b80601160008481526020019081526020016000208190555080827f54cba80c24bb8b943b0467102348972ab8b8d832c8fe766604a41205029bdeb560405160405180910390a35050565b6000600860008373ffffffffffffffffffffffffffffffffffffffff1673ffffffffffffffffffffffffffffffffffffffff168152602001908152602001600020549050919050565b600260009054906101000a900473ffffffffffffffffffffffffffffffffffffffff1681565b611c37612135565b611c4081612a80565b6001600e60008373ffffffffffffffffffffffffffffffffffffffff1673ffffffffffffffffffffffffffffffffffffffff16815260200190815260200160002060006101000a81548160ff0219169083151502179055508073ffffffffffffffffffffffffffffffffffffffff167ff6c9f98033b9dff108e3563ef16e2eeed997d551b8b5dd48be580ca3f92316a560405160405180910390a250565b600a6020528060005260406000206000915090505481565b611cfe612135565b611d0781612b07565b6001600d60008373ffffffffffffffffffffffffffffffffffffffff1673ffffffffffffffffffffffffffffffffffffffff16815260200190815260200160002060006101000a81548160ff0219169083151502179055508073ffffffffffffffffffffffffffffffffffffffff167f52824c4a4d431c73d6d24a91f775d722860111c6d30da30b0b21e062fb4c736560405160405180910390a250565b611daf8383612b8e565b611db76123e5565b611e063384848080601f016020809104026020016040519081016040528093929190818152602001838380828437600081840152601f19601f8201169050808301925050505050505083612bcf565b505050565b6000600560008373ffffffffffffffffffffffffffffffffffffffff1673ffffffffffffffffffffffffffffffffffffffff168152602001908152602001600020549050919050565b611e5d336126f1565b611e678282612d6a565b60005b82829050811015611f02576000838383818110611e8a57611e89613ced565b5b905060400201803603810190611ea09190613dec565b9050806020015160096000836000015173ffffffffffffffffffffffffffffffffffffffff1673ffffffffffffffffffffffffffffffffffffffff16815260200190815260200160002081905550508080611efa90613e19565b915050611e6a565b507fb1f4c00fef5089fc65c077ba0529ff566678425b72c5ef25184eb9158cf006eb60405160405180910390a15050565b611f3b612135565b60008111611f4857600080fd5b806003819055506003547fde2a550feb6ab90bd4c3e2d079c1e9f15fa6c1616cd90660836219be038742e960405160405180910390a250565b60106020528060005260406000206000915090505481565b60035481565b611fa7612135565b600073ffffffffffffffffffffffffffffffffffffffff168173ffffffffffffffffffffffffffffffffffffffff1603612016576040517f08c379a000000000000000000000000000000000000000000000000000000000815260040161200d90613ed3565b60405180910390fd5b61201f81612777565b50565b600081836120309190613ef3565b60035461203d9190613a8b565b905092915050565b600060066000838152602001908152602001600020805461206590613cbc565b90500361209e576040517f439dd45c00000000000000000000000000000000000000000000000000000000815260040160405180910390fd5b50565b6000600c600083815260200190815260200160002054036120ee576040517f298763a600000000000000000000000000000000000000000000000000000000815260040160405180910390fd5b50565b6120fb82826121f0565b612131576040517f46b47f2500000000000000000000000000000000000000000000000000000000815260040160405180910390fd5b5050565b61213d612f28565b73ffffffffffffffffffffffffffffffffffffffff1661215b611831565b73ffffffffffffffffffffffffffffffffffffffff16146121b1576040517f08c379a00000000000000000000000000000000000000000000000000000000081526004016121a890613f73565b60405180910390fd5b565b600081036121ed576040517f6629597700000000000000000000000000000000000000000000000000000000815260040160405180910390fd5b50565b600080600860008573ffffffffffffffffffffffffffffffffffffffff1673ffffffffffffffffffffffffffffffffffffffff16815260200190815260200160002054905060005b818110156122c05783600760008773ffffffffffffffffffffffffffffffffffffffff1673ffffffffffffffffffffffffffffffffffffffff168152602001908152602001600020828154811061229257612291613ced565b5b9060005260206000200154036122ad576001925050506122c7565b80806122b890613e19565b915050612238565b5060009150505b92915050565b60008103612307576040517f2c669f0a00000000000000000000000000000000000000000000000000000000815260040160405180910390fd5b50565b60008103612344576040517fd11b25af00000000000000000000000000000000000000000000000000000000815260040160405180910390fd5b50565b6000601354826123579190613a8b565b9050348114612392576040517f03862d0b00000000000000000000000000000000000000000000000000000000815260040160405180910390fd5b5050565b6002600154036123db576040517f08c379a00000000000000000000000000000000000000000000000000000000081526004016123d290613fdf565b60405180910390fd5b6002600181905550565b6000600560003373ffffffffffffffffffffffffffffffffffffffff1673ffffffffffffffffffffffffffffffffffffffff168152602001908152602001600020540361245e576040517f5ba4c78d00000000000000000000000000000000000000000000000000000000815260040160405180910390fd5b565b6000600960003373ffffffffffffffffffffffffffffffffffffffff1673ffffffffffffffffffffffffffffffffffffffff1681526020019081526020016000205490506000600a60003373ffffffffffffffffffffffffffffffffffffffff1673ffffffffffffffffffffffffffffffffffffffff168152602001908152602001600020549050600081836124f69190613ef3565b905060008103612532576040517ff40c208900000000000000000000000000000000000000000000000000000000815260040160405180910390fd5b505050565b60018081905550565b600e60008273ffffffffffffffffffffffffffffffffffffffff1673ffffffffffffffffffffffffffffffffffffffff16815260200190815260200160002060009054906101000a900460ff166125c3576040517fa7fda99900000000000000000000000000000000000000000000000000000000815260040160405180910390fd5b50565b6000836040516020016125d991906135fd565b6040516020818303038152906040528051906020012090506125fd84828585612f30565b612633576040517f8baa579f00000000000000000000000000000000000000000000000000000000815260040160405180910390fd5b50505050565b6000601060003373ffffffffffffffffffffffffffffffffffffffff1673ffffffffffffffffffffffffffffffffffffffff16815260200190815260200160002054036126b2576040517f0ba7474000000000000000000000000000000000000000000000000000000000815260040160405180910390fd5b565b600081036126ee576040517f64fc58f000000000000000000000000000000000000000000000000000000000815260040160405180910390fd5b50565b600d60008273ffffffffffffffffffffffffffffffffffffffff1673ffffffffffffffffffffffffffffffffffffffff16815260200190815260200160002060009054906101000a900460ff16612774576040517fed8b45b100000000000000000000000000000000000000000000000000000000815260040160405180910390fd5b50565b60008060009054906101000a900473ffffffffffffffffffffffffffffffffffffffff169050816000806101000a81548173ffffffffffffffffffffffffffffffffffffffff021916908373ffffffffffffffffffffffffffffffffffffffff1602179055508173ffffffffffffffffffffffffffffffffffffffff168173ffffffffffffffffffffffffffffffffffffffff167f8be0079c531659141344cd1fd0a4f28419497f9722a3daafe3b4186f6b6457e060405160405180910390a35050565b60008282905003612878576040517fd9a5fbfc00000000000000000000000000000000000000000000000000000000815260040160405180910390fd5b5050565b6000600560003373ffffffffffffffffffffffffffffffffffffffff1673ffffffffffffffffffffffffffffffffffffffff1681526020019081526020016000205411156128f6576040517f9b70f42400000000000000000000000000000000000000000000000000000000815260040160405180910390fd5b565b6000612902613072565b90506000600f6000838152602001908152602001600020805461292490613cbc565b9050111561293757612934613072565b90505b81600f6000838152602001908152602001600020908161295791906141a1565b5080600560008573ffffffffffffffffffffffffffffffffffffffff1673ffffffffffffffffffffffffffffffffffffffff1681526020019081526020016000208190555080600160028111156129b1576129b0614273565b5b8473ffffffffffffffffffffffffffffffffffffffff167f530708815c9407cb1f2859a353ee291d1acfe7a488d4347780a1d35690b90726856040516129f7919061358c565b60405180910390a4505050565b6000601060003373ffffffffffffffffffffffffffffffffffffffff1673ffffffffffffffffffffffffffffffffffffffff168152602001908152602001600020541115612a7e576040517fefecdc3c00000000000000000000000000000000000000000000000000000000815260040160405180910390fd5b565b600e60008273ffffffffffffffffffffffffffffffffffffffff1673ffffffffffffffffffffffffffffffffffffffff16815260200190815260200160002060009054906101000a900460ff1615612b04576040517febca463b00000000000000000000000000000000000000000000000000000000815260040160405180910390fd5b50565b600d60008273ffffffffffffffffffffffffffffffffffffffff1673ffffffffffffffffffffffffffffffffffffffff16815260200190815260200160002060009054906101000a900460ff1615612b8b576040517f18d9ae0900000000000000000000000000000000000000000000000000000000815260040160405180910390fd5b50565b60008282905003612bcb576040517fe7f85e7900000000000000000000000000000000000000000000000000000000815260040160405180910390fd5b5050565b6000612bd9613072565b90506000600660008381526020019081526020016000208054612bfb90613cbc565b90501115612c0e57612c0b613072565b90505b82600660008381526020019081526020016000209081612c2e91906141a1565b50600760008573ffffffffffffffffffffffffffffffffffffffff1673ffffffffffffffffffffffffffffffffffffffff168152602001908152602001600020819080600181540180825580915050600190039060005260206000200160009091909190915055600860008573ffffffffffffffffffffffffffffffffffffffff1673ffffffffffffffffffffffffffffffffffffffff1681526020019081526020016000206000815480929190612ce590613e19565b919050555081600c60008381526020019081526020016000208190555080600280811115612d1657612d15614273565b5b8573ffffffffffffffffffffffffffffffffffffffff167f530708815c9407cb1f2859a353ee291d1acfe7a488d4347780a1d35690b9072686604051612d5c919061358c565b60405180910390a450505050565b60008282905003612da7576040517ff2486cbe00000000000000000000000000000000000000000000000000000000815260040160405180910390fd5b60005b82829050811015612f23576000838383818110612dca57612dc9613ced565b5b905060400201803603810190612de09190613dec565b9050600060056000836000015173ffffffffffffffffffffffffffffffffffffffff1673ffffffffffffffffffffffffffffffffffffffff1681526020019081526020016000205403612e7457806000015181602001516040517f3b573da2000000000000000000000000000000000000000000000000000000008152600401612e6b929190613bea565b60405180910390fd5b600060096000836000015173ffffffffffffffffffffffffffffffffffffffff1673ffffffffffffffffffffffffffffffffffffffff16815260200190815260200160002054905081602001518110612f0e57816000015182602001516040517f3b573da2000000000000000000000000000000000000000000000000000000008152600401612f05929190613bea565b60405180910390fd5b50508080612f1b90613e19565b915050612daa565b505050565b600033905090565b600080600080612f408686613100565b92509250925060006040518060400160405280601c81526020017f19457468657265756d205369676e6564204d6573736167653a0a33320000000081525088604051602001612f909291906142ff565b604051602081830303815290604052805190602001209050600060018284878760405160008152602001604052604051612fcd9493929190614336565b6020604051602081039080840390855afa158015612fef573d6000803e3d6000fd5b505050602060405103519050600073ffffffffffffffffffffffffffffffffffffffff168173ffffffffffffffffffffffffffffffffffffffff161415801561306357508973ffffffffffffffffffffffffffffffffffffffff168173ffffffffffffffffffffffffffffffffffffffff16145b95505050505050949350505050565b6000615aff4614806130855750615afe46145b156130c7576130b46020426040516020016130a0919061439c565b604051602081830303815290604052613172565b6130bd906143e7565b60001c90506130fd565b3343404244416040516020016130e19594939291906144d1565b6040516020818303038152906040528051906020012060001c90505b90565b600080600084846000906020926131199392919061453a565b906131249190614580565b9250848460209060409261313a9392919061453a565b906131459190614580565b9150848460409060419261315b9392919061453a565b90613166919061460b565b60f81c90509250925092565b606060008073010000000000000000000000000000000000000173ffffffffffffffffffffffffffffffffffffffff1685856040516020016131b59291906146b4565b6040516020818303038152906040526040516131d19190614715565b600060405180830381855afa9150503d806000811461320c576040519150601f19603f3d011682016040523d82523d6000602084013e613211565b606091505b509150915081613256576040517f08c379a000000000000000000000000000000000000000000000000000000000815260040161324d90614778565b60405180910390fd5b809250505092915050565b6000604051905090565b600080fd5b600080fd5b600073ffffffffffffffffffffffffffffffffffffffff82169050919050565b60006132a082613275565b9050919050565b6132b081613295565b81146132bb57600080fd5b50565b6000813590506132cd816132a7565b92915050565b6000602082840312156132e9576132e861326b565b5b60006132f7848285016132be565b91505092915050565b6000819050919050565b61331381613300565b82525050565b600060208201905061332e600083018461330a565b92915050565b61333d81613300565b811461334857600080fd5b50565b60008135905061335a81613334565b92915050565b6000602082840312156133765761337561326b565b5b60006133848482850161334b565b91505092915050565b600080604083850312156133a4576133a361326b565b5b60006133b2858286016132be565b92505060206133c38582860161334b565b9150509250929050565b60008115159050919050565b6133e2816133cd565b82525050565b60006020820190506133fd60008301846133d9565b92915050565b600080fd5b600080fd5b600080fd5b60008083601f84011261342857613427613403565b5b8235905067ffffffffffffffff81111561344557613444613408565b5b6020830191508360018202830111156134615761346061340d565b5b9250929050565b6000806000604084860312156134815761348061326b565b5b600061348f868287016132be565b935050602084013567ffffffffffffffff8111156134b0576134af613270565b5b6134bc86828701613412565b92509250509250925092565b6000819050919050565b6134db816134c8565b82525050565b60006020820190506134f660008301846134d2565b92915050565b600081519050919050565b600082825260208201905092915050565b60005b8381101561353657808201518184015260208101905061351b565b60008484015250505050565b6000601f19601f8301169050919050565b600061355e826134fc565b6135688185613507565b9350613578818560208601613518565b61358181613542565b840191505092915050565b600060208201905081810360008301526135a68184613553565b905092915050565b600080604083850312156135c5576135c461326b565b5b60006135d38582860161334b565b92505060206135e4858286016132be565b9150509250929050565b6135f781613295565b82525050565b600060208201905061361260008301846135ee565b92915050565b60008083601f84011261362e5761362d613403565b5b8235905067ffffffffffffffff81111561364b5761364a613408565b5b6020830191508360018202830111156136675761366661340d565b5b9250929050565b600080602083850312156136855761368461326b565b5b600083013567ffffffffffffffff8111156136a3576136a2613270565b5b6136af85828601613618565b92509250509250929050565b600080604083850312156136d2576136d161326b565b5b60006136e08582860161334b565b92505060206136f18582860161334b565b9150509250929050565b6000819050919050565b600061372061371b61371684613275565b6136fb565b613275565b9050919050565b600061373282613705565b9050919050565b600061374482613727565b9050919050565b61375481613739565b82525050565b600060208201905061376f600083018461374b565b92915050565b60008060006040848603121561378e5761378d61326b565b5b600084013567ffffffffffffffff8111156137ac576137ab613270565b5b6137b886828701613618565b935093505060206137cb8682870161334b565b9150509250925092565b60008083601f8401126137eb576137ea613403565b5b8235905067ffffffffffffffff81111561380857613807613408565b5b6020830191508360408202830111156138245761382361340d565b5b9250929050565b600080602083850312156138425761384161326b565b5b600083013567ffffffffffffffff8111156138605761385f613270565b5b61386c858286016137d5565b92509250509250929050565b600060ff82169050919050565b61388e81613878565b811461389957600080fd5b50565b6000815190506138ab81613885565b92915050565b6000602082840312156138c7576138c661326b565b5b60006138d58482850161389c565b91505092915050565b7f4e487b7100000000000000000000000000000000000000000000000000000000600052601160045260246000fd5b60008160011c9050919050565b6000808291508390505b6001851115613964578086048111156139405761393f6138de565b5b600185161561394f5780820291505b808102905061395d8561390d565b9450613924565b94509492505050565b60008261397d5760019050613a39565b8161398b5760009050613a39565b81600181146139a157600281146139ab576139da565b6001915050613a39565b60ff8411156139bd576139bc6138de565b5b8360020a9150848211156139d4576139d36138de565b5b50613a39565b5060208310610133831016604e8410600b8410161715613a0f5782820a905083811115613a0a57613a096138de565b5b613a39565b613a1c848484600161391a565b92509050818404811115613a3357613a326138de565b5b81810290505b9392505050565b6000613a4b82613300565b9150613a5683613300565b9250613a837fffffffffffffffffffffffffffffffffffffffffffffffffffffffffffffffff848461396d565b905092915050565b6000613a9682613300565b9150613aa183613300565b9250828202613aaf81613300565b91508282048414831517613ac657613ac56138de565b5b5092915050565b6000606082019050613ae260008301866135ee565b613aef60208301856135ee565b613afc604083018461330a565b949350505050565b613b0d816133cd565b8114613b1857600080fd5b50565b600081519050613b2a81613b04565b92915050565b600060208284031215613b4657613b4561326b565b5b6000613b5484828501613b1b565b91505092915050565b600081519050613b6c81613334565b92915050565b600060208284031215613b8857613b8761326b565b5b6000613b9684828501613b5d565b91505092915050565b6000613baa82613300565b9150613bb583613878565b9250613be27fffffffffffffffffffffffffffffffffffffffffffffffffffffffffffffffff848461396d565b905092915050565b6000604082019050613bff60008301856135ee565b613c0c602083018461330a565b9392505050565b6000613c1e82613300565b9150613c2983613300565b9250828201905080821115613c4157613c406138de565b5b92915050565b600081905092915050565b50565b6000613c62600083613c47565b9150613c6d82613c52565b600082019050919050565b6000613c8382613c55565b9150819050919050565b7f4e487b7100000000000000000000000000000000000000000000000000000000600052602260045260246000fd5b60006002820490506001821680613cd457607f821691505b602082108103613ce757613ce6613c8d565b5b50919050565b7f4e487b7100000000000000000000000000000000000000000000000000000000600052603260045260246000fd5b600080fd5b7f4e487b7100000000000000000000000000000000000000000000000000000000600052604160045260246000fd5b613d5982613542565b810181811067ffffffffffffffff82111715613d7857613d77613d21565b5b80604052505050565b6000613d8b613261565b9050613d978282613d50565b919050565b600060408284031215613db257613db1613d1c565b5b613dbc6040613d81565b90506000613dcc848285016132be565b6000830152506020613de08482850161334b565b60208301525092915050565b600060408284031215613e0257613e0161326b565b5b6000613e1084828501613d9c565b91505092915050565b6000613e2482613300565b91507fffffffffffffffffffffffffffffffffffffffffffffffffffffffffffffffff8203613e5657613e556138de565b5b600182019050919050565b7f4f776e61626c653a206e6577206f776e657220697320746865207a65726f206160008201527f6464726573730000000000000000000000000000000000000000000000000000602082015250565b6000613ebd602683613507565b9150613ec882613e61565b604082019050919050565b60006020820190508181036000830152613eec81613eb0565b9050919050565b6000613efe82613300565b9150613f0983613300565b9250828203905081811115613f2157613f206138de565b5b92915050565b7f4f776e61626c653a2063616c6c6572206973206e6f7420746865206f776e6572600082015250565b6000613f5d602083613507565b9150613f6882613f27565b602082019050919050565b60006020820190508181036000830152613f8c81613f50565b9050919050565b7f5265656e7472616e637947756172643a207265656e7472616e742063616c6c00600082015250565b6000613fc9601f83613507565b9150613fd482613f93565b602082019050919050565b60006020820190508181036000830152613ff881613fbc565b9050919050565b60008190508160005260206000209050919050565b60006020601f8301049050919050565b600082821b905092915050565b6000600883026140617fffffffffffffffffffffffffffffffffffffffffffffffffffffffffffffffff82614024565b61406b8683614024565b95508019841693508086168417925050509392505050565b600061409e61409961409484613300565b6136fb565b613300565b9050919050565b6000819050919050565b6140b883614083565b6140cc6140c4826140a5565b848454614031565b825550505050565b600090565b6140e16140d4565b6140ec8184846140af565b505050565b5b81811015614110576141056000826140d9565b6001810190506140f2565b5050565b601f8211156141555761412681613fff565b61412f84614014565b8101602085101561413e578190505b61415261414a85614014565b8301826140f1565b50505b505050565b600082821c905092915050565b60006141786000198460080261415a565b1980831691505092915050565b60006141918383614167565b9150826002028217905092915050565b6141aa826134fc565b67ffffffffffffffff8111156141c3576141c2613d21565b5b6141cd8254613cbc565b6141d8828285614114565b600060209050601f83116001811461420b57600084156141f9578287015190505b6142038582614185565b86555061426b565b601f19841661421986613fff565b60005b828110156142415784890151825560018201915060208501945060208101905061421c565b8683101561425e578489015161425a601f891682614167565b8355505b6001600288020188555050505b505050505050565b7f4e487b7100000000000000000000000000000000000000000000000000000000600052602160045260246000fd5b600081905092915050565b60006142b8826134fc565b6142c281856142a2565b93506142d2818560208601613518565b80840191505092915050565b6000819050919050565b6142f96142f4826134c8565b6142de565b82525050565b600061430b82856142ad565b915061431782846142e8565b6020820191508190509392505050565b61433081613878565b82525050565b600060808201905061434b60008301876134d2565b6143586020830186614327565b61436560408301856134d2565b61437260608301846134d2565b95945050505050565b6000819050919050565b61439661439182613300565b61437b565b82525050565b60006143a88284614385565b60208201915081905092915050565b600081519050919050565b6000819050602082019050919050565b60006143de82516134c8565b80915050919050565b60006143f2826143b7565b826143fc846143c2565b9050614407816143d2565b92506020821015614447576144427fffffffffffffffffffffffffffffffffffffffffffffffffffffffffffffffff83602003600802614024565b831692505b5050919050565b60008160601b9050919050565b60006144668261444e565b9050919050565b60006144788261445b565b9050919050565b61449061448b82613295565b61446d565b82525050565b60006144a182613275565b9050919050565b60006144b38261445b565b9050919050565b6144cb6144c682614496565b6144a8565b82525050565b60006144dd828861447f565b6014820191506144ed82876142e8565b6020820191506144fd8286614385565b60208201915061450d8285614385565b60208201915061451d82846144ba565b6014820191508190509695505050505050565b600080fd5b600080fd5b6000808585111561454e5761454d614530565b5b8386111561455f5761455e614535565b5b6001850283019150848603905094509492505050565b600082905092915050565b600061458c8383614575565b8261459781356134c8565b925060208210156145d7576145d27fffffffffffffffffffffffffffffffffffffffffffffffffffffffffffffffff83602003600802614024565b831692505b505092915050565b60007fff0000000000000000000000000000000000000000000000000000000000000082169050919050565b60006146178383614575565b8261462281356145df565b925060018210156146625761465d7fff0000000000000000000000000000000000000000000000000000000000000083600103600802614024565b831692505b505092915050565b600082825260208201905092915050565b6000614686826143b7565b614690818561466a565b93506146a0818560208601613518565b6146a981613542565b840191505092915050565b60006040820190506146c9600083018561330a565b81810360208301526146db818461467b565b90509392505050565b60006146ef826143b7565b6146f98185613c47565b9350614709818560208601613518565b80840191505092915050565b600061472182846146e4565b915081905092915050565b7f72616e646f6d42797465733a206661696c656400000000000000000000000000600082015250565b6000614762601383613507565b915061476d8261472c565b602082019050919050565b6000602082019050818103600083015261479181614755565b905091905056fea2646970667358221220bf0cf1d7fd098a6dece91a918ca0b91337d2c56748db75add967b34fdd6cc67764736f6c6343000813003360806040523480156200001157600080fd5b506040518060400160405280600a81526020017f4a55535420746f6b656e000000000000000000000000000000000000000000008152506040518060400160405280600481526020017f4a5553540000000000000000000000000000000000000000000000000000000081525081600390816200008f919062000412565b508060049081620000a1919062000412565b505050620000c4620000b8620000ca60201b60201c565b620000d260201b60201c565b620004f9565b600033905090565b6000600560009054906101000a900473ffffffffffffffffffffffffffffffffffffffff16905081600560006101000a81548173ffffffffffffffffffffffffffffffffffffffff021916908373ffffffffffffffffffffffffffffffffffffffff1602179055508173ffffffffffffffffffffffffffffffffffffffff168173ffffffffffffffffffffffffffffffffffffffff167f8be0079c531659141344cd1fd0a4f28419497f9722a3daafe3b4186f6b6457e060405160405180910390a35050565b600081519050919050565b7f4e487b7100000000000000000000000000000000000000000000000000000000600052604160045260246000fd5b7f4e487b7100000000000000000000000000000000000000000000000000000000600052602260045260246000fd5b600060028204905060018216806200021a57607f821691505b60208210810362000230576200022f620001d2565b5b50919050565b60008190508160005260206000209050919050565b60006020601f8301049050919050565b600082821b905092915050565b6000600883026200029a7fffffffffffffffffffffffffffffffffffffffffffffffffffffffffffffffff826200025b565b620002a686836200025b565b95508019841693508086168417925050509392505050565b6000819050919050565b6000819050919050565b6000620002f3620002ed620002e784620002be565b620002c8565b620002be565b9050919050565b6000819050919050565b6200030f83620002d2565b620003276200031e82620002fa565b84845462000268565b825550505050565b600090565b6200033e6200032f565b6200034b81848462000304565b505050565b5b8181101562000373576200036760008262000334565b60018101905062000351565b5050565b601f821115620003c2576200038c8162000236565b62000397846200024b565b81016020851015620003a7578190505b620003bf620003b6856200024b565b83018262000350565b50505b505050565b600082821c905092915050565b6000620003e760001984600802620003c7565b1980831691505092915050565b6000620004028383620003d4565b9150826002028217905092915050565b6200041d8262000198565b67ffffffffffffffff811115620004395762000438620001a3565b5b62000445825462000201565b6200045282828562000377565b600060209050601f8311600181146200048a576000841562000475578287015190505b620004818582620003f4565b865550620004f1565b601f1984166200049a8662000236565b60005b82811015620004c4578489015182556001820191506020850194506020810190506200049d565b86831015620004e45784890151620004e0601f891682620003d4565b8355505b6001600288020188555050505b505050505050565b6117e080620005096000396000f3fe608060405234801561001057600080fd5b50600436106100f55760003560e01c806370a0823111610097578063a457c2d711610066578063a457c2d714610276578063a9059cbb146102a6578063dd62ed3e146102d6578063f2fde38b14610306576100f5565b806370a0823114610200578063715018a6146102305780638da5cb5b1461023a57806395d89b4114610258576100f5565b806323b872dd116100d357806323b872dd14610166578063313ce5671461019657806339509351146101b457806340c10f19146101e4576100f5565b806306fdde03146100fa578063095ea7b31461011857806318160ddd14610148575b600080fd5b610102610322565b60405161010f9190610f29565b60405180910390f35b610132600480360381019061012d9190610fe4565b6103b4565b60405161013f919061103f565b60405180910390f35b6101506103d7565b60405161015d9190611069565b60405180910390f35b610180600480360381019061017b9190611084565b6103e1565b60405161018d919061103f565b60405180910390f35b61019e610410565b6040516101ab91906110f3565b60405180910390f35b6101ce60048036038101906101c99190610fe4565b610419565b6040516101db919061103f565b60405180910390f35b6101fe60048036038101906101f99190610fe4565b610450565b005b61021a6004803603810190610215919061110e565b610466565b6040516102279190611069565b60405180910390f35b6102386104ae565b005b6102426104c2565b60405161024f919061114a565b60405180910390f35b6102606104ec565b60405161026d9190610f29565b60405180910390f35b610290600480360381019061028b9190610fe4565b61057e565b60405161029d919061103f565b60405180910390f35b6102c060048036038101906102bb9190610fe4565b6105f5565b6040516102cd919061103f565b60405180910390f35b6102f060048036038101906102eb9190611165565b610618565b6040516102fd9190611069565b60405180910390f35b610320600480360381019061031b919061110e565b61069f565b005b606060038054610331906111d4565b80601f016020809104026020016040519081016040528092919081815260200182805461035d906111d4565b80156103aa5780601f1061037f576101008083540402835291602001916103aa565b820191906000526020600020905b81548152906001019060200180831161038d57829003601f168201915b5050505050905090565b6000806103bf610722565b90506103cc81858561072a565b600191505092915050565b6000600254905090565b6000806103ec610722565b90506103f98582856108f3565b61040485858561097f565b60019150509392505050565b60006012905090565b600080610424610722565b90506104458185856104368589610618565b6104409190611234565b61072a565b600191505092915050565b610458610bf5565b6104628282610c73565b5050565b60008060008373ffffffffffffffffffffffffffffffffffffffff1673ffffffffffffffffffffffffffffffffffffffff168152602001908152602001600020549050919050565b6104b6610bf5565b6104c06000610dc9565b565b6000600560009054906101000a900473ffffffffffffffffffffffffffffffffffffffff16905090565b6060600480546104fb906111d4565b80601f0160208091040260200160405190810160405280929190818152602001828054610527906111d4565b80156105745780601f1061054957610100808354040283529160200191610574565b820191906000526020600020905b81548152906001019060200180831161055757829003601f168201915b5050505050905090565b600080610589610722565b905060006105978286610618565b9050838110156105dc576040517f08c379a00000000000000000000000000000000000000000000000000000000081526004016105d3906112da565b60405180910390fd5b6105e9828686840361072a565b60019250505092915050565b600080610600610722565b905061060d81858561097f565b600191505092915050565b6000600160008473ffffffffffffffffffffffffffffffffffffffff1673ffffffffffffffffffffffffffffffffffffffff16815260200190815260200160002060008373ffffffffffffffffffffffffffffffffffffffff1673ffffffffffffffffffffffffffffffffffffffff16815260200190815260200160002054905092915050565b6106a7610bf5565b600073ffffffffffffffffffffffffffffffffffffffff168173ffffffffffffffffffffffffffffffffffffffff1603610716576040517f08c379a000000000000000000000000000000000000000000000000000000000815260040161070d9061136c565b60405180910390fd5b61071f81610dc9565b50565b600033905090565b600073ffffffffffffffffffffffffffffffffffffffff168373ffffffffffffffffffffffffffffffffffffffff1603610799576040517f08c379a0000000000000000000000000000000000000000000000000000000008152600401610790906113fe565b60405180910390fd5b600073ffffffffffffffffffffffffffffffffffffffff168273ffffffffffffffffffffffffffffffffffffffff1603610808576040517f08c379a00000000000000000000000000000000000000000000000000000000081526004016107ff90611490565b60405180910390fd5b80600160008573ffffffffffffffffffffffffffffffffffffffff1673ffffffffffffffffffffffffffffffffffffffff16815260200190815260200160002060008473ffffffffffffffffffffffffffffffffffffffff1673ffffffffffffffffffffffffffffffffffffffff168152602001908152602001600020819055508173ffffffffffffffffffffffffffffffffffffffff168373ffffffffffffffffffffffffffffffffffffffff167f8c5be1e5ebec7d5bd14f71427d1e84f3dd0314c0f7b2291e5b200ac8c7c3b925836040516108e69190611069565b60405180910390a3505050565b60006108ff8484610618565b90507fffffffffffffffffffffffffffffffffffffffffffffffffffffffffffffffff8114610979578181101561096b576040517f08c379a0000000000000000000000000000000000000000000000000000000008152600401610962906114fc565b60405180910390fd5b610978848484840361072a565b5b50505050565b600073ffffffffffffffffffffffffffffffffffffffff168373ffffffffffffffffffffffffffffffffffffffff16036109ee576040517f08c379a00000000000000000000000000000000000000000000000000000000081526004016109e59061158e565b60405180910390fd5b600073ffffffffffffffffffffffffffffffffffffffff168273ffffffffffffffffffffffffffffffffffffffff1603610a5d576040517f08c379a0000000000000000000000000000000000000000000000000000000008152600401610a5490611620565b60405180910390fd5b610a68838383610e8f565b60008060008573ffffffffffffffffffffffffffffffffffffffff1673ffffffffffffffffffffffffffffffffffffffff16815260200190815260200160002054905081811015610aee576040517f08c379a0000000000000000000000000000000000000000000000000000000008152600401610ae5906116b2565b60405180910390fd5b8181036000808673ffffffffffffffffffffffffffffffffffffffff1673ffffffffffffffffffffffffffffffffffffffff16815260200190815260200160002081905550816000808573ffffffffffffffffffffffffffffffffffffffff1673ffffffffffffffffffffffffffffffffffffffff168152602001908152602001600020600082825401925050819055508273ffffffffffffffffffffffffffffffffffffffff168473ffffffffffffffffffffffffffffffffffffffff167fddf252ad1be2c89b69c2b068fc378daa952ba7f163c4a11628f55a4df523b3ef84604051610bdc9190611069565b60405180910390a3610bef848484610e94565b50505050565b610bfd610722565b73ffffffffffffffffffffffffffffffffffffffff16610c1b6104c2565b73ffffffffffffffffffffffffffffffffffffffff1614610c71576040517f08c379a0000000000000000000000000000000000000000000000000000000008152600401610c689061171e565b60405180910390fd5b565b600073ffffffffffffffffffffffffffffffffffffffff168273ffffffffffffffffffffffffffffffffffffffff1603610ce2576040517f08c379a0000000000000000000000000000000000000000000000000000000008152600401610cd99061178a565b60405180910390fd5b610cee60008383610e8f565b8060026000828254610d009190611234565b92505081905550806000808473ffffffffffffffffffffffffffffffffffffffff1673ffffffffffffffffffffffffffffffffffffffff168152602001908152602001600020600082825401925050819055508173ffffffffffffffffffffffffffffffffffffffff16600073ffffffffffffffffffffffffffffffffffffffff167fddf252ad1be2c89b69c2b068fc378daa952ba7f163c4a11628f55a4df523b3ef83604051610db19190611069565b60405180910390a3610dc560008383610e94565b5050565b6000600560009054906101000a900473ffffffffffffffffffffffffffffffffffffffff16905081600560006101000a81548173ffffffffffffffffffffffffffffffffffffffff021916908373ffffffffffffffffffffffffffffffffffffffff1602179055508173ffffffffffffffffffffffffffffffffffffffff168173ffffffffffffffffffffffffffffffffffffffff167f8be0079c531659141344cd1fd0a4f28419497f9722a3daafe3b4186f6b6457e060405160405180910390a35050565b505050565b505050565b600081519050919050565b600082825260208201905092915050565b60005b83811015610ed3578082015181840152602081019050610eb8565b60008484015250505050565b6000601f19601f8301169050919050565b6000610efb82610e99565b610f058185610ea4565b9350610f15818560208601610eb5565b610f1e81610edf565b840191505092915050565b60006020820190508181036000830152610f438184610ef0565b905092915050565b600080fd5b600073ffffffffffffffffffffffffffffffffffffffff82169050919050565b6000610f7b82610f50565b9050919050565b610f8b81610f70565b8114610f9657600080fd5b50565b600081359050610fa881610f82565b92915050565b6000819050919050565b610fc181610fae565b8114610fcc57600080fd5b50565b600081359050610fde81610fb8565b92915050565b60008060408385031215610ffb57610ffa610f4b565b5b600061100985828601610f99565b925050602061101a85828601610fcf565b9150509250929050565b60008115159050919050565b61103981611024565b82525050565b60006020820190506110546000830184611030565b92915050565b61106381610fae565b82525050565b600060208201905061107e600083018461105a565b92915050565b60008060006060848603121561109d5761109c610f4b565b5b60006110ab86828701610f99565b93505060206110bc86828701610f99565b92505060406110cd86828701610fcf565b9150509250925092565b600060ff82169050919050565b6110ed816110d7565b82525050565b600060208201905061110860008301846110e4565b92915050565b60006020828403121561112457611123610f4b565b5b600061113284828501610f99565b91505092915050565b61114481610f70565b82525050565b600060208201905061115f600083018461113b565b92915050565b6000806040838503121561117c5761117b610f4b565b5b600061118a85828601610f99565b925050602061119b85828601610f99565b9150509250929050565b7f4e487b7100000000000000000000000000000000000000000000000000000000600052602260045260246000fd5b600060028204905060018216806111ec57607f821691505b6020821081036111ff576111fe6111a5565b5b50919050565b7f4e487b7100000000000000000000000000000000000000000000000000000000600052601160045260246000fd5b600061123f82610fae565b915061124a83610fae565b925082820190508082111561126257611261611205565b5b92915050565b7f45524332303a2064656372656173656420616c6c6f77616e63652062656c6f7760008201527f207a65726f000000000000000000000000000000000000000000000000000000602082015250565b60006112c4602583610ea4565b91506112cf82611268565b604082019050919050565b600060208201905081810360008301526112f3816112b7565b9050919050565b7f4f776e61626c653a206e6577206f776e657220697320746865207a65726f206160008201527f6464726573730000000000000000000000000000000000000000000000000000602082015250565b6000611356602683610ea4565b9150611361826112fa565b604082019050919050565b6000602082019050818103600083015261138581611349565b9050919050565b7f45524332303a20617070726f76652066726f6d20746865207a65726f2061646460008201527f7265737300000000000000000000000000000000000000000000000000000000602082015250565b60006113e8602483610ea4565b91506113f38261138c565b604082019050919050565b60006020820190508181036000830152611417816113db565b9050919050565b7f45524332303a20617070726f766520746f20746865207a65726f20616464726560008201527f7373000000000000000000000000000000000000000000000000000000000000602082015250565b600061147a602283610ea4565b91506114858261141e565b604082019050919050565b600060208201905081810360008301526114a98161146d565b9050919050565b7f45524332303a20696e73756666696369656e7420616c6c6f77616e6365000000600082015250565b60006114e6601d83610ea4565b91506114f1826114b0565b602082019050919050565b60006020820190508181036000830152611515816114d9565b9050919050565b7f45524332303a207472616e736665722066726f6d20746865207a65726f20616460008201527f6472657373000000000000000000000000000000000000000000000000000000602082015250565b6000611578602583610ea4565b91506115838261151c565b604082019050919050565b600060208201905081810360008301526115a78161156b565b9050919050565b7f45524332303a207472616e7366657220746f20746865207a65726f206164647260008201527f6573730000000000000000000000000000000000000000000000000000000000602082015250565b600061160a602383610ea4565b9150611615826115ae565b604082019050919050565b60006020820190508181036000830152611639816115fd565b9050919050565b7f45524332303a207472616e7366657220616d6f756e742065786365656473206260008201527f616c616e63650000000000000000000000000000000000000000000000000000602082015250565b600061169c602683610ea4565b91506116a782611640565b604082019050919050565b600060208201905081810360008301526116cb8161168f565b9050919050565b7f4f776e61626c653a2063616c6c6572206973206e6f7420746865206f776e6572600082015250565b6000611708602083610ea4565b9150611713826116d2565b602082019050919050565b60006020820190508181036000830152611737816116fb565b9050919050565b7f45524332303a206d696e7420746f20746865207a65726f206164647265737300600082015250565b6000611774601f83610ea4565b915061177f8261173e565b602082019050919050565b600060208201905081810360008301526117a381611767565b905091905056fea26469706673582212205549c8f446cc8d6a960f8a9ba8643b74b7a57e12330df84eee5cba4aceed8c5864736f6c63430008130033",
  "linkReferences": {},
  "deployedLinkReferences": {}
}