{
  "_format": "hh-sol-artifact-1",
  "contractName": "Platform",
  "sourceName": "contracts/Platform.sol",
  "abi": [
    {
      "inputs": [
        {
          "internalType": "uint256",
          "name": "_rewardsForProposal",
          "type": "uint256"
        },
        {
          "internalType": "uint256",
          "name": "_pricePerToken",
          "type": "uint256"
        },
        {
          "internalType": "bytes32",
          "name": "_encryptionKey",
          "type": "bytes32"
        }
      ],
      "stateMutability": "nonpayable",
      "type": "constructor"
    },
    {
      "inputs": [],
      "name": "AccountIsEncryptor",
      "type": "error"
    },
    {
      "inputs": [],
      "name": "AccountIsReporter",
      "type": "error"
    },
    {
      "inputs": [],
      "name": "AccountNotEncryptor",
      "type": "error"
    },
    {
      "inputs": [],
      "name": "AccountNotReporter",
      "type": "error"
    },
    {
      "inputs": [],
      "name": "AlreadyVoted",
      "type": "error"
    },
    {
      "inputs": [],
      "name": "AmountCannotBeZero",
      "type": "error"
    },
    {
      "inputs": [],
      "name": "AmountMustMatchValueExactly",
      "type": "error"
    },
    {
      "inputs": [],
      "name": "ArtistAlreadyRegistered",
      "type": "error"
    },
    {
      "inputs": [],
      "name": "ArtistDoesNotOwnSong",
      "type": "error"
    },
    {
      "inputs": [],
      "name": "ArtistNameRequired",
      "type": "error"
    },
    {
      "inputs": [],
      "name": "CannotBuyNonExclusiveSongs",
      "type": "error"
    },
    {
      "inputs": [],
      "name": "InsufficientTokenBalance",
      "type": "error"
    },
    {
      "inputs": [],
      "name": "InvalidSignature",
      "type": "error"
    },
    {
      "inputs": [],
      "name": "NoClaimableRewards",
      "type": "error"
    },
    {
      "inputs": [],
      "name": "NoUpdatesGiven",
      "type": "error"
    },
    {
      "inputs": [],
      "name": "NotARegisteredArtist",
      "type": "error"
    },
    {
      "inputs": [],
      "name": "PriceCannotBeZero",
      "type": "error"
    },
    {
      "inputs": [],
      "name": "RewardsCannotBeZero",
      "type": "error"
    },
    {
      "inputs": [],
      "name": "RewardsPerProposalZero",
      "type": "error"
    },
    {
      "inputs": [],
      "name": "SongDoesNotExist",
      "type": "error"
    },
    {
      "inputs": [],
      "name": "SongUriRequired",
      "type": "error"
    },
    {
      "inputs": [],
      "name": "SubscriptionAlreadyCreated",
      "type": "error"
    },
    {
      "inputs": [],
      "name": "SubscriptionNotCreated",
      "type": "error"
    },
    {
      "inputs": [],
      "name": "TimestampMustBeInFuture",
      "type": "error"
    },
    {
      "inputs": [
        {
          "internalType": "address",
          "name": "artist",
          "type": "address"
        },
        {
          "internalType": "uint256",
          "name": "playedMinutes",
          "type": "uint256"
        }
      ],
      "name": "UpdateInvalid",
      "type": "error"
    },
    {
      "inputs": [],
      "name": "ValueCannotBeZero",
      "type": "error"
    },
    {
      "inputs": [],
      "name": "ValueMustMatchOneOfThePlans",
      "type": "error"
    },
    {
      "inputs": [],
      "name": "VotingActive",
      "type": "error"
    },
    {
      "inputs": [],
      "name": "VotingHasNotEnded",
      "type": "error"
    },
    {
      "inputs": [],
      "name": "VotingIsAlreadyOpen",
      "type": "error"
    },
    {
      "inputs": [],
      "name": "VotingNotActive",
      "type": "error"
    },
    {
      "anonymous": false,
      "inputs": [
        {
          "indexed": true,
          "internalType": "address",
          "name": "account",
          "type": "address"
        }
      ],
      "name": "EncryptorAdded",
      "type": "event"
    },
    {
      "anonymous": false,
      "inputs": [
        {
          "indexed": true,
          "internalType": "address",
          "name": "account",
          "type": "address"
        }
      ],
      "name": "EncryptorRemoved",
      "type": "event"
    },
    {
      "anonymous": false,
      "inputs": [
        {
          "indexed": true,
          "internalType": "address",
          "name": "previousOwner",
          "type": "address"
        },
        {
          "indexed": true,
          "internalType": "address",
          "name": "newOwner",
          "type": "address"
        }
      ],
      "name": "OwnershipTransferred",
      "type": "event"
    },
    {
      "anonymous": false,
      "inputs": [],
      "name": "PlayedMinutesUpdated",
      "type": "event"
    },
    {
      "anonymous": false,
      "inputs": [
        {
          "indexed": false,
          "internalType": "uint256",
          "name": "price",
          "type": "uint256"
        }
      ],
      "name": "PricePerTokenUpdated",
      "type": "event"
    },
    {
      "anonymous": false,
      "inputs": [
        {
          "indexed": true,
          "internalType": "address",
          "name": "account",
          "type": "address"
        }
      ],
      "name": "ReporterAdded",
      "type": "event"
    },
    {
      "anonymous": false,
      "inputs": [
        {
          "indexed": true,
          "internalType": "address",
          "name": "account",
          "type": "address"
        }
      ],
      "name": "ReporterRemoved",
      "type": "event"
    },
    {
      "anonymous": false,
      "inputs": [
        {
          "indexed": true,
          "internalType": "address",
          "name": "account",
          "type": "address"
        },
        {
          "indexed": true,
          "internalType": "enum ResourceRegistration.ResourceType",
          "name": "resourceType",
          "type": "uint8"
        },
        {
          "indexed": true,
          "internalType": "uint256",
          "name": "id",
          "type": "uint256"
        },
        {
          "indexed": false,
          "internalType": "string",
          "name": "data",
          "type": "string"
        }
      ],
      "name": "ResourceRegistered",
      "type": "event"
    },
    {
      "anonymous": false,
      "inputs": [
        {
          "indexed": true,
          "internalType": "uint256",
          "name": "reward",
          "type": "uint256"
        }
      ],
      "name": "RewardForPlayedMinutesChanged",
      "type": "event"
    },
    {
      "anonymous": false,
      "inputs": [
        {
          "indexed": true,
          "internalType": "address",
          "name": "artist",
          "type": "address"
        },
        {
          "indexed": true,
          "internalType": "uint256",
          "name": "rewards",
          "type": "uint256"
        }
      ],
      "name": "RewardsClaimed",
      "type": "event"
    },
    {
      "anonymous": false,
      "inputs": [
        {
          "indexed": false,
          "internalType": "uint256",
          "name": "rewards",
          "type": "uint256"
        }
      ],
      "name": "RewardsPerProposalUpdated",
      "type": "event"
    },
    {
      "anonymous": false,
      "inputs": [
        {
          "indexed": true,
          "internalType": "address",
          "name": "account",
          "type": "address"
        },
        {
          "indexed": true,
          "internalType": "uint256",
          "name": "songId",
          "type": "uint256"
        }
      ],
      "name": "SongPurchased",
      "type": "event"
    },
    {
      "anonymous": false,
      "inputs": [
        {
          "indexed": true,
          "internalType": "address",
          "name": "account",
          "type": "address"
        },
        {
          "indexed": true,
          "internalType": "uint256",
          "name": "expirationTimestamp",
          "type": "uint256"
        },
        {
          "indexed": true,
          "internalType": "uint256",
          "name": "timestampIncrease",
          "type": "uint256"
        }
      ],
      "name": "SubscriptionCreated",
      "type": "event"
    },
    {
      "anonymous": false,
      "inputs": [
        {
          "indexed": true,
          "internalType": "address",
          "name": "account",
          "type": "address"
        },
        {
          "indexed": true,
          "internalType": "uint256",
          "name": "expirationTimestamp",
          "type": "uint256"
        },
        {
          "indexed": true,
          "internalType": "uint256",
          "name": "timestampIncrease",
          "type": "uint256"
        }
      ],
      "name": "SubscriptionFunded",
      "type": "event"
    },
    {
      "anonymous": false,
      "inputs": [
        {
          "indexed": true,
          "internalType": "uint256",
          "name": "price",
          "type": "uint256"
        },
        {
          "indexed": true,
          "internalType": "uint256",
          "name": "timestampIncrease",
          "type": "uint256"
        }
      ],
      "name": "SubscriptionPlanAdded",
      "type": "event"
    },
    {
      "anonymous": false,
      "inputs": [
        {
          "indexed": false,
          "internalType": "uint256",
          "name": "winningSongId",
          "type": "uint256"
        }
      ],
      "name": "VotingClosed",
      "type": "event"
    },
    {
      "anonymous": false,
      "inputs": [],
      "name": "VotingOpen",
      "type": "event"
    },
    {
      "inputs": [
        {
          "internalType": "address",
          "name": "account",
          "type": "address"
        }
      ],
      "name": "addEncryptor",
      "outputs": [],
      "stateMutability": "nonpayable",
      "type": "function"
    },
    {
      "inputs": [
        {
          "internalType": "address",
          "name": "account",
          "type": "address"
        }
      ],
      "name": "addReporter",
      "outputs": [],
      "stateMutability": "nonpayable",
      "type": "function"
    },
    {
      "inputs": [
        {
          "internalType": "address",
          "name": "artist",
          "type": "address"
        }
      ],
      "name": "artistClaimedMinutes",
      "outputs": [
        {
          "internalType": "uint256",
          "name": "claimedMinutes",
          "type": "uint256"
        }
      ],
      "stateMutability": "view",
      "type": "function"
    },
    {
      "inputs": [
        {
          "internalType": "address",
          "name": "account",
          "type": "address"
        }
      ],
      "name": "artistIds",
      "outputs": [
        {
          "internalType": "uint256",
          "name": "id",
          "type": "uint256"
        }
      ],
      "stateMutability": "view",
      "type": "function"
    },
    {
      "inputs": [
        {
          "internalType": "uint256",
          "name": "id",
          "type": "uint256"
        }
      ],
      "name": "artistNames",
      "outputs": [
        {
          "internalType": "string",
          "name": "name",
          "type": "string"
        }
      ],
      "stateMutability": "view",
      "type": "function"
    },
    {
      "inputs": [
        {
          "internalType": "address",
          "name": "artist",
          "type": "address"
        }
      ],
      "name": "artistPlayedMinutes",
      "outputs": [
        {
          "internalType": "uint256",
          "name": "playedMinutes",
          "type": "uint256"
        }
      ],
      "stateMutability": "view",
      "type": "function"
    },
    {
      "inputs": [
        {
          "internalType": "address",
          "name": "artist",
          "type": "address"
        }
      ],
      "name": "artistUnclaimedAmount",
      "outputs": [
        {
          "internalType": "uint256",
          "name": "",
          "type": "uint256"
        }
      ],
      "stateMutability": "view",
      "type": "function"
    },
    {
      "inputs": [
        {
          "internalType": "address",
          "name": "artist",
          "type": "address"
        },
        {
          "internalType": "uint256",
          "name": "songId",
          "type": "uint256"
        }
      ],
      "name": "buySong",
      "outputs": [],
      "stateMutability": "payable",
      "type": "function"
    },
    {
      "inputs": [
        {
          "internalType": "uint256",
          "name": "_wholeTokens",
          "type": "uint256"
        }
      ],
      "name": "buyTokens",
      "outputs": [],
      "stateMutability": "payable",
      "type": "function"
    },
    {
      "inputs": [],
      "name": "claimRewards",
      "outputs": [],
      "stateMutability": "nonpayable",
      "type": "function"
    },
    {
      "inputs": [],
      "name": "closeVotingPeriod",
      "outputs": [],
      "stateMutability": "nonpayable",
      "type": "function"
    },
    {
      "inputs": [],
      "name": "createSubscription",
      "outputs": [],
      "stateMutability": "payable",
      "type": "function"
    },
    {
      "inputs": [
        {
          "internalType": "uint256",
          "name": "id",
          "type": "uint256"
        }
      ],
      "name": "exclusiveSongPrices",
      "outputs": [
        {
          "internalType": "uint256",
          "name": "price",
          "type": "uint256"
        }
      ],
      "stateMutability": "view",
      "type": "function"
    },
    {
      "inputs": [],
      "name": "fundSubscription",
      "outputs": [],
      "stateMutability": "payable",
      "type": "function"
    },
    {
      "inputs": [
        {
          "internalType": "address",
          "name": "account",
          "type": "address"
        }
      ],
      "name": "getArtistId",
      "outputs": [
        {
          "internalType": "uint256",
          "name": "",
          "type": "uint256"
        }
      ],
      "stateMutability": "view",
      "type": "function"
    },
    {
      "inputs": [
        {
          "internalType": "address",
          "name": "account",
          "type": "address"
        }
      ],
      "name": "getArtistName",
      "outputs": [
        {
          "internalType": "string",
          "name": "",
          "type": "string"
        }
      ],
      "stateMutability": "view",
      "type": "function"
    },
    {
      "inputs": [
        {
          "internalType": "address",
          "name": "artist",
          "type": "address"
        },
        {
          "internalType": "uint256",
          "name": "songIndex",
          "type": "uint256"
        }
      ],
      "name": "getArtistSongId",
      "outputs": [
        {
          "internalType": "uint256",
          "name": "",
          "type": "uint256"
        }
      ],
      "stateMutability": "view",
      "type": "function"
    },
    {
      "inputs": [
        {
          "internalType": "address",
          "name": "artist",
          "type": "address"
        }
      ],
      "name": "getArtistSongsCount",
      "outputs": [
        {
          "internalType": "uint256",
          "name": "",
          "type": "uint256"
        }
      ],
      "stateMutability": "view",
      "type": "function"
    },
    {
      "inputs": [
        {
          "internalType": "address",
          "name": "account",
          "type": "address"
        },
        {
          "internalType": "bytes",
          "name": "signature",
          "type": "bytes"
        }
      ],
      "name": "getEncryptionKey",
      "outputs": [
        {
          "internalType": "bytes32",
          "name": "",
          "type": "bytes32"
        }
      ],
      "stateMutability": "view",
      "type": "function"
    },
    {
      "inputs": [
        {
          "internalType": "uint256",
          "name": "songId",
          "type": "uint256"
        }
      ],
      "name": "getSongUri",
      "outputs": [
        {
          "internalType": "string",
          "name": "",
          "type": "string"
        }
      ],
      "stateMutability": "view",
      "type": "function"
    },
    {
      "inputs": [
        {
          "internalType": "address",
          "name": "account",
          "type": "address"
        },
        {
          "internalType": "bytes",
          "name": "signature",
          "type": "bytes"
        }
      ],
      "name": "hasVotedCurrentPeriod",
      "outputs": [
        {
          "internalType": "bool",
          "name": "",
          "type": "bool"
        }
      ],
      "stateMutability": "view",
      "type": "function"
    },
    {
      "inputs": [
        {
          "internalType": "address",
          "name": "account",
          "type": "address"
        }
      ],
      "name": "isActiveSubscriber",
      "outputs": [
        {
          "internalType": "bool",
          "name": "",
          "type": "bool"
        }
      ],
      "stateMutability": "view",
      "type": "function"
    },
    {
      "inputs": [
        {
          "internalType": "address",
          "name": "artist",
          "type": "address"
        },
        {
          "internalType": "uint256",
          "name": "songId",
          "type": "uint256"
        }
      ],
      "name": "isArtistSong",
      "outputs": [
        {
          "internalType": "bool",
          "name": "",
          "type": "bool"
        }
      ],
      "stateMutability": "view",
      "type": "function"
    },
    {
      "inputs": [
        {
          "internalType": "address",
          "name": "account",
          "type": "address"
        },
        {
          "internalType": "uint256",
          "name": "songId",
          "type": "uint256"
        }
      ],
      "name": "isSongPurchased",
      "outputs": [
        {
          "internalType": "bool",
          "name": "",
          "type": "bool"
        }
      ],
      "stateMutability": "view",
      "type": "function"
    },
    {
      "inputs": [],
      "name": "isVotingPeriodActive",
      "outputs": [
        {
          "internalType": "bool",
          "name": "",
          "type": "bool"
        }
      ],
      "stateMutability": "view",
      "type": "function"
    },
    {
      "inputs": [
        {
          "internalType": "uint256",
          "name": "endTimestamp",
          "type": "uint256"
        }
      ],
      "name": "openVotingPeriod",
      "outputs": [],
      "stateMutability": "nonpayable",
      "type": "function"
    },
    {
      "inputs": [],
      "name": "owner",
      "outputs": [
        {
          "internalType": "address",
          "name": "",
          "type": "address"
        }
      ],
      "stateMutability": "view",
      "type": "function"
    },
    {
      "inputs": [],
      "name": "pricePerToken",
      "outputs": [
        {
          "internalType": "uint256",
          "name": "",
          "type": "uint256"
        }
      ],
      "stateMutability": "view",
      "type": "function"
    },
    {
      "inputs": [
        {
          "internalType": "string",
          "name": "name",
          "type": "string"
        }
      ],
      "name": "registerArtist",
      "outputs": [],
      "stateMutability": "nonpayable",
      "type": "function"
    },
    {
      "inputs": [
        {
          "internalType": "string",
          "name": "uri",
          "type": "string"
        },
        {
          "internalType": "uint256",
          "name": "exclusivePrice",
          "type": "uint256"
        }
      ],
      "name": "registerSong",
      "outputs": [],
      "stateMutability": "nonpayable",
      "type": "function"
    },
    {
      "inputs": [
        {
          "internalType": "address",
          "name": "account",
          "type": "address"
        }
      ],
      "name": "removeEncryptor",
      "outputs": [],
      "stateMutability": "nonpayable",
      "type": "function"
    },
    {
      "inputs": [
        {
          "internalType": "address",
          "name": "account",
          "type": "address"
        }
      ],
      "name": "removeReporter",
      "outputs": [],
      "stateMutability": "nonpayable",
      "type": "function"
    },
    {
      "inputs": [],
      "name": "renounceOwnership",
      "outputs": [],
      "stateMutability": "nonpayable",
      "type": "function"
    },
    {
      "inputs": [],
      "name": "rewardForPlayedMinute",
      "outputs": [
        {
          "internalType": "uint256",
          "name": "",
          "type": "uint256"
        }
      ],
      "stateMutability": "view",
      "type": "function"
    },
    {
      "inputs": [],
      "name": "rewardsPerProposal",
      "outputs": [
        {
          "internalType": "uint256",
          "name": "",
          "type": "uint256"
        }
      ],
      "stateMutability": "view",
      "type": "function"
    },
    {
      "inputs": [],
      "name": "rewardsToken",
      "outputs": [
        {
          "internalType": "contract JustToken",
          "name": "",
          "type": "address"
        }
      ],
      "stateMutability": "view",
      "type": "function"
    },
    {
      "inputs": [
        {
          "internalType": "uint256",
          "name": "_wholeTokens",
          "type": "uint256"
        },
        {
          "internalType": "address",
          "name": "_receiver",
          "type": "address"
        }
      ],
      "name": "sellTokens",
      "outputs": [],
      "stateMutability": "nonpayable",
      "type": "function"
    },
    {
      "inputs": [
        {
          "internalType": "uint256",
          "name": "_price",
          "type": "uint256"
        }
      ],
      "name": "setPricePerToken",
      "outputs": [],
      "stateMutability": "nonpayable",
      "type": "function"
    },
    {
      "inputs": [
        {
          "internalType": "uint256",
          "name": "reward",
          "type": "uint256"
        }
      ],
      "name": "setRewardForPlayedMinute",
      "outputs": [],
      "stateMutability": "nonpayable",
      "type": "function"
    },
    {
      "inputs": [
        {
          "internalType": "uint256",
          "name": "_rewards",
          "type": "uint256"
        }
      ],
      "name": "setRewardsPerProposal",
      "outputs": [],
      "stateMutability": "nonpayable",
      "type": "function"
    },
    {
      "inputs": [
        {
          "internalType": "uint256",
          "name": "price",
          "type": "uint256"
        },
        {
          "internalType": "uint256",
          "name": "timestampIncrease",
          "type": "uint256"
        }
      ],
      "name": "setSubscriptionPlan",
      "outputs": [],
      "stateMutability": "nonpayable",
      "type": "function"
    },
    {
      "inputs": [
        {
          "internalType": "uint256",
          "name": "price",
          "type": "uint256"
        }
      ],
      "name": "subscriptionPlanIntervals",
      "outputs": [
        {
          "internalType": "uint256",
          "name": "interval",
          "type": "uint256"
        }
      ],
      "stateMutability": "view",
      "type": "function"
    },
    {
      "inputs": [
        {
          "internalType": "address",
          "name": "account",
          "type": "address"
        }
      ],
      "name": "subscriptions",
      "outputs": [
        {
          "internalType": "uint256",
          "name": "expirationTimestamp",
          "type": "uint256"
        }
      ],
      "stateMutability": "view",
      "type": "function"
    },
    {
      "inputs": [
        {
          "internalType": "address",
          "name": "newOwner",
          "type": "address"
        }
      ],
      "name": "transferOwnership",
      "outputs": [],
      "stateMutability": "nonpayable",
      "type": "function"
    },
    {
      "inputs": [
        {
          "components": [
            {
              "internalType": "address",
              "name": "artist",
              "type": "address"
            },
            {
              "internalType": "uint256",
              "name": "playedMinutes",
              "type": "uint256"
            }
          ],
          "internalType": "struct UpdatePlayedMinutes.ArtistUpdate[]",
          "name": "updates",
          "type": "tuple[]"
        }
      ],
      "name": "updatePlayedMinutes",
      "outputs": [],
      "stateMutability": "nonpayable",
      "type": "function"
    },
    {
      "inputs": [
        {
          "internalType": "uint256",
          "name": "_songId",
          "type": "uint256"
        }
      ],
      "name": "vote",
      "outputs": [],
      "stateMutability": "nonpayable",
      "type": "function"
    },
    {
      "inputs": [],
      "name": "votingPeriodEnds",
      "outputs": [
        {
          "internalType": "uint256",
          "name": "",
          "type": "uint256"
        }
      ],
      "stateMutability": "view",
      "type": "function"
    }
  ],
  "bytecode": "0x60806040523480156200001157600080fd5b506040516200724e3803806200724e83398181016040528101906200003791906200030d565b80838360016000819055506200006262000056620001b660201b60201c565b620001be60201b60201c565b6435e55f19096003819055506003547fde2a550feb6ab90bd4c3e2d079c1e9f15fa6c1616cd90660836219be038742e960405160405180910390a260008211620000e3576040517f08c379a0000000000000000000000000000000000000000000000000000000008152600401620000da90620003ca565b60405180910390fd5b6000811162000129576040517f08c379a000000000000000000000000000000000000000000000000000000000815260040162000120906200043c565b60405180910390fd5b604051620001379062000284565b604051809103906000f08015801562000154573d6000803e3d6000fd5b50600260006101000a81548173ffffffffffffffffffffffffffffffffffffffff021916908373ffffffffffffffffffffffffffffffffffffffff1602179055508160058190555080601381905550505080600481905550505050506200045e565b600033905090565b6000600160009054906101000a900473ffffffffffffffffffffffffffffffffffffffff16905081600160006101000a81548173ffffffffffffffffffffffffffffffffffffffff021916908373ffffffffffffffffffffffffffffffffffffffff1602179055508173ffffffffffffffffffffffffffffffffffffffff168173ffffffffffffffffffffffffffffffffffffffff167f8be0079c531659141344cd1fd0a4f28419497f9722a3daafe3b4186f6b6457e060405160405180910390a35050565b611ce9806200556583390190565b600080fd5b6000819050919050565b620002ac8162000297565b8114620002b857600080fd5b50565b600081519050620002cc81620002a1565b92915050565b6000819050919050565b620002e781620002d2565b8114620002f357600080fd5b50565b6000815190506200030781620002dc565b92915050565b60008060006060848603121562000329576200032862000292565b5b60006200033986828701620002bb565b93505060206200034c86828701620002bb565b92505060406200035f86828701620002f6565b9150509250925092565b600082825260208201905092915050565b7f5265776172647320666f722070726f706f73616c206973207a65726f00000000600082015250565b6000620003b2601c8362000369565b9150620003bf826200037a565b602082019050919050565b60006020820190508181036000830152620003e581620003a3565b9050919050565b7f5072696365206973207a65726f00000000000000000000000000000000000000600082015250565b600062000424600d8362000369565b91506200043182620003ec565b602082019050919050565b60006020820190508181036000830152620004578162000415565b9050919050565b6150f7806200046e6000396000f3fe6080604052600436106102885760003560e01c80637ab9e7fb1161015a578063d1af0c7d116100c1578063e3c266dd1161007a578063e3c266dd146109ee578063f0400d3c14610a17578063f046395a14610a40578063f08bf9ad14610a7d578063f2b3924814610aa8578063f2fde38b14610ad357610288565b8063d1af0c7d146108ce578063d850b1d2146108f9578063d8da18e414610922578063dd8755f21461095f578063dedbe30614610988578063e066765e146109b157610288565b80639fcc5ce4116101135780639fcc5ce4146107b9578063a0a96d5a146107e4578063a21a23e414610821578063b36349dc1461082b578063c472794014610868578063c70632661461089157610288565b80637ab9e7fb146106a95780637b1b1de6146106d45780637e871c82146106ff5780638da5cb5b146107285780638e048e75146107535780639355d4191461079057610288565b806344ee0119116101fe5780635de5c212116101b75780635de5c2121461059d5780635fcbb047146105c65780636269bd0114610603578063670f7151146106405780636f78fe6214610669578063715018a61461069257610288565b806344ee0119146104885780634655c9a9146104c55780634c49d7d5146105025780634de98e091461053f578063575f08ff1461055657806357ace39b1461059357610288565b80631b39152d116102505780631b39152d1461038957806323c3dd37146103c657806326be9397146103ef5780632bf2762f1461042c5780633610724e14610455578063372500ab1461047157610288565b80630121b93f1461028d578063030ae9ab146102b65780630a0ef451146102f357806315576db1146103305780631ac5f3311461036d575b600080fd5b34801561029957600080fd5b506102b460048036038101906102af9190613b74565b610afc565b005b3480156102c257600080fd5b506102dd60048036038101906102d89190613bff565b610bb5565b6040516102ea9190613c3b565b60405180910390f35b3480156102ff57600080fd5b5061031a60048036038101906103159190613b74565b610c46565b6040516103279190613c3b565b60405180910390f35b34801561033c57600080fd5b5061035760048036038101906103529190613cbb565b610c5e565b6040516103649190613d36565b60405180910390f35b61038760048036038101906103829190613d51565b610d64565b005b34801561039557600080fd5b506103b060048036038101906103ab9190613bff565b610fa9565b6040516103bd9190613c3b565b60405180910390f35b3480156103d257600080fd5b506103ed60048036038101906103e89190613b74565b610fc1565b005b3480156103fb57600080fd5b5061041660048036038101906104119190613d51565b611013565b6040516104239190613d36565b60405180910390f35b34801561043857600080fd5b50610453600480360381019061044e9190613b74565b611027565b005b61046f600480360381019061046a9190613b74565b611079565b005b34801561047d57600080fd5b50610486611319565b005b34801561049457600080fd5b506104af60048036038101906104aa9190613cbb565b6114de565b6040516104bc9190613daa565b60405180910390f35b3480156104d157600080fd5b506104ec60048036038101906104e79190613b74565b611500565b6040516104f99190613e55565b60405180910390f35b34801561050e57600080fd5b5061052960048036038101906105249190613b74565b6115a5565b6040516105369190613c3b565b60405180910390f35b34801561054b57600080fd5b506105546115bd565b005b34801561056257600080fd5b5061057d60048036038101906105789190613d51565b61161b565b60405161058a9190613d36565b60405180910390f35b61059b611683565b005b3480156105a957600080fd5b506105c460048036038101906105bf9190613bff565b6117a9565b005b3480156105d257600080fd5b506105ed60048036038101906105e89190613bff565b611858565b6040516105fa9190613c3b565b60405180910390f35b34801561060f57600080fd5b5061062a60048036038101906106259190613d51565b611870565b6040516106379190613c3b565b60405180910390f35b34801561064c57600080fd5b5061066760048036038101906106629190613e77565b6118d6565b005b34801561067557600080fd5b50610690600480360381019061068b9190613b74565b611abd565b005b34801561069e57600080fd5b506106a7611b14565b005b3480156106b557600080fd5b506106be611b28565b6040516106cb9190613c3b565b60405180910390f35b3480156106e057600080fd5b506106e9611b2e565b6040516106f69190613c3b565b60405180910390f35b34801561070b57600080fd5b5061072660048036038101906107219190613bff565b611b34565b005b34801561073457600080fd5b5061073d611be3565b60405161074a9190613ec6565b60405180910390f35b34801561075f57600080fd5b5061077a60048036038101906107759190613bff565b611c0d565b6040516107879190613d36565b60405180910390f35b34801561079c57600080fd5b506107b760048036038101906107b29190613f37565b611c59565b005b3480156107c557600080fd5b506107ce611cbd565b6040516107db9190613d36565b60405180910390f35b3480156107f057600080fd5b5061080b60048036038101906108069190613b74565b611ccc565b6040516108189190613e55565b60405180910390f35b610829611d6c565b005b34801561083757600080fd5b50610852600480360381019061084d9190613bff565b611e32565b60405161085f9190613e55565b60405180910390f35b34801561087457600080fd5b5061088f600480360381019061088a9190613f84565b611f16565b005b34801561089d57600080fd5b506108b860048036038101906108b39190613bff565b611f82565b6040516108c59190613c3b565b60405180910390f35b3480156108da57600080fd5b506108e3611fcb565b6040516108f09190614023565b60405180910390f35b34801561090557600080fd5b50610920600480360381019061091b9190613bff565b611ff1565b005b34801561092e57600080fd5b5061094960048036038101906109449190613bff565b6120a0565b6040516109569190613c3b565b60405180910390f35b34801561096b57600080fd5b5061098660048036038101906109819190613bff565b6120b8565b005b34801561099457600080fd5b506109af60048036038101906109aa919061403e565b612167565b005b3480156109bd57600080fd5b506109d860048036038101906109d39190613bff565b6121cd565b6040516109e59190613c3b565b60405180910390f35b3480156109fa57600080fd5b50610a156004803603810190610a1091906140f4565b612216565b005b348015610a2357600080fd5b50610a3e6004803603810190610a399190613b74565b6122f5565b005b348015610a4c57600080fd5b50610a676004803603810190610a629190613bff565b612343565b604051610a749190613c3b565b60405180910390f35b348015610a8957600080fd5b50610a9261235b565b604051610a9f9190613c3b565b60405180910390f35b348015610ab457600080fd5b50610abd612361565b604051610aca9190613c3b565b60405180910390f35b348015610adf57600080fd5b50610afa6004803603810190610af59190613bff565b612367565b005b610b05816123ea565b610b0d612446565b610b15612486565b6000601560008381526020019081526020016000205403610b3a57610b3981612502565b5b601560008281526020019081526020016000206000815480929190610b5e90614170565b9190505550601454601660003373ffffffffffffffffffffffffffffffffffffffff1673ffffffffffffffffffffffffffffffffffffffff16815260200190815260200160002081905550610bb23361257f565b50565b6000610c3f600a60008473ffffffffffffffffffffffffffffffffffffffff1673ffffffffffffffffffffffffffffffffffffffff16815260200190815260200160002054600b60008573ffffffffffffffffffffffffffffffffffffffff1673ffffffffffffffffffffffffffffffffffffffff16815260200190815260200160002054612670565b9050919050565b60126020528060005260406000206000915090505481565b6000610c68612693565b610c755760009050610d5d565b600084604051602001610c889190613ec6565b604051602081830303815290604052805190602001209050610cac858286866126a0565b610cba576000915050610d5d565b60005b601a54811015610d56578573ffffffffffffffffffffffffffffffffffffffff1660198281548110610cf257610cf16141b8565b5b9060005260206000200160009054906101000a900473ffffffffffffffffffffffffffffffffffffffff1673ffffffffffffffffffffffffffffffffffffffff1603610d4357600192505050610d5d565b8080610d4e90614170565b915050610cbd565b5060009150505b9392505050565b610d6d816123ea565b610d76816127e2565b610d808282612832565b6000600d60008381526020019081526020016000205490506000600260009054906101000a900473ffffffffffffffffffffffffffffffffffffffff1673ffffffffffffffffffffffffffffffffffffffff1663313ce5676040518163ffffffff1660e01b8152600401602060405180830381865afa158015610e07573d6000803e3d6000fd5b505050506040513d601f19601f82011682018060405250810190610e2b9190614220565b60ff169050600081600a610e3f9190614380565b905060008184610e4f91906143cb565b9050600260009054906101000a900473ffffffffffffffffffffffffffffffffffffffff1673ffffffffffffffffffffffffffffffffffffffff166323b872dd3388846040518463ffffffff1660e01b8152600401610eb09392919061440d565b6020604051808303816000875af1158015610ecf573d6000803e3d6000fd5b505050506040513d601f19601f82011682018060405250810190610ef39190614470565b506001600c60003373ffffffffffffffffffffffffffffffffffffffff1673ffffffffffffffffffffffffffffffffffffffff168152602001908152602001600020600087815260200190815260200160002060006101000a81548160ff021916908315150217905550843373ffffffffffffffffffffffffffffffffffffffff167fe20750a4417f37bd85a195d63720cb1c314963d8888dc41e6323fed4805542ac60405160405180910390a3505050505050565b600a6020528060005260406000206000915090505481565b610fc9612876565b610fd2816128f4565b806005819055507f72ea2c9c38b647a7ef112a9939feedf39954cffb5d3639491a358ac0adf950a6816040516110089190613c3b565b60405180910390a150565b600061101f8383612931565b905092915050565b61102f612876565b61103881612a0e565b806013819055507f3200057f39b60b2ce0d5c0768cd90469dc468a882eec07ce1802fef660ebee598160405161106e9190613c3b565b60405180910390a150565b61108281612a4b565b61108b81612a88565b6000600260009054906101000a900473ffffffffffffffffffffffffffffffffffffffff1673ffffffffffffffffffffffffffffffffffffffff166370a08231306040518263ffffffff1660e01b81526004016110e89190613ec6565b602060405180830381865afa158015611105573d6000803e3d6000fd5b505050506040513d601f19601f8201168201806040525081019061112991906144b2565b90506000600260009054906101000a900473ffffffffffffffffffffffffffffffffffffffff1673ffffffffffffffffffffffffffffffffffffffff1663313ce5676040518163ffffffff1660e01b8152600401602060405180830381865afa15801561119a573d6000803e3d6000fd5b505050506040513d601f19601f820116820180604052508101906111be9190614220565b600a6111ca91906144df565b836111d591906143cb565b905080821061128457600260009054906101000a900473ffffffffffffffffffffffffffffffffffffffff1673ffffffffffffffffffffffffffffffffffffffff1663a9059cbb33836040518363ffffffff1660e01b815260040161123b92919061452a565b6020604051808303816000875af115801561125a573d6000803e3d6000fd5b505050506040513d601f19601f8201168201806040525081019061127e9190614470565b50611314565b600260009054906101000a900473ffffffffffffffffffffffffffffffffffffffff1673ffffffffffffffffffffffffffffffffffffffff166340c10f1933836040518363ffffffff1660e01b81526004016112e192919061452a565b600060405180830381600087803b1580156112fb57600080fd5b505af115801561130f573d6000803e3d6000fd5b505050505b505050565b611321612ad7565b611329612b26565b611331612ba1565b6000600a60003373ffffffffffffffffffffffffffffffffffffffff1673ffffffffffffffffffffffffffffffffffffffff1681526020019081526020016000205490506000600b60003373ffffffffffffffffffffffffffffffffffffffff1673ffffffffffffffffffffffffffffffffffffffff16815260200190815260200160002054905060006113c58383612670565b905081836113d39190614553565b600b60003373ffffffffffffffffffffffffffffffffffffffff1673ffffffffffffffffffffffffffffffffffffffff1681526020019081526020016000208190555060003373ffffffffffffffffffffffffffffffffffffffff168260405161143c906145b8565b60006040518083038185875af1925050503d8060008114611479576040519150601f19603f3d011682016040523d82523d6000602084013e61147e565b606091505b505090508061148c57600080fd5b813373ffffffffffffffffffffffffffffffffffffffff167ffc30cddea38e2bf4d6ea7d3f9ed3b6ad7f176419f4963bd81318067a4aee73fe60405160405180910390a3505050506114dc612c78565b565b60006114e984612c82565b6114f4848484612d08565b60045490509392505050565b6060600760008381526020019081526020016000208054611520906145fc565b80601f016020809104026020016040519081016040528092919081815260200182805461154c906145fc565b80156115995780601f1061156e57610100808354040283529160200191611599565b820191906000526020600020905b81548152906001019060200180831161157c57829003601f168201915b50505050509050919050565b600d6020528060005260406000206000915090505481565b6115c5612d7b565b60006014819055506115d5612dc7565b60006115df612eca565b90507f8e9b46a70b3967bc9ea56ca61732c363a191fac88ae3ba011f4e030711c90117816040516116109190613c3b565b60405180910390a150565b6000600c60008473ffffffffffffffffffffffffffffffffffffffff1673ffffffffffffffffffffffffffffffffffffffff168152602001908152602001600020600083815260200190815260200160002060009054906101000a900460ff16905092915050565b61168b612f3e565b6000601260003481526020019081526020016000205490506116ac81612fb9565b600080601160003373ffffffffffffffffffffffffffffffffffffffff1673ffffffffffffffffffffffffffffffffffffffff1681526020019081526020016000205490504281101561170c5782426117059190614553565b915061171b565b82816117189190614553565b91505b81601160003373ffffffffffffffffffffffffffffffffffffffff1673ffffffffffffffffffffffffffffffffffffffff1681526020019081526020016000208190555082823373ffffffffffffffffffffffffffffffffffffffff167fb3abbf202f180f33d8c665604028b8c2bc6db0b430eee642e6a87c332ba9df3a60405160405180910390a4505050565b6117b1612876565b6117ba81612ff6565b6000600e60008373ffffffffffffffffffffffffffffffffffffffff1673ffffffffffffffffffffffffffffffffffffffff16815260200190815260200160002060006101000a81548160ff0219169083151502179055508073ffffffffffffffffffffffffffffffffffffffff167ff125aa5e6cb22c17ea0de4e1f86d2ff289ddd6a37e791b9ad29d0091cba06ac860405160405180910390a250565b60066020528060005260406000206000915090505481565b6000600860008473ffffffffffffffffffffffffffffffffffffffff1673ffffffffffffffffffffffffffffffffffffffff16815260200190815260200160002082815481106118c3576118c26141b8565b5b9060005260206000200154905092915050565b6118df82612a4b565b6000600260009054906101000a900473ffffffffffffffffffffffffffffffffffffffff1673ffffffffffffffffffffffffffffffffffffffff1663313ce5676040518163ffffffff1660e01b8152600401602060405180830381865afa15801561194e573d6000803e3d6000fd5b505050506040513d601f19601f820116820180604052508101906119729190614220565b600a61197e91906144df565b8361198991906143cb565b9050600260009054906101000a900473ffffffffffffffffffffffffffffffffffffffff1673ffffffffffffffffffffffffffffffffffffffff166323b872dd3330846040518463ffffffff1660e01b81526004016119ea9392919061440d565b6020604051808303816000875af1158015611a09573d6000803e3d6000fd5b505050506040513d601f19601f82011682018060405250810190611a2d9190614470565b50600060135484611a3e91906143cb565b905060008373ffffffffffffffffffffffffffffffffffffffff1682604051611a66906145b8565b60006040518083038185875af1925050503d8060008114611aa3576040519150601f19603f3d011682016040523d82523d6000602084013e611aa8565b606091505b5050905080611ab657600080fd5b5050505050565b611ac5612876565b611acd61307c565b611ad6816130bd565b80601481905550611ae56130f9565b7f8089789a86616a2428e26766961eaaa205ab084aac14a9cb98704e59af2b89e660405160405180910390a150565b611b1c612876565b611b266000613169565b565b60055481565b60135481565b611b3c612876565b611b4581612c82565b6000600f60008373ffffffffffffffffffffffffffffffffffffffff1673ffffffffffffffffffffffffffffffffffffffff16815260200190815260200160002060006101000a81548160ff0219169083151502179055508073ffffffffffffffffffffffffffffffffffffffff167f831fe45b7aa67ec3bed8b685a1393377d63415609ea28cd6c46c957cd206ace460405160405180910390a250565b6000600160009054906101000a900473ffffffffffffffffffffffffffffffffffffffff16905090565b600042601160008473ffffffffffffffffffffffffffffffffffffffff1673ffffffffffffffffffffffffffffffffffffffff1681526020019081526020016000205410159050919050565b611c63828261322f565b611c6b613270565b611cb93383838080601f016020809104026020016040519081016040528093929190818152602001838380828437600081840152601f19601f820116905080830192505050505050506132ec565b5050565b6000611cc7612693565b905090565b60106020528060005260406000206000915090508054611ceb906145fc565b80601f0160208091040260200160405190810160405280929190818152602001828054611d17906145fc565b8015611d645780601f10611d3957610100808354040283529160200191611d64565b820191906000526020600020905b815481529060010190602001808311611d4757829003601f168201915b505050505081565b611d746133f8565b600060126000348152602001908152602001600020549050611d9581612fb9565b60008142611da39190614553565b905080601160003373ffffffffffffffffffffffffffffffffffffffff1673ffffffffffffffffffffffffffffffffffffffff1681526020019081526020016000208190555081813373ffffffffffffffffffffffffffffffffffffffff167feec977e786e7248a658b0474ccf8f57f37ead019014ec4d5ba1542ddabeff1b460405160405180910390a45050565b606060106000600660008573ffffffffffffffffffffffffffffffffffffffff1673ffffffffffffffffffffffffffffffffffffffff1681526020019081526020016000205481526020019081526020016000208054611e91906145fc565b80601f0160208091040260200160405190810160405280929190818152602001828054611ebd906145fc565b8015611f0a5780601f10611edf57610100808354040283529160200191611f0a565b820191906000526020600020905b815481529060010190602001808311611eed57829003601f168201915b50505050509050919050565b611f1e612876565b60008211611f2b57600080fd5b60008111611f3857600080fd5b80601260008481526020019081526020016000208190555080827f54cba80c24bb8b943b0467102348972ab8b8d832c8fe766604a41205029bdeb560405160405180910390a35050565b6000600960008373ffffffffffffffffffffffffffffffffffffffff1673ffffffffffffffffffffffffffffffffffffffff168152602001908152602001600020549050919050565b600260009054906101000a900473ffffffffffffffffffffffffffffffffffffffff1681565b611ff9612876565b61200281613474565b6001600f60008373ffffffffffffffffffffffffffffffffffffffff1673ffffffffffffffffffffffffffffffffffffffff16815260200190815260200160002060006101000a81548160ff0219169083151502179055508073ffffffffffffffffffffffffffffffffffffffff167ff6c9f98033b9dff108e3563ef16e2eeed997d551b8b5dd48be580ca3f92316a560405160405180910390a250565b600b6020528060005260406000206000915090505481565b6120c0612876565b6120c9816134fb565b6001600e60008373ffffffffffffffffffffffffffffffffffffffff1673ffffffffffffffffffffffffffffffffffffffff16815260200190815260200160002060006101000a81548160ff0219169083151502179055508073ffffffffffffffffffffffffffffffffffffffff167f52824c4a4d431c73d6d24a91f775d722860111c6d30da30b0b21e062fb4c736560405160405180910390a250565b6121718383613582565b612179612b26565b6121c83384848080601f016020809104026020016040519081016040528093929190818152602001838380828437600081840152601f19601f82011690508083019250505050505050836135c3565b505050565b6000600660008373ffffffffffffffffffffffffffffffffffffffff1673ffffffffffffffffffffffffffffffffffffffff168152602001908152602001600020549050919050565b61221f33612ff6565b612229828261375e565b60005b828290508110156122c457600083838381811061224c5761224b6141b8565b5b90506040020180360381019061226291906146fd565b90508060200151600a6000836000015173ffffffffffffffffffffffffffffffffffffffff1673ffffffffffffffffffffffffffffffffffffffff168152602001908152602001600020819055505080806122bc90614170565b91505061222c565b507fb1f4c00fef5089fc65c077ba0529ff566678425b72c5ef25184eb9158cf006eb60405160405180910390a15050565b6122fd612876565b6000811161230a57600080fd5b806003819055506003547fde2a550feb6ab90bd4c3e2d079c1e9f15fa6c1616cd90660836219be038742e960405160405180910390a250565b60116020528060005260406000206000915090505481565b60035481565b60145481565b61236f612876565b600073ffffffffffffffffffffffffffffffffffffffff168173ffffffffffffffffffffffffffffffffffffffff16036123de576040517f08c379a00000000000000000000000000000000000000000000000000000000081526004016123d59061479c565b60405180910390fd5b6123e781613169565b50565b600060076000838152602001908152602001600020805461240a906145fc565b905003612443576040517f439dd45c00000000000000000000000000000000000000000000000000000000815260040160405180910390fd5b50565b61244e612693565b612484576040517f9b8cc47500000000000000000000000000000000000000000000000000000000815260040160405180910390fd5b565b601454601660003373ffffffffffffffffffffffffffffffffffffffff1673ffffffffffffffffffffffffffffffffffffffff1681526020019081526020016000205403612500576040517f7c9a1cf900000000000000000000000000000000000000000000000000000000815260040160405180910390fd5b565b6018546017805490500361253e576017819080600181540180825580915050600190039060005260206000200160009091909190915055612564565b80601760185481548110612555576125546141b8565b5b90600052602060002001819055505b6018600081548092919061257790614170565b919050555050565b601a54601980549050036125f5576019819080600181540180825580915050600190039060005260206000200160009091909190916101000a81548173ffffffffffffffffffffffffffffffffffffffff021916908373ffffffffffffffffffffffffffffffffffffffff160217905550612655565b806019601a548154811061260c5761260b6141b8565b5b9060005260206000200160006101000a81548173ffffffffffffffffffffffffffffffffffffffff021916908373ffffffffffffffffffffffffffffffffffffffff1602179055505b601a600081548092919061266890614170565b919050555050565b6000818361267e91906147bc565b60035461268b91906143cb565b905092915050565b6000426014541015905090565b6000806000806126b0868661391c565b92509250925060006040518060400160405280601c81526020017f19457468657265756d205369676e6564204d6573736167653a0a3332000000008152508860405160200161270092919061484d565b60405160208183030381529060405280519060200120905060006001828487876040516000815260200160405260405161273d9493929190614884565b6020604051602081039080840390855afa15801561275f573d6000803e3d6000fd5b505050602060405103519050600073ffffffffffffffffffffffffffffffffffffffff168173ffffffffffffffffffffffffffffffffffffffff16141580156127d357508973ffffffffffffffffffffffffffffffffffffffff168173ffffffffffffffffffffffffffffffffffffffff16145b95505050505050949350505050565b6000600d6000838152602001908152602001600020540361282f576040517f298763a600000000000000000000000000000000000000000000000000000000815260040160405180910390fd5b50565b61283c8282612931565b612872576040517f46b47f2500000000000000000000000000000000000000000000000000000000815260040160405180910390fd5b5050565b61287e61398e565b73ffffffffffffffffffffffffffffffffffffffff1661289c611be3565b73ffffffffffffffffffffffffffffffffffffffff16146128f2576040517f08c379a00000000000000000000000000000000000000000000000000000000081526004016128e990614915565b60405180910390fd5b565b6000810361292e576040517f6629597700000000000000000000000000000000000000000000000000000000815260040160405180910390fd5b50565b600080600960008573ffffffffffffffffffffffffffffffffffffffff1673ffffffffffffffffffffffffffffffffffffffff16815260200190815260200160002054905060005b81811015612a015783600860008773ffffffffffffffffffffffffffffffffffffffff1673ffffffffffffffffffffffffffffffffffffffff16815260200190815260200160002082815481106129d3576129d26141b8565b5b9060005260206000200154036129ee57600192505050612a08565b80806129f990614170565b915050612979565b5060009150505b92915050565b60008103612a48576040517f2c669f0a00000000000000000000000000000000000000000000000000000000815260040160405180910390fd5b50565b60008103612a85576040517fd11b25af00000000000000000000000000000000000000000000000000000000815260040160405180910390fd5b50565b600060135482612a9891906143cb565b9050348114612ad3576040517f03862d0b00000000000000000000000000000000000000000000000000000000815260040160405180910390fd5b5050565b600260005403612b1c576040517f08c379a0000000000000000000000000000000000000000000000000000000008152600401612b1390614981565b60405180910390fd5b6002600081905550565b6000600660003373ffffffffffffffffffffffffffffffffffffffff1673ffffffffffffffffffffffffffffffffffffffff1681526020019081526020016000205403612b9f576040517f5ba4c78d00000000000000000000000000000000000000000000000000000000815260040160405180910390fd5b565b6000600a60003373ffffffffffffffffffffffffffffffffffffffff1673ffffffffffffffffffffffffffffffffffffffff1681526020019081526020016000205490506000600b60003373ffffffffffffffffffffffffffffffffffffffff1673ffffffffffffffffffffffffffffffffffffffff16815260200190815260200160002054905060008183612c3791906147bc565b905060008103612c73576040517ff40c208900000000000000000000000000000000000000000000000000000000815260040160405180910390fd5b505050565b6001600081905550565b600f60008273ffffffffffffffffffffffffffffffffffffffff1673ffffffffffffffffffffffffffffffffffffffff16815260200190815260200160002060009054906101000a900460ff16612d05576040517fa7fda99900000000000000000000000000000000000000000000000000000000815260040160405180910390fd5b50565b600083604051602001612d1b9190613ec6565b604051602081830303815290604052805190602001209050612d3f848285856126a0565b612d75576040517f8baa579f00000000000000000000000000000000000000000000000000000000815260040160405180910390fd5b50505050565b60006014541480612d8e57506014544211155b15612dc5576040517ffb196f7500000000000000000000000000000000000000000000000000000000815260040160405180910390fd5b565b60005b601a54811015612ec757600060198281548110612dea57612de96141b8565b5b9060005260206000200160009054906101000a900473ffffffffffffffffffffffffffffffffffffffff1690506000612e21613996565b9050600260009054906101000a900473ffffffffffffffffffffffffffffffffffffffff1673ffffffffffffffffffffffffffffffffffffffff166340c10f1983836040518363ffffffff1660e01b8152600401612e8092919061452a565b600060405180830381600087803b158015612e9a57600080fd5b505af1158015612eae573d6000803e3d6000fd5b5050505050508080612ebf90614170565b915050612dca565b50565b60008060005b601854811015612f3957600060178281548110612ef057612eef6141b8565b5b9060005260206000200154905060006015600083815260200190815260200160002054905083811115612f24578093508194505b50508080612f3190614170565b915050612ed0565b505090565b6000601160003373ffffffffffffffffffffffffffffffffffffffff1673ffffffffffffffffffffffffffffffffffffffff1681526020019081526020016000205403612fb7576040517f0ba7474000000000000000000000000000000000000000000000000000000000815260040160405180910390fd5b565b60008103612ff3576040517f64fc58f000000000000000000000000000000000000000000000000000000000815260040160405180910390fd5b50565b600e60008273ffffffffffffffffffffffffffffffffffffffff1673ffffffffffffffffffffffffffffffffffffffff16815260200190815260200160002060009054906101000a900460ff16613079576040517fed8b45b100000000000000000000000000000000000000000000000000000000815260040160405180910390fd5b50565b613084612693565b156130bb576040517fa9d47e0400000000000000000000000000000000000000000000000000000000815260040160405180910390fd5b565b4281116130f6576040517fc733873c00000000000000000000000000000000000000000000000000000000815260040160405180910390fd5b50565b60005b6018548110156131565760006017828154811061311c5761311b6141b8565b5b906000526020600020015490506000601560008381526020019081526020016000208190555050808061314e90614170565b9150506130fc565b506000601a819055506000601881905550565b6000600160009054906101000a900473ffffffffffffffffffffffffffffffffffffffff16905081600160006101000a81548173ffffffffffffffffffffffffffffffffffffffff021916908373ffffffffffffffffffffffffffffffffffffffff1602179055508173ffffffffffffffffffffffffffffffffffffffff168173ffffffffffffffffffffffffffffffffffffffff167f8be0079c531659141344cd1fd0a4f28419497f9722a3daafe3b4186f6b6457e060405160405180910390a35050565b6000828290500361326c576040517fd9a5fbfc00000000000000000000000000000000000000000000000000000000815260040160405180910390fd5b5050565b6000600660003373ffffffffffffffffffffffffffffffffffffffff1673ffffffffffffffffffffffffffffffffffffffff1681526020019081526020016000205411156132ea576040517f9b70f42400000000000000000000000000000000000000000000000000000000815260040160405180910390fd5b565b60006132f66139ad565b90506000601060008381526020019081526020016000208054613318906145fc565b9050111561332b576133286139ad565b90505b8160106000838152602001908152602001600020908161334b9190614b43565b5080600660008573ffffffffffffffffffffffffffffffffffffffff1673ffffffffffffffffffffffffffffffffffffffff1681526020019081526020016000208190555080600160028111156133a5576133a4614c15565b5b8473ffffffffffffffffffffffffffffffffffffffff167f530708815c9407cb1f2859a353ee291d1acfe7a488d4347780a1d35690b90726856040516133eb9190613e55565b60405180910390a4505050565b6000601160003373ffffffffffffffffffffffffffffffffffffffff1673ffffffffffffffffffffffffffffffffffffffff168152602001908152602001600020541115613472576040517fefecdc3c00000000000000000000000000000000000000000000000000000000815260040160405180910390fd5b565b600f60008273ffffffffffffffffffffffffffffffffffffffff1673ffffffffffffffffffffffffffffffffffffffff16815260200190815260200160002060009054906101000a900460ff16156134f8576040517febca463b00000000000000000000000000000000000000000000000000000000815260040160405180910390fd5b50565b600e60008273ffffffffffffffffffffffffffffffffffffffff1673ffffffffffffffffffffffffffffffffffffffff16815260200190815260200160002060009054906101000a900460ff161561357f576040517f18d9ae0900000000000000000000000000000000000000000000000000000000815260040160405180910390fd5b50565b600082829050036135bf576040517fe7f85e7900000000000000000000000000000000000000000000000000000000815260040160405180910390fd5b5050565b60006135cd6139ad565b905060006007600083815260200190815260200160002080546135ef906145fc565b90501115613602576135ff6139ad565b90505b826007600083815260200190815260200160002090816136229190614b43565b50600860008573ffffffffffffffffffffffffffffffffffffffff1673ffffffffffffffffffffffffffffffffffffffff168152602001908152602001600020819080600181540180825580915050600190039060005260206000200160009091909190915055600960008573ffffffffffffffffffffffffffffffffffffffff1673ffffffffffffffffffffffffffffffffffffffff16815260200190815260200160002060008154809291906136d990614170565b919050555081600d6000838152602001908152602001600020819055508060028081111561370a57613709614c15565b5b8573ffffffffffffffffffffffffffffffffffffffff167f530708815c9407cb1f2859a353ee291d1acfe7a488d4347780a1d35690b90726866040516137509190613e55565b60405180910390a450505050565b6000828290500361379b576040517ff2486cbe00000000000000000000000000000000000000000000000000000000815260040160405180910390fd5b60005b828290508110156139175760008383838181106137be576137bd6141b8565b5b9050604002018036038101906137d491906146fd565b9050600060066000836000015173ffffffffffffffffffffffffffffffffffffffff1673ffffffffffffffffffffffffffffffffffffffff168152602001908152602001600020540361386857806000015181602001516040517f3b573da200000000000000000000000000000000000000000000000000000000815260040161385f92919061452a565b60405180910390fd5b6000600a6000836000015173ffffffffffffffffffffffffffffffffffffffff1673ffffffffffffffffffffffffffffffffffffffff1681526020019081526020016000205490508160200151811061390257816000015182602001516040517f3b573da20000000000000000000000000000000000000000000000000000000081526004016138f992919061452a565b60405180910390fd5b5050808061390f90614170565b91505061379e565b505050565b6000806000848460009060209261393593929190614c4e565b906139409190614c94565b9250848460209060409261395693929190614c4e565b906139619190614c94565b9150848460409060419261397793929190614c4e565b906139829190614d1f565b60f81c90509250925092565b600033905090565b6000601a546005546139a89190614dad565b905090565b6000615aff4614806139c05750615afe46145b15613a02576139ef6020426040516020016139db9190614dff565b604051602081830303815290604052613a3b565b6139f890614e4a565b60001c9050613a38565b334340424441604051602001613a1c959493929190614f34565b6040516020818303038152906040528051906020012060001c90505b90565b606060008073010000000000000000000000000000000000000173ffffffffffffffffffffffffffffffffffffffff168585604051602001613a7e929190614fdd565b604051602081830303815290604052604051613a9a919061503e565b600060405180830381855afa9150503d8060008114613ad5576040519150601f19603f3d011682016040523d82523d6000602084013e613ada565b606091505b509150915081613b1f576040517f08c379a0000000000000000000000000000000000000000000000000000000008152600401613b16906150a1565b60405180910390fd5b809250505092915050565b6000604051905090565b600080fd5b600080fd5b6000819050919050565b613b5181613b3e565b8114613b5c57600080fd5b50565b600081359050613b6e81613b48565b92915050565b600060208284031215613b8a57613b89613b34565b5b6000613b9884828501613b5f565b91505092915050565b600073ffffffffffffffffffffffffffffffffffffffff82169050919050565b6000613bcc82613ba1565b9050919050565b613bdc81613bc1565b8114613be757600080fd5b50565b600081359050613bf981613bd3565b92915050565b600060208284031215613c1557613c14613b34565b5b6000613c2384828501613bea565b91505092915050565b613c3581613b3e565b82525050565b6000602082019050613c506000830184613c2c565b92915050565b600080fd5b600080fd5b600080fd5b60008083601f840112613c7b57613c7a613c56565b5b8235905067ffffffffffffffff811115613c9857613c97613c5b565b5b602083019150836001820283011115613cb457613cb3613c60565b5b9250929050565b600080600060408486031215613cd457613cd3613b34565b5b6000613ce286828701613bea565b935050602084013567ffffffffffffffff811115613d0357613d02613b39565b5b613d0f86828701613c65565b92509250509250925092565b60008115159050919050565b613d3081613d1b565b82525050565b6000602082019050613d4b6000830184613d27565b92915050565b60008060408385031215613d6857613d67613b34565b5b6000613d7685828601613bea565b9250506020613d8785828601613b5f565b9150509250929050565b6000819050919050565b613da481613d91565b82525050565b6000602082019050613dbf6000830184613d9b565b92915050565b600081519050919050565b600082825260208201905092915050565b60005b83811015613dff578082015181840152602081019050613de4565b60008484015250505050565b6000601f19601f8301169050919050565b6000613e2782613dc5565b613e318185613dd0565b9350613e41818560208601613de1565b613e4a81613e0b565b840191505092915050565b60006020820190508181036000830152613e6f8184613e1c565b905092915050565b60008060408385031215613e8e57613e8d613b34565b5b6000613e9c85828601613b5f565b9250506020613ead85828601613bea565b9150509250929050565b613ec081613bc1565b82525050565b6000602082019050613edb6000830184613eb7565b92915050565b60008083601f840112613ef757613ef6613c56565b5b8235905067ffffffffffffffff811115613f1457613f13613c5b565b5b602083019150836001820283011115613f3057613f2f613c60565b5b9250929050565b60008060208385031215613f4e57613f4d613b34565b5b600083013567ffffffffffffffff811115613f6c57613f6b613b39565b5b613f7885828601613ee1565b92509250509250929050565b60008060408385031215613f9b57613f9a613b34565b5b6000613fa985828601613b5f565b9250506020613fba85828601613b5f565b9150509250929050565b6000819050919050565b6000613fe9613fe4613fdf84613ba1565b613fc4565b613ba1565b9050919050565b6000613ffb82613fce565b9050919050565b600061400d82613ff0565b9050919050565b61401d81614002565b82525050565b60006020820190506140386000830184614014565b92915050565b60008060006040848603121561405757614056613b34565b5b600084013567ffffffffffffffff81111561407557614074613b39565b5b61408186828701613ee1565b9350935050602061409486828701613b5f565b9150509250925092565b60008083601f8401126140b4576140b3613c56565b5b8235905067ffffffffffffffff8111156140d1576140d0613c5b565b5b6020830191508360408202830111156140ed576140ec613c60565b5b9250929050565b6000806020838503121561410b5761410a613b34565b5b600083013567ffffffffffffffff81111561412957614128613b39565b5b6141358582860161409e565b92509250509250929050565b7f4e487b7100000000000000000000000000000000000000000000000000000000600052601160045260246000fd5b600061417b82613b3e565b91507fffffffffffffffffffffffffffffffffffffffffffffffffffffffffffffffff82036141ad576141ac614141565b5b600182019050919050565b7f4e487b7100000000000000000000000000000000000000000000000000000000600052603260045260246000fd5b600060ff82169050919050565b6141fd816141e7565b811461420857600080fd5b50565b60008151905061421a816141f4565b92915050565b60006020828403121561423657614235613b34565b5b60006142448482850161420b565b91505092915050565b60008160011c9050919050565b6000808291508390505b60018511156142a4578086048111156142805761427f614141565b5b600185161561428f5780820291505b808102905061429d8561424d565b9450614264565b94509492505050565b6000826142bd5760019050614379565b816142cb5760009050614379565b81600181146142e157600281146142eb5761431a565b6001915050614379565b60ff8411156142fd576142fc614141565b5b8360020a91508482111561431457614313614141565b5b50614379565b5060208310610133831016604e8410600b841016171561434f5782820a90508381111561434a57614349614141565b5b614379565b61435c848484600161425a565b9250905081840481111561437357614372614141565b5b81810290505b9392505050565b600061438b82613b3e565b915061439683613b3e565b92506143c37fffffffffffffffffffffffffffffffffffffffffffffffffffffffffffffffff84846142ad565b905092915050565b60006143d682613b3e565b91506143e183613b3e565b92508282026143ef81613b3e565b9150828204841483151761440657614405614141565b5b5092915050565b60006060820190506144226000830186613eb7565b61442f6020830185613eb7565b61443c6040830184613c2c565b949350505050565b61444d81613d1b565b811461445857600080fd5b50565b60008151905061446a81614444565b92915050565b60006020828403121561448657614485613b34565b5b60006144948482850161445b565b91505092915050565b6000815190506144ac81613b48565b92915050565b6000602082840312156144c8576144c7613b34565b5b60006144d68482850161449d565b91505092915050565b60006144ea82613b3e565b91506144f5836141e7565b92506145227fffffffffffffffffffffffffffffffffffffffffffffffffffffffffffffffff84846142ad565b905092915050565b600060408201905061453f6000830185613eb7565b61454c6020830184613c2c565b9392505050565b600061455e82613b3e565b915061456983613b3e565b925082820190508082111561458157614580614141565b5b92915050565b600081905092915050565b50565b60006145a2600083614587565b91506145ad82614592565b600082019050919050565b60006145c382614595565b9150819050919050565b7f4e487b7100000000000000000000000000000000000000000000000000000000600052602260045260246000fd5b6000600282049050600182168061461457607f821691505b602082108103614627576146266145cd565b5b50919050565b600080fd5b7f4e487b7100000000000000000000000000000000000000000000000000000000600052604160045260246000fd5b61466a82613e0b565b810181811067ffffffffffffffff8211171561468957614688614632565b5b80604052505050565b600061469c613b2a565b90506146a88282614661565b919050565b6000604082840312156146c3576146c261462d565b5b6146cd6040614692565b905060006146dd84828501613bea565b60008301525060206146f184828501613b5f565b60208301525092915050565b60006040828403121561471357614712613b34565b5b6000614721848285016146ad565b91505092915050565b7f4f776e61626c653a206e6577206f776e657220697320746865207a65726f206160008201527f6464726573730000000000000000000000000000000000000000000000000000602082015250565b6000614786602683613dd0565b91506147918261472a565b604082019050919050565b600060208201905081810360008301526147b581614779565b9050919050565b60006147c782613b3e565b91506147d283613b3e565b92508282039050818111156147ea576147e9614141565b5b92915050565b600081905092915050565b600061480682613dc5565b61481081856147f0565b9350614820818560208601613de1565b80840191505092915050565b6000819050919050565b61484761484282613d91565b61482c565b82525050565b600061485982856147fb565b91506148658284614836565b6020820191508190509392505050565b61487e816141e7565b82525050565b60006080820190506148996000830187613d9b565b6148a66020830186614875565b6148b36040830185613d9b565b6148c06060830184613d9b565b95945050505050565b7f4f776e61626c653a2063616c6c6572206973206e6f7420746865206f776e6572600082015250565b60006148ff602083613dd0565b915061490a826148c9565b602082019050919050565b6000602082019050818103600083015261492e816148f2565b9050919050565b7f5265656e7472616e637947756172643a207265656e7472616e742063616c6c00600082015250565b600061496b601f83613dd0565b915061497682614935565b602082019050919050565b6000602082019050818103600083015261499a8161495e565b9050919050565b60008190508160005260206000209050919050565b60006020601f8301049050919050565b600082821b905092915050565b600060088302614a037fffffffffffffffffffffffffffffffffffffffffffffffffffffffffffffffff826149c6565b614a0d86836149c6565b95508019841693508086168417925050509392505050565b6000614a40614a3b614a3684613b3e565b613fc4565b613b3e565b9050919050565b6000819050919050565b614a5a83614a25565b614a6e614a6682614a47565b8484546149d3565b825550505050565b600090565b614a83614a76565b614a8e818484614a51565b505050565b5b81811015614ab257614aa7600082614a7b565b600181019050614a94565b5050565b601f821115614af757614ac8816149a1565b614ad1846149b6565b81016020851015614ae0578190505b614af4614aec856149b6565b830182614a93565b50505b505050565b600082821c905092915050565b6000614b1a60001984600802614afc565b1980831691505092915050565b6000614b338383614b09565b9150826002028217905092915050565b614b4c82613dc5565b67ffffffffffffffff811115614b6557614b64614632565b5b614b6f82546145fc565b614b7a828285614ab6565b600060209050601f831160018114614bad5760008415614b9b578287015190505b614ba58582614b27565b865550614c0d565b601f198416614bbb866149a1565b60005b82811015614be357848901518255600182019150602085019450602081019050614bbe565b86831015614c005784890151614bfc601f891682614b09565b8355505b6001600288020188555050505b505050505050565b7f4e487b7100000000000000000000000000000000000000000000000000000000600052602160045260246000fd5b600080fd5b600080fd5b60008085851115614c6257614c61614c44565b5b83861115614c7357614c72614c49565b5b6001850283019150848603905094509492505050565b600082905092915050565b6000614ca08383614c89565b82614cab8135613d91565b92506020821015614ceb57614ce67fffffffffffffffffffffffffffffffffffffffffffffffffffffffffffffffff836020036008026149c6565b831692505b505092915050565b60007fff0000000000000000000000000000000000000000000000000000000000000082169050919050565b6000614d2b8383614c89565b82614d368135614cf3565b92506001821015614d7657614d717fff00000000000000000000000000000000000000000000000000000000000000836001036008026149c6565b831692505b505092915050565b7f4e487b7100000000000000000000000000000000000000000000000000000000600052601260045260246000fd5b6000614db882613b3e565b9150614dc383613b3e565b925082614dd357614dd2614d7e565b5b828204905092915050565b6000819050919050565b614df9614df482613b3e565b614dde565b82525050565b6000614e0b8284614de8565b60208201915081905092915050565b600081519050919050565b6000819050602082019050919050565b6000614e418251613d91565b80915050919050565b6000614e5582614e1a565b82614e5f84614e25565b9050614e6a81614e35565b92506020821015614eaa57614ea57fffffffffffffffffffffffffffffffffffffffffffffffffffffffffffffffff836020036008026149c6565b831692505b5050919050565b60008160601b9050919050565b6000614ec982614eb1565b9050919050565b6000614edb82614ebe565b9050919050565b614ef3614eee82613bc1565b614ed0565b82525050565b6000614f0482613ba1565b9050919050565b6000614f1682614ebe565b9050919050565b614f2e614f2982614ef9565b614f0b565b82525050565b6000614f408288614ee2565b601482019150614f508287614836565b602082019150614f608286614de8565b602082019150614f708285614de8565b602082019150614f808284614f1d565b6014820191508190509695505050505050565b600082825260208201905092915050565b6000614faf82614e1a565b614fb98185614f93565b9350614fc9818560208601613de1565b614fd281613e0b565b840191505092915050565b6000604082019050614ff26000830185613c2c565b81810360208301526150048184614fa4565b90509392505050565b600061501882614e1a565b6150228185614587565b9350615032818560208601613de1565b80840191505092915050565b600061504a828461500d565b915081905092915050565b7f72616e646f6d42797465733a206661696c656400000000000000000000000000600082015250565b600061508b601383613dd0565b915061509682615055565b602082019050919050565b600060208201905081810360008301526150ba8161507e565b905091905056fea2646970667358221220968a6a3da9685f9c954266907565f557ff478989e6644053af26e64cf6e4929364736f6c6343000813003360806040523480156200001157600080fd5b506040518060400160405280600a81526020017f4a55535420746f6b656e000000000000000000000000000000000000000000008152506040518060400160405280600481526020017f4a5553540000000000000000000000000000000000000000000000000000000081525081600390816200008f919062000412565b508060049081620000a1919062000412565b505050620000c4620000b8620000ca60201b60201c565b620000d260201b60201c565b620004f9565b600033905090565b6000600560009054906101000a900473ffffffffffffffffffffffffffffffffffffffff16905081600560006101000a81548173ffffffffffffffffffffffffffffffffffffffff021916908373ffffffffffffffffffffffffffffffffffffffff1602179055508173ffffffffffffffffffffffffffffffffffffffff168173ffffffffffffffffffffffffffffffffffffffff167f8be0079c531659141344cd1fd0a4f28419497f9722a3daafe3b4186f6b6457e060405160405180910390a35050565b600081519050919050565b7f4e487b7100000000000000000000000000000000000000000000000000000000600052604160045260246000fd5b7f4e487b7100000000000000000000000000000000000000000000000000000000600052602260045260246000fd5b600060028204905060018216806200021a57607f821691505b60208210810362000230576200022f620001d2565b5b50919050565b60008190508160005260206000209050919050565b60006020601f8301049050919050565b600082821b905092915050565b6000600883026200029a7fffffffffffffffffffffffffffffffffffffffffffffffffffffffffffffffff826200025b565b620002a686836200025b565b95508019841693508086168417925050509392505050565b6000819050919050565b6000819050919050565b6000620002f3620002ed620002e784620002be565b620002c8565b620002be565b9050919050565b6000819050919050565b6200030f83620002d2565b620003276200031e82620002fa565b84845462000268565b825550505050565b600090565b6200033e6200032f565b6200034b81848462000304565b505050565b5b8181101562000373576200036760008262000334565b60018101905062000351565b5050565b601f821115620003c2576200038c8162000236565b62000397846200024b565b81016020851015620003a7578190505b620003bf620003b6856200024b565b83018262000350565b50505b505050565b600082821c905092915050565b6000620003e760001984600802620003c7565b1980831691505092915050565b6000620004028383620003d4565b9150826002028217905092915050565b6200041d8262000198565b67ffffffffffffffff811115620004395762000438620001a3565b5b62000445825462000201565b6200045282828562000377565b600060209050601f8311600181146200048a576000841562000475578287015190505b620004818582620003f4565b865550620004f1565b601f1984166200049a8662000236565b60005b82811015620004c4578489015182556001820191506020850194506020810190506200049d565b86831015620004e45784890151620004e0601f891682620003d4565b8355505b6001600288020188555050505b505050505050565b6117e080620005096000396000f3fe608060405234801561001057600080fd5b50600436106100f55760003560e01c806370a0823111610097578063a457c2d711610066578063a457c2d714610276578063a9059cbb146102a6578063dd62ed3e146102d6578063f2fde38b14610306576100f5565b806370a0823114610200578063715018a6146102305780638da5cb5b1461023a57806395d89b4114610258576100f5565b806323b872dd116100d357806323b872dd14610166578063313ce5671461019657806339509351146101b457806340c10f19146101e4576100f5565b806306fdde03146100fa578063095ea7b31461011857806318160ddd14610148575b600080fd5b610102610322565b60405161010f9190610f29565b60405180910390f35b610132600480360381019061012d9190610fe4565b6103b4565b60405161013f919061103f565b60405180910390f35b6101506103d7565b60405161015d9190611069565b60405180910390f35b610180600480360381019061017b9190611084565b6103e1565b60405161018d919061103f565b60405180910390f35b61019e610410565b6040516101ab91906110f3565b60405180910390f35b6101ce60048036038101906101c99190610fe4565b610419565b6040516101db919061103f565b60405180910390f35b6101fe60048036038101906101f99190610fe4565b610450565b005b61021a6004803603810190610215919061110e565b610466565b6040516102279190611069565b60405180910390f35b6102386104ae565b005b6102426104c2565b60405161024f919061114a565b60405180910390f35b6102606104ec565b60405161026d9190610f29565b60405180910390f35b610290600480360381019061028b9190610fe4565b61057e565b60405161029d919061103f565b60405180910390f35b6102c060048036038101906102bb9190610fe4565b6105f5565b6040516102cd919061103f565b60405180910390f35b6102f060048036038101906102eb9190611165565b610618565b6040516102fd9190611069565b60405180910390f35b610320600480360381019061031b919061110e565b61069f565b005b606060038054610331906111d4565b80601f016020809104026020016040519081016040528092919081815260200182805461035d906111d4565b80156103aa5780601f1061037f576101008083540402835291602001916103aa565b820191906000526020600020905b81548152906001019060200180831161038d57829003601f168201915b5050505050905090565b6000806103bf610722565b90506103cc81858561072a565b600191505092915050565b6000600254905090565b6000806103ec610722565b90506103f98582856108f3565b61040485858561097f565b60019150509392505050565b60006012905090565b600080610424610722565b90506104458185856104368589610618565b6104409190611234565b61072a565b600191505092915050565b610458610bf5565b6104628282610c73565b5050565b60008060008373ffffffffffffffffffffffffffffffffffffffff1673ffffffffffffffffffffffffffffffffffffffff168152602001908152602001600020549050919050565b6104b6610bf5565b6104c06000610dc9565b565b6000600560009054906101000a900473ffffffffffffffffffffffffffffffffffffffff16905090565b6060600480546104fb906111d4565b80601f0160208091040260200160405190810160405280929190818152602001828054610527906111d4565b80156105745780601f1061054957610100808354040283529160200191610574565b820191906000526020600020905b81548152906001019060200180831161055757829003601f168201915b5050505050905090565b600080610589610722565b905060006105978286610618565b9050838110156105dc576040517f08c379a00000000000000000000000000000000000000000000000000000000081526004016105d3906112da565b60405180910390fd5b6105e9828686840361072a565b60019250505092915050565b600080610600610722565b905061060d81858561097f565b600191505092915050565b6000600160008473ffffffffffffffffffffffffffffffffffffffff1673ffffffffffffffffffffffffffffffffffffffff16815260200190815260200160002060008373ffffffffffffffffffffffffffffffffffffffff1673ffffffffffffffffffffffffffffffffffffffff16815260200190815260200160002054905092915050565b6106a7610bf5565b600073ffffffffffffffffffffffffffffffffffffffff168173ffffffffffffffffffffffffffffffffffffffff1603610716576040517f08c379a000000000000000000000000000000000000000000000000000000000815260040161070d9061136c565b60405180910390fd5b61071f81610dc9565b50565b600033905090565b600073ffffffffffffffffffffffffffffffffffffffff168373ffffffffffffffffffffffffffffffffffffffff1603610799576040517f08c379a0000000000000000000000000000000000000000000000000000000008152600401610790906113fe565b60405180910390fd5b600073ffffffffffffffffffffffffffffffffffffffff168273ffffffffffffffffffffffffffffffffffffffff1603610808576040517f08c379a00000000000000000000000000000000000000000000000000000000081526004016107ff90611490565b60405180910390fd5b80600160008573ffffffffffffffffffffffffffffffffffffffff1673ffffffffffffffffffffffffffffffffffffffff16815260200190815260200160002060008473ffffffffffffffffffffffffffffffffffffffff1673ffffffffffffffffffffffffffffffffffffffff168152602001908152602001600020819055508173ffffffffffffffffffffffffffffffffffffffff168373ffffffffffffffffffffffffffffffffffffffff167f8c5be1e5ebec7d5bd14f71427d1e84f3dd0314c0f7b2291e5b200ac8c7c3b925836040516108e69190611069565b60405180910390a3505050565b60006108ff8484610618565b90507fffffffffffffffffffffffffffffffffffffffffffffffffffffffffffffffff8114610979578181101561096b576040517f08c379a0000000000000000000000000000000000000000000000000000000008152600401610962906114fc565b60405180910390fd5b610978848484840361072a565b5b50505050565b600073ffffffffffffffffffffffffffffffffffffffff168373ffffffffffffffffffffffffffffffffffffffff16036109ee576040517f08c379a00000000000000000000000000000000000000000000000000000000081526004016109e59061158e565b60405180910390fd5b600073ffffffffffffffffffffffffffffffffffffffff168273ffffffffffffffffffffffffffffffffffffffff1603610a5d576040517f08c379a0000000000000000000000000000000000000000000000000000000008152600401610a5490611620565b60405180910390fd5b610a68838383610e8f565b60008060008573ffffffffffffffffffffffffffffffffffffffff1673ffffffffffffffffffffffffffffffffffffffff16815260200190815260200160002054905081811015610aee576040517f08c379a0000000000000000000000000000000000000000000000000000000008152600401610ae5906116b2565b60405180910390fd5b8181036000808673ffffffffffffffffffffffffffffffffffffffff1673ffffffffffffffffffffffffffffffffffffffff16815260200190815260200160002081905550816000808573ffffffffffffffffffffffffffffffffffffffff1673ffffffffffffffffffffffffffffffffffffffff168152602001908152602001600020600082825401925050819055508273ffffffffffffffffffffffffffffffffffffffff168473ffffffffffffffffffffffffffffffffffffffff167fddf252ad1be2c89b69c2b068fc378daa952ba7f163c4a11628f55a4df523b3ef84604051610bdc9190611069565b60405180910390a3610bef848484610e94565b50505050565b610bfd610722565b73ffffffffffffffffffffffffffffffffffffffff16610c1b6104c2565b73ffffffffffffffffffffffffffffffffffffffff1614610c71576040517f08c379a0000000000000000000000000000000000000000000000000000000008152600401610c689061171e565b60405180910390fd5b565b600073ffffffffffffffffffffffffffffffffffffffff168273ffffffffffffffffffffffffffffffffffffffff1603610ce2576040517f08c379a0000000000000000000000000000000000000000000000000000000008152600401610cd99061178a565b60405180910390fd5b610cee60008383610e8f565b8060026000828254610d009190611234565b92505081905550806000808473ffffffffffffffffffffffffffffffffffffffff1673ffffffffffffffffffffffffffffffffffffffff168152602001908152602001600020600082825401925050819055508173ffffffffffffffffffffffffffffffffffffffff16600073ffffffffffffffffffffffffffffffffffffffff167fddf252ad1be2c89b69c2b068fc378daa952ba7f163c4a11628f55a4df523b3ef83604051610db19190611069565b60405180910390a3610dc560008383610e94565b5050565b6000600560009054906101000a900473ffffffffffffffffffffffffffffffffffffffff16905081600560006101000a81548173ffffffffffffffffffffffffffffffffffffffff021916908373ffffffffffffffffffffffffffffffffffffffff1602179055508173ffffffffffffffffffffffffffffffffffffffff168173ffffffffffffffffffffffffffffffffffffffff167f8be0079c531659141344cd1fd0a4f28419497f9722a3daafe3b4186f6b6457e060405160405180910390a35050565b505050565b505050565b600081519050919050565b600082825260208201905092915050565b60005b83811015610ed3578082015181840152602081019050610eb8565b60008484015250505050565b6000601f19601f8301169050919050565b6000610efb82610e99565b610f058185610ea4565b9350610f15818560208601610eb5565b610f1e81610edf565b840191505092915050565b60006020820190508181036000830152610f438184610ef0565b905092915050565b600080fd5b600073ffffffffffffffffffffffffffffffffffffffff82169050919050565b6000610f7b82610f50565b9050919050565b610f8b81610f70565b8114610f9657600080fd5b50565b600081359050610fa881610f82565b92915050565b6000819050919050565b610fc181610fae565b8114610fcc57600080fd5b50565b600081359050610fde81610fb8565b92915050565b60008060408385031215610ffb57610ffa610f4b565b5b600061100985828601610f99565b925050602061101a85828601610fcf565b9150509250929050565b60008115159050919050565b61103981611024565b82525050565b60006020820190506110546000830184611030565b92915050565b61106381610fae565b82525050565b600060208201905061107e600083018461105a565b92915050565b60008060006060848603121561109d5761109c610f4b565b5b60006110ab86828701610f99565b93505060206110bc86828701610f99565b92505060406110cd86828701610fcf565b9150509250925092565b600060ff82169050919050565b6110ed816110d7565b82525050565b600060208201905061110860008301846110e4565b92915050565b60006020828403121561112457611123610f4b565b5b600061113284828501610f99565b91505092915050565b61114481610f70565b82525050565b600060208201905061115f600083018461113b565b92915050565b6000806040838503121561117c5761117b610f4b565b5b600061118a85828601610f99565b925050602061119b85828601610f99565b9150509250929050565b7f4e487b7100000000000000000000000000000000000000000000000000000000600052602260045260246000fd5b600060028204905060018216806111ec57607f821691505b6020821081036111ff576111fe6111a5565b5b50919050565b7f4e487b7100000000000000000000000000000000000000000000000000000000600052601160045260246000fd5b600061123f82610fae565b915061124a83610fae565b925082820190508082111561126257611261611205565b5b92915050565b7f45524332303a2064656372656173656420616c6c6f77616e63652062656c6f7760008201527f207a65726f000000000000000000000000000000000000000000000000000000602082015250565b60006112c4602583610ea4565b91506112cf82611268565b604082019050919050565b600060208201905081810360008301526112f3816112b7565b9050919050565b7f4f776e61626c653a206e6577206f776e657220697320746865207a65726f206160008201527f6464726573730000000000000000000000000000000000000000000000000000602082015250565b6000611356602683610ea4565b9150611361826112fa565b604082019050919050565b6000602082019050818103600083015261138581611349565b9050919050565b7f45524332303a20617070726f76652066726f6d20746865207a65726f2061646460008201527f7265737300000000000000000000000000000000000000000000000000000000602082015250565b60006113e8602483610ea4565b91506113f38261138c565b604082019050919050565b60006020820190508181036000830152611417816113db565b9050919050565b7f45524332303a20617070726f766520746f20746865207a65726f20616464726560008201527f7373000000000000000000000000000000000000000000000000000000000000602082015250565b600061147a602283610ea4565b91506114858261141e565b604082019050919050565b600060208201905081810360008301526114a98161146d565b9050919050565b7f45524332303a20696e73756666696369656e7420616c6c6f77616e6365000000600082015250565b60006114e6601d83610ea4565b91506114f1826114b0565b602082019050919050565b60006020820190508181036000830152611515816114d9565b9050919050565b7f45524332303a207472616e736665722066726f6d20746865207a65726f20616460008201527f6472657373000000000000000000000000000000000000000000000000000000602082015250565b6000611578602583610ea4565b91506115838261151c565b604082019050919050565b600060208201905081810360008301526115a78161156b565b9050919050565b7f45524332303a207472616e7366657220746f20746865207a65726f206164647260008201527f6573730000000000000000000000000000000000000000000000000000000000602082015250565b600061160a602383610ea4565b9150611615826115ae565b604082019050919050565b60006020820190508181036000830152611639816115fd565b9050919050565b7f45524332303a207472616e7366657220616d6f756e742065786365656473206260008201527f616c616e63650000000000000000000000000000000000000000000000000000602082015250565b600061169c602683610ea4565b91506116a782611640565b604082019050919050565b600060208201905081810360008301526116cb8161168f565b9050919050565b7f4f776e61626c653a2063616c6c6572206973206e6f7420746865206f776e6572600082015250565b6000611708602083610ea4565b9150611713826116d2565b602082019050919050565b60006020820190508181036000830152611737816116fb565b9050919050565b7f45524332303a206d696e7420746f20746865207a65726f206164647265737300600082015250565b6000611774601f83610ea4565b915061177f8261173e565b602082019050919050565b600060208201905081810360008301526117a381611767565b905091905056fea26469706673582212205549c8f446cc8d6a960f8a9ba8643b74b7a57e12330df84eee5cba4aceed8c5864736f6c63430008130033",
  "linkReferences": {},
  "deployedLinkReferences": {}
}