{
  "_format": "hh-sol-artifact-1",
  "contractName": "Platform",
  "sourceName": "contracts/Platform.sol",
  "abi": [
    {
      "inputs": [
        {
          "internalType": "uint256",
          "name": "_rewardsForProposal",
          "type": "uint256"
        },
        {
          "internalType": "uint256",
          "name": "_pricePerToken",
          "type": "uint256"
        },
        {
          "internalType": "bytes32",
          "name": "_encryptionKey",
          "type": "bytes32"
        }
      ],
      "stateMutability": "nonpayable",
      "type": "constructor"
    },
    {
      "inputs": [],
      "name": "AccountIsEncryptor",
      "type": "error"
    },
    {
      "inputs": [],
      "name": "AccountIsReporter",
      "type": "error"
    },
    {
      "inputs": [],
      "name": "AccountNotEncryptor",
      "type": "error"
    },
    {
      "inputs": [],
      "name": "AccountNotReporter",
      "type": "error"
    },
    {
      "inputs": [],
      "name": "AmountCannotBeZero",
      "type": "error"
    },
    {
      "inputs": [],
      "name": "AmountMustMatchValueExactly",
      "type": "error"
    },
    {
      "inputs": [],
      "name": "ArtistAlreadyRegistered",
      "type": "error"
    },
    {
      "inputs": [],
      "name": "ArtistDoesNotOwnSong",
      "type": "error"
    },
    {
      "inputs": [],
      "name": "ArtistNameRequired",
      "type": "error"
    },
    {
      "inputs": [],
      "name": "CannotBuyNonExclusiveSongs",
      "type": "error"
    },
    {
      "inputs": [],
      "name": "InsufficientTokenBalance",
      "type": "error"
    },
    {
      "inputs": [],
      "name": "InvalidSignature",
      "type": "error"
    },
    {
      "inputs": [],
      "name": "NoClaimableRewards",
      "type": "error"
    },
    {
      "inputs": [],
      "name": "NoUpdatesGiven",
      "type": "error"
    },
    {
      "inputs": [],
      "name": "NotARegisteredArtist",
      "type": "error"
    },
    {
      "inputs": [],
      "name": "PriceCannotBeZero",
      "type": "error"
    },
    {
      "inputs": [],
      "name": "RewardsCannotBeZero",
      "type": "error"
    },
    {
      "inputs": [],
      "name": "RewardsPerProposalZero",
      "type": "error"
    },
    {
      "inputs": [],
      "name": "SongDoesNotExist",
      "type": "error"
    },
    {
      "inputs": [],
      "name": "SongUriRequired",
      "type": "error"
    },
    {
      "inputs": [],
      "name": "SubscriptionAlreadyCreated",
      "type": "error"
    },
    {
      "inputs": [],
      "name": "SubscriptionNotCreated",
      "type": "error"
    },
    {
      "inputs": [],
      "name": "TimestampMustBeInFuture",
      "type": "error"
    },
    {
      "inputs": [
        {
          "internalType": "address",
          "name": "artist",
          "type": "address"
        },
        {
          "internalType": "uint256",
          "name": "playedMinutes",
          "type": "uint256"
        }
      ],
      "name": "UpdateInvalid",
      "type": "error"
    },
    {
      "inputs": [],
      "name": "ValueCannotBeZero",
      "type": "error"
    },
    {
      "inputs": [],
      "name": "ValueMustMatchOneOfThePlans",
      "type": "error"
    },
    {
      "inputs": [],
      "name": "VotingActive",
      "type": "error"
    },
    {
      "inputs": [],
      "name": "VotingHasNotEnded",
      "type": "error"
    },
    {
      "inputs": [],
      "name": "VotingIsAlreadyOpen",
      "type": "error"
    },
    {
      "inputs": [],
      "name": "VotingNotActive",
      "type": "error"
    },
    {
      "anonymous": false,
      "inputs": [
        {
          "indexed": true,
          "internalType": "address",
          "name": "account",
          "type": "address"
        }
      ],
      "name": "EncryptorAdded",
      "type": "event"
    },
    {
      "anonymous": false,
      "inputs": [
        {
          "indexed": true,
          "internalType": "address",
          "name": "account",
          "type": "address"
        }
      ],
      "name": "EncryptorRemoved",
      "type": "event"
    },
    {
      "anonymous": false,
      "inputs": [
        {
          "indexed": true,
          "internalType": "address",
          "name": "previousOwner",
          "type": "address"
        },
        {
          "indexed": true,
          "internalType": "address",
          "name": "newOwner",
          "type": "address"
        }
      ],
      "name": "OwnershipTransferred",
      "type": "event"
    },
    {
      "anonymous": false,
      "inputs": [],
      "name": "PlayedMinutesUpdated",
      "type": "event"
    },
    {
      "anonymous": false,
      "inputs": [
        {
          "indexed": false,
          "internalType": "uint256",
          "name": "price",
          "type": "uint256"
        }
      ],
      "name": "PricePerTokenUpdated",
      "type": "event"
    },
    {
      "anonymous": false,
      "inputs": [
        {
          "indexed": true,
          "internalType": "address",
          "name": "account",
          "type": "address"
        }
      ],
      "name": "ReporterAdded",
      "type": "event"
    },
    {
      "anonymous": false,
      "inputs": [
        {
          "indexed": true,
          "internalType": "address",
          "name": "account",
          "type": "address"
        }
      ],
      "name": "ReporterRemoved",
      "type": "event"
    },
    {
      "anonymous": false,
      "inputs": [
        {
          "indexed": true,
          "internalType": "address",
          "name": "account",
          "type": "address"
        },
        {
          "indexed": true,
          "internalType": "enum ResourceRegistration.ResourceType",
          "name": "resourceType",
          "type": "uint8"
        },
        {
          "indexed": true,
          "internalType": "uint256",
          "name": "id",
          "type": "uint256"
        },
        {
          "indexed": false,
          "internalType": "string",
          "name": "data",
          "type": "string"
        }
      ],
      "name": "ResourceRegistered",
      "type": "event"
    },
    {
      "anonymous": false,
      "inputs": [
        {
          "indexed": true,
          "internalType": "uint256",
          "name": "reward",
          "type": "uint256"
        }
      ],
      "name": "RewardForPlayedMinutesChanged",
      "type": "event"
    },
    {
      "anonymous": false,
      "inputs": [
        {
          "indexed": true,
          "internalType": "address",
          "name": "artist",
          "type": "address"
        },
        {
          "indexed": true,
          "internalType": "uint256",
          "name": "rewards",
          "type": "uint256"
        }
      ],
      "name": "RewardsClaimed",
      "type": "event"
    },
    {
      "anonymous": false,
      "inputs": [
        {
          "indexed": false,
          "internalType": "uint256",
          "name": "rewards",
          "type": "uint256"
        }
      ],
      "name": "RewardsPerProposalUpdated",
      "type": "event"
    },
    {
      "anonymous": false,
      "inputs": [
        {
          "indexed": true,
          "internalType": "address",
          "name": "account",
          "type": "address"
        },
        {
          "indexed": true,
          "internalType": "uint256",
          "name": "songId",
          "type": "uint256"
        }
      ],
      "name": "SongPurchased",
      "type": "event"
    },
    {
      "anonymous": false,
      "inputs": [
        {
          "indexed": true,
          "internalType": "address",
          "name": "account",
          "type": "address"
        },
        {
          "indexed": true,
          "internalType": "uint256",
          "name": "expirationTimestamp",
          "type": "uint256"
        },
        {
          "indexed": true,
          "internalType": "uint256",
          "name": "timestampIncrease",
          "type": "uint256"
        }
      ],
      "name": "SubscriptionCreated",
      "type": "event"
    },
    {
      "anonymous": false,
      "inputs": [
        {
          "indexed": true,
          "internalType": "address",
          "name": "account",
          "type": "address"
        },
        {
          "indexed": true,
          "internalType": "uint256",
          "name": "expirationTimestamp",
          "type": "uint256"
        },
        {
          "indexed": true,
          "internalType": "uint256",
          "name": "timestampIncrease",
          "type": "uint256"
        }
      ],
      "name": "SubscriptionFunded",
      "type": "event"
    },
    {
      "anonymous": false,
      "inputs": [
        {
          "indexed": true,
          "internalType": "uint256",
          "name": "price",
          "type": "uint256"
        },
        {
          "indexed": true,
          "internalType": "uint256",
          "name": "timestampIncrease",
          "type": "uint256"
        }
      ],
      "name": "SubscriptionPlanAdded",
      "type": "event"
    },
    {
      "anonymous": false,
      "inputs": [
        {
          "indexed": false,
          "internalType": "uint256",
          "name": "winningSongId",
          "type": "uint256"
        }
      ],
      "name": "VotingClosed",
      "type": "event"
    },
    {
      "anonymous": false,
      "inputs": [],
      "name": "VotingOpen",
      "type": "event"
    },
    {
      "inputs": [
        {
          "internalType": "address",
          "name": "account",
          "type": "address"
        }
      ],
      "name": "addEncryptor",
      "outputs": [],
      "stateMutability": "nonpayable",
      "type": "function"
    },
    {
      "inputs": [
        {
          "internalType": "address",
          "name": "account",
          "type": "address"
        }
      ],
      "name": "addReporter",
      "outputs": [],
      "stateMutability": "nonpayable",
      "type": "function"
    },
    {
      "inputs": [
        {
          "internalType": "address",
          "name": "artist",
          "type": "address"
        }
      ],
      "name": "artistClaimedMinutes",
      "outputs": [
        {
          "internalType": "uint256",
          "name": "claimedMinutes",
          "type": "uint256"
        }
      ],
      "stateMutability": "view",
      "type": "function"
    },
    {
      "inputs": [
        {
          "internalType": "address",
          "name": "account",
          "type": "address"
        }
      ],
      "name": "artistIds",
      "outputs": [
        {
          "internalType": "uint256",
          "name": "id",
          "type": "uint256"
        }
      ],
      "stateMutability": "view",
      "type": "function"
    },
    {
      "inputs": [
        {
          "internalType": "uint256",
          "name": "id",
          "type": "uint256"
        }
      ],
      "name": "artistNames",
      "outputs": [
        {
          "internalType": "string",
          "name": "name",
          "type": "string"
        }
      ],
      "stateMutability": "view",
      "type": "function"
    },
    {
      "inputs": [
        {
          "internalType": "address",
          "name": "artist",
          "type": "address"
        }
      ],
      "name": "artistPlayedMinutes",
      "outputs": [
        {
          "internalType": "uint256",
          "name": "playedMinutes",
          "type": "uint256"
        }
      ],
      "stateMutability": "view",
      "type": "function"
    },
    {
      "inputs": [
        {
          "internalType": "address",
          "name": "artist",
          "type": "address"
        }
      ],
      "name": "artistUnclaimedAmount",
      "outputs": [
        {
          "internalType": "uint256",
          "name": "",
          "type": "uint256"
        }
      ],
      "stateMutability": "view",
      "type": "function"
    },
    {
      "inputs": [
        {
          "internalType": "address",
          "name": "artist",
          "type": "address"
        },
        {
          "internalType": "uint256",
          "name": "songId",
          "type": "uint256"
        }
      ],
      "name": "buySong",
      "outputs": [],
      "stateMutability": "payable",
      "type": "function"
    },
    {
      "inputs": [
        {
          "internalType": "uint256",
          "name": "_wholeTokens",
          "type": "uint256"
        }
      ],
      "name": "buyTokens",
      "outputs": [],
      "stateMutability": "payable",
      "type": "function"
    },
    {
      "inputs": [],
      "name": "claimRewards",
      "outputs": [],
      "stateMutability": "nonpayable",
      "type": "function"
    },
    {
      "inputs": [],
      "name": "closeVotingPeriod",
      "outputs": [],
      "stateMutability": "nonpayable",
      "type": "function"
    },
    {
      "inputs": [],
      "name": "createSubscription",
      "outputs": [],
      "stateMutability": "payable",
      "type": "function"
    },
    {
      "inputs": [
        {
          "internalType": "uint256",
          "name": "id",
          "type": "uint256"
        }
      ],
      "name": "exclusiveSongPrices",
      "outputs": [
        {
          "internalType": "uint256",
          "name": "price",
          "type": "uint256"
        }
      ],
      "stateMutability": "view",
      "type": "function"
    },
    {
      "inputs": [],
      "name": "fundSubscription",
      "outputs": [],
      "stateMutability": "payable",
      "type": "function"
    },
    {
      "inputs": [
        {
          "internalType": "address",
          "name": "account",
          "type": "address"
        }
      ],
      "name": "getArtistId",
      "outputs": [
        {
          "internalType": "uint256",
          "name": "",
          "type": "uint256"
        }
      ],
      "stateMutability": "view",
      "type": "function"
    },
    {
      "inputs": [
        {
          "internalType": "address",
          "name": "account",
          "type": "address"
        }
      ],
      "name": "getArtistName",
      "outputs": [
        {
          "internalType": "string",
          "name": "",
          "type": "string"
        }
      ],
      "stateMutability": "view",
      "type": "function"
    },
    {
      "inputs": [
        {
          "internalType": "address",
          "name": "artist",
          "type": "address"
        },
        {
          "internalType": "uint256",
          "name": "songIndex",
          "type": "uint256"
        }
      ],
      "name": "getArtistSongId",
      "outputs": [
        {
          "internalType": "uint256",
          "name": "",
          "type": "uint256"
        }
      ],
      "stateMutability": "view",
      "type": "function"
    },
    {
      "inputs": [
        {
          "internalType": "address",
          "name": "artist",
          "type": "address"
        }
      ],
      "name": "getArtistSongsCount",
      "outputs": [
        {
          "internalType": "uint256",
          "name": "",
          "type": "uint256"
        }
      ],
      "stateMutability": "view",
      "type": "function"
    },
    {
      "inputs": [
        {
          "internalType": "address",
          "name": "account",
          "type": "address"
        },
        {
          "internalType": "bytes",
          "name": "signature",
          "type": "bytes"
        }
      ],
      "name": "getEncryptionKey",
      "outputs": [
        {
          "internalType": "bytes32",
          "name": "",
          "type": "bytes32"
        }
      ],
      "stateMutability": "view",
      "type": "function"
    },
    {
      "inputs": [
        {
          "internalType": "uint256",
          "name": "songId",
          "type": "uint256"
        }
      ],
      "name": "getSongUri",
      "outputs": [
        {
          "internalType": "string",
          "name": "",
          "type": "string"
        }
      ],
      "stateMutability": "view",
      "type": "function"
    },
    {
      "inputs": [
        {
          "internalType": "address",
          "name": "account",
          "type": "address"
        }
      ],
      "name": "isActiveSubscriber",
      "outputs": [
        {
          "internalType": "bool",
          "name": "",
          "type": "bool"
        }
      ],
      "stateMutability": "view",
      "type": "function"
    },
    {
      "inputs": [
        {
          "internalType": "address",
          "name": "artist",
          "type": "address"
        },
        {
          "internalType": "uint256",
          "name": "songId",
          "type": "uint256"
        }
      ],
      "name": "isArtistSong",
      "outputs": [
        {
          "internalType": "bool",
          "name": "",
          "type": "bool"
        }
      ],
      "stateMutability": "view",
      "type": "function"
    },
    {
      "inputs": [
        {
          "internalType": "address",
          "name": "account",
          "type": "address"
        },
        {
          "internalType": "uint256",
          "name": "songId",
          "type": "uint256"
        }
      ],
      "name": "isSongPurchased",
      "outputs": [
        {
          "internalType": "bool",
          "name": "",
          "type": "bool"
        }
      ],
      "stateMutability": "view",
      "type": "function"
    },
    {
      "inputs": [],
      "name": "isVotingPeriodActive",
      "outputs": [
        {
          "internalType": "bool",
          "name": "",
          "type": "bool"
        }
      ],
      "stateMutability": "view",
      "type": "function"
    },
    {
      "inputs": [
        {
          "internalType": "uint256",
          "name": "endTimestamp",
          "type": "uint256"
        }
      ],
      "name": "openVotingPeriod",
      "outputs": [],
      "stateMutability": "nonpayable",
      "type": "function"
    },
    {
      "inputs": [],
      "name": "owner",
      "outputs": [
        {
          "internalType": "address",
          "name": "",
          "type": "address"
        }
      ],
      "stateMutability": "view",
      "type": "function"
    },
    {
      "inputs": [],
      "name": "pricePerToken",
      "outputs": [
        {
          "internalType": "uint256",
          "name": "",
          "type": "uint256"
        }
      ],
      "stateMutability": "view",
      "type": "function"
    },
    {
      "inputs": [
        {
          "internalType": "string",
          "name": "name",
          "type": "string"
        }
      ],
      "name": "registerArtist",
      "outputs": [],
      "stateMutability": "nonpayable",
      "type": "function"
    },
    {
      "inputs": [
        {
          "internalType": "string",
          "name": "uri",
          "type": "string"
        },
        {
          "internalType": "uint256",
          "name": "exclusivePrice",
          "type": "uint256"
        }
      ],
      "name": "registerSong",
      "outputs": [],
      "stateMutability": "nonpayable",
      "type": "function"
    },
    {
      "inputs": [
        {
          "internalType": "address",
          "name": "account",
          "type": "address"
        }
      ],
      "name": "removeEncryptor",
      "outputs": [],
      "stateMutability": "nonpayable",
      "type": "function"
    },
    {
      "inputs": [
        {
          "internalType": "address",
          "name": "account",
          "type": "address"
        }
      ],
      "name": "removeReporter",
      "outputs": [],
      "stateMutability": "nonpayable",
      "type": "function"
    },
    {
      "inputs": [],
      "name": "renounceOwnership",
      "outputs": [],
      "stateMutability": "nonpayable",
      "type": "function"
    },
    {
      "inputs": [],
      "name": "rewardForPlayedMinute",
      "outputs": [
        {
          "internalType": "uint256",
          "name": "",
          "type": "uint256"
        }
      ],
      "stateMutability": "view",
      "type": "function"
    },
    {
      "inputs": [],
      "name": "rewardsPerProposal",
      "outputs": [
        {
          "internalType": "uint256",
          "name": "",
          "type": "uint256"
        }
      ],
      "stateMutability": "view",
      "type": "function"
    },
    {
      "inputs": [],
      "name": "rewardsToken",
      "outputs": [
        {
          "internalType": "contract JustToken",
          "name": "",
          "type": "address"
        }
      ],
      "stateMutability": "view",
      "type": "function"
    },
    {
      "inputs": [
        {
          "internalType": "uint256",
          "name": "_wholeTokens",
          "type": "uint256"
        },
        {
          "internalType": "address",
          "name": "_receiver",
          "type": "address"
        }
      ],
      "name": "sellTokens",
      "outputs": [],
      "stateMutability": "nonpayable",
      "type": "function"
    },
    {
      "inputs": [
        {
          "internalType": "uint256",
          "name": "_price",
          "type": "uint256"
        }
      ],
      "name": "setPricePerToken",
      "outputs": [],
      "stateMutability": "nonpayable",
      "type": "function"
    },
    {
      "inputs": [
        {
          "internalType": "uint256",
          "name": "reward",
          "type": "uint256"
        }
      ],
      "name": "setRewardForPlayedMinute",
      "outputs": [],
      "stateMutability": "nonpayable",
      "type": "function"
    },
    {
      "inputs": [
        {
          "internalType": "uint256",
          "name": "_rewards",
          "type": "uint256"
        }
      ],
      "name": "setRewardsPerProposal",
      "outputs": [],
      "stateMutability": "nonpayable",
      "type": "function"
    },
    {
      "inputs": [
        {
          "internalType": "uint256",
          "name": "price",
          "type": "uint256"
        },
        {
          "internalType": "uint256",
          "name": "timestampIncrease",
          "type": "uint256"
        }
      ],
      "name": "setSubscriptionPlan",
      "outputs": [],
      "stateMutability": "nonpayable",
      "type": "function"
    },
    {
      "inputs": [
        {
          "internalType": "uint256",
          "name": "price",
          "type": "uint256"
        }
      ],
      "name": "subscriptionPlanIntervals",
      "outputs": [
        {
          "internalType": "uint256",
          "name": "interval",
          "type": "uint256"
        }
      ],
      "stateMutability": "view",
      "type": "function"
    },
    {
      "inputs": [
        {
          "internalType": "address",
          "name": "account",
          "type": "address"
        }
      ],
      "name": "subscriptions",
      "outputs": [
        {
          "internalType": "uint256",
          "name": "expirationTimestamp",
          "type": "uint256"
        }
      ],
      "stateMutability": "view",
      "type": "function"
    },
    {
      "inputs": [
        {
          "internalType": "address",
          "name": "newOwner",
          "type": "address"
        }
      ],
      "name": "transferOwnership",
      "outputs": [],
      "stateMutability": "nonpayable",
      "type": "function"
    },
    {
      "inputs": [
        {
          "components": [
            {
              "internalType": "address",
              "name": "artist",
              "type": "address"
            },
            {
              "internalType": "uint256",
              "name": "playedMinutes",
              "type": "uint256"
            }
          ],
          "internalType": "struct UpdatePlayedMinutes.ArtistUpdate[]",
          "name": "updates",
          "type": "tuple[]"
        }
      ],
      "name": "updatePlayedMinutes",
      "outputs": [],
      "stateMutability": "nonpayable",
      "type": "function"
    },
    {
      "inputs": [
        {
          "internalType": "uint256",
          "name": "_songId",
          "type": "uint256"
        }
      ],
      "name": "vote",
      "outputs": [],
      "stateMutability": "nonpayable",
      "type": "function"
    }
  ],
  "bytecode": "0x60806040523480156200001157600080fd5b5060405162006ff138038062006ff183398181016040528101906200003791906200030d565b80838360016000819055506200006262000056620001b660201b60201c565b620001be60201b60201c565b6435e55f19096003819055506003547fde2a550feb6ab90bd4c3e2d079c1e9f15fa6c1616cd90660836219be038742e960405160405180910390a260008211620000e3576040517f08c379a0000000000000000000000000000000000000000000000000000000008152600401620000da90620003ca565b60405180910390fd5b6000811162000129576040517f08c379a000000000000000000000000000000000000000000000000000000000815260040162000120906200043c565b60405180910390fd5b604051620001379062000284565b604051809103906000f08015801562000154573d6000803e3d6000fd5b50600260006101000a81548173ffffffffffffffffffffffffffffffffffffffff021916908373ffffffffffffffffffffffffffffffffffffffff1602179055508160058190555080601381905550505080600481905550505050506200045e565b600033905090565b6000600160009054906101000a900473ffffffffffffffffffffffffffffffffffffffff16905081600160006101000a81548173ffffffffffffffffffffffffffffffffffffffff021916908373ffffffffffffffffffffffffffffffffffffffff1602179055508173ffffffffffffffffffffffffffffffffffffffff168173ffffffffffffffffffffffffffffffffffffffff167f8be0079c531659141344cd1fd0a4f28419497f9722a3daafe3b4186f6b6457e060405160405180910390a35050565b611ce9806200530883390190565b600080fd5b6000819050919050565b620002ac8162000297565b8114620002b857600080fd5b50565b600081519050620002cc81620002a1565b92915050565b6000819050919050565b620002e781620002d2565b8114620002f357600080fd5b50565b6000815190506200030781620002dc565b92915050565b60008060006060848603121562000329576200032862000292565b5b60006200033986828701620002bb565b93505060206200034c86828701620002bb565b92505060406200035f86828701620002f6565b9150509250925092565b600082825260208201905092915050565b7f5265776172647320666f722070726f706f73616c206973207a65726f00000000600082015250565b6000620003b2601c8362000369565b9150620003bf826200037a565b602082019050919050565b60006020820190508181036000830152620003e581620003a3565b9050919050565b7f5072696365206973207a65726f00000000000000000000000000000000000000600082015250565b600062000424600d8362000369565b91506200043182620003ec565b602082019050919050565b60006020820190508181036000830152620004578162000415565b9050919050565b614e9a806200046e6000396000f3fe6080604052600436106102725760003560e01c80637ab9e7fb1161014f578063c7063266116100c1578063e066765e1161007a578063e066765e1461095e578063e3c266dd1461099b578063f0400d3c146109c4578063f046395a146109ed578063f08bf9ad14610a2a578063f2fde38b14610a5557610272565b8063c70632661461083e578063d1af0c7d1461087b578063d850b1d2146108a6578063d8da18e4146108cf578063dd8755f21461090c578063dedbe3061461093557610272565b80639355d419116101135780639355d4191461073d5780639fcc5ce414610766578063a0a96d5a14610791578063a21a23e4146107ce578063b36349dc146107d8578063c47279401461081557610272565b80637ab9e7fb146106565780637b1b1de6146106815780637e871c82146106ac5780638da5cb5b146106d55780638e048e751461070057610272565b80634655c9a9116101e85780635de5c212116101ac5780635de5c2121461054a5780635fcbb047146105735780636269bd01146105b0578063670f7151146105ed5780636f78fe6214610616578063715018a61461063f57610272565b80634655c9a9146104725780634c49d7d5146104af5780634de98e09146104ec578063575f08ff1461050357806357ace39b1461054057610272565b806323c3dd371161023a57806323c3dd371461037357806326be93971461039c5780632bf2762f146103d95780633610724e14610402578063372500ab1461041e57806344ee01191461043557610272565b80630121b93f14610277578063030ae9ab146102a05780630a0ef451146102dd5780631ac5f3311461031a5780631b39152d14610336575b600080fd5b34801561028357600080fd5b5061029e60048036038101906102999190613917565b610a7e565b005b3480156102ac57600080fd5b506102c760048036038101906102c291906139a2565b610ae0565b6040516102d491906139de565b60405180910390f35b3480156102e957600080fd5b5061030460048036038101906102ff9190613917565b610b71565b60405161031191906139de565b60405180910390f35b610334600480360381019061032f91906139f9565b610b89565b005b34801561034257600080fd5b5061035d600480360381019061035891906139a2565b610dce565b60405161036a91906139de565b60405180910390f35b34801561037f57600080fd5b5061039a60048036038101906103959190613917565b610de6565b005b3480156103a857600080fd5b506103c360048036038101906103be91906139f9565b610e38565b6040516103d09190613a54565b60405180910390f35b3480156103e557600080fd5b5061040060048036038101906103fb9190613917565b610e4c565b005b61041c60048036038101906104179190613917565b610e9e565b005b34801561042a57600080fd5b5061043361113e565b005b34801561044157600080fd5b5061045c60048036038101906104579190613ad4565b611303565b6040516104699190613b4d565b60405180910390f35b34801561047e57600080fd5b5061049960048036038101906104949190613917565b611325565b6040516104a69190613bf8565b60405180910390f35b3480156104bb57600080fd5b506104d660048036038101906104d19190613917565b6113ca565b6040516104e391906139de565b60405180910390f35b3480156104f857600080fd5b506105016113e2565b005b34801561050f57600080fd5b5061052a600480360381019061052591906139f9565b611440565b6040516105379190613a54565b60405180910390f35b6105486114a8565b005b34801561055657600080fd5b50610571600480360381019061056c91906139a2565b6115ce565b005b34801561057f57600080fd5b5061059a600480360381019061059591906139a2565b61167d565b6040516105a791906139de565b60405180910390f35b3480156105bc57600080fd5b506105d760048036038101906105d291906139f9565b611695565b6040516105e491906139de565b60405180910390f35b3480156105f957600080fd5b50610614600480360381019061060f9190613c1a565b6116fb565b005b34801561062257600080fd5b5061063d60048036038101906106389190613917565b6118e2565b005b34801561064b57600080fd5b50610654611939565b005b34801561066257600080fd5b5061066b61194d565b60405161067891906139de565b60405180910390f35b34801561068d57600080fd5b50610696611953565b6040516106a391906139de565b60405180910390f35b3480156106b857600080fd5b506106d360048036038101906106ce91906139a2565b611959565b005b3480156106e157600080fd5b506106ea611a08565b6040516106f79190613c69565b60405180910390f35b34801561070c57600080fd5b50610727600480360381019061072291906139a2565b611a32565b6040516107349190613a54565b60405180910390f35b34801561074957600080fd5b50610764600480360381019061075f9190613cda565b611a7e565b005b34801561077257600080fd5b5061077b611ae2565b6040516107889190613a54565b60405180910390f35b34801561079d57600080fd5b506107b860048036038101906107b39190613917565b611af1565b6040516107c59190613bf8565b60405180910390f35b6107d6611b91565b005b3480156107e457600080fd5b506107ff60048036038101906107fa91906139a2565b611c57565b60405161080c9190613bf8565b60405180910390f35b34801561082157600080fd5b5061083c60048036038101906108379190613d27565b611d3b565b005b34801561084a57600080fd5b50610865600480360381019061086091906139a2565b611da7565b60405161087291906139de565b60405180910390f35b34801561088757600080fd5b50610890611df0565b60405161089d9190613dc6565b60405180910390f35b3480156108b257600080fd5b506108cd60048036038101906108c891906139a2565b611e16565b005b3480156108db57600080fd5b506108f660048036038101906108f191906139a2565b611ec5565b60405161090391906139de565b60405180910390f35b34801561091857600080fd5b50610933600480360381019061092e91906139a2565b611edd565b005b34801561094157600080fd5b5061095c60048036038101906109579190613de1565b611f8c565b005b34801561096a57600080fd5b50610985600480360381019061098091906139a2565b611ff2565b60405161099291906139de565b60405180910390f35b3480156109a757600080fd5b506109c260048036038101906109bd9190613e97565b61203b565b005b3480156109d057600080fd5b506109eb60048036038101906109e69190613917565b61211a565b005b3480156109f957600080fd5b50610a146004803603810190610a0f91906139a2565b612168565b604051610a2191906139de565b60405180910390f35b348015610a3657600080fd5b50610a3f612180565b604051610a4c91906139de565b60405180910390f35b348015610a6157600080fd5b50610a7c6004803603810190610a7791906139a2565b612186565b005b610a86612209565b6000601560008381526020019081526020016000205403610aab57610aaa81612249565b5b601560008281526020019081526020016000206000815480929190610acf90613f13565b9190505550610add336122c6565b50565b6000610b6a600a60008473ffffffffffffffffffffffffffffffffffffffff1673ffffffffffffffffffffffffffffffffffffffff16815260200190815260200160002054600b60008573ffffffffffffffffffffffffffffffffffffffff1673ffffffffffffffffffffffffffffffffffffffff168152602001908152602001600020546123b7565b9050919050565b60126020528060005260406000206000915090505481565b610b92816123da565b610b9b81612436565b610ba58282612486565b6000600d60008381526020019081526020016000205490506000600260009054906101000a900473ffffffffffffffffffffffffffffffffffffffff1673ffffffffffffffffffffffffffffffffffffffff1663313ce5676040518163ffffffff1660e01b8152600401602060405180830381865afa158015610c2c573d6000803e3d6000fd5b505050506040513d601f19601f82011682018060405250810190610c509190613f94565b60ff169050600081600a610c6491906140f4565b905060008184610c74919061413f565b9050600260009054906101000a900473ffffffffffffffffffffffffffffffffffffffff1673ffffffffffffffffffffffffffffffffffffffff166323b872dd3388846040518463ffffffff1660e01b8152600401610cd593929190614181565b6020604051808303816000875af1158015610cf4573d6000803e3d6000fd5b505050506040513d601f19601f82011682018060405250810190610d1891906141e4565b506001600c60003373ffffffffffffffffffffffffffffffffffffffff1673ffffffffffffffffffffffffffffffffffffffff168152602001908152602001600020600087815260200190815260200160002060006101000a81548160ff021916908315150217905550843373ffffffffffffffffffffffffffffffffffffffff167fe20750a4417f37bd85a195d63720cb1c314963d8888dc41e6323fed4805542ac60405160405180910390a3505050505050565b600a6020528060005260406000206000915090505481565b610dee6124ca565b610df781612548565b806005819055507f72ea2c9c38b647a7ef112a9939feedf39954cffb5d3639491a358ac0adf950a681604051610e2d91906139de565b60405180910390a150565b6000610e448383612585565b905092915050565b610e546124ca565b610e5d81612662565b806013819055507f3200057f39b60b2ce0d5c0768cd90469dc468a882eec07ce1802fef660ebee5981604051610e9391906139de565b60405180910390a150565b610ea78161269f565b610eb0816126dc565b6000600260009054906101000a900473ffffffffffffffffffffffffffffffffffffffff1673ffffffffffffffffffffffffffffffffffffffff166370a08231306040518263ffffffff1660e01b8152600401610f0d9190613c69565b602060405180830381865afa158015610f2a573d6000803e3d6000fd5b505050506040513d601f19601f82011682018060405250810190610f4e9190614226565b90506000600260009054906101000a900473ffffffffffffffffffffffffffffffffffffffff1673ffffffffffffffffffffffffffffffffffffffff1663313ce5676040518163ffffffff1660e01b8152600401602060405180830381865afa158015610fbf573d6000803e3d6000fd5b505050506040513d601f19601f82011682018060405250810190610fe39190613f94565b600a610fef9190614253565b83610ffa919061413f565b90508082106110a957600260009054906101000a900473ffffffffffffffffffffffffffffffffffffffff1673ffffffffffffffffffffffffffffffffffffffff1663a9059cbb33836040518363ffffffff1660e01b815260040161106092919061429e565b6020604051808303816000875af115801561107f573d6000803e3d6000fd5b505050506040513d601f19601f820116820180604052508101906110a391906141e4565b50611139565b600260009054906101000a900473ffffffffffffffffffffffffffffffffffffffff1673ffffffffffffffffffffffffffffffffffffffff166340c10f1933836040518363ffffffff1660e01b815260040161110692919061429e565b600060405180830381600087803b15801561112057600080fd5b505af1158015611134573d6000803e3d6000fd5b505050505b505050565b61114661272b565b61114e61277a565b6111566127f5565b6000600a60003373ffffffffffffffffffffffffffffffffffffffff1673ffffffffffffffffffffffffffffffffffffffff1681526020019081526020016000205490506000600b60003373ffffffffffffffffffffffffffffffffffffffff1673ffffffffffffffffffffffffffffffffffffffff16815260200190815260200160002054905060006111ea83836123b7565b905081836111f891906142c7565b600b60003373ffffffffffffffffffffffffffffffffffffffff1673ffffffffffffffffffffffffffffffffffffffff1681526020019081526020016000208190555060003373ffffffffffffffffffffffffffffffffffffffff16826040516112619061432c565b60006040518083038185875af1925050503d806000811461129e576040519150601f19603f3d011682016040523d82523d6000602084013e6112a3565b606091505b50509050806112b157600080fd5b813373ffffffffffffffffffffffffffffffffffffffff167ffc30cddea38e2bf4d6ea7d3f9ed3b6ad7f176419f4963bd81318067a4aee73fe60405160405180910390a3505050506113016128cc565b565b600061130e846128d6565b61131984848461295c565b60045490509392505050565b606060076000838152602001908152602001600020805461134590614370565b80601f016020809104026020016040519081016040528092919081815260200182805461137190614370565b80156113be5780601f10611393576101008083540402835291602001916113be565b820191906000526020600020905b8154815290600101906020018083116113a157829003601f168201915b50505050509050919050565b600d6020528060005260406000206000915090505481565b6113ea6129cf565b60006014819055506113fa612a1b565b6000611404612b1e565b90507f8e9b46a70b3967bc9ea56ca61732c363a191fac88ae3ba011f4e030711c901178160405161143591906139de565b60405180910390a150565b6000600c60008473ffffffffffffffffffffffffffffffffffffffff1673ffffffffffffffffffffffffffffffffffffffff168152602001908152602001600020600083815260200190815260200160002060009054906101000a900460ff16905092915050565b6114b0612b92565b6000601260003481526020019081526020016000205490506114d181612c0d565b600080601160003373ffffffffffffffffffffffffffffffffffffffff1673ffffffffffffffffffffffffffffffffffffffff1681526020019081526020016000205490504281101561153157824261152a91906142c7565b9150611540565b828161153d91906142c7565b91505b81601160003373ffffffffffffffffffffffffffffffffffffffff1673ffffffffffffffffffffffffffffffffffffffff1681526020019081526020016000208190555082823373ffffffffffffffffffffffffffffffffffffffff167fb3abbf202f180f33d8c665604028b8c2bc6db0b430eee642e6a87c332ba9df3a60405160405180910390a4505050565b6115d66124ca565b6115df81612c4a565b6000600e60008373ffffffffffffffffffffffffffffffffffffffff1673ffffffffffffffffffffffffffffffffffffffff16815260200190815260200160002060006101000a81548160ff0219169083151502179055508073ffffffffffffffffffffffffffffffffffffffff167ff125aa5e6cb22c17ea0de4e1f86d2ff289ddd6a37e791b9ad29d0091cba06ac860405160405180910390a250565b60066020528060005260406000206000915090505481565b6000600860008473ffffffffffffffffffffffffffffffffffffffff1673ffffffffffffffffffffffffffffffffffffffff16815260200190815260200160002082815481106116e8576116e76143a1565b5b9060005260206000200154905092915050565b6117048261269f565b6000600260009054906101000a900473ffffffffffffffffffffffffffffffffffffffff1673ffffffffffffffffffffffffffffffffffffffff1663313ce5676040518163ffffffff1660e01b8152600401602060405180830381865afa158015611773573d6000803e3d6000fd5b505050506040513d601f19601f820116820180604052508101906117979190613f94565b600a6117a39190614253565b836117ae919061413f565b9050600260009054906101000a900473ffffffffffffffffffffffffffffffffffffffff1673ffffffffffffffffffffffffffffffffffffffff166323b872dd3330846040518463ffffffff1660e01b815260040161180f93929190614181565b6020604051808303816000875af115801561182e573d6000803e3d6000fd5b505050506040513d601f19601f8201168201806040525081019061185291906141e4565b50600060135484611863919061413f565b905060008373ffffffffffffffffffffffffffffffffffffffff168260405161188b9061432c565b60006040518083038185875af1925050503d80600081146118c8576040519150601f19603f3d011682016040523d82523d6000602084013e6118cd565b606091505b50509050806118db57600080fd5b5050505050565b6118ea6124ca565b6118f2612cd0565b6118fb81612d11565b8060148190555061190a612d4d565b7f8089789a86616a2428e26766961eaaa205ab084aac14a9cb98704e59af2b89e660405160405180910390a150565b6119416124ca565b61194b6000612dbd565b565b60055481565b60135481565b6119616124ca565b61196a816128d6565b6000600f60008373ffffffffffffffffffffffffffffffffffffffff1673ffffffffffffffffffffffffffffffffffffffff16815260200190815260200160002060006101000a81548160ff0219169083151502179055508073ffffffffffffffffffffffffffffffffffffffff167f831fe45b7aa67ec3bed8b685a1393377d63415609ea28cd6c46c957cd206ace460405160405180910390a250565b6000600160009054906101000a900473ffffffffffffffffffffffffffffffffffffffff16905090565b600042601160008473ffffffffffffffffffffffffffffffffffffffff1673ffffffffffffffffffffffffffffffffffffffff1681526020019081526020016000205410159050919050565b611a888282612e83565b611a90612ec4565b611ade3383838080601f016020809104026020016040519081016040528093929190818152602001838380828437600081840152601f19601f82011690508083019250505050505050612f40565b5050565b6000611aec61304c565b905090565b60106020528060005260406000206000915090508054611b1090614370565b80601f0160208091040260200160405190810160405280929190818152602001828054611b3c90614370565b8015611b895780601f10611b5e57610100808354040283529160200191611b89565b820191906000526020600020905b815481529060010190602001808311611b6c57829003601f168201915b505050505081565b611b99613059565b600060126000348152602001908152602001600020549050611bba81612c0d565b60008142611bc891906142c7565b905080601160003373ffffffffffffffffffffffffffffffffffffffff1673ffffffffffffffffffffffffffffffffffffffff1681526020019081526020016000208190555081813373ffffffffffffffffffffffffffffffffffffffff167feec977e786e7248a658b0474ccf8f57f37ead019014ec4d5ba1542ddabeff1b460405160405180910390a45050565b606060106000600660008573ffffffffffffffffffffffffffffffffffffffff1673ffffffffffffffffffffffffffffffffffffffff1681526020019081526020016000205481526020019081526020016000208054611cb690614370565b80601f0160208091040260200160405190810160405280929190818152602001828054611ce290614370565b8015611d2f5780601f10611d0457610100808354040283529160200191611d2f565b820191906000526020600020905b815481529060010190602001808311611d1257829003601f168201915b50505050509050919050565b611d436124ca565b60008211611d5057600080fd5b60008111611d5d57600080fd5b80601260008481526020019081526020016000208190555080827f54cba80c24bb8b943b0467102348972ab8b8d832c8fe766604a41205029bdeb560405160405180910390a35050565b6000600960008373ffffffffffffffffffffffffffffffffffffffff1673ffffffffffffffffffffffffffffffffffffffff168152602001908152602001600020549050919050565b600260009054906101000a900473ffffffffffffffffffffffffffffffffffffffff1681565b611e1e6124ca565b611e27816130d5565b6001600f60008373ffffffffffffffffffffffffffffffffffffffff1673ffffffffffffffffffffffffffffffffffffffff16815260200190815260200160002060006101000a81548160ff0219169083151502179055508073ffffffffffffffffffffffffffffffffffffffff167ff6c9f98033b9dff108e3563ef16e2eeed997d551b8b5dd48be580ca3f92316a560405160405180910390a250565b600b6020528060005260406000206000915090505481565b611ee56124ca565b611eee8161315c565b6001600e60008373ffffffffffffffffffffffffffffffffffffffff1673ffffffffffffffffffffffffffffffffffffffff16815260200190815260200160002060006101000a81548160ff0219169083151502179055508073ffffffffffffffffffffffffffffffffffffffff167f52824c4a4d431c73d6d24a91f775d722860111c6d30da30b0b21e062fb4c736560405160405180910390a250565b611f9683836131e3565b611f9e61277a565b611fed3384848080601f016020809104026020016040519081016040528093929190818152602001838380828437600081840152601f19601f8201169050808301925050505050505083613224565b505050565b6000600660008373ffffffffffffffffffffffffffffffffffffffff1673ffffffffffffffffffffffffffffffffffffffff168152602001908152602001600020549050919050565b61204433612c4a565b61204e82826133bf565b60005b828290508110156120e9576000838383818110612071576120706143a1565b5b90506040020180360381019061208791906144a0565b90508060200151600a6000836000015173ffffffffffffffffffffffffffffffffffffffff1673ffffffffffffffffffffffffffffffffffffffff168152602001908152602001600020819055505080806120e190613f13565b915050612051565b507fb1f4c00fef5089fc65c077ba0529ff566678425b72c5ef25184eb9158cf006eb60405160405180910390a15050565b6121226124ca565b6000811161212f57600080fd5b806003819055506003547fde2a550feb6ab90bd4c3e2d079c1e9f15fa6c1616cd90660836219be038742e960405160405180910390a250565b60116020528060005260406000206000915090505481565b60035481565b61218e6124ca565b600073ffffffffffffffffffffffffffffffffffffffff168173ffffffffffffffffffffffffffffffffffffffff16036121fd576040517f08c379a00000000000000000000000000000000000000000000000000000000081526004016121f49061453f565b60405180910390fd5b61220681612dbd565b50565b61221161304c565b612247576040517f9b8cc47500000000000000000000000000000000000000000000000000000000815260040160405180910390fd5b565b601754601680549050036122855760168190806001815401808255809150506001900390600052602060002001600090919091909150556122ab565b8060166017548154811061229c5761229b6143a1565b5b90600052602060002001819055505b601760008154809291906122be90613f13565b919050555050565b6019546018805490500361233c576018819080600181540180825580915050600190039060005260206000200160009091909190916101000a81548173ffffffffffffffffffffffffffffffffffffffff021916908373ffffffffffffffffffffffffffffffffffffffff16021790555061239c565b80601860195481548110612353576123526143a1565b5b9060005260206000200160006101000a81548173ffffffffffffffffffffffffffffffffffffffff021916908373ffffffffffffffffffffffffffffffffffffffff1602179055505b601960008154809291906123af90613f13565b919050555050565b600081836123c5919061455f565b6003546123d2919061413f565b905092915050565b60006007600083815260200190815260200160002080546123fa90614370565b905003612433576040517f439dd45c00000000000000000000000000000000000000000000000000000000815260040160405180910390fd5b50565b6000600d60008381526020019081526020016000205403612483576040517f298763a600000000000000000000000000000000000000000000000000000000815260040160405180910390fd5b50565b6124908282612585565b6124c6576040517f46b47f2500000000000000000000000000000000000000000000000000000000815260040160405180910390fd5b5050565b6124d261357d565b73ffffffffffffffffffffffffffffffffffffffff166124f0611a08565b73ffffffffffffffffffffffffffffffffffffffff1614612546576040517f08c379a000000000000000000000000000000000000000000000000000000000815260040161253d906145df565b60405180910390fd5b565b60008103612582576040517f6629597700000000000000000000000000000000000000000000000000000000815260040160405180910390fd5b50565b600080600960008573ffffffffffffffffffffffffffffffffffffffff1673ffffffffffffffffffffffffffffffffffffffff16815260200190815260200160002054905060005b818110156126555783600860008773ffffffffffffffffffffffffffffffffffffffff1673ffffffffffffffffffffffffffffffffffffffff1681526020019081526020016000208281548110612627576126266143a1565b5b9060005260206000200154036126425760019250505061265c565b808061264d90613f13565b9150506125cd565b5060009150505b92915050565b6000810361269c576040517f2c669f0a00000000000000000000000000000000000000000000000000000000815260040160405180910390fd5b50565b600081036126d9576040517fd11b25af00000000000000000000000000000000000000000000000000000000815260040160405180910390fd5b50565b6000601354826126ec919061413f565b9050348114612727576040517f03862d0b00000000000000000000000000000000000000000000000000000000815260040160405180910390fd5b5050565b600260005403612770576040517f08c379a00000000000000000000000000000000000000000000000000000000081526004016127679061464b565b60405180910390fd5b6002600081905550565b6000600660003373ffffffffffffffffffffffffffffffffffffffff1673ffffffffffffffffffffffffffffffffffffffff16815260200190815260200160002054036127f3576040517f5ba4c78d00000000000000000000000000000000000000000000000000000000815260040160405180910390fd5b565b6000600a60003373ffffffffffffffffffffffffffffffffffffffff1673ffffffffffffffffffffffffffffffffffffffff1681526020019081526020016000205490506000600b60003373ffffffffffffffffffffffffffffffffffffffff1673ffffffffffffffffffffffffffffffffffffffff1681526020019081526020016000205490506000818361288b919061455f565b9050600081036128c7576040517ff40c208900000000000000000000000000000000000000000000000000000000815260040160405180910390fd5b505050565b6001600081905550565b600f60008273ffffffffffffffffffffffffffffffffffffffff1673ffffffffffffffffffffffffffffffffffffffff16815260200190815260200160002060009054906101000a900460ff16612959576040517fa7fda99900000000000000000000000000000000000000000000000000000000815260040160405180910390fd5b50565b60008360405160200161296f9190613c69565b60405160208183030381529060405280519060200120905061299384828585613585565b6129c9576040517f8baa579f00000000000000000000000000000000000000000000000000000000815260040160405180910390fd5b50505050565b601454421180156129e257506000601454105b15612a19576040517ffb196f7500000000000000000000000000000000000000000000000000000000815260040160405180910390fd5b565b60005b601954811015612b1b57600060188281548110612a3e57612a3d6143a1565b5b9060005260206000200160009054906101000a900473ffffffffffffffffffffffffffffffffffffffff1690506000612a756136c7565b9050600260009054906101000a900473ffffffffffffffffffffffffffffffffffffffff1673ffffffffffffffffffffffffffffffffffffffff166340c10f1983836040518363ffffffff1660e01b8152600401612ad492919061429e565b600060405180830381600087803b158015612aee57600080fd5b505af1158015612b02573d6000803e3d6000fd5b5050505050508080612b1390613f13565b915050612a1e565b50565b60008060005b601754811015612b8d57600060168281548110612b4457612b436143a1565b5b9060005260206000200154905060006015600083815260200190815260200160002054905083811115612b78578093508194505b50508080612b8590613f13565b915050612b24565b505090565b6000601160003373ffffffffffffffffffffffffffffffffffffffff1673ffffffffffffffffffffffffffffffffffffffff1681526020019081526020016000205403612c0b576040517f0ba7474000000000000000000000000000000000000000000000000000000000815260040160405180910390fd5b565b60008103612c47576040517f64fc58f000000000000000000000000000000000000000000000000000000000815260040160405180910390fd5b50565b600e60008273ffffffffffffffffffffffffffffffffffffffff1673ffffffffffffffffffffffffffffffffffffffff16815260200190815260200160002060009054906101000a900460ff16612ccd576040517fed8b45b100000000000000000000000000000000000000000000000000000000815260040160405180910390fd5b50565b612cd861304c565b15612d0f576040517fa9d47e0400000000000000000000000000000000000000000000000000000000815260040160405180910390fd5b565b428111612d4a576040517fc733873c00000000000000000000000000000000000000000000000000000000815260040160405180910390fd5b50565b60005b601754811015612daa57600060168281548110612d7057612d6f6143a1565b5b9060005260206000200154905060006015600083815260200190815260200160002081905550508080612da290613f13565b915050612d50565b5060006019819055506000601781905550565b6000600160009054906101000a900473ffffffffffffffffffffffffffffffffffffffff16905081600160006101000a81548173ffffffffffffffffffffffffffffffffffffffff021916908373ffffffffffffffffffffffffffffffffffffffff1602179055508173ffffffffffffffffffffffffffffffffffffffff168173ffffffffffffffffffffffffffffffffffffffff167f8be0079c531659141344cd1fd0a4f28419497f9722a3daafe3b4186f6b6457e060405160405180910390a35050565b60008282905003612ec0576040517fd9a5fbfc00000000000000000000000000000000000000000000000000000000815260040160405180910390fd5b5050565b6000600660003373ffffffffffffffffffffffffffffffffffffffff1673ffffffffffffffffffffffffffffffffffffffff168152602001908152602001600020541115612f3e576040517f9b70f42400000000000000000000000000000000000000000000000000000000815260040160405180910390fd5b565b6000612f4a6136de565b90506000601060008381526020019081526020016000208054612f6c90614370565b90501115612f7f57612f7c6136de565b90505b81601060008381526020019081526020016000209081612f9f919061480d565b5080600660008573ffffffffffffffffffffffffffffffffffffffff1673ffffffffffffffffffffffffffffffffffffffff168152602001908152602001600020819055508060016002811115612ff957612ff86148df565b5b8473ffffffffffffffffffffffffffffffffffffffff167f530708815c9407cb1f2859a353ee291d1acfe7a488d4347780a1d35690b907268560405161303f9190613bf8565b60405180910390a4505050565b6000426014541015905090565b6000601160003373ffffffffffffffffffffffffffffffffffffffff1673ffffffffffffffffffffffffffffffffffffffff1681526020019081526020016000205411156130d3576040517fefecdc3c00000000000000000000000000000000000000000000000000000000815260040160405180910390fd5b565b600f60008273ffffffffffffffffffffffffffffffffffffffff1673ffffffffffffffffffffffffffffffffffffffff16815260200190815260200160002060009054906101000a900460ff1615613159576040517febca463b00000000000000000000000000000000000000000000000000000000815260040160405180910390fd5b50565b600e60008273ffffffffffffffffffffffffffffffffffffffff1673ffffffffffffffffffffffffffffffffffffffff16815260200190815260200160002060009054906101000a900460ff16156131e0576040517f18d9ae0900000000000000000000000000000000000000000000000000000000815260040160405180910390fd5b50565b60008282905003613220576040517fe7f85e7900000000000000000000000000000000000000000000000000000000815260040160405180910390fd5b5050565b600061322e6136de565b9050600060076000838152602001908152602001600020805461325090614370565b90501115613263576132606136de565b90505b82600760008381526020019081526020016000209081613283919061480d565b50600860008573ffffffffffffffffffffffffffffffffffffffff1673ffffffffffffffffffffffffffffffffffffffff168152602001908152602001600020819080600181540180825580915050600190039060005260206000200160009091909190915055600960008573ffffffffffffffffffffffffffffffffffffffff1673ffffffffffffffffffffffffffffffffffffffff168152602001908152602001600020600081548092919061333a90613f13565b919050555081600d6000838152602001908152602001600020819055508060028081111561336b5761336a6148df565b5b8573ffffffffffffffffffffffffffffffffffffffff167f530708815c9407cb1f2859a353ee291d1acfe7a488d4347780a1d35690b90726866040516133b19190613bf8565b60405180910390a450505050565b600082829050036133fc576040517ff2486cbe00000000000000000000000000000000000000000000000000000000815260040160405180910390fd5b60005b8282905081101561357857600083838381811061341f5761341e6143a1565b5b90506040020180360381019061343591906144a0565b9050600060066000836000015173ffffffffffffffffffffffffffffffffffffffff1673ffffffffffffffffffffffffffffffffffffffff16815260200190815260200160002054036134c957806000015181602001516040517f3b573da20000000000000000000000000000000000000000000000000000000081526004016134c092919061429e565b60405180910390fd5b6000600a6000836000015173ffffffffffffffffffffffffffffffffffffffff1673ffffffffffffffffffffffffffffffffffffffff1681526020019081526020016000205490508160200151811061356357816000015182602001516040517f3b573da200000000000000000000000000000000000000000000000000000000815260040161355a92919061429e565b60405180910390fd5b5050808061357090613f13565b9150506133ff565b505050565b600033905090565b600080600080613595868661376c565b92509250925060006040518060400160405280601c81526020017f19457468657265756d205369676e6564204d6573736167653a0a333200000000815250886040516020016135e592919061496b565b60405160208183030381529060405280519060200120905060006001828487876040516000815260200160405260405161362294939291906149a2565b6020604051602081039080840390855afa158015613644573d6000803e3d6000fd5b505050602060405103519050600073ffffffffffffffffffffffffffffffffffffffff168173ffffffffffffffffffffffffffffffffffffffff16141580156136b857508973ffffffffffffffffffffffffffffffffffffffff168173ffffffffffffffffffffffffffffffffffffffff16145b95505050505050949350505050565b60006019546005546136d99190614a16565b905090565b6000615aff4614806136f15750615afe46145b156137335761372060204260405160200161370c9190614a68565b6040516020818303038152906040526137de565b61372990614ab3565b60001c9050613769565b33434042444160405160200161374d959493929190614b9d565b6040516020818303038152906040528051906020012060001c90505b90565b6000806000848460009060209261378593929190614c06565b906137909190614c4c565b925084846020906040926137a693929190614c06565b906137b19190614c4c565b915084846040906041926137c793929190614c06565b906137d29190614cd7565b60f81c90509250925092565b606060008073010000000000000000000000000000000000000173ffffffffffffffffffffffffffffffffffffffff168585604051602001613821929190614d80565b60405160208183030381529060405260405161383d9190614de1565b600060405180830381855afa9150503d8060008114613878576040519150601f19603f3d011682016040523d82523d6000602084013e61387d565b606091505b5091509150816138c2576040517f08c379a00000000000000000000000000000000000000000000000000000000081526004016138b990614e44565b60405180910390fd5b809250505092915050565b6000604051905090565b600080fd5b600080fd5b6000819050919050565b6138f4816138e1565b81146138ff57600080fd5b50565b600081359050613911816138eb565b92915050565b60006020828403121561392d5761392c6138d7565b5b600061393b84828501613902565b91505092915050565b600073ffffffffffffffffffffffffffffffffffffffff82169050919050565b600061396f82613944565b9050919050565b61397f81613964565b811461398a57600080fd5b50565b60008135905061399c81613976565b92915050565b6000602082840312156139b8576139b76138d7565b5b60006139c68482850161398d565b91505092915050565b6139d8816138e1565b82525050565b60006020820190506139f360008301846139cf565b92915050565b60008060408385031215613a1057613a0f6138d7565b5b6000613a1e8582860161398d565b9250506020613a2f85828601613902565b9150509250929050565b60008115159050919050565b613a4e81613a39565b82525050565b6000602082019050613a696000830184613a45565b92915050565b600080fd5b600080fd5b600080fd5b60008083601f840112613a9457613a93613a6f565b5b8235905067ffffffffffffffff811115613ab157613ab0613a74565b5b602083019150836001820283011115613acd57613acc613a79565b5b9250929050565b600080600060408486031215613aed57613aec6138d7565b5b6000613afb8682870161398d565b935050602084013567ffffffffffffffff811115613b1c57613b1b6138dc565b5b613b2886828701613a7e565b92509250509250925092565b6000819050919050565b613b4781613b34565b82525050565b6000602082019050613b626000830184613b3e565b92915050565b600081519050919050565b600082825260208201905092915050565b60005b83811015613ba2578082015181840152602081019050613b87565b60008484015250505050565b6000601f19601f8301169050919050565b6000613bca82613b68565b613bd48185613b73565b9350613be4818560208601613b84565b613bed81613bae565b840191505092915050565b60006020820190508181036000830152613c128184613bbf565b905092915050565b60008060408385031215613c3157613c306138d7565b5b6000613c3f85828601613902565b9250506020613c508582860161398d565b9150509250929050565b613c6381613964565b82525050565b6000602082019050613c7e6000830184613c5a565b92915050565b60008083601f840112613c9a57613c99613a6f565b5b8235905067ffffffffffffffff811115613cb757613cb6613a74565b5b602083019150836001820283011115613cd357613cd2613a79565b5b9250929050565b60008060208385031215613cf157613cf06138d7565b5b600083013567ffffffffffffffff811115613d0f57613d0e6138dc565b5b613d1b85828601613c84565b92509250509250929050565b60008060408385031215613d3e57613d3d6138d7565b5b6000613d4c85828601613902565b9250506020613d5d85828601613902565b9150509250929050565b6000819050919050565b6000613d8c613d87613d8284613944565b613d67565b613944565b9050919050565b6000613d9e82613d71565b9050919050565b6000613db082613d93565b9050919050565b613dc081613da5565b82525050565b6000602082019050613ddb6000830184613db7565b92915050565b600080600060408486031215613dfa57613df96138d7565b5b600084013567ffffffffffffffff811115613e1857613e176138dc565b5b613e2486828701613c84565b93509350506020613e3786828701613902565b9150509250925092565b60008083601f840112613e5757613e56613a6f565b5b8235905067ffffffffffffffff811115613e7457613e73613a74565b5b602083019150836040820283011115613e9057613e8f613a79565b5b9250929050565b60008060208385031215613eae57613ead6138d7565b5b600083013567ffffffffffffffff811115613ecc57613ecb6138dc565b5b613ed885828601613e41565b92509250509250929050565b7f4e487b7100000000000000000000000000000000000000000000000000000000600052601160045260246000fd5b6000613f1e826138e1565b91507fffffffffffffffffffffffffffffffffffffffffffffffffffffffffffffffff8203613f5057613f4f613ee4565b5b600182019050919050565b600060ff82169050919050565b613f7181613f5b565b8114613f7c57600080fd5b50565b600081519050613f8e81613f68565b92915050565b600060208284031215613faa57613fa96138d7565b5b6000613fb884828501613f7f565b91505092915050565b60008160011c9050919050565b6000808291508390505b600185111561401857808604811115613ff457613ff3613ee4565b5b60018516156140035780820291505b808102905061401185613fc1565b9450613fd8565b94509492505050565b60008261403157600190506140ed565b8161403f57600090506140ed565b8160018114614055576002811461405f5761408e565b60019150506140ed565b60ff84111561407157614070613ee4565b5b8360020a91508482111561408857614087613ee4565b5b506140ed565b5060208310610133831016604e8410600b84101617156140c35782820a9050838111156140be576140bd613ee4565b5b6140ed565b6140d08484846001613fce565b925090508184048111156140e7576140e6613ee4565b5b81810290505b9392505050565b60006140ff826138e1565b915061410a836138e1565b92506141377fffffffffffffffffffffffffffffffffffffffffffffffffffffffffffffffff8484614021565b905092915050565b600061414a826138e1565b9150614155836138e1565b9250828202614163816138e1565b9150828204841483151761417a57614179613ee4565b5b5092915050565b60006060820190506141966000830186613c5a565b6141a36020830185613c5a565b6141b060408301846139cf565b949350505050565b6141c181613a39565b81146141cc57600080fd5b50565b6000815190506141de816141b8565b92915050565b6000602082840312156141fa576141f96138d7565b5b6000614208848285016141cf565b91505092915050565b600081519050614220816138eb565b92915050565b60006020828403121561423c5761423b6138d7565b5b600061424a84828501614211565b91505092915050565b600061425e826138e1565b915061426983613f5b565b92506142967fffffffffffffffffffffffffffffffffffffffffffffffffffffffffffffffff8484614021565b905092915050565b60006040820190506142b36000830185613c5a565b6142c060208301846139cf565b9392505050565b60006142d2826138e1565b91506142dd836138e1565b92508282019050808211156142f5576142f4613ee4565b5b92915050565b600081905092915050565b50565b60006143166000836142fb565b915061432182614306565b600082019050919050565b600061433782614309565b9150819050919050565b7f4e487b7100000000000000000000000000000000000000000000000000000000600052602260045260246000fd5b6000600282049050600182168061438857607f821691505b60208210810361439b5761439a614341565b5b50919050565b7f4e487b7100000000000000000000000000000000000000000000000000000000600052603260045260246000fd5b600080fd5b7f4e487b7100000000000000000000000000000000000000000000000000000000600052604160045260246000fd5b61440d82613bae565b810181811067ffffffffffffffff8211171561442c5761442b6143d5565b5b80604052505050565b600061443f6138cd565b905061444b8282614404565b919050565b600060408284031215614466576144656143d0565b5b6144706040614435565b905060006144808482850161398d565b600083015250602061449484828501613902565b60208301525092915050565b6000604082840312156144b6576144b56138d7565b5b60006144c484828501614450565b91505092915050565b7f4f776e61626c653a206e6577206f776e657220697320746865207a65726f206160008201527f6464726573730000000000000000000000000000000000000000000000000000602082015250565b6000614529602683613b73565b9150614534826144cd565b604082019050919050565b600060208201905081810360008301526145588161451c565b9050919050565b600061456a826138e1565b9150614575836138e1565b925082820390508181111561458d5761458c613ee4565b5b92915050565b7f4f776e61626c653a2063616c6c6572206973206e6f7420746865206f776e6572600082015250565b60006145c9602083613b73565b91506145d482614593565b602082019050919050565b600060208201905081810360008301526145f8816145bc565b9050919050565b7f5265656e7472616e637947756172643a207265656e7472616e742063616c6c00600082015250565b6000614635601f83613b73565b9150614640826145ff565b602082019050919050565b6000602082019050818103600083015261466481614628565b9050919050565b60008190508160005260206000209050919050565b60006020601f8301049050919050565b600082821b905092915050565b6000600883026146cd7fffffffffffffffffffffffffffffffffffffffffffffffffffffffffffffffff82614690565b6146d78683614690565b95508019841693508086168417925050509392505050565b600061470a614705614700846138e1565b613d67565b6138e1565b9050919050565b6000819050919050565b614724836146ef565b61473861473082614711565b84845461469d565b825550505050565b600090565b61474d614740565b61475881848461471b565b505050565b5b8181101561477c57614771600082614745565b60018101905061475e565b5050565b601f8211156147c1576147928161466b565b61479b84614680565b810160208510156147aa578190505b6147be6147b685614680565b83018261475d565b50505b505050565b600082821c905092915050565b60006147e4600019846008026147c6565b1980831691505092915050565b60006147fd83836147d3565b9150826002028217905092915050565b61481682613b68565b67ffffffffffffffff81111561482f5761482e6143d5565b5b6148398254614370565b614844828285614780565b600060209050601f8311600181146148775760008415614865578287015190505b61486f85826147f1565b8655506148d7565b601f1984166148858661466b565b60005b828110156148ad57848901518255600182019150602085019450602081019050614888565b868310156148ca57848901516148c6601f8916826147d3565b8355505b6001600288020188555050505b505050505050565b7f4e487b7100000000000000000000000000000000000000000000000000000000600052602160045260246000fd5b600081905092915050565b600061492482613b68565b61492e818561490e565b935061493e818560208601613b84565b80840191505092915050565b6000819050919050565b61496561496082613b34565b61494a565b82525050565b60006149778285614919565b91506149838284614954565b6020820191508190509392505050565b61499c81613f5b565b82525050565b60006080820190506149b76000830187613b3e565b6149c46020830186614993565b6149d16040830185613b3e565b6149de6060830184613b3e565b95945050505050565b7f4e487b7100000000000000000000000000000000000000000000000000000000600052601260045260246000fd5b6000614a21826138e1565b9150614a2c836138e1565b925082614a3c57614a3b6149e7565b5b828204905092915050565b6000819050919050565b614a62614a5d826138e1565b614a47565b82525050565b6000614a748284614a51565b60208201915081905092915050565b600081519050919050565b6000819050602082019050919050565b6000614aaa8251613b34565b80915050919050565b6000614abe82614a83565b82614ac884614a8e565b9050614ad381614a9e565b92506020821015614b1357614b0e7fffffffffffffffffffffffffffffffffffffffffffffffffffffffffffffffff83602003600802614690565b831692505b5050919050565b60008160601b9050919050565b6000614b3282614b1a565b9050919050565b6000614b4482614b27565b9050919050565b614b5c614b5782613964565b614b39565b82525050565b6000614b6d82613944565b9050919050565b6000614b7f82614b27565b9050919050565b614b97614b9282614b62565b614b74565b82525050565b6000614ba98288614b4b565b601482019150614bb98287614954565b602082019150614bc98286614a51565b602082019150614bd98285614a51565b602082019150614be98284614b86565b6014820191508190509695505050505050565b600080fd5b600080fd5b60008085851115614c1a57614c19614bfc565b5b83861115614c2b57614c2a614c01565b5b6001850283019150848603905094509492505050565b600082905092915050565b6000614c588383614c41565b82614c638135613b34565b92506020821015614ca357614c9e7fffffffffffffffffffffffffffffffffffffffffffffffffffffffffffffffff83602003600802614690565b831692505b505092915050565b60007fff0000000000000000000000000000000000000000000000000000000000000082169050919050565b6000614ce38383614c41565b82614cee8135614cab565b92506001821015614d2e57614d297fff0000000000000000000000000000000000000000000000000000000000000083600103600802614690565b831692505b505092915050565b600082825260208201905092915050565b6000614d5282614a83565b614d5c8185614d36565b9350614d6c818560208601613b84565b614d7581613bae565b840191505092915050565b6000604082019050614d9560008301856139cf565b8181036020830152614da78184614d47565b90509392505050565b6000614dbb82614a83565b614dc581856142fb565b9350614dd5818560208601613b84565b80840191505092915050565b6000614ded8284614db0565b915081905092915050565b7f72616e646f6d42797465733a206661696c656400000000000000000000000000600082015250565b6000614e2e601383613b73565b9150614e3982614df8565b602082019050919050565b60006020820190508181036000830152614e5d81614e21565b905091905056fea2646970667358221220250631bb42ba67a26d6b2f1501bc2cf6a62f2401dbfccda75337d56f1f43dbe364736f6c6343000813003360806040523480156200001157600080fd5b506040518060400160405280600a81526020017f4a55535420746f6b656e000000000000000000000000000000000000000000008152506040518060400160405280600481526020017f4a5553540000000000000000000000000000000000000000000000000000000081525081600390816200008f919062000412565b508060049081620000a1919062000412565b505050620000c4620000b8620000ca60201b60201c565b620000d260201b60201c565b620004f9565b600033905090565b6000600560009054906101000a900473ffffffffffffffffffffffffffffffffffffffff16905081600560006101000a81548173ffffffffffffffffffffffffffffffffffffffff021916908373ffffffffffffffffffffffffffffffffffffffff1602179055508173ffffffffffffffffffffffffffffffffffffffff168173ffffffffffffffffffffffffffffffffffffffff167f8be0079c531659141344cd1fd0a4f28419497f9722a3daafe3b4186f6b6457e060405160405180910390a35050565b600081519050919050565b7f4e487b7100000000000000000000000000000000000000000000000000000000600052604160045260246000fd5b7f4e487b7100000000000000000000000000000000000000000000000000000000600052602260045260246000fd5b600060028204905060018216806200021a57607f821691505b60208210810362000230576200022f620001d2565b5b50919050565b60008190508160005260206000209050919050565b60006020601f8301049050919050565b600082821b905092915050565b6000600883026200029a7fffffffffffffffffffffffffffffffffffffffffffffffffffffffffffffffff826200025b565b620002a686836200025b565b95508019841693508086168417925050509392505050565b6000819050919050565b6000819050919050565b6000620002f3620002ed620002e784620002be565b620002c8565b620002be565b9050919050565b6000819050919050565b6200030f83620002d2565b620003276200031e82620002fa565b84845462000268565b825550505050565b600090565b6200033e6200032f565b6200034b81848462000304565b505050565b5b8181101562000373576200036760008262000334565b60018101905062000351565b5050565b601f821115620003c2576200038c8162000236565b62000397846200024b565b81016020851015620003a7578190505b620003bf620003b6856200024b565b83018262000350565b50505b505050565b600082821c905092915050565b6000620003e760001984600802620003c7565b1980831691505092915050565b6000620004028383620003d4565b9150826002028217905092915050565b6200041d8262000198565b67ffffffffffffffff811115620004395762000438620001a3565b5b62000445825462000201565b6200045282828562000377565b600060209050601f8311600181146200048a576000841562000475578287015190505b620004818582620003f4565b865550620004f1565b601f1984166200049a8662000236565b60005b82811015620004c4578489015182556001820191506020850194506020810190506200049d565b86831015620004e45784890151620004e0601f891682620003d4565b8355505b6001600288020188555050505b505050505050565b6117e080620005096000396000f3fe608060405234801561001057600080fd5b50600436106100f55760003560e01c806370a0823111610097578063a457c2d711610066578063a457c2d714610276578063a9059cbb146102a6578063dd62ed3e146102d6578063f2fde38b14610306576100f5565b806370a0823114610200578063715018a6146102305780638da5cb5b1461023a57806395d89b4114610258576100f5565b806323b872dd116100d357806323b872dd14610166578063313ce5671461019657806339509351146101b457806340c10f19146101e4576100f5565b806306fdde03146100fa578063095ea7b31461011857806318160ddd14610148575b600080fd5b610102610322565b60405161010f9190610f29565b60405180910390f35b610132600480360381019061012d9190610fe4565b6103b4565b60405161013f919061103f565b60405180910390f35b6101506103d7565b60405161015d9190611069565b60405180910390f35b610180600480360381019061017b9190611084565b6103e1565b60405161018d919061103f565b60405180910390f35b61019e610410565b6040516101ab91906110f3565b60405180910390f35b6101ce60048036038101906101c99190610fe4565b610419565b6040516101db919061103f565b60405180910390f35b6101fe60048036038101906101f99190610fe4565b610450565b005b61021a6004803603810190610215919061110e565b610466565b6040516102279190611069565b60405180910390f35b6102386104ae565b005b6102426104c2565b60405161024f919061114a565b60405180910390f35b6102606104ec565b60405161026d9190610f29565b60405180910390f35b610290600480360381019061028b9190610fe4565b61057e565b60405161029d919061103f565b60405180910390f35b6102c060048036038101906102bb9190610fe4565b6105f5565b6040516102cd919061103f565b60405180910390f35b6102f060048036038101906102eb9190611165565b610618565b6040516102fd9190611069565b60405180910390f35b610320600480360381019061031b919061110e565b61069f565b005b606060038054610331906111d4565b80601f016020809104026020016040519081016040528092919081815260200182805461035d906111d4565b80156103aa5780601f1061037f576101008083540402835291602001916103aa565b820191906000526020600020905b81548152906001019060200180831161038d57829003601f168201915b5050505050905090565b6000806103bf610722565b90506103cc81858561072a565b600191505092915050565b6000600254905090565b6000806103ec610722565b90506103f98582856108f3565b61040485858561097f565b60019150509392505050565b60006012905090565b600080610424610722565b90506104458185856104368589610618565b6104409190611234565b61072a565b600191505092915050565b610458610bf5565b6104628282610c73565b5050565b60008060008373ffffffffffffffffffffffffffffffffffffffff1673ffffffffffffffffffffffffffffffffffffffff168152602001908152602001600020549050919050565b6104b6610bf5565b6104c06000610dc9565b565b6000600560009054906101000a900473ffffffffffffffffffffffffffffffffffffffff16905090565b6060600480546104fb906111d4565b80601f0160208091040260200160405190810160405280929190818152602001828054610527906111d4565b80156105745780601f1061054957610100808354040283529160200191610574565b820191906000526020600020905b81548152906001019060200180831161055757829003601f168201915b5050505050905090565b600080610589610722565b905060006105978286610618565b9050838110156105dc576040517f08c379a00000000000000000000000000000000000000000000000000000000081526004016105d3906112da565b60405180910390fd5b6105e9828686840361072a565b60019250505092915050565b600080610600610722565b905061060d81858561097f565b600191505092915050565b6000600160008473ffffffffffffffffffffffffffffffffffffffff1673ffffffffffffffffffffffffffffffffffffffff16815260200190815260200160002060008373ffffffffffffffffffffffffffffffffffffffff1673ffffffffffffffffffffffffffffffffffffffff16815260200190815260200160002054905092915050565b6106a7610bf5565b600073ffffffffffffffffffffffffffffffffffffffff168173ffffffffffffffffffffffffffffffffffffffff1603610716576040517f08c379a000000000000000000000000000000000000000000000000000000000815260040161070d9061136c565b60405180910390fd5b61071f81610dc9565b50565b600033905090565b600073ffffffffffffffffffffffffffffffffffffffff168373ffffffffffffffffffffffffffffffffffffffff1603610799576040517f08c379a0000000000000000000000000000000000000000000000000000000008152600401610790906113fe565b60405180910390fd5b600073ffffffffffffffffffffffffffffffffffffffff168273ffffffffffffffffffffffffffffffffffffffff1603610808576040517f08c379a00000000000000000000000000000000000000000000000000000000081526004016107ff90611490565b60405180910390fd5b80600160008573ffffffffffffffffffffffffffffffffffffffff1673ffffffffffffffffffffffffffffffffffffffff16815260200190815260200160002060008473ffffffffffffffffffffffffffffffffffffffff1673ffffffffffffffffffffffffffffffffffffffff168152602001908152602001600020819055508173ffffffffffffffffffffffffffffffffffffffff168373ffffffffffffffffffffffffffffffffffffffff167f8c5be1e5ebec7d5bd14f71427d1e84f3dd0314c0f7b2291e5b200ac8c7c3b925836040516108e69190611069565b60405180910390a3505050565b60006108ff8484610618565b90507fffffffffffffffffffffffffffffffffffffffffffffffffffffffffffffffff8114610979578181101561096b576040517f08c379a0000000000000000000000000000000000000000000000000000000008152600401610962906114fc565b60405180910390fd5b610978848484840361072a565b5b50505050565b600073ffffffffffffffffffffffffffffffffffffffff168373ffffffffffffffffffffffffffffffffffffffff16036109ee576040517f08c379a00000000000000000000000000000000000000000000000000000000081526004016109e59061158e565b60405180910390fd5b600073ffffffffffffffffffffffffffffffffffffffff168273ffffffffffffffffffffffffffffffffffffffff1603610a5d576040517f08c379a0000000000000000000000000000000000000000000000000000000008152600401610a5490611620565b60405180910390fd5b610a68838383610e8f565b60008060008573ffffffffffffffffffffffffffffffffffffffff1673ffffffffffffffffffffffffffffffffffffffff16815260200190815260200160002054905081811015610aee576040517f08c379a0000000000000000000000000000000000000000000000000000000008152600401610ae5906116b2565b60405180910390fd5b8181036000808673ffffffffffffffffffffffffffffffffffffffff1673ffffffffffffffffffffffffffffffffffffffff16815260200190815260200160002081905550816000808573ffffffffffffffffffffffffffffffffffffffff1673ffffffffffffffffffffffffffffffffffffffff168152602001908152602001600020600082825401925050819055508273ffffffffffffffffffffffffffffffffffffffff168473ffffffffffffffffffffffffffffffffffffffff167fddf252ad1be2c89b69c2b068fc378daa952ba7f163c4a11628f55a4df523b3ef84604051610bdc9190611069565b60405180910390a3610bef848484610e94565b50505050565b610bfd610722565b73ffffffffffffffffffffffffffffffffffffffff16610c1b6104c2565b73ffffffffffffffffffffffffffffffffffffffff1614610c71576040517f08c379a0000000000000000000000000000000000000000000000000000000008152600401610c689061171e565b60405180910390fd5b565b600073ffffffffffffffffffffffffffffffffffffffff168273ffffffffffffffffffffffffffffffffffffffff1603610ce2576040517f08c379a0000000000000000000000000000000000000000000000000000000008152600401610cd99061178a565b60405180910390fd5b610cee60008383610e8f565b8060026000828254610d009190611234565b92505081905550806000808473ffffffffffffffffffffffffffffffffffffffff1673ffffffffffffffffffffffffffffffffffffffff168152602001908152602001600020600082825401925050819055508173ffffffffffffffffffffffffffffffffffffffff16600073ffffffffffffffffffffffffffffffffffffffff167fddf252ad1be2c89b69c2b068fc378daa952ba7f163c4a11628f55a4df523b3ef83604051610db19190611069565b60405180910390a3610dc560008383610e94565b5050565b6000600560009054906101000a900473ffffffffffffffffffffffffffffffffffffffff16905081600560006101000a81548173ffffffffffffffffffffffffffffffffffffffff021916908373ffffffffffffffffffffffffffffffffffffffff1602179055508173ffffffffffffffffffffffffffffffffffffffff168173ffffffffffffffffffffffffffffffffffffffff167f8be0079c531659141344cd1fd0a4f28419497f9722a3daafe3b4186f6b6457e060405160405180910390a35050565b505050565b505050565b600081519050919050565b600082825260208201905092915050565b60005b83811015610ed3578082015181840152602081019050610eb8565b60008484015250505050565b6000601f19601f8301169050919050565b6000610efb82610e99565b610f058185610ea4565b9350610f15818560208601610eb5565b610f1e81610edf565b840191505092915050565b60006020820190508181036000830152610f438184610ef0565b905092915050565b600080fd5b600073ffffffffffffffffffffffffffffffffffffffff82169050919050565b6000610f7b82610f50565b9050919050565b610f8b81610f70565b8114610f9657600080fd5b50565b600081359050610fa881610f82565b92915050565b6000819050919050565b610fc181610fae565b8114610fcc57600080fd5b50565b600081359050610fde81610fb8565b92915050565b60008060408385031215610ffb57610ffa610f4b565b5b600061100985828601610f99565b925050602061101a85828601610fcf565b9150509250929050565b60008115159050919050565b61103981611024565b82525050565b60006020820190506110546000830184611030565b92915050565b61106381610fae565b82525050565b600060208201905061107e600083018461105a565b92915050565b60008060006060848603121561109d5761109c610f4b565b5b60006110ab86828701610f99565b93505060206110bc86828701610f99565b92505060406110cd86828701610fcf565b9150509250925092565b600060ff82169050919050565b6110ed816110d7565b82525050565b600060208201905061110860008301846110e4565b92915050565b60006020828403121561112457611123610f4b565b5b600061113284828501610f99565b91505092915050565b61114481610f70565b82525050565b600060208201905061115f600083018461113b565b92915050565b6000806040838503121561117c5761117b610f4b565b5b600061118a85828601610f99565b925050602061119b85828601610f99565b9150509250929050565b7f4e487b7100000000000000000000000000000000000000000000000000000000600052602260045260246000fd5b600060028204905060018216806111ec57607f821691505b6020821081036111ff576111fe6111a5565b5b50919050565b7f4e487b7100000000000000000000000000000000000000000000000000000000600052601160045260246000fd5b600061123f82610fae565b915061124a83610fae565b925082820190508082111561126257611261611205565b5b92915050565b7f45524332303a2064656372656173656420616c6c6f77616e63652062656c6f7760008201527f207a65726f000000000000000000000000000000000000000000000000000000602082015250565b60006112c4602583610ea4565b91506112cf82611268565b604082019050919050565b600060208201905081810360008301526112f3816112b7565b9050919050565b7f4f776e61626c653a206e6577206f776e657220697320746865207a65726f206160008201527f6464726573730000000000000000000000000000000000000000000000000000602082015250565b6000611356602683610ea4565b9150611361826112fa565b604082019050919050565b6000602082019050818103600083015261138581611349565b9050919050565b7f45524332303a20617070726f76652066726f6d20746865207a65726f2061646460008201527f7265737300000000000000000000000000000000000000000000000000000000602082015250565b60006113e8602483610ea4565b91506113f38261138c565b604082019050919050565b60006020820190508181036000830152611417816113db565b9050919050565b7f45524332303a20617070726f766520746f20746865207a65726f20616464726560008201527f7373000000000000000000000000000000000000000000000000000000000000602082015250565b600061147a602283610ea4565b91506114858261141e565b604082019050919050565b600060208201905081810360008301526114a98161146d565b9050919050565b7f45524332303a20696e73756666696369656e7420616c6c6f77616e6365000000600082015250565b60006114e6601d83610ea4565b91506114f1826114b0565b602082019050919050565b60006020820190508181036000830152611515816114d9565b9050919050565b7f45524332303a207472616e736665722066726f6d20746865207a65726f20616460008201527f6472657373000000000000000000000000000000000000000000000000000000602082015250565b6000611578602583610ea4565b91506115838261151c565b604082019050919050565b600060208201905081810360008301526115a78161156b565b9050919050565b7f45524332303a207472616e7366657220746f20746865207a65726f206164647260008201527f6573730000000000000000000000000000000000000000000000000000000000602082015250565b600061160a602383610ea4565b9150611615826115ae565b604082019050919050565b60006020820190508181036000830152611639816115fd565b9050919050565b7f45524332303a207472616e7366657220616d6f756e742065786365656473206260008201527f616c616e63650000000000000000000000000000000000000000000000000000602082015250565b600061169c602683610ea4565b91506116a782611640565b604082019050919050565b600060208201905081810360008301526116cb8161168f565b9050919050565b7f4f776e61626c653a2063616c6c6572206973206e6f7420746865206f776e6572600082015250565b6000611708602083610ea4565b9150611713826116d2565b602082019050919050565b60006020820190508181036000830152611737816116fb565b9050919050565b7f45524332303a206d696e7420746f20746865207a65726f206164647265737300600082015250565b6000611774601f83610ea4565b915061177f8261173e565b602082019050919050565b600060208201905081810360008301526117a381611767565b905091905056fea26469706673582212205549c8f446cc8d6a960f8a9ba8643b74b7a57e12330df84eee5cba4aceed8c5864736f6c63430008130033",
  "linkReferences": {},
  "deployedLinkReferences": {}
}