{
  "_format": "hh-sol-artifact-1",
  "contractName": "Platform",
  "sourceName": "contracts/Platform.sol",
  "abi": [
    {
      "inputs": [
        {
          "internalType": "uint256",
          "name": "_rewardsForProposal",
          "type": "uint256"
        },
        {
          "internalType": "uint256",
          "name": "_pricePerToken",
          "type": "uint256"
        }
      ],
      "stateMutability": "nonpayable",
      "type": "constructor"
    },
    {
      "inputs": [],
      "name": "AccountIsReporter",
      "type": "error"
    },
    {
      "inputs": [],
      "name": "AccountNotReporter",
      "type": "error"
    },
    {
      "inputs": [],
      "name": "AmountCannotBeZero",
      "type": "error"
    },
    {
      "inputs": [],
      "name": "AmountMustMatchValueExactly",
      "type": "error"
    },
    {
      "inputs": [],
      "name": "ArtistAlreadyRegistered",
      "type": "error"
    },
    {
      "inputs": [],
      "name": "ArtistDoesNotOwnSong",
      "type": "error"
    },
    {
      "inputs": [],
      "name": "ArtistNameRequired",
      "type": "error"
    },
    {
      "inputs": [],
      "name": "CannotBuyNonExclusiveSongs",
      "type": "error"
    },
    {
      "inputs": [],
      "name": "InsufficientTokenBalance",
      "type": "error"
    },
    {
      "inputs": [],
      "name": "NoClaimableRewards",
      "type": "error"
    },
    {
      "inputs": [],
      "name": "NoUpdatesGiven",
      "type": "error"
    },
    {
      "inputs": [],
      "name": "NotARegisteredArtist",
      "type": "error"
    },
    {
      "inputs": [],
      "name": "PriceCannotBeZero",
      "type": "error"
    },
    {
      "inputs": [],
      "name": "RewardsCannotBeZero",
      "type": "error"
    },
    {
      "inputs": [],
      "name": "SongDoesNotExist",
      "type": "error"
    },
    {
      "inputs": [],
      "name": "SongUriRequired",
      "type": "error"
    },
    {
      "inputs": [],
      "name": "SubscriptionAlreadyCreated",
      "type": "error"
    },
    {
      "inputs": [],
      "name": "SubscriptionNotCreated",
      "type": "error"
    },
    {
      "inputs": [
        {
          "internalType": "address",
          "name": "artist",
          "type": "address"
        },
        {
          "internalType": "uint256",
          "name": "playedMinutes",
          "type": "uint256"
        }
      ],
      "name": "UpdateInvalid",
      "type": "error"
    },
    {
      "inputs": [],
      "name": "ValueCannotBeZero",
      "type": "error"
    },
    {
      "inputs": [],
      "name": "ValueMustMatchOneOfThePlans",
      "type": "error"
    },
    {
      "anonymous": false,
      "inputs": [
        {
          "indexed": true,
          "internalType": "address",
          "name": "previousOwner",
          "type": "address"
        },
        {
          "indexed": true,
          "internalType": "address",
          "name": "newOwner",
          "type": "address"
        }
      ],
      "name": "OwnershipTransferred",
      "type": "event"
    },
    {
      "anonymous": false,
      "inputs": [],
      "name": "PlayedMinutesUpdated",
      "type": "event"
    },
    {
      "anonymous": false,
      "inputs": [
        {
          "indexed": false,
          "internalType": "uint256",
          "name": "price",
          "type": "uint256"
        }
      ],
      "name": "PricePerTokenUpdated",
      "type": "event"
    },
    {
      "anonymous": false,
      "inputs": [
        {
          "indexed": true,
          "internalType": "address",
          "name": "account",
          "type": "address"
        }
      ],
      "name": "ReporterAdded",
      "type": "event"
    },
    {
      "anonymous": false,
      "inputs": [
        {
          "indexed": true,
          "internalType": "address",
          "name": "account",
          "type": "address"
        }
      ],
      "name": "ReporterRemoved",
      "type": "event"
    },
    {
      "anonymous": false,
      "inputs": [
        {
          "indexed": true,
          "internalType": "address",
          "name": "account",
          "type": "address"
        },
        {
          "indexed": true,
          "internalType": "enum ResourceRegistration.ResourceType",
          "name": "resourceType",
          "type": "uint8"
        },
        {
          "indexed": true,
          "internalType": "uint256",
          "name": "id",
          "type": "uint256"
        },
        {
          "indexed": false,
          "internalType": "string",
          "name": "data",
          "type": "string"
        }
      ],
      "name": "ResourceRegistered",
      "type": "event"
    },
    {
      "anonymous": false,
      "inputs": [
        {
          "indexed": true,
          "internalType": "uint256",
          "name": "reward",
          "type": "uint256"
        }
      ],
      "name": "RewardForPlayedMinutesChanged",
      "type": "event"
    },
    {
      "anonymous": false,
      "inputs": [
        {
          "indexed": true,
          "internalType": "address",
          "name": "artist",
          "type": "address"
        },
        {
          "indexed": true,
          "internalType": "uint256",
          "name": "rewards",
          "type": "uint256"
        }
      ],
      "name": "RewardsClaimed",
      "type": "event"
    },
    {
      "anonymous": false,
      "inputs": [
        {
          "indexed": false,
          "internalType": "uint256",
          "name": "rewards",
          "type": "uint256"
        }
      ],
      "name": "RewardsPerProposalUpdated",
      "type": "event"
    },
    {
      "anonymous": false,
      "inputs": [
        {
          "indexed": true,
          "internalType": "address",
          "name": "account",
          "type": "address"
        },
        {
          "indexed": true,
          "internalType": "uint256",
          "name": "songId",
          "type": "uint256"
        }
      ],
      "name": "SongPurchased",
      "type": "event"
    },
    {
      "anonymous": false,
      "inputs": [
        {
          "indexed": true,
          "internalType": "address",
          "name": "account",
          "type": "address"
        },
        {
          "indexed": true,
          "internalType": "uint256",
          "name": "expirationTimestamp",
          "type": "uint256"
        },
        {
          "indexed": true,
          "internalType": "uint256",
          "name": "timestampIncrease",
          "type": "uint256"
        }
      ],
      "name": "SubscriptionCreated",
      "type": "event"
    },
    {
      "anonymous": false,
      "inputs": [
        {
          "indexed": true,
          "internalType": "address",
          "name": "account",
          "type": "address"
        },
        {
          "indexed": true,
          "internalType": "uint256",
          "name": "expirationTimestamp",
          "type": "uint256"
        },
        {
          "indexed": true,
          "internalType": "uint256",
          "name": "timestampIncrease",
          "type": "uint256"
        }
      ],
      "name": "SubscriptionFunded",
      "type": "event"
    },
    {
      "anonymous": false,
      "inputs": [
        {
          "indexed": true,
          "internalType": "uint256",
          "name": "price",
          "type": "uint256"
        },
        {
          "indexed": true,
          "internalType": "uint256",
          "name": "timestampIncrease",
          "type": "uint256"
        }
      ],
      "name": "SubscriptionPlanAdded",
      "type": "event"
    },
    {
      "inputs": [
        {
          "internalType": "address",
          "name": "account",
          "type": "address"
        }
      ],
      "name": "addReporter",
      "outputs": [],
      "stateMutability": "nonpayable",
      "type": "function"
    },
    {
      "inputs": [
        {
          "internalType": "address",
          "name": "artist",
          "type": "address"
        }
      ],
      "name": "artistClaimedMinutes",
      "outputs": [
        {
          "internalType": "uint256",
          "name": "claimedMinutes",
          "type": "uint256"
        }
      ],
      "stateMutability": "view",
      "type": "function"
    },
    {
      "inputs": [
        {
          "internalType": "address",
          "name": "account",
          "type": "address"
        }
      ],
      "name": "artistIds",
      "outputs": [
        {
          "internalType": "uint256",
          "name": "id",
          "type": "uint256"
        }
      ],
      "stateMutability": "view",
      "type": "function"
    },
    {
      "inputs": [
        {
          "internalType": "uint256",
          "name": "id",
          "type": "uint256"
        }
      ],
      "name": "artistNames",
      "outputs": [
        {
          "internalType": "string",
          "name": "name",
          "type": "string"
        }
      ],
      "stateMutability": "view",
      "type": "function"
    },
    {
      "inputs": [
        {
          "internalType": "address",
          "name": "artist",
          "type": "address"
        }
      ],
      "name": "artistPlayedMinutes",
      "outputs": [
        {
          "internalType": "uint256",
          "name": "playedMinutes",
          "type": "uint256"
        }
      ],
      "stateMutability": "view",
      "type": "function"
    },
    {
      "inputs": [
        {
          "internalType": "address",
          "name": "artist",
          "type": "address"
        }
      ],
      "name": "artistUnclaimedAmount",
      "outputs": [
        {
          "internalType": "uint256",
          "name": "",
          "type": "uint256"
        }
      ],
      "stateMutability": "view",
      "type": "function"
    },
    {
      "inputs": [
        {
          "internalType": "address",
          "name": "artist",
          "type": "address"
        },
        {
          "internalType": "uint256",
          "name": "songId",
          "type": "uint256"
        }
      ],
      "name": "buySong",
      "outputs": [],
      "stateMutability": "payable",
      "type": "function"
    },
    {
      "inputs": [
        {
          "internalType": "uint256",
          "name": "_wholeTokens",
          "type": "uint256"
        }
      ],
      "name": "buyTokens",
      "outputs": [],
      "stateMutability": "payable",
      "type": "function"
    },
    {
      "inputs": [],
      "name": "claimRewards",
      "outputs": [],
      "stateMutability": "nonpayable",
      "type": "function"
    },
    {
      "inputs": [],
      "name": "createSubscription",
      "outputs": [],
      "stateMutability": "payable",
      "type": "function"
    },
    {
      "inputs": [
        {
          "internalType": "uint256",
          "name": "id",
          "type": "uint256"
        }
      ],
      "name": "exclusiveSongPrices",
      "outputs": [
        {
          "internalType": "uint256",
          "name": "price",
          "type": "uint256"
        }
      ],
      "stateMutability": "view",
      "type": "function"
    },
    {
      "inputs": [],
      "name": "fundSubscription",
      "outputs": [],
      "stateMutability": "payable",
      "type": "function"
    },
    {
      "inputs": [
        {
          "internalType": "address",
          "name": "account",
          "type": "address"
        }
      ],
      "name": "getArtistId",
      "outputs": [
        {
          "internalType": "uint256",
          "name": "",
          "type": "uint256"
        }
      ],
      "stateMutability": "view",
      "type": "function"
    },
    {
      "inputs": [
        {
          "internalType": "address",
          "name": "account",
          "type": "address"
        }
      ],
      "name": "getArtistName",
      "outputs": [
        {
          "internalType": "string",
          "name": "",
          "type": "string"
        }
      ],
      "stateMutability": "view",
      "type": "function"
    },
    {
      "inputs": [
        {
          "internalType": "address",
          "name": "artist",
          "type": "address"
        },
        {
          "internalType": "uint256",
          "name": "songIndex",
          "type": "uint256"
        }
      ],
      "name": "getArtistSongId",
      "outputs": [
        {
          "internalType": "uint256",
          "name": "",
          "type": "uint256"
        }
      ],
      "stateMutability": "view",
      "type": "function"
    },
    {
      "inputs": [
        {
          "internalType": "address",
          "name": "artist",
          "type": "address"
        }
      ],
      "name": "getArtistSongsCount",
      "outputs": [
        {
          "internalType": "uint256",
          "name": "",
          "type": "uint256"
        }
      ],
      "stateMutability": "view",
      "type": "function"
    },
    {
      "inputs": [
        {
          "internalType": "uint256",
          "name": "songId",
          "type": "uint256"
        }
      ],
      "name": "getSongUri",
      "outputs": [
        {
          "internalType": "string",
          "name": "",
          "type": "string"
        }
      ],
      "stateMutability": "view",
      "type": "function"
    },
    {
      "inputs": [
        {
          "internalType": "address",
          "name": "account",
          "type": "address"
        }
      ],
      "name": "isActiveSubscriber",
      "outputs": [
        {
          "internalType": "bool",
          "name": "",
          "type": "bool"
        }
      ],
      "stateMutability": "view",
      "type": "function"
    },
    {
      "inputs": [
        {
          "internalType": "address",
          "name": "artist",
          "type": "address"
        },
        {
          "internalType": "uint256",
          "name": "songId",
          "type": "uint256"
        }
      ],
      "name": "isArtistSong",
      "outputs": [
        {
          "internalType": "bool",
          "name": "",
          "type": "bool"
        }
      ],
      "stateMutability": "view",
      "type": "function"
    },
    {
      "inputs": [
        {
          "internalType": "address",
          "name": "account",
          "type": "address"
        },
        {
          "internalType": "uint256",
          "name": "songId",
          "type": "uint256"
        }
      ],
      "name": "isSongPurchased",
      "outputs": [
        {
          "internalType": "bool",
          "name": "",
          "type": "bool"
        }
      ],
      "stateMutability": "view",
      "type": "function"
    },
    {
      "inputs": [],
      "name": "owner",
      "outputs": [
        {
          "internalType": "address",
          "name": "",
          "type": "address"
        }
      ],
      "stateMutability": "view",
      "type": "function"
    },
    {
      "inputs": [],
      "name": "pricePerToken",
      "outputs": [
        {
          "internalType": "uint256",
          "name": "",
          "type": "uint256"
        }
      ],
      "stateMutability": "view",
      "type": "function"
    },
    {
      "inputs": [
        {
          "internalType": "string",
          "name": "name",
          "type": "string"
        }
      ],
      "name": "registerArtist",
      "outputs": [],
      "stateMutability": "nonpayable",
      "type": "function"
    },
    {
      "inputs": [
        {
          "internalType": "string",
          "name": "uri",
          "type": "string"
        },
        {
          "internalType": "uint256",
          "name": "exclusivePrice",
          "type": "uint256"
        }
      ],
      "name": "registerSong",
      "outputs": [],
      "stateMutability": "nonpayable",
      "type": "function"
    },
    {
      "inputs": [
        {
          "internalType": "address",
          "name": "account",
          "type": "address"
        }
      ],
      "name": "removeReporter",
      "outputs": [],
      "stateMutability": "nonpayable",
      "type": "function"
    },
    {
      "inputs": [],
      "name": "renounceOwnership",
      "outputs": [],
      "stateMutability": "nonpayable",
      "type": "function"
    },
    {
      "inputs": [],
      "name": "rewardForPlayedMinute",
      "outputs": [
        {
          "internalType": "uint256",
          "name": "",
          "type": "uint256"
        }
      ],
      "stateMutability": "view",
      "type": "function"
    },
    {
      "inputs": [],
      "name": "rewardsPerProposal",
      "outputs": [
        {
          "internalType": "uint256",
          "name": "",
          "type": "uint256"
        }
      ],
      "stateMutability": "view",
      "type": "function"
    },
    {
      "inputs": [],
      "name": "rewardsToken",
      "outputs": [
        {
          "internalType": "contract JustToken",
          "name": "",
          "type": "address"
        }
      ],
      "stateMutability": "view",
      "type": "function"
    },
    {
      "inputs": [
        {
          "internalType": "uint256",
          "name": "_wholeTokens",
          "type": "uint256"
        },
        {
          "internalType": "address",
          "name": "_receiver",
          "type": "address"
        }
      ],
      "name": "sellTokens",
      "outputs": [],
      "stateMutability": "nonpayable",
      "type": "function"
    },
    {
      "inputs": [
        {
          "internalType": "uint256",
          "name": "_price",
          "type": "uint256"
        }
      ],
      "name": "setPricePerToken",
      "outputs": [],
      "stateMutability": "nonpayable",
      "type": "function"
    },
    {
      "inputs": [
        {
          "internalType": "uint256",
          "name": "reward",
          "type": "uint256"
        }
      ],
      "name": "setRewardForPlayedMinute",
      "outputs": [],
      "stateMutability": "nonpayable",
      "type": "function"
    },
    {
      "inputs": [
        {
          "internalType": "uint256",
          "name": "_rewards",
          "type": "uint256"
        }
      ],
      "name": "setRewardsPerProposal",
      "outputs": [],
      "stateMutability": "nonpayable",
      "type": "function"
    },
    {
      "inputs": [
        {
          "internalType": "uint256",
          "name": "price",
          "type": "uint256"
        },
        {
          "internalType": "uint256",
          "name": "timestampIncrease",
          "type": "uint256"
        }
      ],
      "name": "setSubscriptionPlan",
      "outputs": [],
      "stateMutability": "nonpayable",
      "type": "function"
    },
    {
      "inputs": [
        {
          "internalType": "uint256",
          "name": "price",
          "type": "uint256"
        }
      ],
      "name": "subscriptionPlanIntervals",
      "outputs": [
        {
          "internalType": "uint256",
          "name": "interval",
          "type": "uint256"
        }
      ],
      "stateMutability": "view",
      "type": "function"
    },
    {
      "inputs": [
        {
          "internalType": "address",
          "name": "account",
          "type": "address"
        }
      ],
      "name": "subscriptions",
      "outputs": [
        {
          "internalType": "uint256",
          "name": "expirationTimestamp",
          "type": "uint256"
        }
      ],
      "stateMutability": "view",
      "type": "function"
    },
    {
      "inputs": [
        {
          "internalType": "address",
          "name": "newOwner",
          "type": "address"
        }
      ],
      "name": "transferOwnership",
      "outputs": [],
      "stateMutability": "nonpayable",
      "type": "function"
    },
    {
      "inputs": [
        {
          "components": [
            {
              "internalType": "address",
              "name": "artist",
              "type": "address"
            },
            {
              "internalType": "uint256",
              "name": "playedMinutes",
              "type": "uint256"
            }
          ],
          "internalType": "struct UpdatePlayedMinutes.ArtistUpdate[]",
          "name": "updates",
          "type": "tuple[]"
        }
      ],
      "name": "updatePlayedMinutes",
      "outputs": [],
      "stateMutability": "nonpayable",
      "type": "function"
    }
  ],
  "bytecode": "0x60806040523480156200001157600080fd5b50604051620060d6380380620060d68339818101604052810190620000379190620002c5565b8181620000596200004d620001ab60201b60201c565b620001b360201b60201c565b600180819055506435e55f19096003819055506003547fde2a550feb6ab90bd4c3e2d079c1e9f15fa6c1616cd90660836219be038742e960405160405180910390a260008211620000e1576040517f08c379a0000000000000000000000000000000000000000000000000000000008152600401620000d8906200036d565b60405180910390fd5b6000811162000127576040517f08c379a00000000000000000000000000000000000000000000000000000000081526004016200011e90620003df565b60405180910390fd5b604051620001359062000277565b604051809103906000f08015801562000152573d6000803e3d6000fd5b50600260006101000a81548173ffffffffffffffffffffffffffffffffffffffff021916908373ffffffffffffffffffffffffffffffffffffffff16021790555081601081905550806011819055505050505062000401565b600033905090565b60008060009054906101000a900473ffffffffffffffffffffffffffffffffffffffff169050816000806101000a81548173ffffffffffffffffffffffffffffffffffffffff021916908373ffffffffffffffffffffffffffffffffffffffff1602179055508173ffffffffffffffffffffffffffffffffffffffff168173ffffffffffffffffffffffffffffffffffffffff167f8be0079c531659141344cd1fd0a4f28419497f9722a3daafe3b4186f6b6457e060405160405180910390a35050565b611ce980620043ed83390190565b600080fd5b6000819050919050565b6200029f816200028a565b8114620002ab57600080fd5b50565b600081519050620002bf8162000294565b92915050565b60008060408385031215620002df57620002de62000285565b5b6000620002ef85828601620002ae565b92505060206200030285828601620002ae565b9150509250929050565b600082825260208201905092915050565b7f5265776172647320666f722070726f706f73616c206973207a65726f00000000600082015250565b600062000355601c836200030c565b915062000362826200031d565b602082019050919050565b60006020820190508181036000830152620003888162000346565b9050919050565b7f5072696365206973207a65726f00000000000000000000000000000000000000600082015250565b6000620003c7600d836200030c565b9150620003d4826200038f565b602082019050919050565b60006020820190508181036000830152620003fa81620003b8565b9050919050565b613fdc80620004116000396000f3fe6080604052600436106102255760003560e01c80637b1b1de611610123578063d1af0c7d116100ab578063e3c266dd1161006f578063e3c266dd1461082b578063f0400d3c14610854578063f046395a1461087d578063f08bf9ad146108ba578063f2fde38b146108e557610225565b8063d1af0c7d14610734578063d8da18e41461075f578063dd8755f21461079c578063dedbe306146107c5578063e066765e146107ee57610225565b8063a0a96d5a116100f2578063a0a96d5a1461064a578063a21a23e414610687578063b36349dc14610691578063c4727940146106ce578063c7063266146106f757610225565b80637b1b1de61461058e5780638da5cb5b146105b95780638e048e75146105e45780639355d4191461062157610225565b80634655c9a9116101b15780635fcbb047116101755780635fcbb047146104a95780636269bd01146104e6578063670f715114610523578063715018a61461054c5780637ab9e7fb1461056357610225565b80634655c9a9146103bf5780634c49d7d5146103fc578063575f08ff1461043957806357ace39b146104765780635de5c2121461048057610225565b806323c3dd37116101f857806323c3dd37146102fd57806326be9397146103265780632bf2762f146103635780633610724e1461038c578063372500ab146103a857610225565b8063030ae9ab1461022a5780630a0ef451146102675780631ac5f331146102a45780631b39152d146102c0575b600080fd5b34801561023657600080fd5b50610251600480360381019061024c9190612db3565b61090e565b60405161025e9190612df9565b60405180910390f35b34801561027357600080fd5b5061028e60048036038101906102899190612e40565b61099f565b60405161029b9190612df9565b60405180910390f35b6102be60048036038101906102b99190612e6d565b6109b7565b005b3480156102cc57600080fd5b506102e760048036038101906102e29190612db3565b610bfc565b6040516102f49190612df9565b60405180910390f35b34801561030957600080fd5b50610324600480360381019061031f9190612e40565b610c14565b005b34801561033257600080fd5b5061034d60048036038101906103489190612e6d565b610c66565b60405161035a9190612ec8565b60405180910390f35b34801561036f57600080fd5b5061038a60048036038101906103859190612e40565b610c7a565b005b6103a660048036038101906103a19190612e40565b610ccc565b005b3480156103b457600080fd5b506103bd610f74565b005b3480156103cb57600080fd5b506103e660048036038101906103e19190612e40565b611139565b6040516103f39190612f73565b60405180910390f35b34801561040857600080fd5b50610423600480360381019061041e9190612e40565b6111de565b6040516104309190612df9565b60405180910390f35b34801561044557600080fd5b50610460600480360381019061045b9190612e6d565b6111f6565b60405161046d9190612ec8565b60405180910390f35b61047e61125e565b005b34801561048c57600080fd5b506104a760048036038101906104a29190612db3565b611384565b005b3480156104b557600080fd5b506104d060048036038101906104cb9190612db3565b611433565b6040516104dd9190612df9565b60405180910390f35b3480156104f257600080fd5b5061050d60048036038101906105089190612e6d565b61144b565b60405161051a9190612df9565b60405180910390f35b34801561052f57600080fd5b5061054a60048036038101906105459190612f95565b6114b1565b005b34801561055857600080fd5b50610561611698565b005b34801561056f57600080fd5b506105786116ac565b6040516105859190612df9565b60405180910390f35b34801561059a57600080fd5b506105a36116b2565b6040516105b09190612df9565b60405180910390f35b3480156105c557600080fd5b506105ce6116b8565b6040516105db9190612fe4565b60405180910390f35b3480156105f057600080fd5b5061060b60048036038101906106069190612db3565b6116e1565b6040516106189190612ec8565b60405180910390f35b34801561062d57600080fd5b5061064860048036038101906106439190613064565b61172d565b005b34801561065657600080fd5b50610671600480360381019061066c9190612e40565b611791565b60405161067e9190612f73565b60405180910390f35b61068f611831565b005b34801561069d57600080fd5b506106b860048036038101906106b39190612db3565b6118f7565b6040516106c59190612f73565b60405180910390f35b3480156106da57600080fd5b506106f560048036038101906106f091906130b1565b6119db565b005b34801561070357600080fd5b5061071e60048036038101906107199190612db3565b611a47565b60405161072b9190612df9565b60405180910390f35b34801561074057600080fd5b50610749611a90565b6040516107569190613150565b60405180910390f35b34801561076b57600080fd5b5061078660048036038101906107819190612db3565b611ab6565b6040516107939190612df9565b60405180910390f35b3480156107a857600080fd5b506107c360048036038101906107be9190612db3565b611ace565b005b3480156107d157600080fd5b506107ec60048036038101906107e7919061316b565b611b7d565b005b3480156107fa57600080fd5b5061081560048036038101906108109190612db3565b611be3565b6040516108229190612df9565b60405180910390f35b34801561083757600080fd5b50610852600480360381019061084d9190613221565b611c2c565b005b34801561086057600080fd5b5061087b60048036038101906108769190612e40565b611d0b565b005b34801561088957600080fd5b506108a4600480360381019061089f9190612db3565b611d59565b6040516108b19190612df9565b60405180910390f35b3480156108c657600080fd5b506108cf611d71565b6040516108dc9190612df9565b60405180910390f35b3480156108f157600080fd5b5061090c60048036038101906109079190612db3565b611d77565b005b6000610998600860008473ffffffffffffffffffffffffffffffffffffffff1673ffffffffffffffffffffffffffffffffffffffff16815260200190815260200160002054600960008573ffffffffffffffffffffffffffffffffffffffff1673ffffffffffffffffffffffffffffffffffffffff16815260200190815260200160002054611dfa565b9050919050565b600f6020528060005260406000206000915090505481565b6109c081611e1d565b6109c981611e79565b6109d38282611ec9565b6000600b60008381526020019081526020016000205490506000600260009054906101000a900473ffffffffffffffffffffffffffffffffffffffff1673ffffffffffffffffffffffffffffffffffffffff1663313ce5676040518163ffffffff1660e01b8152600401602060405180830381865afa158015610a5a573d6000803e3d6000fd5b505050506040513d601f19601f82011682018060405250810190610a7e91906132a7565b60ff169050600081600a610a929190613436565b905060008184610aa29190613481565b9050600260009054906101000a900473ffffffffffffffffffffffffffffffffffffffff1673ffffffffffffffffffffffffffffffffffffffff166323b872dd3388846040518463ffffffff1660e01b8152600401610b03939291906134c3565b6020604051808303816000875af1158015610b22573d6000803e3d6000fd5b505050506040513d601f19601f82011682018060405250810190610b469190613526565b506001600a60003373ffffffffffffffffffffffffffffffffffffffff1673ffffffffffffffffffffffffffffffffffffffff168152602001908152602001600020600087815260200190815260200160002060006101000a81548160ff021916908315150217905550843373ffffffffffffffffffffffffffffffffffffffff167fe20750a4417f37bd85a195d63720cb1c314963d8888dc41e6323fed4805542ac60405160405180910390a3505050505050565b60086020528060005260406000206000915090505481565b610c1c611f0d565b610c2581611f8b565b806010819055507f72ea2c9c38b647a7ef112a9939feedf39954cffb5d3639491a358ac0adf950a681604051610c5b9190612df9565b60405180910390a150565b6000610c728383611fc8565b905092915050565b610c82611f0d565b610c8b816120a5565b806011819055507f3200057f39b60b2ce0d5c0768cd90469dc468a882eec07ce1802fef660ebee5981604051610cc19190612df9565b60405180910390a150565b610cd5816120e2565b610cdd61211f565b610ce68161215b565b6000600260009054906101000a900473ffffffffffffffffffffffffffffffffffffffff1673ffffffffffffffffffffffffffffffffffffffff166370a08231306040518263ffffffff1660e01b8152600401610d439190612fe4565b602060405180830381865afa158015610d60573d6000803e3d6000fd5b505050506040513d601f19601f82011682018060405250810190610d849190613568565b90506000600260009054906101000a900473ffffffffffffffffffffffffffffffffffffffff1673ffffffffffffffffffffffffffffffffffffffff1663313ce5676040518163ffffffff1660e01b8152600401602060405180830381865afa158015610df5573d6000803e3d6000fd5b505050506040513d601f19601f82011682018060405250810190610e1991906132a7565b600a610e259190613595565b83610e309190613481565b9050808210610edf57600260009054906101000a900473ffffffffffffffffffffffffffffffffffffffff1673ffffffffffffffffffffffffffffffffffffffff1663a9059cbb33836040518363ffffffff1660e01b8152600401610e969291906135e0565b6020604051808303816000875af1158015610eb5573d6000803e3d6000fd5b505050506040513d601f19601f82011682018060405250810190610ed99190613526565b50610f6f565b600260009054906101000a900473ffffffffffffffffffffffffffffffffffffffff1673ffffffffffffffffffffffffffffffffffffffff166340c10f1933836040518363ffffffff1660e01b8152600401610f3c9291906135e0565b600060405180830381600087803b158015610f5657600080fd5b505af1158015610f6a573d6000803e3d6000fd5b505050505b505050565b610f7c6121aa565b610f846121f9565b610f8c612274565b6000600860003373ffffffffffffffffffffffffffffffffffffffff1673ffffffffffffffffffffffffffffffffffffffff1681526020019081526020016000205490506000600960003373ffffffffffffffffffffffffffffffffffffffff1673ffffffffffffffffffffffffffffffffffffffff16815260200190815260200160002054905060006110208383611dfa565b9050818361102e9190613609565b600960003373ffffffffffffffffffffffffffffffffffffffff1673ffffffffffffffffffffffffffffffffffffffff1681526020019081526020016000208190555060003373ffffffffffffffffffffffffffffffffffffffff16826040516110979061366e565b60006040518083038185875af1925050503d80600081146110d4576040519150601f19603f3d011682016040523d82523d6000602084013e6110d9565b606091505b50509050806110e757600080fd5b813373ffffffffffffffffffffffffffffffffffffffff167ffc30cddea38e2bf4d6ea7d3f9ed3b6ad7f176419f4963bd81318067a4aee73fe60405160405180910390a35050505061113761234b565b565b6060600560008381526020019081526020016000208054611159906136b2565b80601f0160208091040260200160405190810160405280929190818152602001828054611185906136b2565b80156111d25780601f106111a7576101008083540402835291602001916111d2565b820191906000526020600020905b8154815290600101906020018083116111b557829003601f168201915b50505050509050919050565b600b6020528060005260406000206000915090505481565b6000600a60008473ffffffffffffffffffffffffffffffffffffffff1673ffffffffffffffffffffffffffffffffffffffff168152602001908152602001600020600083815260200190815260200160002060009054906101000a900460ff16905092915050565b611266612354565b6000600f6000348152602001908152602001600020549050611287816123cf565b600080600e60003373ffffffffffffffffffffffffffffffffffffffff1673ffffffffffffffffffffffffffffffffffffffff168152602001908152602001600020549050428110156112e75782426112e09190613609565b91506112f6565b82816112f39190613609565b91505b81600e60003373ffffffffffffffffffffffffffffffffffffffff1673ffffffffffffffffffffffffffffffffffffffff1681526020019081526020016000208190555082823373ffffffffffffffffffffffffffffffffffffffff167fb3abbf202f180f33d8c665604028b8c2bc6db0b430eee642e6a87c332ba9df3a60405160405180910390a4505050565b61138c611f0d565b6113958161240c565b6000600c60008373ffffffffffffffffffffffffffffffffffffffff1673ffffffffffffffffffffffffffffffffffffffff16815260200190815260200160002060006101000a81548160ff0219169083151502179055508073ffffffffffffffffffffffffffffffffffffffff167ff125aa5e6cb22c17ea0de4e1f86d2ff289ddd6a37e791b9ad29d0091cba06ac860405160405180910390a250565b60046020528060005260406000206000915090505481565b6000600660008473ffffffffffffffffffffffffffffffffffffffff1673ffffffffffffffffffffffffffffffffffffffff168152602001908152602001600020828154811061149e5761149d6136e3565b5b9060005260206000200154905092915050565b6114ba826120e2565b6000600260009054906101000a900473ffffffffffffffffffffffffffffffffffffffff1673ffffffffffffffffffffffffffffffffffffffff1663313ce5676040518163ffffffff1660e01b8152600401602060405180830381865afa158015611529573d6000803e3d6000fd5b505050506040513d601f19601f8201168201806040525081019061154d91906132a7565b600a6115599190613595565b836115649190613481565b9050600260009054906101000a900473ffffffffffffffffffffffffffffffffffffffff1673ffffffffffffffffffffffffffffffffffffffff166323b872dd3330846040518463ffffffff1660e01b81526004016115c5939291906134c3565b6020604051808303816000875af11580156115e4573d6000803e3d6000fd5b505050506040513d601f19601f820116820180604052508101906116089190613526565b506000601154846116199190613481565b905060008373ffffffffffffffffffffffffffffffffffffffff16826040516116419061366e565b60006040518083038185875af1925050503d806000811461167e576040519150601f19603f3d011682016040523d82523d6000602084013e611683565b606091505b505090508061169157600080fd5b5050505050565b6116a0611f0d565b6116aa6000612492565b565b60105481565b60115481565b60008060009054906101000a900473ffffffffffffffffffffffffffffffffffffffff16905090565b600042600e60008473ffffffffffffffffffffffffffffffffffffffff1673ffffffffffffffffffffffffffffffffffffffff1681526020019081526020016000205410159050919050565b6117378282612556565b61173f612597565b61178d3383838080601f016020809104026020016040519081016040528093929190818152602001838380828437600081840152601f19601f82011690508083019250505050505050612613565b5050565b600d60205280600052604060002060009150905080546117b0906136b2565b80601f01602080910402602001604051908101604052809291908181526020018280546117dc906136b2565b80156118295780601f106117fe57610100808354040283529160200191611829565b820191906000526020600020905b81548152906001019060200180831161180c57829003601f168201915b505050505081565b61183961271f565b6000600f600034815260200190815260200160002054905061185a816123cf565b600081426118689190613609565b905080600e60003373ffffffffffffffffffffffffffffffffffffffff1673ffffffffffffffffffffffffffffffffffffffff1681526020019081526020016000208190555081813373ffffffffffffffffffffffffffffffffffffffff167feec977e786e7248a658b0474ccf8f57f37ead019014ec4d5ba1542ddabeff1b460405160405180910390a45050565b6060600d6000600460008573ffffffffffffffffffffffffffffffffffffffff1673ffffffffffffffffffffffffffffffffffffffff1681526020019081526020016000205481526020019081526020016000208054611956906136b2565b80601f0160208091040260200160405190810160405280929190818152602001828054611982906136b2565b80156119cf5780601f106119a4576101008083540402835291602001916119cf565b820191906000526020600020905b8154815290600101906020018083116119b257829003601f168201915b50505050509050919050565b6119e3611f0d565b600082116119f057600080fd5b600081116119fd57600080fd5b80600f60008481526020019081526020016000208190555080827f54cba80c24bb8b943b0467102348972ab8b8d832c8fe766604a41205029bdeb560405160405180910390a35050565b6000600760008373ffffffffffffffffffffffffffffffffffffffff1673ffffffffffffffffffffffffffffffffffffffff168152602001908152602001600020549050919050565b600260009054906101000a900473ffffffffffffffffffffffffffffffffffffffff1681565b60096020528060005260406000206000915090505481565b611ad6611f0d565b611adf8161279b565b6001600c60008373ffffffffffffffffffffffffffffffffffffffff1673ffffffffffffffffffffffffffffffffffffffff16815260200190815260200160002060006101000a81548160ff0219169083151502179055508073ffffffffffffffffffffffffffffffffffffffff167f52824c4a4d431c73d6d24a91f775d722860111c6d30da30b0b21e062fb4c736560405160405180910390a250565b611b878383612822565b611b8f6121f9565b611bde3384848080601f016020809104026020016040519081016040528093929190818152602001838380828437600081840152601f19601f8201169050808301925050505050505083612863565b505050565b6000600460008373ffffffffffffffffffffffffffffffffffffffff1673ffffffffffffffffffffffffffffffffffffffff168152602001908152602001600020549050919050565b611c353361240c565b611c3f82826129fe565b60005b82829050811015611cda576000838383818110611c6257611c616136e3565b5b905060400201803603810190611c7891906137e2565b9050806020015160086000836000015173ffffffffffffffffffffffffffffffffffffffff1673ffffffffffffffffffffffffffffffffffffffff16815260200190815260200160002081905550508080611cd29061380f565b915050611c42565b507fb1f4c00fef5089fc65c077ba0529ff566678425b72c5ef25184eb9158cf006eb60405160405180910390a15050565b611d13611f0d565b60008111611d2057600080fd5b806003819055506003547fde2a550feb6ab90bd4c3e2d079c1e9f15fa6c1616cd90660836219be038742e960405160405180910390a250565b600e6020528060005260406000206000915090505481565b60035481565b611d7f611f0d565b600073ffffffffffffffffffffffffffffffffffffffff168173ffffffffffffffffffffffffffffffffffffffff1603611dee576040517f08c379a0000000000000000000000000000000000000000000000000000000008152600401611de5906138c9565b60405180910390fd5b611df781612492565b50565b60008183611e0891906138e9565b600354611e159190613481565b905092915050565b6000600560008381526020019081526020016000208054611e3d906136b2565b905003611e76576040517f439dd45c00000000000000000000000000000000000000000000000000000000815260040160405180910390fd5b50565b6000600b60008381526020019081526020016000205403611ec6576040517f298763a600000000000000000000000000000000000000000000000000000000815260040160405180910390fd5b50565b611ed38282611fc8565b611f09576040517f46b47f2500000000000000000000000000000000000000000000000000000000815260040160405180910390fd5b5050565b611f15612bbc565b73ffffffffffffffffffffffffffffffffffffffff16611f336116b8565b73ffffffffffffffffffffffffffffffffffffffff1614611f89576040517f08c379a0000000000000000000000000000000000000000000000000000000008152600401611f8090613969565b60405180910390fd5b565b60008103611fc5576040517f6629597700000000000000000000000000000000000000000000000000000000815260040160405180910390fd5b50565b600080600760008573ffffffffffffffffffffffffffffffffffffffff1673ffffffffffffffffffffffffffffffffffffffff16815260200190815260200160002054905060005b818110156120985783600660008773ffffffffffffffffffffffffffffffffffffffff1673ffffffffffffffffffffffffffffffffffffffff168152602001908152602001600020828154811061206a576120696136e3565b5b9060005260206000200154036120855760019250505061209f565b80806120909061380f565b915050612010565b5060009150505b92915050565b600081036120df576040517f2c669f0a00000000000000000000000000000000000000000000000000000000815260040160405180910390fd5b50565b6000810361211c576040517fd11b25af00000000000000000000000000000000000000000000000000000000815260040160405180910390fd5b50565b60003403612159576040517fc70d18aa00000000000000000000000000000000000000000000000000000000815260040160405180910390fd5b565b60006011548261216b9190613481565b90503481146121a6576040517f03862d0b00000000000000000000000000000000000000000000000000000000815260040160405180910390fd5b5050565b6002600154036121ef576040517f08c379a00000000000000000000000000000000000000000000000000000000081526004016121e6906139d5565b60405180910390fd5b6002600181905550565b6000600460003373ffffffffffffffffffffffffffffffffffffffff1673ffffffffffffffffffffffffffffffffffffffff1681526020019081526020016000205403612272576040517f5ba4c78d00000000000000000000000000000000000000000000000000000000815260040160405180910390fd5b565b6000600860003373ffffffffffffffffffffffffffffffffffffffff1673ffffffffffffffffffffffffffffffffffffffff1681526020019081526020016000205490506000600960003373ffffffffffffffffffffffffffffffffffffffff1673ffffffffffffffffffffffffffffffffffffffff1681526020019081526020016000205490506000818361230a91906138e9565b905060008103612346576040517ff40c208900000000000000000000000000000000000000000000000000000000815260040160405180910390fd5b505050565b60018081905550565b6000600e60003373ffffffffffffffffffffffffffffffffffffffff1673ffffffffffffffffffffffffffffffffffffffff16815260200190815260200160002054036123cd576040517f0ba7474000000000000000000000000000000000000000000000000000000000815260040160405180910390fd5b565b60008103612409576040517f64fc58f000000000000000000000000000000000000000000000000000000000815260040160405180910390fd5b50565b600c60008273ffffffffffffffffffffffffffffffffffffffff1673ffffffffffffffffffffffffffffffffffffffff16815260200190815260200160002060009054906101000a900460ff1661248f576040517fed8b45b100000000000000000000000000000000000000000000000000000000815260040160405180910390fd5b50565b60008060009054906101000a900473ffffffffffffffffffffffffffffffffffffffff169050816000806101000a81548173ffffffffffffffffffffffffffffffffffffffff021916908373ffffffffffffffffffffffffffffffffffffffff1602179055508173ffffffffffffffffffffffffffffffffffffffff168173ffffffffffffffffffffffffffffffffffffffff167f8be0079c531659141344cd1fd0a4f28419497f9722a3daafe3b4186f6b6457e060405160405180910390a35050565b60008282905003612593576040517fd9a5fbfc00000000000000000000000000000000000000000000000000000000815260040160405180910390fd5b5050565b6000600460003373ffffffffffffffffffffffffffffffffffffffff1673ffffffffffffffffffffffffffffffffffffffff168152602001908152602001600020541115612611576040517f9b70f42400000000000000000000000000000000000000000000000000000000815260040160405180910390fd5b565b600061261d612bc4565b90506000600d6000838152602001908152602001600020805461263f906136b2565b905011156126525761264f612bc4565b90505b81600d600083815260200190815260200160002090816126729190613b97565b5080600460008573ffffffffffffffffffffffffffffffffffffffff1673ffffffffffffffffffffffffffffffffffffffff1681526020019081526020016000208190555080600160028111156126cc576126cb613c69565b5b8473ffffffffffffffffffffffffffffffffffffffff167f530708815c9407cb1f2859a353ee291d1acfe7a488d4347780a1d35690b90726856040516127129190612f73565b60405180910390a4505050565b6000600e60003373ffffffffffffffffffffffffffffffffffffffff1673ffffffffffffffffffffffffffffffffffffffff168152602001908152602001600020541115612799576040517fefecdc3c00000000000000000000000000000000000000000000000000000000815260040160405180910390fd5b565b600c60008273ffffffffffffffffffffffffffffffffffffffff1673ffffffffffffffffffffffffffffffffffffffff16815260200190815260200160002060009054906101000a900460ff161561281f576040517f18d9ae0900000000000000000000000000000000000000000000000000000000815260040160405180910390fd5b50565b6000828290500361285f576040517fe7f85e7900000000000000000000000000000000000000000000000000000000815260040160405180910390fd5b5050565b600061286d612bc4565b9050600060056000838152602001908152602001600020805461288f906136b2565b905011156128a25761289f612bc4565b90505b826005600083815260200190815260200160002090816128c29190613b97565b50600660008573ffffffffffffffffffffffffffffffffffffffff1673ffffffffffffffffffffffffffffffffffffffff168152602001908152602001600020819080600181540180825580915050600190039060005260206000200160009091909190915055600760008573ffffffffffffffffffffffffffffffffffffffff1673ffffffffffffffffffffffffffffffffffffffff16815260200190815260200160002060008154809291906129799061380f565b919050555081600b600083815260200190815260200160002081905550806002808111156129aa576129a9613c69565b5b8573ffffffffffffffffffffffffffffffffffffffff167f530708815c9407cb1f2859a353ee291d1acfe7a488d4347780a1d35690b90726866040516129f09190612f73565b60405180910390a450505050565b60008282905003612a3b576040517ff2486cbe00000000000000000000000000000000000000000000000000000000815260040160405180910390fd5b60005b82829050811015612bb7576000838383818110612a5e57612a5d6136e3565b5b905060400201803603810190612a7491906137e2565b9050600060046000836000015173ffffffffffffffffffffffffffffffffffffffff1673ffffffffffffffffffffffffffffffffffffffff1681526020019081526020016000205403612b0857806000015181602001516040517f3b573da2000000000000000000000000000000000000000000000000000000008152600401612aff9291906135e0565b60405180910390fd5b600060086000836000015173ffffffffffffffffffffffffffffffffffffffff1673ffffffffffffffffffffffffffffffffffffffff16815260200190815260200160002054905081602001518110612ba257816000015182602001516040517f3b573da2000000000000000000000000000000000000000000000000000000008152600401612b999291906135e0565b60405180910390fd5b50508080612baf9061380f565b915050612a3e565b505050565b600033905090565b6000615aff461480612bd75750615afe46145b15612c1957612c06602042604051602001612bf29190613cb9565b604051602081830303815290604052612c52565b612c0f90613d0e565b60001c9050612c4f565b334340424441604051602001612c33959493929190613e19565b6040516020818303038152906040528051906020012060001c90505b90565b606060008073010000000000000000000000000000000000000173ffffffffffffffffffffffffffffffffffffffff168585604051602001612c95929190613ec2565b604051602081830303815290604052604051612cb19190613f23565b600060405180830381855afa9150503d8060008114612cec576040519150601f19603f3d011682016040523d82523d6000602084013e612cf1565b606091505b509150915081612d36576040517f08c379a0000000000000000000000000000000000000000000000000000000008152600401612d2d90613f86565b60405180910390fd5b809250505092915050565b6000604051905090565b600080fd5b600080fd5b600073ffffffffffffffffffffffffffffffffffffffff82169050919050565b6000612d8082612d55565b9050919050565b612d9081612d75565b8114612d9b57600080fd5b50565b600081359050612dad81612d87565b92915050565b600060208284031215612dc957612dc8612d4b565b5b6000612dd784828501612d9e565b91505092915050565b6000819050919050565b612df381612de0565b82525050565b6000602082019050612e0e6000830184612dea565b92915050565b612e1d81612de0565b8114612e2857600080fd5b50565b600081359050612e3a81612e14565b92915050565b600060208284031215612e5657612e55612d4b565b5b6000612e6484828501612e2b565b91505092915050565b60008060408385031215612e8457612e83612d4b565b5b6000612e9285828601612d9e565b9250506020612ea385828601612e2b565b9150509250929050565b60008115159050919050565b612ec281612ead565b82525050565b6000602082019050612edd6000830184612eb9565b92915050565b600081519050919050565b600082825260208201905092915050565b60005b83811015612f1d578082015181840152602081019050612f02565b60008484015250505050565b6000601f19601f8301169050919050565b6000612f4582612ee3565b612f4f8185612eee565b9350612f5f818560208601612eff565b612f6881612f29565b840191505092915050565b60006020820190508181036000830152612f8d8184612f3a565b905092915050565b60008060408385031215612fac57612fab612d4b565b5b6000612fba85828601612e2b565b9250506020612fcb85828601612d9e565b9150509250929050565b612fde81612d75565b82525050565b6000602082019050612ff96000830184612fd5565b92915050565b600080fd5b600080fd5b600080fd5b60008083601f84011261302457613023612fff565b5b8235905067ffffffffffffffff81111561304157613040613004565b5b60208301915083600182028301111561305d5761305c613009565b5b9250929050565b6000806020838503121561307b5761307a612d4b565b5b600083013567ffffffffffffffff81111561309957613098612d50565b5b6130a58582860161300e565b92509250509250929050565b600080604083850312156130c8576130c7612d4b565b5b60006130d685828601612e2b565b92505060206130e785828601612e2b565b9150509250929050565b6000819050919050565b600061311661311161310c84612d55565b6130f1565b612d55565b9050919050565b6000613128826130fb565b9050919050565b600061313a8261311d565b9050919050565b61314a8161312f565b82525050565b60006020820190506131656000830184613141565b92915050565b60008060006040848603121561318457613183612d4b565b5b600084013567ffffffffffffffff8111156131a2576131a1612d50565b5b6131ae8682870161300e565b935093505060206131c186828701612e2b565b9150509250925092565b60008083601f8401126131e1576131e0612fff565b5b8235905067ffffffffffffffff8111156131fe576131fd613004565b5b60208301915083604082028301111561321a57613219613009565b5b9250929050565b6000806020838503121561323857613237612d4b565b5b600083013567ffffffffffffffff81111561325657613255612d50565b5b613262858286016131cb565b92509250509250929050565b600060ff82169050919050565b6132848161326e565b811461328f57600080fd5b50565b6000815190506132a18161327b565b92915050565b6000602082840312156132bd576132bc612d4b565b5b60006132cb84828501613292565b91505092915050565b7f4e487b7100000000000000000000000000000000000000000000000000000000600052601160045260246000fd5b60008160011c9050919050565b6000808291508390505b600185111561335a57808604811115613336576133356132d4565b5b60018516156133455780820291505b808102905061335385613303565b945061331a565b94509492505050565b600082613373576001905061342f565b81613381576000905061342f565b816001811461339757600281146133a1576133d0565b600191505061342f565b60ff8411156133b3576133b26132d4565b5b8360020a9150848211156133ca576133c96132d4565b5b5061342f565b5060208310610133831016604e8410600b84101617156134055782820a905083811115613400576133ff6132d4565b5b61342f565b6134128484846001613310565b92509050818404811115613429576134286132d4565b5b81810290505b9392505050565b600061344182612de0565b915061344c83612de0565b92506134797fffffffffffffffffffffffffffffffffffffffffffffffffffffffffffffffff8484613363565b905092915050565b600061348c82612de0565b915061349783612de0565b92508282026134a581612de0565b915082820484148315176134bc576134bb6132d4565b5b5092915050565b60006060820190506134d86000830186612fd5565b6134e56020830185612fd5565b6134f26040830184612dea565b949350505050565b61350381612ead565b811461350e57600080fd5b50565b600081519050613520816134fa565b92915050565b60006020828403121561353c5761353b612d4b565b5b600061354a84828501613511565b91505092915050565b60008151905061356281612e14565b92915050565b60006020828403121561357e5761357d612d4b565b5b600061358c84828501613553565b91505092915050565b60006135a082612de0565b91506135ab8361326e565b92506135d87fffffffffffffffffffffffffffffffffffffffffffffffffffffffffffffffff8484613363565b905092915050565b60006040820190506135f56000830185612fd5565b6136026020830184612dea565b9392505050565b600061361482612de0565b915061361f83612de0565b9250828201905080821115613637576136366132d4565b5b92915050565b600081905092915050565b50565b600061365860008361363d565b915061366382613648565b600082019050919050565b60006136798261364b565b9150819050919050565b7f4e487b7100000000000000000000000000000000000000000000000000000000600052602260045260246000fd5b600060028204905060018216806136ca57607f821691505b6020821081036136dd576136dc613683565b5b50919050565b7f4e487b7100000000000000000000000000000000000000000000000000000000600052603260045260246000fd5b600080fd5b7f4e487b7100000000000000000000000000000000000000000000000000000000600052604160045260246000fd5b61374f82612f29565b810181811067ffffffffffffffff8211171561376e5761376d613717565b5b80604052505050565b6000613781612d41565b905061378d8282613746565b919050565b6000604082840312156137a8576137a7613712565b5b6137b26040613777565b905060006137c284828501612d9e565b60008301525060206137d684828501612e2b565b60208301525092915050565b6000604082840312156137f8576137f7612d4b565b5b600061380684828501613792565b91505092915050565b600061381a82612de0565b91507fffffffffffffffffffffffffffffffffffffffffffffffffffffffffffffffff820361384c5761384b6132d4565b5b600182019050919050565b7f4f776e61626c653a206e6577206f776e657220697320746865207a65726f206160008201527f6464726573730000000000000000000000000000000000000000000000000000602082015250565b60006138b3602683612eee565b91506138be82613857565b604082019050919050565b600060208201905081810360008301526138e2816138a6565b9050919050565b60006138f482612de0565b91506138ff83612de0565b9250828203905081811115613917576139166132d4565b5b92915050565b7f4f776e61626c653a2063616c6c6572206973206e6f7420746865206f776e6572600082015250565b6000613953602083612eee565b915061395e8261391d565b602082019050919050565b6000602082019050818103600083015261398281613946565b9050919050565b7f5265656e7472616e637947756172643a207265656e7472616e742063616c6c00600082015250565b60006139bf601f83612eee565b91506139ca82613989565b602082019050919050565b600060208201905081810360008301526139ee816139b2565b9050919050565b60008190508160005260206000209050919050565b60006020601f8301049050919050565b600082821b905092915050565b600060088302613a577fffffffffffffffffffffffffffffffffffffffffffffffffffffffffffffffff82613a1a565b613a618683613a1a565b95508019841693508086168417925050509392505050565b6000613a94613a8f613a8a84612de0565b6130f1565b612de0565b9050919050565b6000819050919050565b613aae83613a79565b613ac2613aba82613a9b565b848454613a27565b825550505050565b600090565b613ad7613aca565b613ae2818484613aa5565b505050565b5b81811015613b0657613afb600082613acf565b600181019050613ae8565b5050565b601f821115613b4b57613b1c816139f5565b613b2584613a0a565b81016020851015613b34578190505b613b48613b4085613a0a565b830182613ae7565b50505b505050565b600082821c905092915050565b6000613b6e60001984600802613b50565b1980831691505092915050565b6000613b878383613b5d565b9150826002028217905092915050565b613ba082612ee3565b67ffffffffffffffff811115613bb957613bb8613717565b5b613bc382546136b2565b613bce828285613b0a565b600060209050601f831160018114613c015760008415613bef578287015190505b613bf98582613b7b565b865550613c61565b601f198416613c0f866139f5565b60005b82811015613c3757848901518255600182019150602085019450602081019050613c12565b86831015613c545784890151613c50601f891682613b5d565b8355505b6001600288020188555050505b505050505050565b7f4e487b7100000000000000000000000000000000000000000000000000000000600052602160045260246000fd5b6000819050919050565b613cb3613cae82612de0565b613c98565b82525050565b6000613cc58284613ca2565b60208201915081905092915050565b600081519050919050565b6000819050602082019050919050565b6000819050919050565b6000613d058251613cef565b80915050919050565b6000613d1982613cd4565b82613d2384613cdf565b9050613d2e81613cf9565b92506020821015613d6e57613d697fffffffffffffffffffffffffffffffffffffffffffffffffffffffffffffffff83602003600802613a1a565b831692505b5050919050565b60008160601b9050919050565b6000613d8d82613d75565b9050919050565b6000613d9f82613d82565b9050919050565b613db7613db282612d75565b613d94565b82525050565b6000819050919050565b613dd8613dd382613cef565b613dbd565b82525050565b6000613de982612d55565b9050919050565b6000613dfb82613d82565b9050919050565b613e13613e0e82613dde565b613df0565b82525050565b6000613e258288613da6565b601482019150613e358287613dc7565b602082019150613e458286613ca2565b602082019150613e558285613ca2565b602082019150613e658284613e02565b6014820191508190509695505050505050565b600082825260208201905092915050565b6000613e9482613cd4565b613e9e8185613e78565b9350613eae818560208601612eff565b613eb781612f29565b840191505092915050565b6000604082019050613ed76000830185612dea565b8181036020830152613ee98184613e89565b90509392505050565b6000613efd82613cd4565b613f07818561363d565b9350613f17818560208601612eff565b80840191505092915050565b6000613f2f8284613ef2565b915081905092915050565b7f72616e646f6d42797465733a206661696c656400000000000000000000000000600082015250565b6000613f70601383612eee565b9150613f7b82613f3a565b602082019050919050565b60006020820190508181036000830152613f9f81613f63565b905091905056fea2646970667358221220062710a8d66015dfa099c46ba74c03e25bd1fde44e305a288eeecbcb13f863f964736f6c6343000813003360806040523480156200001157600080fd5b506040518060400160405280600a81526020017f4a55535420746f6b656e000000000000000000000000000000000000000000008152506040518060400160405280600481526020017f4a5553540000000000000000000000000000000000000000000000000000000081525081600390816200008f919062000412565b508060049081620000a1919062000412565b505050620000c4620000b8620000ca60201b60201c565b620000d260201b60201c565b620004f9565b600033905090565b6000600560009054906101000a900473ffffffffffffffffffffffffffffffffffffffff16905081600560006101000a81548173ffffffffffffffffffffffffffffffffffffffff021916908373ffffffffffffffffffffffffffffffffffffffff1602179055508173ffffffffffffffffffffffffffffffffffffffff168173ffffffffffffffffffffffffffffffffffffffff167f8be0079c531659141344cd1fd0a4f28419497f9722a3daafe3b4186f6b6457e060405160405180910390a35050565b600081519050919050565b7f4e487b7100000000000000000000000000000000000000000000000000000000600052604160045260246000fd5b7f4e487b7100000000000000000000000000000000000000000000000000000000600052602260045260246000fd5b600060028204905060018216806200021a57607f821691505b60208210810362000230576200022f620001d2565b5b50919050565b60008190508160005260206000209050919050565b60006020601f8301049050919050565b600082821b905092915050565b6000600883026200029a7fffffffffffffffffffffffffffffffffffffffffffffffffffffffffffffffff826200025b565b620002a686836200025b565b95508019841693508086168417925050509392505050565b6000819050919050565b6000819050919050565b6000620002f3620002ed620002e784620002be565b620002c8565b620002be565b9050919050565b6000819050919050565b6200030f83620002d2565b620003276200031e82620002fa565b84845462000268565b825550505050565b600090565b6200033e6200032f565b6200034b81848462000304565b505050565b5b8181101562000373576200036760008262000334565b60018101905062000351565b5050565b601f821115620003c2576200038c8162000236565b62000397846200024b565b81016020851015620003a7578190505b620003bf620003b6856200024b565b83018262000350565b50505b505050565b600082821c905092915050565b6000620003e760001984600802620003c7565b1980831691505092915050565b6000620004028383620003d4565b9150826002028217905092915050565b6200041d8262000198565b67ffffffffffffffff811115620004395762000438620001a3565b5b62000445825462000201565b6200045282828562000377565b600060209050601f8311600181146200048a576000841562000475578287015190505b620004818582620003f4565b865550620004f1565b601f1984166200049a8662000236565b60005b82811015620004c4578489015182556001820191506020850194506020810190506200049d565b86831015620004e45784890151620004e0601f891682620003d4565b8355505b6001600288020188555050505b505050505050565b6117e080620005096000396000f3fe608060405234801561001057600080fd5b50600436106100f55760003560e01c806370a0823111610097578063a457c2d711610066578063a457c2d714610276578063a9059cbb146102a6578063dd62ed3e146102d6578063f2fde38b14610306576100f5565b806370a0823114610200578063715018a6146102305780638da5cb5b1461023a57806395d89b4114610258576100f5565b806323b872dd116100d357806323b872dd14610166578063313ce5671461019657806339509351146101b457806340c10f19146101e4576100f5565b806306fdde03146100fa578063095ea7b31461011857806318160ddd14610148575b600080fd5b610102610322565b60405161010f9190610f29565b60405180910390f35b610132600480360381019061012d9190610fe4565b6103b4565b60405161013f919061103f565b60405180910390f35b6101506103d7565b60405161015d9190611069565b60405180910390f35b610180600480360381019061017b9190611084565b6103e1565b60405161018d919061103f565b60405180910390f35b61019e610410565b6040516101ab91906110f3565b60405180910390f35b6101ce60048036038101906101c99190610fe4565b610419565b6040516101db919061103f565b60405180910390f35b6101fe60048036038101906101f99190610fe4565b610450565b005b61021a6004803603810190610215919061110e565b610466565b6040516102279190611069565b60405180910390f35b6102386104ae565b005b6102426104c2565b60405161024f919061114a565b60405180910390f35b6102606104ec565b60405161026d9190610f29565b60405180910390f35b610290600480360381019061028b9190610fe4565b61057e565b60405161029d919061103f565b60405180910390f35b6102c060048036038101906102bb9190610fe4565b6105f5565b6040516102cd919061103f565b60405180910390f35b6102f060048036038101906102eb9190611165565b610618565b6040516102fd9190611069565b60405180910390f35b610320600480360381019061031b919061110e565b61069f565b005b606060038054610331906111d4565b80601f016020809104026020016040519081016040528092919081815260200182805461035d906111d4565b80156103aa5780601f1061037f576101008083540402835291602001916103aa565b820191906000526020600020905b81548152906001019060200180831161038d57829003601f168201915b5050505050905090565b6000806103bf610722565b90506103cc81858561072a565b600191505092915050565b6000600254905090565b6000806103ec610722565b90506103f98582856108f3565b61040485858561097f565b60019150509392505050565b60006012905090565b600080610424610722565b90506104458185856104368589610618565b6104409190611234565b61072a565b600191505092915050565b610458610bf5565b6104628282610c73565b5050565b60008060008373ffffffffffffffffffffffffffffffffffffffff1673ffffffffffffffffffffffffffffffffffffffff168152602001908152602001600020549050919050565b6104b6610bf5565b6104c06000610dc9565b565b6000600560009054906101000a900473ffffffffffffffffffffffffffffffffffffffff16905090565b6060600480546104fb906111d4565b80601f0160208091040260200160405190810160405280929190818152602001828054610527906111d4565b80156105745780601f1061054957610100808354040283529160200191610574565b820191906000526020600020905b81548152906001019060200180831161055757829003601f168201915b5050505050905090565b600080610589610722565b905060006105978286610618565b9050838110156105dc576040517f08c379a00000000000000000000000000000000000000000000000000000000081526004016105d3906112da565b60405180910390fd5b6105e9828686840361072a565b60019250505092915050565b600080610600610722565b905061060d81858561097f565b600191505092915050565b6000600160008473ffffffffffffffffffffffffffffffffffffffff1673ffffffffffffffffffffffffffffffffffffffff16815260200190815260200160002060008373ffffffffffffffffffffffffffffffffffffffff1673ffffffffffffffffffffffffffffffffffffffff16815260200190815260200160002054905092915050565b6106a7610bf5565b600073ffffffffffffffffffffffffffffffffffffffff168173ffffffffffffffffffffffffffffffffffffffff1603610716576040517f08c379a000000000000000000000000000000000000000000000000000000000815260040161070d9061136c565b60405180910390fd5b61071f81610dc9565b50565b600033905090565b600073ffffffffffffffffffffffffffffffffffffffff168373ffffffffffffffffffffffffffffffffffffffff1603610799576040517f08c379a0000000000000000000000000000000000000000000000000000000008152600401610790906113fe565b60405180910390fd5b600073ffffffffffffffffffffffffffffffffffffffff168273ffffffffffffffffffffffffffffffffffffffff1603610808576040517f08c379a00000000000000000000000000000000000000000000000000000000081526004016107ff90611490565b60405180910390fd5b80600160008573ffffffffffffffffffffffffffffffffffffffff1673ffffffffffffffffffffffffffffffffffffffff16815260200190815260200160002060008473ffffffffffffffffffffffffffffffffffffffff1673ffffffffffffffffffffffffffffffffffffffff168152602001908152602001600020819055508173ffffffffffffffffffffffffffffffffffffffff168373ffffffffffffffffffffffffffffffffffffffff167f8c5be1e5ebec7d5bd14f71427d1e84f3dd0314c0f7b2291e5b200ac8c7c3b925836040516108e69190611069565b60405180910390a3505050565b60006108ff8484610618565b90507fffffffffffffffffffffffffffffffffffffffffffffffffffffffffffffffff8114610979578181101561096b576040517f08c379a0000000000000000000000000000000000000000000000000000000008152600401610962906114fc565b60405180910390fd5b610978848484840361072a565b5b50505050565b600073ffffffffffffffffffffffffffffffffffffffff168373ffffffffffffffffffffffffffffffffffffffff16036109ee576040517f08c379a00000000000000000000000000000000000000000000000000000000081526004016109e59061158e565b60405180910390fd5b600073ffffffffffffffffffffffffffffffffffffffff168273ffffffffffffffffffffffffffffffffffffffff1603610a5d576040517f08c379a0000000000000000000000000000000000000000000000000000000008152600401610a5490611620565b60405180910390fd5b610a68838383610e8f565b60008060008573ffffffffffffffffffffffffffffffffffffffff1673ffffffffffffffffffffffffffffffffffffffff16815260200190815260200160002054905081811015610aee576040517f08c379a0000000000000000000000000000000000000000000000000000000008152600401610ae5906116b2565b60405180910390fd5b8181036000808673ffffffffffffffffffffffffffffffffffffffff1673ffffffffffffffffffffffffffffffffffffffff16815260200190815260200160002081905550816000808573ffffffffffffffffffffffffffffffffffffffff1673ffffffffffffffffffffffffffffffffffffffff168152602001908152602001600020600082825401925050819055508273ffffffffffffffffffffffffffffffffffffffff168473ffffffffffffffffffffffffffffffffffffffff167fddf252ad1be2c89b69c2b068fc378daa952ba7f163c4a11628f55a4df523b3ef84604051610bdc9190611069565b60405180910390a3610bef848484610e94565b50505050565b610bfd610722565b73ffffffffffffffffffffffffffffffffffffffff16610c1b6104c2565b73ffffffffffffffffffffffffffffffffffffffff1614610c71576040517f08c379a0000000000000000000000000000000000000000000000000000000008152600401610c689061171e565b60405180910390fd5b565b600073ffffffffffffffffffffffffffffffffffffffff168273ffffffffffffffffffffffffffffffffffffffff1603610ce2576040517f08c379a0000000000000000000000000000000000000000000000000000000008152600401610cd99061178a565b60405180910390fd5b610cee60008383610e8f565b8060026000828254610d009190611234565b92505081905550806000808473ffffffffffffffffffffffffffffffffffffffff1673ffffffffffffffffffffffffffffffffffffffff168152602001908152602001600020600082825401925050819055508173ffffffffffffffffffffffffffffffffffffffff16600073ffffffffffffffffffffffffffffffffffffffff167fddf252ad1be2c89b69c2b068fc378daa952ba7f163c4a11628f55a4df523b3ef83604051610db19190611069565b60405180910390a3610dc560008383610e94565b5050565b6000600560009054906101000a900473ffffffffffffffffffffffffffffffffffffffff16905081600560006101000a81548173ffffffffffffffffffffffffffffffffffffffff021916908373ffffffffffffffffffffffffffffffffffffffff1602179055508173ffffffffffffffffffffffffffffffffffffffff168173ffffffffffffffffffffffffffffffffffffffff167f8be0079c531659141344cd1fd0a4f28419497f9722a3daafe3b4186f6b6457e060405160405180910390a35050565b505050565b505050565b600081519050919050565b600082825260208201905092915050565b60005b83811015610ed3578082015181840152602081019050610eb8565b60008484015250505050565b6000601f19601f8301169050919050565b6000610efb82610e99565b610f058185610ea4565b9350610f15818560208601610eb5565b610f1e81610edf565b840191505092915050565b60006020820190508181036000830152610f438184610ef0565b905092915050565b600080fd5b600073ffffffffffffffffffffffffffffffffffffffff82169050919050565b6000610f7b82610f50565b9050919050565b610f8b81610f70565b8114610f9657600080fd5b50565b600081359050610fa881610f82565b92915050565b6000819050919050565b610fc181610fae565b8114610fcc57600080fd5b50565b600081359050610fde81610fb8565b92915050565b60008060408385031215610ffb57610ffa610f4b565b5b600061100985828601610f99565b925050602061101a85828601610fcf565b9150509250929050565b60008115159050919050565b61103981611024565b82525050565b60006020820190506110546000830184611030565b92915050565b61106381610fae565b82525050565b600060208201905061107e600083018461105a565b92915050565b60008060006060848603121561109d5761109c610f4b565b5b60006110ab86828701610f99565b93505060206110bc86828701610f99565b92505060406110cd86828701610fcf565b9150509250925092565b600060ff82169050919050565b6110ed816110d7565b82525050565b600060208201905061110860008301846110e4565b92915050565b60006020828403121561112457611123610f4b565b5b600061113284828501610f99565b91505092915050565b61114481610f70565b82525050565b600060208201905061115f600083018461113b565b92915050565b6000806040838503121561117c5761117b610f4b565b5b600061118a85828601610f99565b925050602061119b85828601610f99565b9150509250929050565b7f4e487b7100000000000000000000000000000000000000000000000000000000600052602260045260246000fd5b600060028204905060018216806111ec57607f821691505b6020821081036111ff576111fe6111a5565b5b50919050565b7f4e487b7100000000000000000000000000000000000000000000000000000000600052601160045260246000fd5b600061123f82610fae565b915061124a83610fae565b925082820190508082111561126257611261611205565b5b92915050565b7f45524332303a2064656372656173656420616c6c6f77616e63652062656c6f7760008201527f207a65726f000000000000000000000000000000000000000000000000000000602082015250565b60006112c4602583610ea4565b91506112cf82611268565b604082019050919050565b600060208201905081810360008301526112f3816112b7565b9050919050565b7f4f776e61626c653a206e6577206f776e657220697320746865207a65726f206160008201527f6464726573730000000000000000000000000000000000000000000000000000602082015250565b6000611356602683610ea4565b9150611361826112fa565b604082019050919050565b6000602082019050818103600083015261138581611349565b9050919050565b7f45524332303a20617070726f76652066726f6d20746865207a65726f2061646460008201527f7265737300000000000000000000000000000000000000000000000000000000602082015250565b60006113e8602483610ea4565b91506113f38261138c565b604082019050919050565b60006020820190508181036000830152611417816113db565b9050919050565b7f45524332303a20617070726f766520746f20746865207a65726f20616464726560008201527f7373000000000000000000000000000000000000000000000000000000000000602082015250565b600061147a602283610ea4565b91506114858261141e565b604082019050919050565b600060208201905081810360008301526114a98161146d565b9050919050565b7f45524332303a20696e73756666696369656e7420616c6c6f77616e6365000000600082015250565b60006114e6601d83610ea4565b91506114f1826114b0565b602082019050919050565b60006020820190508181036000830152611515816114d9565b9050919050565b7f45524332303a207472616e736665722066726f6d20746865207a65726f20616460008201527f6472657373000000000000000000000000000000000000000000000000000000602082015250565b6000611578602583610ea4565b91506115838261151c565b604082019050919050565b600060208201905081810360008301526115a78161156b565b9050919050565b7f45524332303a207472616e7366657220746f20746865207a65726f206164647260008201527f6573730000000000000000000000000000000000000000000000000000000000602082015250565b600061160a602383610ea4565b9150611615826115ae565b604082019050919050565b60006020820190508181036000830152611639816115fd565b9050919050565b7f45524332303a207472616e7366657220616d6f756e742065786365656473206260008201527f616c616e63650000000000000000000000000000000000000000000000000000602082015250565b600061169c602683610ea4565b91506116a782611640565b604082019050919050565b600060208201905081810360008301526116cb8161168f565b9050919050565b7f4f776e61626c653a2063616c6c6572206973206e6f7420746865206f776e6572600082015250565b6000611708602083610ea4565b9150611713826116d2565b602082019050919050565b60006020820190508181036000830152611737816116fb565b9050919050565b7f45524332303a206d696e7420746f20746865207a65726f206164647265737300600082015250565b6000611774601f83610ea4565b915061177f8261173e565b602082019050919050565b600060208201905081810360008301526117a381611767565b905091905056fea26469706673582212205549c8f446cc8d6a960f8a9ba8643b74b7a57e12330df84eee5cba4aceed8c5864736f6c63430008130033",
  "linkReferences": {},
  "deployedLinkReferences": {}
}