{
  "_format": "hh-sol-artifact-1",
  "contractName": "Platform",
  "sourceName": "contracts/Platform.sol",
  "abi": [
    {
      "inputs": [
        {
          "internalType": "uint256",
          "name": "_rewardsForProposal",
          "type": "uint256"
        },
        {
          "internalType": "uint256",
          "name": "_pricePerToken",
          "type": "uint256"
        },
        {
          "internalType": "bytes32",
          "name": "_encryptionKey",
          "type": "bytes32"
        }
      ],
      "stateMutability": "nonpayable",
      "type": "constructor"
    },
    {
      "inputs": [],
      "name": "AccountIsEncryptor",
      "type": "error"
    },
    {
      "inputs": [],
      "name": "AccountIsReporter",
      "type": "error"
    },
    {
      "inputs": [],
      "name": "AccountNotEncryptor",
      "type": "error"
    },
    {
      "inputs": [],
      "name": "AccountNotReporter",
      "type": "error"
    },
    {
      "inputs": [],
      "name": "AlreadyVoted",
      "type": "error"
    },
    {
      "inputs": [],
      "name": "AmountCannotBeZero",
      "type": "error"
    },
    {
      "inputs": [],
      "name": "AmountMustMatchValueExactly",
      "type": "error"
    },
    {
      "inputs": [],
      "name": "ArtistAlreadyRegistered",
      "type": "error"
    },
    {
      "inputs": [],
      "name": "ArtistDoesNotOwnSong",
      "type": "error"
    },
    {
      "inputs": [],
      "name": "ArtistNameRequired",
      "type": "error"
    },
    {
      "inputs": [],
      "name": "CannotBuyNonExclusiveSongs",
      "type": "error"
    },
    {
      "inputs": [],
      "name": "InsufficientTokenBalance",
      "type": "error"
    },
    {
      "inputs": [],
      "name": "InvalidSignature",
      "type": "error"
    },
    {
      "inputs": [],
      "name": "NoClaimableRewards",
      "type": "error"
    },
    {
      "inputs": [],
      "name": "NoUpdatesGiven",
      "type": "error"
    },
    {
      "inputs": [],
      "name": "NotARegisteredArtist",
      "type": "error"
    },
    {
      "inputs": [],
      "name": "PriceCannotBeZero",
      "type": "error"
    },
    {
      "inputs": [],
      "name": "RewardsCannotBeZero",
      "type": "error"
    },
    {
      "inputs": [],
      "name": "RewardsPerProposalZero",
      "type": "error"
    },
    {
      "inputs": [],
      "name": "SongDoesNotExist",
      "type": "error"
    },
    {
      "inputs": [],
      "name": "SongUriRequired",
      "type": "error"
    },
    {
      "inputs": [],
      "name": "SubscriptionAlreadyCreated",
      "type": "error"
    },
    {
      "inputs": [],
      "name": "SubscriptionNotCreated",
      "type": "error"
    },
    {
      "inputs": [],
      "name": "TimestampMustBeInFuture",
      "type": "error"
    },
    {
      "inputs": [
        {
          "internalType": "address",
          "name": "artist",
          "type": "address"
        },
        {
          "internalType": "uint256",
          "name": "playedMinutes",
          "type": "uint256"
        }
      ],
      "name": "UpdateInvalid",
      "type": "error"
    },
    {
      "inputs": [],
      "name": "ValueCannotBeZero",
      "type": "error"
    },
    {
      "inputs": [],
      "name": "ValueMustMatchOneOfThePlans",
      "type": "error"
    },
    {
      "inputs": [],
      "name": "VotingActive",
      "type": "error"
    },
    {
      "inputs": [],
      "name": "VotingHasNotEnded",
      "type": "error"
    },
    {
      "inputs": [],
      "name": "VotingIsAlreadyOpen",
      "type": "error"
    },
    {
      "inputs": [],
      "name": "VotingNotActive",
      "type": "error"
    },
    {
      "anonymous": false,
      "inputs": [
        {
          "indexed": true,
          "internalType": "address",
          "name": "account",
          "type": "address"
        }
      ],
      "name": "EncryptorAdded",
      "type": "event"
    },
    {
      "anonymous": false,
      "inputs": [
        {
          "indexed": true,
          "internalType": "address",
          "name": "account",
          "type": "address"
        }
      ],
      "name": "EncryptorRemoved",
      "type": "event"
    },
    {
      "anonymous": false,
      "inputs": [
        {
          "indexed": true,
          "internalType": "address",
          "name": "previousOwner",
          "type": "address"
        },
        {
          "indexed": true,
          "internalType": "address",
          "name": "newOwner",
          "type": "address"
        }
      ],
      "name": "OwnershipTransferred",
      "type": "event"
    },
    {
      "anonymous": false,
      "inputs": [],
      "name": "PlayedMinutesUpdated",
      "type": "event"
    },
    {
      "anonymous": false,
      "inputs": [
        {
          "indexed": false,
          "internalType": "uint256",
          "name": "price",
          "type": "uint256"
        }
      ],
      "name": "PricePerTokenUpdated",
      "type": "event"
    },
    {
      "anonymous": false,
      "inputs": [
        {
          "indexed": true,
          "internalType": "address",
          "name": "account",
          "type": "address"
        }
      ],
      "name": "ReporterAdded",
      "type": "event"
    },
    {
      "anonymous": false,
      "inputs": [
        {
          "indexed": true,
          "internalType": "address",
          "name": "account",
          "type": "address"
        }
      ],
      "name": "ReporterRemoved",
      "type": "event"
    },
    {
      "anonymous": false,
      "inputs": [
        {
          "indexed": true,
          "internalType": "address",
          "name": "account",
          "type": "address"
        },
        {
          "indexed": true,
          "internalType": "enum ResourceRegistration.ResourceType",
          "name": "resourceType",
          "type": "uint8"
        },
        {
          "indexed": true,
          "internalType": "uint256",
          "name": "id",
          "type": "uint256"
        },
        {
          "indexed": false,
          "internalType": "string",
          "name": "data",
          "type": "string"
        }
      ],
      "name": "ResourceRegistered",
      "type": "event"
    },
    {
      "anonymous": false,
      "inputs": [
        {
          "indexed": true,
          "internalType": "uint256",
          "name": "reward",
          "type": "uint256"
        }
      ],
      "name": "RewardForPlayedMinutesChanged",
      "type": "event"
    },
    {
      "anonymous": false,
      "inputs": [
        {
          "indexed": true,
          "internalType": "address",
          "name": "artist",
          "type": "address"
        },
        {
          "indexed": true,
          "internalType": "uint256",
          "name": "rewards",
          "type": "uint256"
        }
      ],
      "name": "RewardsClaimed",
      "type": "event"
    },
    {
      "anonymous": false,
      "inputs": [
        {
          "indexed": false,
          "internalType": "uint256",
          "name": "rewards",
          "type": "uint256"
        }
      ],
      "name": "RewardsPerProposalUpdated",
      "type": "event"
    },
    {
      "anonymous": false,
      "inputs": [
        {
          "indexed": true,
          "internalType": "address",
          "name": "account",
          "type": "address"
        },
        {
          "indexed": true,
          "internalType": "uint256",
          "name": "songId",
          "type": "uint256"
        }
      ],
      "name": "SongPurchased",
      "type": "event"
    },
    {
      "anonymous": false,
      "inputs": [
        {
          "indexed": true,
          "internalType": "address",
          "name": "account",
          "type": "address"
        },
        {
          "indexed": true,
          "internalType": "uint256",
          "name": "expirationTimestamp",
          "type": "uint256"
        },
        {
          "indexed": true,
          "internalType": "uint256",
          "name": "timestampIncrease",
          "type": "uint256"
        }
      ],
      "name": "SubscriptionCreated",
      "type": "event"
    },
    {
      "anonymous": false,
      "inputs": [
        {
          "indexed": true,
          "internalType": "address",
          "name": "account",
          "type": "address"
        },
        {
          "indexed": true,
          "internalType": "uint256",
          "name": "expirationTimestamp",
          "type": "uint256"
        },
        {
          "indexed": true,
          "internalType": "uint256",
          "name": "timestampIncrease",
          "type": "uint256"
        }
      ],
      "name": "SubscriptionFunded",
      "type": "event"
    },
    {
      "anonymous": false,
      "inputs": [
        {
          "indexed": true,
          "internalType": "uint256",
          "name": "price",
          "type": "uint256"
        },
        {
          "indexed": true,
          "internalType": "uint256",
          "name": "timestampIncrease",
          "type": "uint256"
        }
      ],
      "name": "SubscriptionPlanAdded",
      "type": "event"
    },
    {
      "anonymous": false,
      "inputs": [
        {
          "indexed": false,
          "internalType": "uint256",
          "name": "winningSongId",
          "type": "uint256"
        }
      ],
      "name": "VotingClosed",
      "type": "event"
    },
    {
      "anonymous": false,
      "inputs": [],
      "name": "VotingOpen",
      "type": "event"
    },
    {
      "inputs": [
        {
          "internalType": "address",
          "name": "account",
          "type": "address"
        }
      ],
      "name": "addEncryptor",
      "outputs": [],
      "stateMutability": "nonpayable",
      "type": "function"
    },
    {
      "inputs": [
        {
          "internalType": "address",
          "name": "account",
          "type": "address"
        }
      ],
      "name": "addReporter",
      "outputs": [],
      "stateMutability": "nonpayable",
      "type": "function"
    },
    {
      "inputs": [
        {
          "internalType": "uint256",
          "name": "",
          "type": "uint256"
        }
      ],
      "name": "artistAccounts",
      "outputs": [
        {
          "internalType": "address",
          "name": "",
          "type": "address"
        }
      ],
      "stateMutability": "view",
      "type": "function"
    },
    {
      "inputs": [
        {
          "internalType": "address",
          "name": "artist",
          "type": "address"
        }
      ],
      "name": "artistClaimedMinutes",
      "outputs": [
        {
          "internalType": "uint256",
          "name": "claimedMinutes",
          "type": "uint256"
        }
      ],
      "stateMutability": "view",
      "type": "function"
    },
    {
      "inputs": [],
      "name": "artistCount",
      "outputs": [
        {
          "internalType": "uint256",
          "name": "",
          "type": "uint256"
        }
      ],
      "stateMutability": "view",
      "type": "function"
    },
    {
      "inputs": [
        {
          "internalType": "address",
          "name": "account",
          "type": "address"
        }
      ],
      "name": "artistIds",
      "outputs": [
        {
          "internalType": "uint256",
          "name": "id",
          "type": "uint256"
        }
      ],
      "stateMutability": "view",
      "type": "function"
    },
    {
      "inputs": [
        {
          "internalType": "uint256",
          "name": "id",
          "type": "uint256"
        }
      ],
      "name": "artistNames",
      "outputs": [
        {
          "internalType": "string",
          "name": "name",
          "type": "string"
        }
      ],
      "stateMutability": "view",
      "type": "function"
    },
    {
      "inputs": [
        {
          "internalType": "address",
          "name": "artist",
          "type": "address"
        }
      ],
      "name": "artistPlayedMinutes",
      "outputs": [
        {
          "internalType": "uint256",
          "name": "playedMinutes",
          "type": "uint256"
        }
      ],
      "stateMutability": "view",
      "type": "function"
    },
    {
      "inputs": [
        {
          "internalType": "address",
          "name": "artist",
          "type": "address"
        }
      ],
      "name": "artistUnclaimedAmount",
      "outputs": [
        {
          "internalType": "uint256",
          "name": "",
          "type": "uint256"
        }
      ],
      "stateMutability": "view",
      "type": "function"
    },
    {
      "inputs": [
        {
          "internalType": "address",
          "name": "artist",
          "type": "address"
        },
        {
          "internalType": "uint256",
          "name": "songId",
          "type": "uint256"
        }
      ],
      "name": "buySong",
      "outputs": [],
      "stateMutability": "payable",
      "type": "function"
    },
    {
      "inputs": [
        {
          "internalType": "uint256",
          "name": "_wholeTokens",
          "type": "uint256"
        }
      ],
      "name": "buyTokens",
      "outputs": [],
      "stateMutability": "payable",
      "type": "function"
    },
    {
      "inputs": [],
      "name": "claimRewards",
      "outputs": [],
      "stateMutability": "nonpayable",
      "type": "function"
    },
    {
      "inputs": [],
      "name": "closeVotingPeriod",
      "outputs": [],
      "stateMutability": "nonpayable",
      "type": "function"
    },
    {
      "inputs": [],
      "name": "createSubscription",
      "outputs": [],
      "stateMutability": "payable",
      "type": "function"
    },
    {
      "inputs": [
        {
          "internalType": "uint256",
          "name": "id",
          "type": "uint256"
        }
      ],
      "name": "exclusiveSongPrices",
      "outputs": [
        {
          "internalType": "uint256",
          "name": "price",
          "type": "uint256"
        }
      ],
      "stateMutability": "view",
      "type": "function"
    },
    {
      "inputs": [],
      "name": "fundSubscription",
      "outputs": [],
      "stateMutability": "payable",
      "type": "function"
    },
    {
      "inputs": [
        {
          "internalType": "address",
          "name": "account",
          "type": "address"
        }
      ],
      "name": "getArtistId",
      "outputs": [
        {
          "internalType": "uint256",
          "name": "",
          "type": "uint256"
        }
      ],
      "stateMutability": "view",
      "type": "function"
    },
    {
      "inputs": [
        {
          "internalType": "address",
          "name": "account",
          "type": "address"
        }
      ],
      "name": "getArtistName",
      "outputs": [
        {
          "internalType": "string",
          "name": "",
          "type": "string"
        }
      ],
      "stateMutability": "view",
      "type": "function"
    },
    {
      "inputs": [
        {
          "internalType": "address",
          "name": "artist",
          "type": "address"
        },
        {
          "internalType": "uint256",
          "name": "songIndex",
          "type": "uint256"
        }
      ],
      "name": "getArtistSongId",
      "outputs": [
        {
          "internalType": "uint256",
          "name": "",
          "type": "uint256"
        }
      ],
      "stateMutability": "view",
      "type": "function"
    },
    {
      "inputs": [
        {
          "internalType": "address",
          "name": "artist",
          "type": "address"
        }
      ],
      "name": "getArtistSongsCount",
      "outputs": [
        {
          "internalType": "uint256",
          "name": "",
          "type": "uint256"
        }
      ],
      "stateMutability": "view",
      "type": "function"
    },
    {
      "inputs": [
        {
          "internalType": "address",
          "name": "account",
          "type": "address"
        },
        {
          "internalType": "bytes",
          "name": "signature",
          "type": "bytes"
        }
      ],
      "name": "getEncryptionKey",
      "outputs": [
        {
          "internalType": "bytes32",
          "name": "",
          "type": "bytes32"
        }
      ],
      "stateMutability": "view",
      "type": "function"
    },
    {
      "inputs": [
        {
          "internalType": "uint256",
          "name": "songId",
          "type": "uint256"
        }
      ],
      "name": "getSongUri",
      "outputs": [
        {
          "internalType": "string",
          "name": "",
          "type": "string"
        }
      ],
      "stateMutability": "view",
      "type": "function"
    },
    {
      "inputs": [
        {
          "internalType": "address",
          "name": "account",
          "type": "address"
        },
        {
          "internalType": "bytes",
          "name": "signature",
          "type": "bytes"
        }
      ],
      "name": "hasVotedCurrentPeriod",
      "outputs": [
        {
          "internalType": "bool",
          "name": "",
          "type": "bool"
        }
      ],
      "stateMutability": "view",
      "type": "function"
    },
    {
      "inputs": [
        {
          "internalType": "address",
          "name": "account",
          "type": "address"
        }
      ],
      "name": "isActiveSubscriber",
      "outputs": [
        {
          "internalType": "bool",
          "name": "",
          "type": "bool"
        }
      ],
      "stateMutability": "view",
      "type": "function"
    },
    {
      "inputs": [
        {
          "internalType": "address",
          "name": "artist",
          "type": "address"
        },
        {
          "internalType": "uint256",
          "name": "songId",
          "type": "uint256"
        }
      ],
      "name": "isArtistSong",
      "outputs": [
        {
          "internalType": "bool",
          "name": "",
          "type": "bool"
        }
      ],
      "stateMutability": "view",
      "type": "function"
    },
    {
      "inputs": [
        {
          "internalType": "address",
          "name": "account",
          "type": "address"
        },
        {
          "internalType": "uint256",
          "name": "songId",
          "type": "uint256"
        }
      ],
      "name": "isSongPurchased",
      "outputs": [
        {
          "internalType": "bool",
          "name": "",
          "type": "bool"
        }
      ],
      "stateMutability": "view",
      "type": "function"
    },
    {
      "inputs": [],
      "name": "isVotingPeriodActive",
      "outputs": [
        {
          "internalType": "bool",
          "name": "",
          "type": "bool"
        }
      ],
      "stateMutability": "view",
      "type": "function"
    },
    {
      "inputs": [
        {
          "internalType": "uint256",
          "name": "endTimestamp",
          "type": "uint256"
        }
      ],
      "name": "openVotingPeriod",
      "outputs": [],
      "stateMutability": "nonpayable",
      "type": "function"
    },
    {
      "inputs": [],
      "name": "owner",
      "outputs": [
        {
          "internalType": "address",
          "name": "",
          "type": "address"
        }
      ],
      "stateMutability": "view",
      "type": "function"
    },
    {
      "inputs": [],
      "name": "pricePerToken",
      "outputs": [
        {
          "internalType": "uint256",
          "name": "",
          "type": "uint256"
        }
      ],
      "stateMutability": "view",
      "type": "function"
    },
    {
      "inputs": [
        {
          "internalType": "string",
          "name": "name",
          "type": "string"
        }
      ],
      "name": "registerArtist",
      "outputs": [],
      "stateMutability": "nonpayable",
      "type": "function"
    },
    {
      "inputs": [
        {
          "internalType": "string",
          "name": "uri",
          "type": "string"
        },
        {
          "internalType": "uint256",
          "name": "exclusivePrice",
          "type": "uint256"
        }
      ],
      "name": "registerSong",
      "outputs": [],
      "stateMutability": "nonpayable",
      "type": "function"
    },
    {
      "inputs": [
        {
          "internalType": "address",
          "name": "account",
          "type": "address"
        }
      ],
      "name": "removeEncryptor",
      "outputs": [],
      "stateMutability": "nonpayable",
      "type": "function"
    },
    {
      "inputs": [
        {
          "internalType": "address",
          "name": "account",
          "type": "address"
        }
      ],
      "name": "removeReporter",
      "outputs": [],
      "stateMutability": "nonpayable",
      "type": "function"
    },
    {
      "inputs": [],
      "name": "renounceOwnership",
      "outputs": [],
      "stateMutability": "nonpayable",
      "type": "function"
    },
    {
      "inputs": [],
      "name": "rewardForPlayedMinute",
      "outputs": [
        {
          "internalType": "uint256",
          "name": "",
          "type": "uint256"
        }
      ],
      "stateMutability": "view",
      "type": "function"
    },
    {
      "inputs": [],
      "name": "rewardsPerProposal",
      "outputs": [
        {
          "internalType": "uint256",
          "name": "",
          "type": "uint256"
        }
      ],
      "stateMutability": "view",
      "type": "function"
    },
    {
      "inputs": [],
      "name": "rewardsToken",
      "outputs": [
        {
          "internalType": "contract JustToken",
          "name": "",
          "type": "address"
        }
      ],
      "stateMutability": "view",
      "type": "function"
    },
    {
      "inputs": [
        {
          "internalType": "uint256",
          "name": "_wholeTokens",
          "type": "uint256"
        },
        {
          "internalType": "address",
          "name": "_receiver",
          "type": "address"
        }
      ],
      "name": "sellTokens",
      "outputs": [],
      "stateMutability": "nonpayable",
      "type": "function"
    },
    {
      "inputs": [
        {
          "internalType": "uint256",
          "name": "_price",
          "type": "uint256"
        }
      ],
      "name": "setPricePerToken",
      "outputs": [],
      "stateMutability": "nonpayable",
      "type": "function"
    },
    {
      "inputs": [
        {
          "internalType": "uint256",
          "name": "reward",
          "type": "uint256"
        }
      ],
      "name": "setRewardForPlayedMinute",
      "outputs": [],
      "stateMutability": "nonpayable",
      "type": "function"
    },
    {
      "inputs": [
        {
          "internalType": "uint256",
          "name": "_rewards",
          "type": "uint256"
        }
      ],
      "name": "setRewardsPerProposal",
      "outputs": [],
      "stateMutability": "nonpayable",
      "type": "function"
    },
    {
      "inputs": [
        {
          "internalType": "uint256",
          "name": "price",
          "type": "uint256"
        },
        {
          "internalType": "uint256",
          "name": "timestampIncrease",
          "type": "uint256"
        }
      ],
      "name": "setSubscriptionPlan",
      "outputs": [],
      "stateMutability": "nonpayable",
      "type": "function"
    },
    {
      "inputs": [
        {
          "internalType": "uint256",
          "name": "price",
          "type": "uint256"
        }
      ],
      "name": "subscriptionPlanIntervals",
      "outputs": [
        {
          "internalType": "uint256",
          "name": "interval",
          "type": "uint256"
        }
      ],
      "stateMutability": "view",
      "type": "function"
    },
    {
      "inputs": [
        {
          "internalType": "address",
          "name": "account",
          "type": "address"
        }
      ],
      "name": "subscriptions",
      "outputs": [
        {
          "internalType": "uint256",
          "name": "expirationTimestamp",
          "type": "uint256"
        }
      ],
      "stateMutability": "view",
      "type": "function"
    },
    {
      "inputs": [
        {
          "internalType": "address",
          "name": "newOwner",
          "type": "address"
        }
      ],
      "name": "transferOwnership",
      "outputs": [],
      "stateMutability": "nonpayable",
      "type": "function"
    },
    {
      "inputs": [
        {
          "components": [
            {
              "internalType": "address",
              "name": "artist",
              "type": "address"
            },
            {
              "internalType": "uint256",
              "name": "playedMinutes",
              "type": "uint256"
            }
          ],
          "internalType": "struct UpdatePlayedMinutes.ArtistUpdate[]",
          "name": "updates",
          "type": "tuple[]"
        }
      ],
      "name": "updatePlayedMinutes",
      "outputs": [],
      "stateMutability": "nonpayable",
      "type": "function"
    },
    {
      "inputs": [
        {
          "internalType": "uint256",
          "name": "_songId",
          "type": "uint256"
        }
      ],
      "name": "vote",
      "outputs": [],
      "stateMutability": "nonpayable",
      "type": "function"
    },
    {
      "inputs": [],
      "name": "votingPeriodEnds",
      "outputs": [
        {
          "internalType": "uint256",
          "name": "",
          "type": "uint256"
        }
      ],
      "stateMutability": "view",
      "type": "function"
    }
  ],
  "bytecode": "0x60806040523480156200001157600080fd5b506040516200739c3803806200739c83398181016040528101906200003791906200030d565b80838360016000819055506200006262000056620001b660201b60201c565b620001be60201b60201c565b6435e55f19096003819055506003547fde2a550feb6ab90bd4c3e2d079c1e9f15fa6c1616cd90660836219be038742e960405160405180910390a260008211620000e3576040517f08c379a0000000000000000000000000000000000000000000000000000000008152600401620000da90620003ca565b60405180910390fd5b6000811162000129576040517f08c379a000000000000000000000000000000000000000000000000000000000815260040162000120906200043c565b60405180910390fd5b604051620001379062000284565b604051809103906000f08015801562000154573d6000803e3d6000fd5b50600260006101000a81548173ffffffffffffffffffffffffffffffffffffffff021916908373ffffffffffffffffffffffffffffffffffffffff1602179055508160058190555080601581905550505080600481905550505050506200045e565b600033905090565b6000600160009054906101000a900473ffffffffffffffffffffffffffffffffffffffff16905081600160006101000a81548173ffffffffffffffffffffffffffffffffffffffff021916908373ffffffffffffffffffffffffffffffffffffffff1602179055508173ffffffffffffffffffffffffffffffffffffffff168173ffffffffffffffffffffffffffffffffffffffff167f8be0079c531659141344cd1fd0a4f28419497f9722a3daafe3b4186f6b6457e060405160405180910390a35050565b611ce980620056b383390190565b600080fd5b6000819050919050565b620002ac8162000297565b8114620002b857600080fd5b50565b600081519050620002cc81620002a1565b92915050565b6000819050919050565b620002e781620002d2565b8114620002f357600080fd5b50565b6000815190506200030781620002dc565b92915050565b60008060006060848603121562000329576200032862000292565b5b60006200033986828701620002bb565b93505060206200034c86828701620002bb565b92505060406200035f86828701620002f6565b9150509250925092565b600082825260208201905092915050565b7f5265776172647320666f722070726f706f73616c206973207a65726f00000000600082015250565b6000620003b2601c8362000369565b9150620003bf826200037a565b602082019050919050565b60006020820190508181036000830152620003e581620003a3565b9050919050565b7f5072696365206973207a65726f00000000000000000000000000000000000000600082015250565b600062000424600d8362000369565b91506200043182620003ec565b602082019050919050565b60006020820190508181036000830152620004578162000415565b9050919050565b615245806200046e6000396000f3fe6080604052600436106102ae5760003560e01c80637b1b1de611610175578063c7063266116100dc578063e066765e11610095578063f046395a1161006f578063f046395a14610ace578063f08bf9ad14610b0b578063f2b3924814610b36578063f2fde38b14610b61576102ae565b8063e066765e14610a3f578063e3c266dd14610a7c578063f0400d3c14610aa5576102ae565b8063c70632661461091f578063d1af0c7d1461095c578063d850b1d214610987578063d8da18e4146109b0578063dd8755f2146109ed578063dedbe30614610a16576102ae565b8063a0a96d5a1161012e578063a0a96d5a1461080a578063a21a23e414610847578063a8e19f5614610851578063b36349dc1461088e578063be530482146108cb578063c4727940146108f6576102ae565b80637b1b1de6146106fa5780637e871c82146107255780638da5cb5b1461074e5780638e048e75146107795780639355d419146107b65780639fcc5ce4146107df576102ae565b80634655c9a9116102195780635fcbb047116101d25780635fcbb047146105ec5780636269bd0114610629578063670f7151146106665780636f78fe621461068f578063715018a6146106b85780637ab9e7fb146106cf576102ae565b80634655c9a9146104eb5780634c49d7d5146105285780634de98e0914610565578063575f08ff1461057c57806357ace39b146105b95780635de5c212146105c3576102ae565b806323c3dd371161026b57806323c3dd37146103ec57806326be9397146104155780632bf2762f146104525780633610724e1461047b578063372500ab1461049757806344ee0119146104ae576102ae565b80630121b93f146102b3578063030ae9ab146102dc5780630a0ef4511461031957806315576db1146103565780631ac5f331146103935780631b39152d146103af575b600080fd5b3480156102bf57600080fd5b506102da60048036038101906102d59190613cc2565b610b8a565b005b3480156102e857600080fd5b5061030360048036038101906102fe9190613d4d565b610c43565b6040516103109190613d89565b60405180910390f35b34801561032557600080fd5b50610340600480360381019061033b9190613cc2565b610cd4565b60405161034d9190613d89565b60405180910390f35b34801561036257600080fd5b5061037d60048036038101906103789190613e09565b610cec565b60405161038a9190613e84565b60405180910390f35b6103ad60048036038101906103a89190613e9f565b610df2565b005b3480156103bb57600080fd5b506103d660048036038101906103d19190613d4d565b611037565b6040516103e39190613d89565b60405180910390f35b3480156103f857600080fd5b50610413600480360381019061040e9190613cc2565b61104f565b005b34801561042157600080fd5b5061043c60048036038101906104379190613e9f565b6110a1565b6040516104499190613e84565b60405180910390f35b34801561045e57600080fd5b5061047960048036038101906104749190613cc2565b6110b5565b005b61049560048036038101906104909190613cc2565b611107565b005b3480156104a357600080fd5b506104ac6113a7565b005b3480156104ba57600080fd5b506104d560048036038101906104d09190613e09565b61156c565b6040516104e29190613ef8565b60405180910390f35b3480156104f757600080fd5b50610512600480360381019061050d9190613cc2565b61158e565b60405161051f9190613fa3565b60405180910390f35b34801561053457600080fd5b5061054f600480360381019061054a9190613cc2565b611633565b60405161055c9190613d89565b60405180910390f35b34801561057157600080fd5b5061057a61164b565b005b34801561058857600080fd5b506105a3600480360381019061059e9190613e9f565b6116a9565b6040516105b09190613e84565b60405180910390f35b6105c1611711565b005b3480156105cf57600080fd5b506105ea60048036038101906105e59190613d4d565b611837565b005b3480156105f857600080fd5b50610613600480360381019061060e9190613d4d565b6118e6565b6040516106209190613d89565b60405180910390f35b34801561063557600080fd5b50610650600480360381019061064b9190613e9f565b6118fe565b60405161065d9190613d89565b60405180910390f35b34801561067257600080fd5b5061068d60048036038101906106889190613fc5565b611964565b005b34801561069b57600080fd5b506106b660048036038101906106b19190613cc2565b611b4b565b005b3480156106c457600080fd5b506106cd611ba2565b005b3480156106db57600080fd5b506106e4611bb6565b6040516106f19190613d89565b60405180910390f35b34801561070657600080fd5b5061070f611bbc565b60405161071c9190613d89565b60405180910390f35b34801561073157600080fd5b5061074c60048036038101906107479190613d4d565b611bc2565b005b34801561075a57600080fd5b50610763611c71565b6040516107709190614014565b60405180910390f35b34801561078557600080fd5b506107a0600480360381019061079b9190613d4d565b611c9b565b6040516107ad9190613e84565b60405180910390f35b3480156107c257600080fd5b506107dd60048036038101906107d89190614085565b611ce7565b005b3480156107eb57600080fd5b506107f4611d4b565b6040516108019190613e84565b60405180910390f35b34801561081657600080fd5b50610831600480360381019061082c9190613cc2565b611d5a565b60405161083e9190613fa3565b60405180910390f35b61084f611dfa565b005b34801561085d57600080fd5b5061087860048036038101906108739190613cc2565b611ec0565b6040516108859190614014565b60405180910390f35b34801561089a57600080fd5b506108b560048036038101906108b09190613d4d565b611eff565b6040516108c29190613fa3565b60405180910390f35b3480156108d757600080fd5b506108e0611fe3565b6040516108ed9190613d89565b60405180910390f35b34801561090257600080fd5b5061091d600480360381019061091891906140d2565b611fe9565b005b34801561092b57600080fd5b5061094660048036038101906109419190613d4d565b612055565b6040516109539190613d89565b60405180910390f35b34801561096857600080fd5b5061097161209e565b60405161097e9190614171565b60405180910390f35b34801561099357600080fd5b506109ae60048036038101906109a99190613d4d565b6120c4565b005b3480156109bc57600080fd5b506109d760048036038101906109d29190613d4d565b612173565b6040516109e49190613d89565b60405180910390f35b3480156109f957600080fd5b50610a146004803603810190610a0f9190613d4d565b61218b565b005b348015610a2257600080fd5b50610a3d6004803603810190610a38919061418c565b61223a565b005b348015610a4b57600080fd5b50610a666004803603810190610a619190613d4d565b6122a0565b604051610a739190613d89565b60405180910390f35b348015610a8857600080fd5b50610aa36004803603810190610a9e9190614242565b6122e9565b005b348015610ab157600080fd5b50610acc6004803603810190610ac79190613cc2565b6123c8565b005b348015610ada57600080fd5b50610af56004803603810190610af09190613d4d565b612416565b604051610b029190613d89565b60405180910390f35b348015610b1757600080fd5b50610b2061242e565b604051610b2d9190613d89565b60405180910390f35b348015610b4257600080fd5b50610b4b612434565b604051610b589190613d89565b60405180910390f35b348015610b6d57600080fd5b50610b886004803603810190610b839190613d4d565b61243a565b005b610b93816124bd565b610b9b612519565b610ba3612559565b6000601760008381526020019081526020016000205403610bc857610bc7816125d5565b5b601760008281526020019081526020016000206000815480929190610bec906142be565b9190505550601654601860003373ffffffffffffffffffffffffffffffffffffffff1673ffffffffffffffffffffffffffffffffffffffff16815260200190815260200160002081905550610c4033612652565b50565b6000610ccd600c60008473ffffffffffffffffffffffffffffffffffffffff1673ffffffffffffffffffffffffffffffffffffffff16815260200190815260200160002054600d60008573ffffffffffffffffffffffffffffffffffffffff1673ffffffffffffffffffffffffffffffffffffffff16815260200190815260200160002054612743565b9050919050565b60146020528060005260406000206000915090505481565b6000610cf6612766565b610d035760009050610deb565b600084604051602001610d169190614014565b604051602081830303815290604052805190602001209050610d3a85828686612773565b610d48576000915050610deb565b60005b601c54811015610de4578573ffffffffffffffffffffffffffffffffffffffff16601b8281548110610d8057610d7f614306565b5b9060005260206000200160009054906101000a900473ffffffffffffffffffffffffffffffffffffffff1673ffffffffffffffffffffffffffffffffffffffff1603610dd157600192505050610deb565b8080610ddc906142be565b915050610d4b565b5060009150505b9392505050565b610dfb816124bd565b610e04816128b5565b610e0e8282612905565b6000600f60008381526020019081526020016000205490506000600260009054906101000a900473ffffffffffffffffffffffffffffffffffffffff1673ffffffffffffffffffffffffffffffffffffffff1663313ce5676040518163ffffffff1660e01b8152600401602060405180830381865afa158015610e95573d6000803e3d6000fd5b505050506040513d601f19601f82011682018060405250810190610eb9919061436e565b60ff169050600081600a610ecd91906144ce565b905060008184610edd9190614519565b9050600260009054906101000a900473ffffffffffffffffffffffffffffffffffffffff1673ffffffffffffffffffffffffffffffffffffffff166323b872dd3388846040518463ffffffff1660e01b8152600401610f3e9392919061455b565b6020604051808303816000875af1158015610f5d573d6000803e3d6000fd5b505050506040513d601f19601f82011682018060405250810190610f8191906145be565b506001600e60003373ffffffffffffffffffffffffffffffffffffffff1673ffffffffffffffffffffffffffffffffffffffff168152602001908152602001600020600087815260200190815260200160002060006101000a81548160ff021916908315150217905550843373ffffffffffffffffffffffffffffffffffffffff167fe20750a4417f37bd85a195d63720cb1c314963d8888dc41e6323fed4805542ac60405160405180910390a3505050505050565b600c6020528060005260406000206000915090505481565b611057612949565b611060816129c7565b806005819055507f72ea2c9c38b647a7ef112a9939feedf39954cffb5d3639491a358ac0adf950a6816040516110969190613d89565b60405180910390a150565b60006110ad8383612a04565b905092915050565b6110bd612949565b6110c681612ae1565b806015819055507f3200057f39b60b2ce0d5c0768cd90469dc468a882eec07ce1802fef660ebee59816040516110fc9190613d89565b60405180910390a150565b61111081612b1e565b61111981612b5b565b6000600260009054906101000a900473ffffffffffffffffffffffffffffffffffffffff1673ffffffffffffffffffffffffffffffffffffffff166370a08231306040518263ffffffff1660e01b81526004016111769190614014565b602060405180830381865afa158015611193573d6000803e3d6000fd5b505050506040513d601f19601f820116820180604052508101906111b79190614600565b90506000600260009054906101000a900473ffffffffffffffffffffffffffffffffffffffff1673ffffffffffffffffffffffffffffffffffffffff1663313ce5676040518163ffffffff1660e01b8152600401602060405180830381865afa158015611228573d6000803e3d6000fd5b505050506040513d601f19601f8201168201806040525081019061124c919061436e565b600a611258919061462d565b836112639190614519565b905080821061131257600260009054906101000a900473ffffffffffffffffffffffffffffffffffffffff1673ffffffffffffffffffffffffffffffffffffffff1663a9059cbb33836040518363ffffffff1660e01b81526004016112c9929190614678565b6020604051808303816000875af11580156112e8573d6000803e3d6000fd5b505050506040513d601f19601f8201168201806040525081019061130c91906145be565b506113a2565b600260009054906101000a900473ffffffffffffffffffffffffffffffffffffffff1673ffffffffffffffffffffffffffffffffffffffff166340c10f1933836040518363ffffffff1660e01b815260040161136f929190614678565b600060405180830381600087803b15801561138957600080fd5b505af115801561139d573d6000803e3d6000fd5b505050505b505050565b6113af612baa565b6113b7612bf9565b6113bf612c74565b6000600c60003373ffffffffffffffffffffffffffffffffffffffff1673ffffffffffffffffffffffffffffffffffffffff1681526020019081526020016000205490506000600d60003373ffffffffffffffffffffffffffffffffffffffff1673ffffffffffffffffffffffffffffffffffffffff16815260200190815260200160002054905060006114538383612743565b9050818361146191906146a1565b600d60003373ffffffffffffffffffffffffffffffffffffffff1673ffffffffffffffffffffffffffffffffffffffff1681526020019081526020016000208190555060003373ffffffffffffffffffffffffffffffffffffffff16826040516114ca90614706565b60006040518083038185875af1925050503d8060008114611507576040519150601f19603f3d011682016040523d82523d6000602084013e61150c565b606091505b505090508061151a57600080fd5b813373ffffffffffffffffffffffffffffffffffffffff167ffc30cddea38e2bf4d6ea7d3f9ed3b6ad7f176419f4963bd81318067a4aee73fe60405160405180910390a35050505061156a612d4b565b565b600061157784612d55565b611582848484612ddb565b60045490509392505050565b60606009600083815260200190815260200160002080546115ae9061474a565b80601f01602080910402602001604051908101604052809291908181526020018280546115da9061474a565b80156116275780601f106115fc57610100808354040283529160200191611627565b820191906000526020600020905b81548152906001019060200180831161160a57829003601f168201915b50505050509050919050565b600f6020528060005260406000206000915090505481565b611653612e4e565b6000601681905550611663612e9a565b600061166d612f9d565b90507f8e9b46a70b3967bc9ea56ca61732c363a191fac88ae3ba011f4e030711c901178160405161169e9190613d89565b60405180910390a150565b6000600e60008473ffffffffffffffffffffffffffffffffffffffff1673ffffffffffffffffffffffffffffffffffffffff168152602001908152602001600020600083815260200190815260200160002060009054906101000a900460ff16905092915050565b611719613011565b60006014600034815260200190815260200160002054905061173a8161308c565b600080601360003373ffffffffffffffffffffffffffffffffffffffff1673ffffffffffffffffffffffffffffffffffffffff1681526020019081526020016000205490504281101561179a57824261179391906146a1565b91506117a9565b82816117a691906146a1565b91505b81601360003373ffffffffffffffffffffffffffffffffffffffff1673ffffffffffffffffffffffffffffffffffffffff1681526020019081526020016000208190555082823373ffffffffffffffffffffffffffffffffffffffff167fb3abbf202f180f33d8c665604028b8c2bc6db0b430eee642e6a87c332ba9df3a60405160405180910390a4505050565b61183f612949565b611848816130c9565b6000601060008373ffffffffffffffffffffffffffffffffffffffff1673ffffffffffffffffffffffffffffffffffffffff16815260200190815260200160002060006101000a81548160ff0219169083151502179055508073ffffffffffffffffffffffffffffffffffffffff167ff125aa5e6cb22c17ea0de4e1f86d2ff289ddd6a37e791b9ad29d0091cba06ac860405160405180910390a250565b60066020528060005260406000206000915090505481565b6000600a60008473ffffffffffffffffffffffffffffffffffffffff1673ffffffffffffffffffffffffffffffffffffffff168152602001908152602001600020828154811061195157611950614306565b5b9060005260206000200154905092915050565b61196d82612b1e565b6000600260009054906101000a900473ffffffffffffffffffffffffffffffffffffffff1673ffffffffffffffffffffffffffffffffffffffff1663313ce5676040518163ffffffff1660e01b8152600401602060405180830381865afa1580156119dc573d6000803e3d6000fd5b505050506040513d601f19601f82011682018060405250810190611a00919061436e565b600a611a0c919061462d565b83611a179190614519565b9050600260009054906101000a900473ffffffffffffffffffffffffffffffffffffffff1673ffffffffffffffffffffffffffffffffffffffff166323b872dd3330846040518463ffffffff1660e01b8152600401611a789392919061455b565b6020604051808303816000875af1158015611a97573d6000803e3d6000fd5b505050506040513d601f19601f82011682018060405250810190611abb91906145be565b50600060155484611acc9190614519565b905060008373ffffffffffffffffffffffffffffffffffffffff1682604051611af490614706565b60006040518083038185875af1925050503d8060008114611b31576040519150601f19603f3d011682016040523d82523d6000602084013e611b36565b606091505b5050905080611b4457600080fd5b5050505050565b611b53612949565b611b5b61314f565b611b6481613190565b80601681905550611b736131cc565b7f8089789a86616a2428e26766961eaaa205ab084aac14a9cb98704e59af2b89e660405160405180910390a150565b611baa612949565b611bb4600061323c565b565b60055481565b60155481565b611bca612949565b611bd381612d55565b6000601160008373ffffffffffffffffffffffffffffffffffffffff1673ffffffffffffffffffffffffffffffffffffffff16815260200190815260200160002060006101000a81548160ff0219169083151502179055508073ffffffffffffffffffffffffffffffffffffffff167f831fe45b7aa67ec3bed8b685a1393377d63415609ea28cd6c46c957cd206ace460405160405180910390a250565b6000600160009054906101000a900473ffffffffffffffffffffffffffffffffffffffff16905090565b600042601360008473ffffffffffffffffffffffffffffffffffffffff1673ffffffffffffffffffffffffffffffffffffffff1681526020019081526020016000205410159050919050565b611cf18282613302565b611cf9613343565b611d473383838080601f016020809104026020016040519081016040528093929190818152602001838380828437600081840152601f19601f820116905080830192505050505050506133bf565b5050565b6000611d55612766565b905090565b60126020528060005260406000206000915090508054611d799061474a565b80601f0160208091040260200160405190810160405280929190818152602001828054611da59061474a565b8015611df25780601f10611dc757610100808354040283529160200191611df2565b820191906000526020600020905b815481529060010190602001808311611dd557829003601f168201915b505050505081565b611e02613546565b600060146000348152602001908152602001600020549050611e238161308c565b60008142611e3191906146a1565b905080601360003373ffffffffffffffffffffffffffffffffffffffff1673ffffffffffffffffffffffffffffffffffffffff1681526020019081526020016000208190555081813373ffffffffffffffffffffffffffffffffffffffff167feec977e786e7248a658b0474ccf8f57f37ead019014ec4d5ba1542ddabeff1b460405160405180910390a45050565b60078181548110611ed057600080fd5b906000526020600020016000915054906101000a900473ffffffffffffffffffffffffffffffffffffffff1681565b606060126000600660008573ffffffffffffffffffffffffffffffffffffffff1673ffffffffffffffffffffffffffffffffffffffff1681526020019081526020016000205481526020019081526020016000208054611f5e9061474a565b80601f0160208091040260200160405190810160405280929190818152602001828054611f8a9061474a565b8015611fd75780601f10611fac57610100808354040283529160200191611fd7565b820191906000526020600020905b815481529060010190602001808311611fba57829003601f168201915b50505050509050919050565b60085481565b611ff1612949565b60008211611ffe57600080fd5b6000811161200b57600080fd5b80601460008481526020019081526020016000208190555080827f54cba80c24bb8b943b0467102348972ab8b8d832c8fe766604a41205029bdeb560405160405180910390a35050565b6000600b60008373ffffffffffffffffffffffffffffffffffffffff1673ffffffffffffffffffffffffffffffffffffffff168152602001908152602001600020549050919050565b600260009054906101000a900473ffffffffffffffffffffffffffffffffffffffff1681565b6120cc612949565b6120d5816135c2565b6001601160008373ffffffffffffffffffffffffffffffffffffffff1673ffffffffffffffffffffffffffffffffffffffff16815260200190815260200160002060006101000a81548160ff0219169083151502179055508073ffffffffffffffffffffffffffffffffffffffff167ff6c9f98033b9dff108e3563ef16e2eeed997d551b8b5dd48be580ca3f92316a560405160405180910390a250565b600d6020528060005260406000206000915090505481565b612193612949565b61219c81613649565b6001601060008373ffffffffffffffffffffffffffffffffffffffff1673ffffffffffffffffffffffffffffffffffffffff16815260200190815260200160002060006101000a81548160ff0219169083151502179055508073ffffffffffffffffffffffffffffffffffffffff167f52824c4a4d431c73d6d24a91f775d722860111c6d30da30b0b21e062fb4c736560405160405180910390a250565b61224483836136d0565b61224c612bf9565b61229b3384848080601f016020809104026020016040519081016040528093929190818152602001838380828437600081840152601f19601f8201169050808301925050505050505083613711565b505050565b6000600660008373ffffffffffffffffffffffffffffffffffffffff1673ffffffffffffffffffffffffffffffffffffffff168152602001908152602001600020549050919050565b6122f2336130c9565b6122fc82826138ac565b60005b8282905081101561239757600083838381811061231f5761231e614306565b5b905060400201803603810190612335919061484b565b90508060200151600c6000836000015173ffffffffffffffffffffffffffffffffffffffff1673ffffffffffffffffffffffffffffffffffffffff1681526020019081526020016000208190555050808061238f906142be565b9150506122ff565b507fb1f4c00fef5089fc65c077ba0529ff566678425b72c5ef25184eb9158cf006eb60405160405180910390a15050565b6123d0612949565b600081116123dd57600080fd5b806003819055506003547fde2a550feb6ab90bd4c3e2d079c1e9f15fa6c1616cd90660836219be038742e960405160405180910390a250565b60136020528060005260406000206000915090505481565b60035481565b60165481565b612442612949565b600073ffffffffffffffffffffffffffffffffffffffff168173ffffffffffffffffffffffffffffffffffffffff16036124b1576040517f08c379a00000000000000000000000000000000000000000000000000000000081526004016124a8906148ea565b60405180910390fd5b6124ba8161323c565b50565b60006009600083815260200190815260200160002080546124dd9061474a565b905003612516576040517f439dd45c00000000000000000000000000000000000000000000000000000000815260040160405180910390fd5b50565b612521612766565b612557576040517f9b8cc47500000000000000000000000000000000000000000000000000000000815260040160405180910390fd5b565b601654601860003373ffffffffffffffffffffffffffffffffffffffff1673ffffffffffffffffffffffffffffffffffffffff16815260200190815260200160002054036125d3576040517f7c9a1cf900000000000000000000000000000000000000000000000000000000815260040160405180910390fd5b565b601a5460198054905003612611576019819080600181540180825580915050600190039060005260206000200160009091909190915055612637565b806019601a548154811061262857612627614306565b5b90600052602060002001819055505b601a600081548092919061264a906142be565b919050555050565b601c54601b80549050036126c857601b819080600181540180825580915050600190039060005260206000200160009091909190916101000a81548173ffffffffffffffffffffffffffffffffffffffff021916908373ffffffffffffffffffffffffffffffffffffffff160217905550612728565b80601b601c54815481106126df576126de614306565b5b9060005260206000200160006101000a81548173ffffffffffffffffffffffffffffffffffffffff021916908373ffffffffffffffffffffffffffffffffffffffff1602179055505b601c600081548092919061273b906142be565b919050555050565b60008183612751919061490a565b60035461275e9190614519565b905092915050565b6000426016541015905090565b6000806000806127838686613a6a565b92509250925060006040518060400160405280601c81526020017f19457468657265756d205369676e6564204d6573736167653a0a333200000000815250886040516020016127d392919061499b565b60405160208183030381529060405280519060200120905060006001828487876040516000815260200160405260405161281094939291906149d2565b6020604051602081039080840390855afa158015612832573d6000803e3d6000fd5b505050602060405103519050600073ffffffffffffffffffffffffffffffffffffffff168173ffffffffffffffffffffffffffffffffffffffff16141580156128a657508973ffffffffffffffffffffffffffffffffffffffff168173ffffffffffffffffffffffffffffffffffffffff16145b95505050505050949350505050565b6000600f60008381526020019081526020016000205403612902576040517f298763a600000000000000000000000000000000000000000000000000000000815260040160405180910390fd5b50565b61290f8282612a04565b612945576040517f46b47f2500000000000000000000000000000000000000000000000000000000815260040160405180910390fd5b5050565b612951613adc565b73ffffffffffffffffffffffffffffffffffffffff1661296f611c71565b73ffffffffffffffffffffffffffffffffffffffff16146129c5576040517f08c379a00000000000000000000000000000000000000000000000000000000081526004016129bc90614a63565b60405180910390fd5b565b60008103612a01576040517f6629597700000000000000000000000000000000000000000000000000000000815260040160405180910390fd5b50565b600080600b60008573ffffffffffffffffffffffffffffffffffffffff1673ffffffffffffffffffffffffffffffffffffffff16815260200190815260200160002054905060005b81811015612ad45783600a60008773ffffffffffffffffffffffffffffffffffffffff1673ffffffffffffffffffffffffffffffffffffffff1681526020019081526020016000208281548110612aa657612aa5614306565b5b906000526020600020015403612ac157600192505050612adb565b8080612acc906142be565b915050612a4c565b5060009150505b92915050565b60008103612b1b576040517f2c669f0a00000000000000000000000000000000000000000000000000000000815260040160405180910390fd5b50565b60008103612b58576040517fd11b25af00000000000000000000000000000000000000000000000000000000815260040160405180910390fd5b50565b600060155482612b6b9190614519565b9050348114612ba6576040517f03862d0b00000000000000000000000000000000000000000000000000000000815260040160405180910390fd5b5050565b600260005403612bef576040517f08c379a0000000000000000000000000000000000000000000000000000000008152600401612be690614acf565b60405180910390fd5b6002600081905550565b6000600660003373ffffffffffffffffffffffffffffffffffffffff1673ffffffffffffffffffffffffffffffffffffffff1681526020019081526020016000205403612c72576040517f5ba4c78d00000000000000000000000000000000000000000000000000000000815260040160405180910390fd5b565b6000600c60003373ffffffffffffffffffffffffffffffffffffffff1673ffffffffffffffffffffffffffffffffffffffff1681526020019081526020016000205490506000600d60003373ffffffffffffffffffffffffffffffffffffffff1673ffffffffffffffffffffffffffffffffffffffff16815260200190815260200160002054905060008183612d0a919061490a565b905060008103612d46576040517ff40c208900000000000000000000000000000000000000000000000000000000815260040160405180910390fd5b505050565b6001600081905550565b601160008273ffffffffffffffffffffffffffffffffffffffff1673ffffffffffffffffffffffffffffffffffffffff16815260200190815260200160002060009054906101000a900460ff16612dd8576040517fa7fda99900000000000000000000000000000000000000000000000000000000815260040160405180910390fd5b50565b600083604051602001612dee9190614014565b604051602081830303815290604052805190602001209050612e1284828585612773565b612e48576040517f8baa579f00000000000000000000000000000000000000000000000000000000815260040160405180910390fd5b50505050565b60006016541480612e6157506016544211155b15612e98576040517ffb196f7500000000000000000000000000000000000000000000000000000000815260040160405180910390fd5b565b60005b601c54811015612f9a576000601b8281548110612ebd57612ebc614306565b5b9060005260206000200160009054906101000a900473ffffffffffffffffffffffffffffffffffffffff1690506000612ef4613ae4565b9050600260009054906101000a900473ffffffffffffffffffffffffffffffffffffffff1673ffffffffffffffffffffffffffffffffffffffff166340c10f1983836040518363ffffffff1660e01b8152600401612f53929190614678565b600060405180830381600087803b158015612f6d57600080fd5b505af1158015612f81573d6000803e3d6000fd5b5050505050508080612f92906142be565b915050612e9d565b50565b60008060005b601a5481101561300c57600060198281548110612fc357612fc2614306565b5b9060005260206000200154905060006017600083815260200190815260200160002054905083811115612ff7578093508194505b50508080613004906142be565b915050612fa3565b505090565b6000601360003373ffffffffffffffffffffffffffffffffffffffff1673ffffffffffffffffffffffffffffffffffffffff168152602001908152602001600020540361308a576040517f0ba7474000000000000000000000000000000000000000000000000000000000815260040160405180910390fd5b565b600081036130c6576040517f64fc58f000000000000000000000000000000000000000000000000000000000815260040160405180910390fd5b50565b601060008273ffffffffffffffffffffffffffffffffffffffff1673ffffffffffffffffffffffffffffffffffffffff16815260200190815260200160002060009054906101000a900460ff1661314c576040517fed8b45b100000000000000000000000000000000000000000000000000000000815260040160405180910390fd5b50565b613157612766565b1561318e576040517fa9d47e0400000000000000000000000000000000000000000000000000000000815260040160405180910390fd5b565b4281116131c9576040517fc733873c00000000000000000000000000000000000000000000000000000000815260040160405180910390fd5b50565b60005b601a54811015613229576000601982815481106131ef576131ee614306565b5b9060005260206000200154905060006017600083815260200190815260200160002081905550508080613221906142be565b9150506131cf565b506000601c819055506000601a81905550565b6000600160009054906101000a900473ffffffffffffffffffffffffffffffffffffffff16905081600160006101000a81548173ffffffffffffffffffffffffffffffffffffffff021916908373ffffffffffffffffffffffffffffffffffffffff1602179055508173ffffffffffffffffffffffffffffffffffffffff168173ffffffffffffffffffffffffffffffffffffffff167f8be0079c531659141344cd1fd0a4f28419497f9722a3daafe3b4186f6b6457e060405160405180910390a35050565b6000828290500361333f576040517fd9a5fbfc00000000000000000000000000000000000000000000000000000000815260040160405180910390fd5b5050565b6000600660003373ffffffffffffffffffffffffffffffffffffffff1673ffffffffffffffffffffffffffffffffffffffff1681526020019081526020016000205411156133bd576040517f9b70f42400000000000000000000000000000000000000000000000000000000815260040160405180910390fd5b565b60006133c9613afb565b905060006012600083815260200190815260200160002080546133eb9061474a565b905011156133fe576133fb613afb565b90505b8160126000838152602001908152602001600020908161341e9190614c91565b5080600660008573ffffffffffffffffffffffffffffffffffffffff1673ffffffffffffffffffffffffffffffffffffffff1681526020019081526020016000208190555060086000815480929190613476906142be565b91905055506007839080600181540180825580915050600190039060005260206000200160009091909190916101000a81548173ffffffffffffffffffffffffffffffffffffffff021916908373ffffffffffffffffffffffffffffffffffffffff16021790555080600160028111156134f3576134f2614d63565b5b8473ffffffffffffffffffffffffffffffffffffffff167f530708815c9407cb1f2859a353ee291d1acfe7a488d4347780a1d35690b90726856040516135399190613fa3565b60405180910390a4505050565b6000601360003373ffffffffffffffffffffffffffffffffffffffff1673ffffffffffffffffffffffffffffffffffffffff1681526020019081526020016000205411156135c0576040517fefecdc3c00000000000000000000000000000000000000000000000000000000815260040160405180910390fd5b565b601160008273ffffffffffffffffffffffffffffffffffffffff1673ffffffffffffffffffffffffffffffffffffffff16815260200190815260200160002060009054906101000a900460ff1615613646576040517febca463b00000000000000000000000000000000000000000000000000000000815260040160405180910390fd5b50565b601060008273ffffffffffffffffffffffffffffffffffffffff1673ffffffffffffffffffffffffffffffffffffffff16815260200190815260200160002060009054906101000a900460ff16156136cd576040517f18d9ae0900000000000000000000000000000000000000000000000000000000815260040160405180910390fd5b50565b6000828290500361370d576040517fe7f85e7900000000000000000000000000000000000000000000000000000000815260040160405180910390fd5b5050565b600061371b613afb565b9050600060096000838152602001908152602001600020805461373d9061474a565b905011156137505761374d613afb565b90505b826009600083815260200190815260200160002090816137709190614c91565b50600a60008573ffffffffffffffffffffffffffffffffffffffff1673ffffffffffffffffffffffffffffffffffffffff168152602001908152602001600020819080600181540180825580915050600190039060005260206000200160009091909190915055600b60008573ffffffffffffffffffffffffffffffffffffffff1673ffffffffffffffffffffffffffffffffffffffff1681526020019081526020016000206000815480929190613827906142be565b919050555081600f6000838152602001908152602001600020819055508060028081111561385857613857614d63565b5b8573ffffffffffffffffffffffffffffffffffffffff167f530708815c9407cb1f2859a353ee291d1acfe7a488d4347780a1d35690b907268660405161389e9190613fa3565b60405180910390a450505050565b600082829050036138e9576040517ff2486cbe00000000000000000000000000000000000000000000000000000000815260040160405180910390fd5b60005b82829050811015613a6557600083838381811061390c5761390b614306565b5b905060400201803603810190613922919061484b565b9050600060066000836000015173ffffffffffffffffffffffffffffffffffffffff1673ffffffffffffffffffffffffffffffffffffffff16815260200190815260200160002054036139b657806000015181602001516040517f3b573da20000000000000000000000000000000000000000000000000000000081526004016139ad929190614678565b60405180910390fd5b6000600c6000836000015173ffffffffffffffffffffffffffffffffffffffff1673ffffffffffffffffffffffffffffffffffffffff16815260200190815260200160002054905081602001518110613a5057816000015182602001516040517f3b573da2000000000000000000000000000000000000000000000000000000008152600401613a47929190614678565b60405180910390fd5b50508080613a5d906142be565b9150506138ec565b505050565b60008060008484600090602092613a8393929190614d9c565b90613a8e9190614de2565b92508484602090604092613aa493929190614d9c565b90613aaf9190614de2565b91508484604090604192613ac593929190614d9c565b90613ad09190614e6d565b60f81c90509250925092565b600033905090565b6000601c54600554613af69190614efb565b905090565b6000615aff461480613b0e5750615afe46145b15613b5057613b3d602042604051602001613b299190614f4d565b604051602081830303815290604052613b89565b613b4690614f98565b60001c9050613b86565b334340424441604051602001613b6a959493929190615082565b6040516020818303038152906040528051906020012060001c90505b90565b606060008073010000000000000000000000000000000000000173ffffffffffffffffffffffffffffffffffffffff168585604051602001613bcc92919061512b565b604051602081830303815290604052604051613be8919061518c565b600060405180830381855afa9150503d8060008114613c23576040519150601f19603f3d011682016040523d82523d6000602084013e613c28565b606091505b509150915081613c6d576040517f08c379a0000000000000000000000000000000000000000000000000000000008152600401613c64906151ef565b60405180910390fd5b809250505092915050565b6000604051905090565b600080fd5b600080fd5b6000819050919050565b613c9f81613c8c565b8114613caa57600080fd5b50565b600081359050613cbc81613c96565b92915050565b600060208284031215613cd857613cd7613c82565b5b6000613ce684828501613cad565b91505092915050565b600073ffffffffffffffffffffffffffffffffffffffff82169050919050565b6000613d1a82613cef565b9050919050565b613d2a81613d0f565b8114613d3557600080fd5b50565b600081359050613d4781613d21565b92915050565b600060208284031215613d6357613d62613c82565b5b6000613d7184828501613d38565b91505092915050565b613d8381613c8c565b82525050565b6000602082019050613d9e6000830184613d7a565b92915050565b600080fd5b600080fd5b600080fd5b60008083601f840112613dc957613dc8613da4565b5b8235905067ffffffffffffffff811115613de657613de5613da9565b5b602083019150836001820283011115613e0257613e01613dae565b5b9250929050565b600080600060408486031215613e2257613e21613c82565b5b6000613e3086828701613d38565b935050602084013567ffffffffffffffff811115613e5157613e50613c87565b5b613e5d86828701613db3565b92509250509250925092565b60008115159050919050565b613e7e81613e69565b82525050565b6000602082019050613e996000830184613e75565b92915050565b60008060408385031215613eb657613eb5613c82565b5b6000613ec485828601613d38565b9250506020613ed585828601613cad565b9150509250929050565b6000819050919050565b613ef281613edf565b82525050565b6000602082019050613f0d6000830184613ee9565b92915050565b600081519050919050565b600082825260208201905092915050565b60005b83811015613f4d578082015181840152602081019050613f32565b60008484015250505050565b6000601f19601f8301169050919050565b6000613f7582613f13565b613f7f8185613f1e565b9350613f8f818560208601613f2f565b613f9881613f59565b840191505092915050565b60006020820190508181036000830152613fbd8184613f6a565b905092915050565b60008060408385031215613fdc57613fdb613c82565b5b6000613fea85828601613cad565b9250506020613ffb85828601613d38565b9150509250929050565b61400e81613d0f565b82525050565b60006020820190506140296000830184614005565b92915050565b60008083601f84011261404557614044613da4565b5b8235905067ffffffffffffffff81111561406257614061613da9565b5b60208301915083600182028301111561407e5761407d613dae565b5b9250929050565b6000806020838503121561409c5761409b613c82565b5b600083013567ffffffffffffffff8111156140ba576140b9613c87565b5b6140c68582860161402f565b92509250509250929050565b600080604083850312156140e9576140e8613c82565b5b60006140f785828601613cad565b925050602061410885828601613cad565b9150509250929050565b6000819050919050565b600061413761413261412d84613cef565b614112565b613cef565b9050919050565b60006141498261411c565b9050919050565b600061415b8261413e565b9050919050565b61416b81614150565b82525050565b60006020820190506141866000830184614162565b92915050565b6000806000604084860312156141a5576141a4613c82565b5b600084013567ffffffffffffffff8111156141c3576141c2613c87565b5b6141cf8682870161402f565b935093505060206141e286828701613cad565b9150509250925092565b60008083601f84011261420257614201613da4565b5b8235905067ffffffffffffffff81111561421f5761421e613da9565b5b60208301915083604082028301111561423b5761423a613dae565b5b9250929050565b6000806020838503121561425957614258613c82565b5b600083013567ffffffffffffffff81111561427757614276613c87565b5b614283858286016141ec565b92509250509250929050565b7f4e487b7100000000000000000000000000000000000000000000000000000000600052601160045260246000fd5b60006142c982613c8c565b91507fffffffffffffffffffffffffffffffffffffffffffffffffffffffffffffffff82036142fb576142fa61428f565b5b600182019050919050565b7f4e487b7100000000000000000000000000000000000000000000000000000000600052603260045260246000fd5b600060ff82169050919050565b61434b81614335565b811461435657600080fd5b50565b60008151905061436881614342565b92915050565b60006020828403121561438457614383613c82565b5b600061439284828501614359565b91505092915050565b60008160011c9050919050565b6000808291508390505b60018511156143f2578086048111156143ce576143cd61428f565b5b60018516156143dd5780820291505b80810290506143eb8561439b565b94506143b2565b94509492505050565b60008261440b57600190506144c7565b8161441957600090506144c7565b816001811461442f576002811461443957614468565b60019150506144c7565b60ff84111561444b5761444a61428f565b5b8360020a9150848211156144625761446161428f565b5b506144c7565b5060208310610133831016604e8410600b841016171561449d5782820a9050838111156144985761449761428f565b5b6144c7565b6144aa84848460016143a8565b925090508184048111156144c1576144c061428f565b5b81810290505b9392505050565b60006144d982613c8c565b91506144e483613c8c565b92506145117fffffffffffffffffffffffffffffffffffffffffffffffffffffffffffffffff84846143fb565b905092915050565b600061452482613c8c565b915061452f83613c8c565b925082820261453d81613c8c565b915082820484148315176145545761455361428f565b5b5092915050565b60006060820190506145706000830186614005565b61457d6020830185614005565b61458a6040830184613d7a565b949350505050565b61459b81613e69565b81146145a657600080fd5b50565b6000815190506145b881614592565b92915050565b6000602082840312156145d4576145d3613c82565b5b60006145e2848285016145a9565b91505092915050565b6000815190506145fa81613c96565b92915050565b60006020828403121561461657614615613c82565b5b6000614624848285016145eb565b91505092915050565b600061463882613c8c565b915061464383614335565b92506146707fffffffffffffffffffffffffffffffffffffffffffffffffffffffffffffffff84846143fb565b905092915050565b600060408201905061468d6000830185614005565b61469a6020830184613d7a565b9392505050565b60006146ac82613c8c565b91506146b783613c8c565b92508282019050808211156146cf576146ce61428f565b5b92915050565b600081905092915050565b50565b60006146f06000836146d5565b91506146fb826146e0565b600082019050919050565b6000614711826146e3565b9150819050919050565b7f4e487b7100000000000000000000000000000000000000000000000000000000600052602260045260246000fd5b6000600282049050600182168061476257607f821691505b6020821081036147755761477461471b565b5b50919050565b600080fd5b7f4e487b7100000000000000000000000000000000000000000000000000000000600052604160045260246000fd5b6147b882613f59565b810181811067ffffffffffffffff821117156147d7576147d6614780565b5b80604052505050565b60006147ea613c78565b90506147f682826147af565b919050565b6000604082840312156148115761481061477b565b5b61481b60406147e0565b9050600061482b84828501613d38565b600083015250602061483f84828501613cad565b60208301525092915050565b60006040828403121561486157614860613c82565b5b600061486f848285016147fb565b91505092915050565b7f4f776e61626c653a206e6577206f776e657220697320746865207a65726f206160008201527f6464726573730000000000000000000000000000000000000000000000000000602082015250565b60006148d4602683613f1e565b91506148df82614878565b604082019050919050565b60006020820190508181036000830152614903816148c7565b9050919050565b600061491582613c8c565b915061492083613c8c565b92508282039050818111156149385761493761428f565b5b92915050565b600081905092915050565b600061495482613f13565b61495e818561493e565b935061496e818560208601613f2f565b80840191505092915050565b6000819050919050565b61499561499082613edf565b61497a565b82525050565b60006149a78285614949565b91506149b38284614984565b6020820191508190509392505050565b6149cc81614335565b82525050565b60006080820190506149e76000830187613ee9565b6149f460208301866149c3565b614a016040830185613ee9565b614a0e6060830184613ee9565b95945050505050565b7f4f776e61626c653a2063616c6c6572206973206e6f7420746865206f776e6572600082015250565b6000614a4d602083613f1e565b9150614a5882614a17565b602082019050919050565b60006020820190508181036000830152614a7c81614a40565b9050919050565b7f5265656e7472616e637947756172643a207265656e7472616e742063616c6c00600082015250565b6000614ab9601f83613f1e565b9150614ac482614a83565b602082019050919050565b60006020820190508181036000830152614ae881614aac565b9050919050565b60008190508160005260206000209050919050565b60006020601f8301049050919050565b600082821b905092915050565b600060088302614b517fffffffffffffffffffffffffffffffffffffffffffffffffffffffffffffffff82614b14565b614b5b8683614b14565b95508019841693508086168417925050509392505050565b6000614b8e614b89614b8484613c8c565b614112565b613c8c565b9050919050565b6000819050919050565b614ba883614b73565b614bbc614bb482614b95565b848454614b21565b825550505050565b600090565b614bd1614bc4565b614bdc818484614b9f565b505050565b5b81811015614c0057614bf5600082614bc9565b600181019050614be2565b5050565b601f821115614c4557614c1681614aef565b614c1f84614b04565b81016020851015614c2e578190505b614c42614c3a85614b04565b830182614be1565b50505b505050565b600082821c905092915050565b6000614c6860001984600802614c4a565b1980831691505092915050565b6000614c818383614c57565b9150826002028217905092915050565b614c9a82613f13565b67ffffffffffffffff811115614cb357614cb2614780565b5b614cbd825461474a565b614cc8828285614c04565b600060209050601f831160018114614cfb5760008415614ce9578287015190505b614cf38582614c75565b865550614d5b565b601f198416614d0986614aef565b60005b82811015614d3157848901518255600182019150602085019450602081019050614d0c565b86831015614d4e5784890151614d4a601f891682614c57565b8355505b6001600288020188555050505b505050505050565b7f4e487b7100000000000000000000000000000000000000000000000000000000600052602160045260246000fd5b600080fd5b600080fd5b60008085851115614db057614daf614d92565b5b83861115614dc157614dc0614d97565b5b6001850283019150848603905094509492505050565b600082905092915050565b6000614dee8383614dd7565b82614df98135613edf565b92506020821015614e3957614e347fffffffffffffffffffffffffffffffffffffffffffffffffffffffffffffffff83602003600802614b14565b831692505b505092915050565b60007fff0000000000000000000000000000000000000000000000000000000000000082169050919050565b6000614e798383614dd7565b82614e848135614e41565b92506001821015614ec457614ebf7fff0000000000000000000000000000000000000000000000000000000000000083600103600802614b14565b831692505b505092915050565b7f4e487b7100000000000000000000000000000000000000000000000000000000600052601260045260246000fd5b6000614f0682613c8c565b9150614f1183613c8c565b925082614f2157614f20614ecc565b5b828204905092915050565b6000819050919050565b614f47614f4282613c8c565b614f2c565b82525050565b6000614f598284614f36565b60208201915081905092915050565b600081519050919050565b6000819050602082019050919050565b6000614f8f8251613edf565b80915050919050565b6000614fa382614f68565b82614fad84614f73565b9050614fb881614f83565b92506020821015614ff857614ff37fffffffffffffffffffffffffffffffffffffffffffffffffffffffffffffffff83602003600802614b14565b831692505b5050919050565b60008160601b9050919050565b600061501782614fff565b9050919050565b60006150298261500c565b9050919050565b61504161503c82613d0f565b61501e565b82525050565b600061505282613cef565b9050919050565b60006150648261500c565b9050919050565b61507c61507782615047565b615059565b82525050565b600061508e8288615030565b60148201915061509e8287614984565b6020820191506150ae8286614f36565b6020820191506150be8285614f36565b6020820191506150ce828461506b565b6014820191508190509695505050505050565b600082825260208201905092915050565b60006150fd82614f68565b61510781856150e1565b9350615117818560208601613f2f565b61512081613f59565b840191505092915050565b60006040820190506151406000830185613d7a565b818103602083015261515281846150f2565b90509392505050565b600061516682614f68565b61517081856146d5565b9350615180818560208601613f2f565b80840191505092915050565b6000615198828461515b565b915081905092915050565b7f72616e646f6d42797465733a206661696c656400000000000000000000000000600082015250565b60006151d9601383613f1e565b91506151e4826151a3565b602082019050919050565b60006020820190508181036000830152615208816151cc565b905091905056fea2646970667358221220170b24cdd707a9f1352f4ff6d66443fa9848d75845dc135ea2e158c1574580e164736f6c6343000813003360806040523480156200001157600080fd5b506040518060400160405280600a81526020017f4a55535420746f6b656e000000000000000000000000000000000000000000008152506040518060400160405280600481526020017f4a5553540000000000000000000000000000000000000000000000000000000081525081600390816200008f919062000412565b508060049081620000a1919062000412565b505050620000c4620000b8620000ca60201b60201c565b620000d260201b60201c565b620004f9565b600033905090565b6000600560009054906101000a900473ffffffffffffffffffffffffffffffffffffffff16905081600560006101000a81548173ffffffffffffffffffffffffffffffffffffffff021916908373ffffffffffffffffffffffffffffffffffffffff1602179055508173ffffffffffffffffffffffffffffffffffffffff168173ffffffffffffffffffffffffffffffffffffffff167f8be0079c531659141344cd1fd0a4f28419497f9722a3daafe3b4186f6b6457e060405160405180910390a35050565b600081519050919050565b7f4e487b7100000000000000000000000000000000000000000000000000000000600052604160045260246000fd5b7f4e487b7100000000000000000000000000000000000000000000000000000000600052602260045260246000fd5b600060028204905060018216806200021a57607f821691505b60208210810362000230576200022f620001d2565b5b50919050565b60008190508160005260206000209050919050565b60006020601f8301049050919050565b600082821b905092915050565b6000600883026200029a7fffffffffffffffffffffffffffffffffffffffffffffffffffffffffffffffff826200025b565b620002a686836200025b565b95508019841693508086168417925050509392505050565b6000819050919050565b6000819050919050565b6000620002f3620002ed620002e784620002be565b620002c8565b620002be565b9050919050565b6000819050919050565b6200030f83620002d2565b620003276200031e82620002fa565b84845462000268565b825550505050565b600090565b6200033e6200032f565b6200034b81848462000304565b505050565b5b8181101562000373576200036760008262000334565b60018101905062000351565b5050565b601f821115620003c2576200038c8162000236565b62000397846200024b565b81016020851015620003a7578190505b620003bf620003b6856200024b565b83018262000350565b50505b505050565b600082821c905092915050565b6000620003e760001984600802620003c7565b1980831691505092915050565b6000620004028383620003d4565b9150826002028217905092915050565b6200041d8262000198565b67ffffffffffffffff811115620004395762000438620001a3565b5b62000445825462000201565b6200045282828562000377565b600060209050601f8311600181146200048a576000841562000475578287015190505b620004818582620003f4565b865550620004f1565b601f1984166200049a8662000236565b60005b82811015620004c4578489015182556001820191506020850194506020810190506200049d565b86831015620004e45784890151620004e0601f891682620003d4565b8355505b6001600288020188555050505b505050505050565b6117e080620005096000396000f3fe608060405234801561001057600080fd5b50600436106100f55760003560e01c806370a0823111610097578063a457c2d711610066578063a457c2d714610276578063a9059cbb146102a6578063dd62ed3e146102d6578063f2fde38b14610306576100f5565b806370a0823114610200578063715018a6146102305780638da5cb5b1461023a57806395d89b4114610258576100f5565b806323b872dd116100d357806323b872dd14610166578063313ce5671461019657806339509351146101b457806340c10f19146101e4576100f5565b806306fdde03146100fa578063095ea7b31461011857806318160ddd14610148575b600080fd5b610102610322565b60405161010f9190610f29565b60405180910390f35b610132600480360381019061012d9190610fe4565b6103b4565b60405161013f919061103f565b60405180910390f35b6101506103d7565b60405161015d9190611069565b60405180910390f35b610180600480360381019061017b9190611084565b6103e1565b60405161018d919061103f565b60405180910390f35b61019e610410565b6040516101ab91906110f3565b60405180910390f35b6101ce60048036038101906101c99190610fe4565b610419565b6040516101db919061103f565b60405180910390f35b6101fe60048036038101906101f99190610fe4565b610450565b005b61021a6004803603810190610215919061110e565b610466565b6040516102279190611069565b60405180910390f35b6102386104ae565b005b6102426104c2565b60405161024f919061114a565b60405180910390f35b6102606104ec565b60405161026d9190610f29565b60405180910390f35b610290600480360381019061028b9190610fe4565b61057e565b60405161029d919061103f565b60405180910390f35b6102c060048036038101906102bb9190610fe4565b6105f5565b6040516102cd919061103f565b60405180910390f35b6102f060048036038101906102eb9190611165565b610618565b6040516102fd9190611069565b60405180910390f35b610320600480360381019061031b919061110e565b61069f565b005b606060038054610331906111d4565b80601f016020809104026020016040519081016040528092919081815260200182805461035d906111d4565b80156103aa5780601f1061037f576101008083540402835291602001916103aa565b820191906000526020600020905b81548152906001019060200180831161038d57829003601f168201915b5050505050905090565b6000806103bf610722565b90506103cc81858561072a565b600191505092915050565b6000600254905090565b6000806103ec610722565b90506103f98582856108f3565b61040485858561097f565b60019150509392505050565b60006012905090565b600080610424610722565b90506104458185856104368589610618565b6104409190611234565b61072a565b600191505092915050565b610458610bf5565b6104628282610c73565b5050565b60008060008373ffffffffffffffffffffffffffffffffffffffff1673ffffffffffffffffffffffffffffffffffffffff168152602001908152602001600020549050919050565b6104b6610bf5565b6104c06000610dc9565b565b6000600560009054906101000a900473ffffffffffffffffffffffffffffffffffffffff16905090565b6060600480546104fb906111d4565b80601f0160208091040260200160405190810160405280929190818152602001828054610527906111d4565b80156105745780601f1061054957610100808354040283529160200191610574565b820191906000526020600020905b81548152906001019060200180831161055757829003601f168201915b5050505050905090565b600080610589610722565b905060006105978286610618565b9050838110156105dc576040517f08c379a00000000000000000000000000000000000000000000000000000000081526004016105d3906112da565b60405180910390fd5b6105e9828686840361072a565b60019250505092915050565b600080610600610722565b905061060d81858561097f565b600191505092915050565b6000600160008473ffffffffffffffffffffffffffffffffffffffff1673ffffffffffffffffffffffffffffffffffffffff16815260200190815260200160002060008373ffffffffffffffffffffffffffffffffffffffff1673ffffffffffffffffffffffffffffffffffffffff16815260200190815260200160002054905092915050565b6106a7610bf5565b600073ffffffffffffffffffffffffffffffffffffffff168173ffffffffffffffffffffffffffffffffffffffff1603610716576040517f08c379a000000000000000000000000000000000000000000000000000000000815260040161070d9061136c565b60405180910390fd5b61071f81610dc9565b50565b600033905090565b600073ffffffffffffffffffffffffffffffffffffffff168373ffffffffffffffffffffffffffffffffffffffff1603610799576040517f08c379a0000000000000000000000000000000000000000000000000000000008152600401610790906113fe565b60405180910390fd5b600073ffffffffffffffffffffffffffffffffffffffff168273ffffffffffffffffffffffffffffffffffffffff1603610808576040517f08c379a00000000000000000000000000000000000000000000000000000000081526004016107ff90611490565b60405180910390fd5b80600160008573ffffffffffffffffffffffffffffffffffffffff1673ffffffffffffffffffffffffffffffffffffffff16815260200190815260200160002060008473ffffffffffffffffffffffffffffffffffffffff1673ffffffffffffffffffffffffffffffffffffffff168152602001908152602001600020819055508173ffffffffffffffffffffffffffffffffffffffff168373ffffffffffffffffffffffffffffffffffffffff167f8c5be1e5ebec7d5bd14f71427d1e84f3dd0314c0f7b2291e5b200ac8c7c3b925836040516108e69190611069565b60405180910390a3505050565b60006108ff8484610618565b90507fffffffffffffffffffffffffffffffffffffffffffffffffffffffffffffffff8114610979578181101561096b576040517f08c379a0000000000000000000000000000000000000000000000000000000008152600401610962906114fc565b60405180910390fd5b610978848484840361072a565b5b50505050565b600073ffffffffffffffffffffffffffffffffffffffff168373ffffffffffffffffffffffffffffffffffffffff16036109ee576040517f08c379a00000000000000000000000000000000000000000000000000000000081526004016109e59061158e565b60405180910390fd5b600073ffffffffffffffffffffffffffffffffffffffff168273ffffffffffffffffffffffffffffffffffffffff1603610a5d576040517f08c379a0000000000000000000000000000000000000000000000000000000008152600401610a5490611620565b60405180910390fd5b610a68838383610e8f565b60008060008573ffffffffffffffffffffffffffffffffffffffff1673ffffffffffffffffffffffffffffffffffffffff16815260200190815260200160002054905081811015610aee576040517f08c379a0000000000000000000000000000000000000000000000000000000008152600401610ae5906116b2565b60405180910390fd5b8181036000808673ffffffffffffffffffffffffffffffffffffffff1673ffffffffffffffffffffffffffffffffffffffff16815260200190815260200160002081905550816000808573ffffffffffffffffffffffffffffffffffffffff1673ffffffffffffffffffffffffffffffffffffffff168152602001908152602001600020600082825401925050819055508273ffffffffffffffffffffffffffffffffffffffff168473ffffffffffffffffffffffffffffffffffffffff167fddf252ad1be2c89b69c2b068fc378daa952ba7f163c4a11628f55a4df523b3ef84604051610bdc9190611069565b60405180910390a3610bef848484610e94565b50505050565b610bfd610722565b73ffffffffffffffffffffffffffffffffffffffff16610c1b6104c2565b73ffffffffffffffffffffffffffffffffffffffff1614610c71576040517f08c379a0000000000000000000000000000000000000000000000000000000008152600401610c689061171e565b60405180910390fd5b565b600073ffffffffffffffffffffffffffffffffffffffff168273ffffffffffffffffffffffffffffffffffffffff1603610ce2576040517f08c379a0000000000000000000000000000000000000000000000000000000008152600401610cd99061178a565b60405180910390fd5b610cee60008383610e8f565b8060026000828254610d009190611234565b92505081905550806000808473ffffffffffffffffffffffffffffffffffffffff1673ffffffffffffffffffffffffffffffffffffffff168152602001908152602001600020600082825401925050819055508173ffffffffffffffffffffffffffffffffffffffff16600073ffffffffffffffffffffffffffffffffffffffff167fddf252ad1be2c89b69c2b068fc378daa952ba7f163c4a11628f55a4df523b3ef83604051610db19190611069565b60405180910390a3610dc560008383610e94565b5050565b6000600560009054906101000a900473ffffffffffffffffffffffffffffffffffffffff16905081600560006101000a81548173ffffffffffffffffffffffffffffffffffffffff021916908373ffffffffffffffffffffffffffffffffffffffff1602179055508173ffffffffffffffffffffffffffffffffffffffff168173ffffffffffffffffffffffffffffffffffffffff167f8be0079c531659141344cd1fd0a4f28419497f9722a3daafe3b4186f6b6457e060405160405180910390a35050565b505050565b505050565b600081519050919050565b600082825260208201905092915050565b60005b83811015610ed3578082015181840152602081019050610eb8565b60008484015250505050565b6000601f19601f8301169050919050565b6000610efb82610e99565b610f058185610ea4565b9350610f15818560208601610eb5565b610f1e81610edf565b840191505092915050565b60006020820190508181036000830152610f438184610ef0565b905092915050565b600080fd5b600073ffffffffffffffffffffffffffffffffffffffff82169050919050565b6000610f7b82610f50565b9050919050565b610f8b81610f70565b8114610f9657600080fd5b50565b600081359050610fa881610f82565b92915050565b6000819050919050565b610fc181610fae565b8114610fcc57600080fd5b50565b600081359050610fde81610fb8565b92915050565b60008060408385031215610ffb57610ffa610f4b565b5b600061100985828601610f99565b925050602061101a85828601610fcf565b9150509250929050565b60008115159050919050565b61103981611024565b82525050565b60006020820190506110546000830184611030565b92915050565b61106381610fae565b82525050565b600060208201905061107e600083018461105a565b92915050565b60008060006060848603121561109d5761109c610f4b565b5b60006110ab86828701610f99565b93505060206110bc86828701610f99565b92505060406110cd86828701610fcf565b9150509250925092565b600060ff82169050919050565b6110ed816110d7565b82525050565b600060208201905061110860008301846110e4565b92915050565b60006020828403121561112457611123610f4b565b5b600061113284828501610f99565b91505092915050565b61114481610f70565b82525050565b600060208201905061115f600083018461113b565b92915050565b6000806040838503121561117c5761117b610f4b565b5b600061118a85828601610f99565b925050602061119b85828601610f99565b9150509250929050565b7f4e487b7100000000000000000000000000000000000000000000000000000000600052602260045260246000fd5b600060028204905060018216806111ec57607f821691505b6020821081036111ff576111fe6111a5565b5b50919050565b7f4e487b7100000000000000000000000000000000000000000000000000000000600052601160045260246000fd5b600061123f82610fae565b915061124a83610fae565b925082820190508082111561126257611261611205565b5b92915050565b7f45524332303a2064656372656173656420616c6c6f77616e63652062656c6f7760008201527f207a65726f000000000000000000000000000000000000000000000000000000602082015250565b60006112c4602583610ea4565b91506112cf82611268565b604082019050919050565b600060208201905081810360008301526112f3816112b7565b9050919050565b7f4f776e61626c653a206e6577206f776e657220697320746865207a65726f206160008201527f6464726573730000000000000000000000000000000000000000000000000000602082015250565b6000611356602683610ea4565b9150611361826112fa565b604082019050919050565b6000602082019050818103600083015261138581611349565b9050919050565b7f45524332303a20617070726f76652066726f6d20746865207a65726f2061646460008201527f7265737300000000000000000000000000000000000000000000000000000000602082015250565b60006113e8602483610ea4565b91506113f38261138c565b604082019050919050565b60006020820190508181036000830152611417816113db565b9050919050565b7f45524332303a20617070726f766520746f20746865207a65726f20616464726560008201527f7373000000000000000000000000000000000000000000000000000000000000602082015250565b600061147a602283610ea4565b91506114858261141e565b604082019050919050565b600060208201905081810360008301526114a98161146d565b9050919050565b7f45524332303a20696e73756666696369656e7420616c6c6f77616e6365000000600082015250565b60006114e6601d83610ea4565b91506114f1826114b0565b602082019050919050565b60006020820190508181036000830152611515816114d9565b9050919050565b7f45524332303a207472616e736665722066726f6d20746865207a65726f20616460008201527f6472657373000000000000000000000000000000000000000000000000000000602082015250565b6000611578602583610ea4565b91506115838261151c565b604082019050919050565b600060208201905081810360008301526115a78161156b565b9050919050565b7f45524332303a207472616e7366657220746f20746865207a65726f206164647260008201527f6573730000000000000000000000000000000000000000000000000000000000602082015250565b600061160a602383610ea4565b9150611615826115ae565b604082019050919050565b60006020820190508181036000830152611639816115fd565b9050919050565b7f45524332303a207472616e7366657220616d6f756e742065786365656473206260008201527f616c616e63650000000000000000000000000000000000000000000000000000602082015250565b600061169c602683610ea4565b91506116a782611640565b604082019050919050565b600060208201905081810360008301526116cb8161168f565b9050919050565b7f4f776e61626c653a2063616c6c6572206973206e6f7420746865206f776e6572600082015250565b6000611708602083610ea4565b9150611713826116d2565b602082019050919050565b60006020820190508181036000830152611737816116fb565b9050919050565b7f45524332303a206d696e7420746f20746865207a65726f206164647265737300600082015250565b6000611774601f83610ea4565b915061177f8261173e565b602082019050919050565b600060208201905081810360008301526117a381611767565b905091905056fea26469706673582212205549c8f446cc8d6a960f8a9ba8643b74b7a57e12330df84eee5cba4aceed8c5864736f6c63430008130033",
  "linkReferences": {},
  "deployedLinkReferences": {}
}